:100000000C945D000C9485000C9485000C94850084
:100010000C9485000C9485000C9485000C9485004C
:100020000C9485000C9485000C9485000C9485003C
:100030000C9485000C9485000C9485000C9485002C
:100040000C943F020C9485000C94AF020C9489022E
:100050000C9485000C9485000C9485000C9485000C
:100060000C9485000C9485000000000024002700FB
:100070002A0000000000250028002B0004040404CE
:100080000404040402020202020203030303030342
:10009000010204081020408001020408102001021F
:1000A00004081020000000080002010000030407FB
:1000B0000000000000000000680311241FBECFEF05
:1000C000D8E0DEBFCDBF11E0A0E0B1E0EAE3F7E0A9
:1000D00002C005900D92A432B107D9F721E0A4E245
:1000E000B1E001C01D92AA3CB207E1F710E0CDE5F6
:1000F000D0E004C02197FE010E949503CC35D107C2
:10010000C9F70E94E1020C949B030C940000E1EB00
:10011000F0E02491EDE9F0E09491E9E8F0E0E49179
:10012000EE23C9F0222339F0233001F1A8F4213065
:1001300019F1223029F1F0E0EE0FFF1FEE58FF4FCA
:10014000A591B4912FB7F894EC91811126C09095A8
:100150009E239C932FBF08952730A9F02830C9F023
:10016000243049F7209180002F7D03C0209180002A
:100170002F7720938000DFCF24B52F7724BDDBCFEE
:1001800024B52F7DFBCF2091B0002F772093B000B6
:10019000D2CF2091B0002F7DF9CF9E2BDACFFC017A
:1001A000538D448D252F30E0842F90E0821B930BDC
:1001B000541710F0CF96089501970895FC01918D82
:1001C000828D981761F0A28DAE0FBF2FB11D5D9685
:1001D0008C91928D9F5F9F73928F90E008958FEF27
:1001E0009FEF0895FC01918D828D981731F0828DDB
:1001F000E80FF11D858D90E008958FEF9FEF089532
:10020000FC01918D228D892F90E0805C9F4F821B95
:1002100091098F7399270895FC01A48DA80FB92F18
:10022000B11DA35ABF4F2C91848D90E001968F731E
:100230009927848FA689B7892C93A089B1898C913D
:10024000837080648C93938D848D981306C002888C
:10025000F389E02D80818F7D80830895EF92FF9256
:100260000F931F93CF93DF93EC0181E0888F9B8DD9
:100270008C8D98131AC0E889F989808185FF15C093
:100280009FB7F894EE89FF896083E889F9898081B6
:100290008370806480839FBF81E090E0DF91CF9185
:1002A0001F910F91FF90EF900895F62E0B8D10E0A7
:1002B0000F5F1F4F0F731127E02E8C8D8E110CC016
:1002C0000FB607FCFACFE889F989808185FFF5CF61
:1002D000CE010E940C01F1CFEB8DEC0FFD2FF11D33
:1002E000E35AFF4FF0829FB7F8940B8FEA89FB899E
:1002F00080818062CFCFCF93DF93EC01888D8823FC
:10030000B9F0AA89BB89E889F9898C9185FD03C078
:10031000808186FD0DC00FB607FCF7CF8C9185FF5D
:10032000F2CF808185FFEDCFCE010E940C01E9CF95
:10033000DF91CF9108958DE291E00E94000121E0CC
:10034000892B09F420E0822F089580E090E0892B2A
:1003500029F00E949B0181110C94000008953FB781
:10036000F8948091290190912A01A0912B01B091DC
:100370002C0126B5A89B05C02F3F19F00196A11DA1
:10038000B11D3FBFBA2FA92F982F8827BC01CD01DF
:10039000620F711D811D911D42E0660F771F881F3E
:1003A000991F4A95D1F708958F929F92AF92BF926D
:1003B000CF92DF92EF92FF920E94AF014B015C015E
:1003C00088EEC82E83E0D82EE12CF12C0E94AF01DC
:1003D000681979098A099B09683E7340810591056E
:1003E000A8F321E0C21AD108E108F10888EE880ECE
:1003F00083E0981EA11CB11CC114D104E104F104D6
:1004000029F7FF90EF90DF90CF90BF90AF909F9033
:100410008F900895AF92BF92CF92DF92EF92FF92AA
:100420000F931F93CF93DF936C017B018B01040F1C
:10043000151FEB015E01AE18BF08C017D10759F0B8
:100440006991D601ED91FC910190F081E02DC601FA
:100450000995892B79F7C501DF91CF911F910F91F4
:10046000FF90EF90DF90CF90BF90AF90089542E063
:1004700050E062E171E08DE291E00C940A021F927B
:100480000F920FB60F9211242F933F938F939F9348
:10049000AF93BF938091250190912601A0912701F0
:1004A000B09128013091240123E0230F2D3758F516
:1004B0000196A11DB11D20932401809325019093E5
:1004C0002601A0932701B0932801809129019091E2
:1004D0002A01A0912B01B0912C010196A11DB11D03
:1004E0008093290190932A01A0932B01B0932C01B2
:1004F000BF91AF919F918F913F912F910F900FBE20
:100500000F901F90189526E8230F0296A11DB11D8C
:10051000D2CF1F920F920FB60F9211242F933F93B9
:100520004F935F936F937F938F939F93AF93BF93FB
:10053000EF93FF938DE291E00E940C01FF91EF9108
:10054000BF91AF919F918F917F916F915F914F91EB
:100550003F912F910F900FBE0F901F9018951F92F3
:100560000F920FB60F9211242F938F939F93EF93B7
:10057000FF93E0913D01F0913E018081E0914301C4
:10058000F091440182FD1BC09081809146018F5FF4
:100590008F7320914701821741F0E0914601F0E00E
:1005A000E35DFE4F958F80934601FF91EF919F9100
:1005B0008F912F910F900FBE0F901F9018958081F3
:1005C000F4CF789484B5826084BD84B5816084BDA5
:1005D00085B5826085BD85B5816085BD80916E00E1
:1005E000816080936E001092810080918100826012
:1005F000809381008091810081608093810080914F
:1006000080008160809380008091B100846080933D
:10061000B1008091B00081608093B00080917A0039
:10062000846080937A0080917A00826080937A005F
:1006300080917A00816080937A0080917A0080684E
:1006400080937A001092C100EDE9F0E02491E9E88E
:10065000F0E08491882399F090E0880F991FFC01C5
:10066000E859FF4FA591B491FC01EE58FF4F8591D9
:1006700094918FB7F894EC91E22BEC938FBFC0E08C
:10068000D0E046E050E065E171E08DE291E00E944B
:100690000A020E94370281E00E9487000E94D40172
:1006A00047E050E06CE171E08DE291E00E940A02C7
:1006B0000E94370280E00E9487000E94D4012097A8
:1006C00001F30E949B018823E1F20E940000D9CF30
:1006D000EDE2F1E01382128288EE93E0A0E0B0E058
:1006E00084839583A683B78384E091E0918380839C
:1006F00085EC90E09587848784EC90E097878687E7
:1007000080EC90E0918B808B81EC90E0938B828BDE
:1007100082EC90E0958B848B86EC90E0978B868BB7
:10072000118E128E138E148E0895EE0FFF1F0590FA
:0A073000F491E02D0994F894FFCF36
:10073A00000000002E010A02CF007B010001DE004A
:10074A00F2000D0A006C6564206F6E004C6564202F
:04075A006F66660060
:00000001FF
