:020000040000FA
:100000000C9482010C94B3010C94B3010C94B301D1
:100010000C94B3010C94B3010C94B3010C94B30190
:100020000C94B3010C94B3010C94B3010C94B30180
:100030000C94B3010C94B3010C94B3010C94B30170
:100040000C94B3010C94B3010C94B3010C94B30160
:100050000C94B3010C94B3010C94B3010C94412A99
:100060000C94B3010C94B52A0C948B2A0C94B30114
:100070000C94B3010C94B3010C94B3010C94B30130
:100080000C94B3010C94B3010C94B3010C94B30120
:100090000C94B3010C94B3010C94B3010C94B30110
:1000A0000C94B3010C94B3010C94B3010C94B30100
:1000B0000C94B3010C94B3010C94B3010C94B301F0
:1000C0000C94B3010C94B3010C94B3010C94B301E0
:1000D0000C94B3010C94B3010C94B3010C94B301D0
:1000E0000C94B3010C943A020C9406200C94A71CB7
:1000F0000C941A030C9409250C9467200C940603A5
:100100000C945E120C9471200C94A80F0C940D0B9F
:100110000C944C020C943E0F0C945C1D0C945002F9
:100120000C9442020C9494110C9430120C94C10F54
:100130000C94FB120C94CA020C9470120C948A1248
:100140000C9409020C94900F0C94C00F0C942A028A
:100150000C94362B0C9430020C9428030C947711D9
:100160000C9481200C94AD030C9404020C949723FE
:100170000C9427020C94A41D0C941F020C945A0298
:100180000C9404250C94F7020C944D110C94851DCD
:100190000C941D250C94AC0A0C9448020C94230278
:1001A0000C94241C0C9487260C94FA1F0C94791D33
:1001B0000C943E020C94730F0C943D1C0C9438115B
:1001C0000C94BE0F0C941B020C94961D0C940224EC
:1001D0000C9434020C9428200C9450250C94551D3A
:1001E0000C9433250C9480120C944D0F0C945602F1
:1001F0000C9469240C9460030C94201300000A0BE7
:1002000002090C0D0E0807030401000000000000A5
:1002100000000000000000000000000000000000DE
:10022000000000000000000012111000000000009B
:1002300000000000000000000000000000000000BE
:10024000000000002200250028002B002E003100B5
:10025000340002010000050108010B01000021002B
:10026000240027002A002D00300033000101000087
:10027000040107010A010505050507050808080826
:10028000020202020A0A080804040404010101012E
:100290000101010103030303030303030407070729
:1002A0000C0C0C0C0C0C0C0C0202020206060606CE
:1002B000060606060B0B0B0B0B0B0B0B010210209B
:1002C000200808102040102040800201020108048C
:1002D0000201010204081020408080402010080420
:1002E0000201800402018040201008040201080479
:1002F00002010102040810204080010204081020BD
:100300004080362B11241FBECFEFD1E2DEBFCDBF20
:1003100000E00CBF13E0A0E0B2E0EAEAF9E600E09A
:100320000BBF02C007900D92AA36B107D9F72AE099
:10033000AAE6B3E001C01D92A030B207E1F711E0D8
:10034000C2E8D1E000E006C021970109802FFE013C
:100350000E947B33C138D10780E00807A9F70E94CB
:10036000E42B0C94D3340C94000090E0FC01E45492
:10037000FD4F24918A589D4FFC018491882399F068
:1003800090E0880F991FFC01E45AFD4FA591B491AC
:10039000FC01EE5BFD4F859194918FB7F894EC9141
:1003A000E22BEC938FBF0895282F30E0F901E45041
:1003B000FE4F9491F901E454FD4F44912A583D4F6A
:1003C000F9012491222309F435C0992311F19150A8
:1003D0009231F8F4E92FF0E08827EE50FE4F8F4F6E
:1003E0000C947B332302270204021B021F02090222
:1003F0002A02300234023A023E02420248024C0211
:100400000902500256025A02809180008F77809331
:100410008000E22FF0E0EE0FFF1FEE5BFD4FA59195
:10042000B4918FB7F894EC91611148C040954E2378
:100430004C938FBF0895809180008F7DE8CF80918D
:100440008000877FE4CF84B58F7784BDE2CF84B509
:100450008F7DFBCF8091B0008F778093B000D9CF94
:100460008091B0008F7DF9CF809190008F7780933D
:100470009000CFCF809190008F7DF9CF8091900038
:10048000877FF5CF8091A0008F778093A000C1CFA8
:100490008091A0008F7DF9CF8091A000877FF5CF5C
:1004A000809120018F7780932001B3CF809120012C
:1004B0008F7DF9CF80912001877FF5CF4E2BB8CF6C
:1004C0003FB7F89480917B0690917C06A0917D06C1
:1004D000B0917E0626B5A89B05C02F3F19F0019666
:1004E000A11DB11D3FBFBA2FA92F982F8827BC018E
:1004F000CD01620F711D811D911D42E0660F771FB6
:10050000881F991F4A95D1F708958F929F92AF92B5
:10051000BF92CF92DF92EF92FF924B015C010E945B
:1005200060026B017C010E9460026C197D098E09DA
:100530009F09683E734081059105A8F321E0821A66
:100540009108A108B10888EEC80E83E0D81EE11C0E
:10055000F11C81149104A104B10429F7FF90EF90DC
:10056000DF90CF90BF90AF909F908F9008952FB75E
:10057000F894609177067091780680917906909151
:100580007A062FBF0895DC01ED91FC910190F08176
:10059000E02D1994AF92BF92CF92DF92EF92FF922B
:1005A0000F931F93CF93DF936C017B018B01040F9B
:1005B000151FEB015E01AE18BF08C017D10759F037
:1005C0006991D601ED91FC910190F081E02DC60179
:1005D0001995892B79F7C501DF91CF911F910F9163
:1005E000FF90EF90DF90CF90BF90AF900895FC0107
:1005F000538D448D252F30E0842F90E0821B930B88
:10060000541710F0CF96089501970895FC01918D2D
:10061000828D981761F0A28DAE0FBF2FB11D5D9630
:100620008C91928D9F5F9F73928F90E008958FEFD2
:100630009FEF0895FC01918D828D981731F0828D86
:10064000E80FF11D858D90E008958FEF9FEF0895DD
:10065000FC01918D228D892F90E0805C9F4F821B41
:1006600091098F739927089581E898E00E942803E3
:1006700021E0892B09F420E0822F0895FC01A48D4C
:10068000A80FB92FB11DA35ABF4F2C91848D90E0B4
:1006900001968F739927848FA689B7892C93A08997
:1006A000B1898C91837080648C93938D848D981321
:1006B00006C00288F389E02D80818F7D80830895B4
:1006C000EF92FF920F931F93CF93DF93EC0181E0A2
:1006D000888F9B8D8C8D98131AC0E889F989808149
:1006E00085FF15C09FB7F894EE89FF896083E8897C
:1006F000F98980818370806480839FBF81E090E06E
:10070000DF91CF911F910F91FF90EF900895F62EFA
:100710000B8D10E00F5F1F4F0F731127E02E8C8D94
:100720008E110CC00FB607FCFACFE889F9898081D9
:1007300085FFF5CFCE010E943E03F1CFEB8DEC0F8C
:10074000FD2FF11DE35AFF4FF0829FB7F8940B8FF6
:10075000EA89FB8980818062CFCFCF93DF93EC0160
:10076000888D8823B9F0AA89BB89E889F9898C9199
:1007700085FD03C0808186FD0DC00FB607FCF7CF55
:100780008C9185FFF2CF808185FFEDCFCE010E9455
:100790003E03E9CFDF91CF91089580E090E0892B6F
:1007A00029F00E94340381110E94000080E090E053
:1007B000892B49F080E090E0892B29F00E9400000D
:1007C00081110E94000080E090E0892B49F080E0D8
:1007D00090E0892B29F00E94000081110E94000006
:1007E00080E090E0892B49F080E090E0892B29F0AF
:1007F0000E94000081110C94000008958FB7F894B6
:1008000080913B048FBF089561E0FC0184810E94C8
:10081000D40180913A04811110923A0408958CBD5C
:100820009DBD0895CF93DF93EC0180913A0481112F
:1008300009C081E080933A0480911E0990911F09BC
:100840000E940F0460E08C81DF91CF910C94D40161
:10085000CF93CFB7F89480913904811124C0EBEA8B
:10086000F2E08491E1EFF2E09491E82FF0E0EE0FF6
:10087000FF1FE45AFD4FA591B491EC91E92321F4B7
:1008800061E085E30E94D40185E30E94B5018CB547
:1008900080618CBD8CB580648CBD84E30E94B50101
:1008A00083E30E94B501809139048F5F80933904FE
:1008B000CFBFCF9108958823E9F0A2E4B4E025E00A
:1008C00014969C91149789130DC095E0899FF001AF
:1008D0001124EE5BFB4F848114968C931382128259
:1008E00014820895992331F0929FD0011124AE5BB8
:1008F000BB4FE6CF08958823A1F09091410499233E
:1009000081F08F3F29F480914F0590915005089513
:1009100095E0899FF0011124EE5BFB4F828193816A
:10092000089590E080E008958EBD00000DB407FEAC
:10093000FDCF8EB508958FEF0C9494040F931F9301
:10094000CF93DF93EC010E94B7028B010E949B04BE
:100950008F3F69F00E94B702601B710B6C177D0717
:10096000A8F380E0DF91CF911F910F91089581E06E
:10097000F9CF8F929F92AF92BF92FF920F931F93E6
:10098000CF93DF93EC01F62E49015A018E81882323
:1009900089F08F8198859C012F5F3F4F38872F8387
:1009A0008230924018F40E949B04F3CFCE010E9443
:1009B00004041E82CE010E9412048CE291E00E9487
:1009C0009E048F2D80640E94940408E110E0D501FC
:1009D000C401002E04C0B695A795979587950A94F3
:1009E000D2F70E94940408501109083F8FEF1807AE
:1009F00071F785E9FF2021F028E087E8F2128FEFF8
:100A00000E94940410E00E949B048A8787FF04C020
:100A10001F3F11F01F5FF7CFDF91CF911F910F9113
:100A2000FF90BF90AF909F908F900895CF92DF92EC
:100A3000EF92FF920F93CF93DF93EC01690182E174
:100A4000411551056105710599F08B85833039F0A9
:100A500089E0440F551F661F771F8A95D1F79A01C9
:100A6000AB0168E1CE010E94B904882319F084E04B
:100A70008D832DC08EEF0E94940476018EEFD81ADC
:100A8000F70181917F010E949404EC14FD04C1F7E9
:100A90008FEF0E9494048FEF0E9494040E949B04A5
:100AA0008A878F71853071F4011116C0CE010E94C2
:100AB000040481E0DF91CF910F91FF90EF90DF90E0
:100AC000CF90089581E18D83CE010E940404CE0170
:100AD0000E94040480E0EECF88E592E00E949E042C
:100AE000811102C085E1C4CF20E030E0A9016DE0B2
:100AF000CE010E94B904882311F084E1B9CF0E948D
:100B00009B048111FACFD2CF0F9340913D045091B5
:100B10003E0460913F047091400441155105610508
:100B2000710599F0082F2FE736E080917F089091AA
:100B300080080E941605882349F010923D04109207
:100B40003E0410923F041092400481E00F910895FA
:100B50000F93CF93C82F80913C04811105C0C1E051
:100B60008C2FCF910F910895409101025091020274
:100B700060910302709104020C2F2FE736E0809100
:100B80007F08909180080E941605811102C0C0E084
:100B9000E7CFCC2321F381E00E9484058823B9F3B9
:100BA00010923C04DDCF9F92AF92BF92CF92DF9222
:100BB000EF92FF920F931F93CF93DF936B017C0112
:100BC000942E8091010290910202A0910302B091B3
:100BD00004028C159D05AE05BF0509F494C081E0A3
:100BE0000E94A805882389F1C0917F08D0918008D0
:100BF0008E81882371F088819981AA81BB81C81672
:100C0000D906EA06FB0629F48F819885892B09F419
:100C100043C0C882D982EA82FB828B85A7019601F4
:100C2000833039F099E0220F331F441F551F9A95E6
:100C3000D1F761E1CE010E94B904882391F083E0ED
:100C40008D83CE010E94040480E0DF91CF911F913B
:100C50000F91FF90EF90DF90CF90BF90AF909F905B
:100C600008950E94B7028B010E949B048A878F3FE0
:100C700069F40E94B702601B710B6D327140A0F3E2
:100C80008FE08D83CE010E940404DBCF8E3F69F597
:100C900018861F8281E08E830FE716E08FE7A82E6B
:100CA00088E0B82E0E949B04F80181938F01AE1654
:100CB000BF06C1F78F8198859E5F98878F832985AE
:100CC000222319F081159240B0F08E81882399F08B
:100CD0008F8198859C012F5F3F4F38872F8382300B
:100CE000924028F40E949B04F3CF8DE0CACFCE013E
:100CF0000E9404041E82C0920102D0920202E0927D
:100D00000302F092040240913C04492940933C04C0
:100D100081E09BCF8F929F92AF92BF92CF92DF9252
:100D2000EF92FF92CF9320E239E030938008209336
:100D30007F08882309F46DC040E060E070E0CB01DB
:100D40000E94D30581110BC080E0CF91FF90EF90FE
:100D5000DF90CF90BF90AF909F908F90089580913B
:100D60003D088F7789F78091490890914A08A091B2
:100D70004B08B0914C0884369105A105B10520F3CC
:100D8000C0904508D0904608E0904708F090480889
:100D9000C114D104E104F104B9F240E0C701B60185
:100DA0000E94D305882381F280918A0690918B0658
:100DB0008115924049F6A0918F06AA2329F26091ED
:100DC0008D0670918E066115710509F4BDCF2091D5
:100DD0008C06222309F4B8CFA0933E092093300952
:100DE00090E080E030E0E1E0F0E0C82FAF01082EB5
:100DF00002C0440F551F0A94E2F72417350769F023
:100E000041E0480F01968930910579F740933909FF
:100E10009BCFC12CD12C7601C0CF80933909209172
:100E200095063091960650E040E02115310541F4D9
:100E30002091A3063091A4064091A5065091A606E4
:100E40002093310930933209409333095093340988
:100E500046015701860E971EA11CB11C80923F09C6
:100E600090924009A0924109B0924209E091900607
:100E7000F0919106F0934509E0934409B0E00E9497
:100E80003733DC01CB01880D991DAA1DBB1D809352
:100E9000460990934709A0934809B093490925E072
:100EA000EE0FFF1F2A95E1F7E150FE4FEF2FFF27CE
:100EB000E6958E0F9F1FA11DB11D80933A09909357
:100EC0003B09A0933C09B0933D0980909206909015
:100ED0009306B12CA12C8114910441F480909F06BB
:100EE0009090A006A090A106B090A206C81AD90AB8
:100EF000EA0AFB0AC80CD91CEA1CFB1C04C0F694C5
:100F0000E794D794C794CA95D2F7C0923509D09286
:100F10003609E0923709F092380985EFC8168FE05C
:100F2000D806E104F10428F48CE08093430981E0C1
:100F30000CCF80E125EFC2162FEFD206E104F104B9
:100F4000A0F38091AB069091AC06A091AD06B09154
:100F5000AE068093460990934709A0934809B09341
:100F6000490980E2E2CF4F925F926F927F928F9217
:100F70009F92AF92BF92CF92DF92EF92FF920F9328
:100F80001F93CF93DF93EC0142305105610571054A
:100F900090F480E0DF91CF911F910F91FF90EF903F
:100FA000DF90CF90BF90AF909F908F907F906F9089
:100FB0005F904F90089589859A85AB85BC85019691
:100FC000A11DB11D84179507A607B70710F3CB889D
:100FD000DC88ED88FE888F89803109F042C0BB270C
:100FE000A72F962F852F480159012A013B01C80ED2
:100FF000D91EEA1EFB1E8091010290910202A0916F
:101000000302B0910402C816D906EA06FB0699F558
:101010008F898031C1F5B301A20155276627772753
:10102000440F551F4158594FFA0191828082809197
:101030003C04816080933C048A89823080F08D81F9
:101040009E81AF81B8858C0D9D1DAE1DBF1D809307
:101050003D0490933E04A0933F04B093400481E08C
:1010600099CFDB01CA01E7E0B695A79597958795DB
:10107000EA95D1F7B8CF40E0C701B6010E94D30589
:101080008111C6CF86CFB301A2014F7755276627BE
:101090007727440F551F440F551F4158594FFA01E8
:1010A00080829182A282B382C2CF8F929F92AF92AE
:1010B000BF92CF92DF92EF92FF920F931F93CF9345
:1010C000DF93FC0181859285A385B4850196A11DDE
:1010D000B11D84179507A607B70770F480E0DF916C
:1010E000CF911F910F91FF90EF90DF90CF90BF9025
:1010F000AF909F908F90089583889488A588B68834
:101100008789803189F5BB27A72F962F852FE90185
:101110006A017B018F01BC01CD01680D791D8A1D1B
:101120009B1D8090010290900202A0900302B0905B
:10113000040286169706A806B90601F5F801878904
:10114000803111F5DD24EE24FF24F601EE0FFF1FA0
:10115000E158F94F80819181B0E0A0E088839983C4
:10116000AA83BB8381E0BBCFDB01CA01C7E0B69590
:10117000A79597958795CA95D1F7C9CF40E00E946A
:10118000D3058111DBCFAACFE894C7F8DD24EE2484
:10119000FF24F601EE0FFF1FEE0FFF1FE158F94F7E
:1011A00080819181A281B381BF70D8CF8F929F92AD
:1011B000AF92BF92CF92DF92EF92FF920F931F9365
:1011C000CF93DF93EC018D8181110EC080E0DF9120
:1011D000CF911F910F91FF90EF90DF90CF90BF9034
:1011E000AF909F908F9008950B891C892D893E891F
:1011F000041715072607370748F34A015B018230B9
:1012000031F48A869B86AC86BD8681E0E0CF81146E
:101210009104A104B10449F41E821F821886198624
:101220001A861B861C861D86F0CF0A851B852C8599
:101230003D85EB8DFC8D858590E00996B901A8016F
:101240004150510961097109082E04C076956795CE
:10125000579547950A94D2F775016401E1E0CE1ADB
:10126000D108E108F10804C0F694E794D794C79434
:101270008A95D2F7C416D506E606F70620F0012BAC
:10128000022B032B11F58F89988DA98DBA8D8E8332
:101290009F83A887B9878E010A5F1F4FC114D104AD
:1012A000E104F10409F4ADCF4E815F816885798551
:1012B00098018B8D9C8D0E94550891E0C91AD10828
:1012C000E108F1088111EACF81CFC41AD50AE60AF4
:1012D000F70AE1CF3F924F925F926F927F928F9287
:1012E0009F92AF92BF92CF92DF92EF92FF920F93B5
:1012F0001F93CF93DF93CDB7DEB72C970FB6F8943B
:10130000DEBF0FBECDBF5C01DC015B968D909C9073
:101310005C9716964D905D906D907C901997411456
:1013200051046104710409F468C0BFEF4B1A5B0AF1
:101330006B0A7B0A312CF40181859285A385B485E3
:101340009C01AD012F5F3F4F4F4F5F4F29873A8779
:101350004B875C87730162011D821E821F82188683
:10136000F40181859285A385B4852D813E814F81CD
:101370005885281739074A075B0708F056C0898542
:101380009A85AB85BC858C159D05AE05BF0550F4CF
:1013900082E0C82ED12CE12CF12C92E0492E512C68
:1013A000612C712C9E012F5F3F4FB701A601C40134
:1013B0000E9455088823C9F189819A81AB81BC813B
:1013C000892B8A2B8B2B09F1260137019FEF491AB4
:1013D000590A690A790A2D813E814F8158852F5F0C
:1013E0003F4F4F4F5F4F2D833E834F8358873FEFD3
:1013F000C31AD30AE30AF30AB3CFF4014080518041
:10140000628073803324339496CFC414D504E604E9
:10141000F70409F70FEF1FEF2FEF3FE0B701A60129
:10142000C4010E94B307811119C080E02C960FB649
:10143000F894DEBF0FBECDBFDF91CF911F910F910A
:10144000FF90EF90DF90CF90BF90AF909F908F90E4
:101450007F906F905F904F903F900895D5011696C2
:101460004D915D916D917C911997411551056105E3
:10147000710539F097018601C4010E94B3078823E2
:10148000A1F2D5011696CD92DD92ED92FC921997BC
:10149000332051F0D701C6010196A11DB11DF40101
:1014A00080839183A283B383F5018789908DA18D79
:1014B000B28D892B8A2B8B2B39F48481C78AD08EED
:1014C000E18EF28E80688483F5018481806284835A
:1014D00081E0ACCF1F93CF93DF93EC01162F8C816B
:1014E00087FF2AC06E857F858889998941E00E949F
:1014F000D305882361F1EA8980E2E89FF001112495
:10150000E158F94F309719F18D81823040F48B8981
:101510009C89AD89BE89848F958FA68FB78F8F895F
:10152000988D938F828F8F89988DA98DBA8DB58B69
:10153000A48B8C818F778C83111103C08C818F7E5B
:101540008C83812FDF91CF911F910C94A80580E0AF
:10155000DF91CF911F910895FF920F931F93CF9327
:10156000DF93EC018D81813041F090E080E0DF91EC
:10157000CF911F910F91FF9008958C8181FFF5CF3E
:1015800082FD1EC000917F0810918008C8010E9452
:1015900012040E949B04F82EC8010E9404048FEFDD
:1015A000F812E3CF8C8185FF1EC08D81882321F046
:1015B00060E0CE010E946A0A8C818F7D8C83D5CF3A
:1015C0004B895C896D897E898A859B85AC85BD85C3
:1015D00084179507A607B707A9F2CE010E94D6087F
:1015E0008111D0CFC2CF40913D0450913E04609113
:1015F0003F0470914004452B462B472B21F080E09F
:101600000E948405B2CF80618C832A853B8531702E
:1016100080E092E0821B930BAACF9F92AF92BF9281
:10162000CF92DF92EF92FF920F931F93CF93DF93AE
:1016300000D01F921F92CDB7DEB78C016D83DC0105
:1016400015968C911597813009F0B9C014968C913C
:1016500081FFB5C082FD9FC0D8015B96ED91FC91E2
:101660005C971A96AD90BD90CD90DC901D979480BC
:101670009A94B601A50189E07695679557954795A7
:101680008A95D1F79422B1E0BB22992009F49FC03A
:10169000D8015B96ED91FC915C971696CD90DD900C
:1016A000ED90FC901997B2E0CB1AD108E108F1084F
:1016B000858504C0CC0CDD1CEE1CFF1C8A95D2F77E
:1016C0004685578560897189C40ED51EE61EF71EB2
:1016D000C90CD11CE11CF11CA114B10409F00AC110
:1016E000F801428553856485758583899489A58928
:1016F000B689481759076A077B0708F4FBC081E0E1
:101700000E94A805882309F45AC0C0920102D09211
:101710000202E0920302F092040280913C04816094
:1017200080933C04F501E158F94F8D818083F801E5
:1017300082859385A485B5850196A11DB11D8287FB
:101740009387A487B5874389548965897689481723
:1017500059076A077B0738F42481838B948BA58B08
:10176000B68B20682483D80114968C9183FD9FC08A
:1017700081E090E00F900F900F900F900F90DF910D
:10178000CF911F910F91FF90EF90DF90CF90BF907E
:10179000AF909F900895F8014389548965897689AF
:1017A00082859385A485B585481759076A077B0705
:1017B00009F452CFC8010E94D60881114DCF81E0B3
:1017C00090E0D80113969C938E93129749C0D8014C
:1017D00016964D915D916D917C911997A114B1046C
:1017E00009F071C0411551056105710589F55796DC
:1017F0008D919D910D90BC91A02D0097A105B105F3
:1018000009F04FC0C8010E946A098823C1F2D801BB
:101810005B96ED91FC915C971696CD90DD90ED90E6
:10182000FC901997B2E0CB1AD108E108F108858540
:1018300004C0CC0CDD1CEE1CFF1C8A95D2F746853B
:10184000578560897189C40ED51EE61EF71E48CFE4
:101850009E012F5F3F4FCF010E945508811103C0A9
:1018600090E080E087CF89819A81AB81BC81F801CB
:10187000238D348DF901278948EF5FEF60E070E038
:10188000203121F048EF5FEF6FEF7FE0841795077D
:10189000A607B70730F0C8010E946A098111F8CE87
:1018A0008ECFF80186839783A087B187F1CEF801A8
:1018B0008581882309F483CF61E0C8010E946A0A08
:1018C000811156CF7CCF6A017B01B2E0CB1AD108DF
:1018D000E108F108858504C0CC0CDD1CEE1CFF1C62
:1018E0008A95D2F74685578560897189C40ED51EC1
:1018F000E61EF71E41E0C701B6010E94D305811123
:1019000011CF5DCF0F931F93CF93DF93082FC62F77
:10191000142FD0910E0260E08D2F0E94D4018C2FE5
:101920008F71802B0E949404812F0E94940461E0A7
:101930008D2FDF91CF911F910F910C94D401CF93F4
:10194000DF93D82FD076909100029D17A1F0C82F79
:1019500043E06FE180EA0E94820C4C2F50E085E06A
:10196000559547958A95E1F743706FE180E80E94AD
:10197000820CD0930002DF91CF9108951F93CF93F3
:10198000DF93C82F162FD72F0E949F0C412F6C2F4B
:1019900080E40E94820C61E06C0F4D2F80E4DF91A7
:1019A000CF911F910C94820CEF92FF920F931F9393
:1019B000CF93DF938B017A018F3F59F095E0899F98
:1019C000E0011124CE5BDB4F68817981600F711FCC
:1019D0000FC060914D0570914E05600F711FCDE4F1
:1019E000D5E0611588E0780778F37850CDE4D5E04C
:1019F00080E00E94BE0C8A819B81801B910BE816BF
:101A0000F90608F4C701DF91CF911F910F91FF9064
:101A1000EF900895CF92DF92FF920F931F93CF9391
:101A2000DF93EB0170E060E00E94D40C8C01F09039
:101A30000E0260E08F2D0E94D4018AE30E9494047C
:101A40006E01C00ED11ECC15DD0529F080E00E948C
:101A500094048993F8CF61E08F2D0E94D401C801CE
:101A6000DF91CF911F910F91FF90DF90CF9008955C
:101A700060914B0570914C056115710529F061501D
:101A800071098CE00C94BE0C6FEF77E0FACFCF9326
:101A9000DF93C82FD62F0E949F0C4D2F6C2F80E410
:101AA000DF91CF910C94820C1F93CF93DF93182F6B
:101AB000D62FC0910E0260E08C2F0E94D4018D2F92
:101AC0008F71812B0E949404D7FF03C080E00E9495
:101AD000940480E00E949404D82F61E08C2F0E942F
:101AE000D4018D2FDF91CF911F910895CF93C82FEF
:101AF0000E949F0C6C2F80E0CF910C94540DCF93DB
:101B0000DF93EB01682F84ED0E94470DBE0186ED47
:101B10000E94BE0CCFE0D0E08AEE0E94760D80FFDE
:101B200008C06AE070E080E090E00E9485022197A2
:101B300099F7DF91CF910895CF93DF93D62FBC0112
:101B400082E00E94BE0CC0910E0260E08C2F0E94C9
:101B5000D4018AE70E9494048D2F0E94940461E0CE
:101B60008C2FDF91CF910C94D401CF93DF93BC01E4
:101B700080E00E94BE0CC0910E0260E08C2F0E949B
:101B8000D4018AE30E94940480E00E949404D82F38
:101B900061E08C2F0E94D4018D2FDF91CF910895A9
:101BA000CF92DF92EF92FF920F931F93CF93DF9329
:101BB0006C018B014130510579F4CB010E94B50DC8
:101BC000682FC601DF91CF911F910F91FF90EF9089
:101BD000DF90CF900C949C0DEA01C60FD71F7E01B9
:101BE00081E0E81AF10880E10E94BE0CB60184E1B0
:101BF0000E94BE0C0115184048F4E11488E0F80674
:101C000028F07E0181E0E81A88E0F80AB70182E155
:101C10000E94BE0C40E16FE180EA0E94820C40E22B
:101C20006FE180E80E94820C6FE180E00E94540D19
:101C300085FF07C061E070E080E090E00E948502CF
:101C4000F3CFDF91CF911F910F91FF90EF90DF9035
:101C5000CF900895CF92DF92EF92FF920F931F9350
:101C6000CF93DF938C0160914204709143046150E3
:101C7000784EC12C98E1D92EE2E4F4E020E0D0E0E7
:101C8000C0E045E03481CB01332341F0439FC001E4
:101C900011248E5B9B4FDC018D919C91E080F18043
:101CA0008E199F090280F381E02D8E1B9F0B8017F8
:101CB000910799F4B5E02B9FE0011124CE5BDB4F37
:101CC000E7E4F4E081E022813381232B09F453C05F
:101CD00035968F5F8533B9F744C00817190748F464
:101CE0008C159D0530F4249FE0011124CE5BDB4F61
:101CF0006C01311121C0209719F7C2E4D4E085E0CE
:101D0000D82E8C8128813981EA80FB808823D9F004
:101D1000E20EF31E8D9DE0011124CE5BDB4F688146
:101D20007981E616F70669F34A815B81C7010E9453
:101D3000D00DF982E882E5CF349FF0011124EE5BEB
:101D4000FB4F232F9FCF8091420490914304821B2D
:101D5000930B8E199F098150984E8017910708F0B8
:101D6000AFCF80E0DF91CF911F910F91FF90EF9067
:101D7000DF90CF900895288139814A815B81240FBB
:101D8000351F31832083138302839C8194838C834A
:101D9000E9CF0F931F93DB01E42FA80190E0EF3F01
:101DA000E1F065E0E69FF0011124EE5BFB4F6081FE
:101DB0007181620F731F01C0785025E0289FF001E8
:101DC000299FF00D1124EE5BFB4F808191818A0FDA
:101DD0009B1F1F910F910C94D00D60914D05709138
:101DE0004E05620F731F6115E8E07E0728F7EDE4EA
:101DF000F5E0DDCFCF92DF92EF92FF920F931F932A
:101E0000CF93DF936B018A01790195E0899FE0010F
:101E10001124CE5BDB4F688179816C0D7D1D82E0E2
:101E20000E94BE0C0A80DB81C02DCC19DD09EC16A6
:101E3000FD0608F4E701F0900E0260E08F2D0E948D
:101E4000D4018AE70E9494046801CC0EDD1EC016FE
:101E5000D10631F0F80181918F010E949404F7CFEF
:101E600061E08F2D0E94D401CE01DF91CF911F91AF
:101E70000F91FF90EF90DF90CF900895DC011C96BA
:101E8000ED91FC91309731F08681978198278927D1
:101E90009827089590E080E00895CF93DF93FC01A8
:101EA000EB01AC85BD851097A9F012969C91129715
:101EB00013968C9113973C9111962C914BE852E01C
:101EC000518340833283238394838583CF01DF91C1
:101ED000CF9108958BE892E09183808312821382E0
:101EE00014821582F3CFCF93DF931F92CDB7DEB765
:101EF000DC01ED91FC91048CF58DE02D41E050E08A
:101F0000BE016F5F7F4F19951816190634F4898149
:101F100090E00F90DF91CF9108958FEF9FEFF9CF71
:101F2000CF93DF93EC018A89882379F09A01AB0182
:101F30006E857F850E94FA0E2E853F85280F391FFA
:101F40003F872E87DF91CF91089590E080E0FACF10
:101F5000CF93DF931F92CDB7DEB76983DC01ED919C
:101F6000FC910280F381E02D41E050E0BE016F5F03
:101F70007F4F19950F90DF91CF91089580E00895DC
:101F8000089590E080E00895FB0141505109460F0B
:101F9000571FE417F50778F4208130E0322F22270D
:101FA0006181260F311D820F931F8217930708F45A
:101FB00001963296EECFE417F50751F4208130E018
:101FC000322F2227820F931F8217930708F401965E
:101FD0000895BF92CF92DF92EF92FF920F931F93DB
:101FE000CF93DF93C82FE090E503F12CFE2CEE2475
:101FF0004091E6034451550BE40EF51E48E050E0D5
:102000006FEE73E0C7018C0F911D0E94C40F08E0B2
:10201000C13129F000910304069506950C7310E078
:10202000A80167EF73E00E94C40FEC010E151F05B5
:1020300008F04BC0A701401B510B8091B40362E232
:1020400070E081FF02C063E270E0600F711F809159
:10205000B5030E94D40C01977C01B0900E0260E0A1
:102060008B2D0E94D4018AE30E949404D12CC12CB0
:10207000CE14DF04B8F480E00E949404082F10E02E
:10208000102F002780E00E949404800F912F911D53
:10209000C80FD91FC817D90708F4219682E0C80EC7
:1020A000D11CE6CFEC14FD0461F480E00E9494049E
:1020B00090E0982F8827C80FD91FC817D90708F4B0
:1020C000219661E08B2D0E94D4019C2F8D2FCD2B6A
:1020D00011F48FEF9FEFDF91CF911F910F91FF9040
:1020E000EF90DF90CF90BF90089544E150E063EE11
:1020F00073E090E080E00E94C40F009721F09827E1
:102100008927982708958FEF9FEF0895FF920F93E7
:102110001F93CF93DF93C091B403C1FF66C020919A
:10212000B20330E045ED53E061E070E08091B5032B
:102130000E94FA0ECD7FC093B403F090B503809156
:102140004104882309F444C085E0F89EF00111247D
:10215000EE5BFB4F00811181C281D381C00FD11F83
:1021600060E0C8010E949C0DB80184E00E94BE0C92
:10217000BE016850710986E00E94BE0C1AE02497E7
:1021800040E86FE180E80E94820C40E86FE180EA5D
:102190000E94820C4AE06CE180EA0E94820C48E0D6
:1021A0006FE180E80E94820C8CE10E94760D082F7E
:1021B0008A70D1F348E06FE180EA0E94820C01FF4F
:1021C0002DC0CE010E94B50D85FF02C01150C1F691
:1021D000C0E08F2D0E945B041092B5038C2FDF911D
:1021E000CF911F910F91FF900895C091CD03D09191
:1021F000CE03CE01089621F41092B503C0E0EECFD5
:102200000E942A0E8093B5038823C1F39E0145EDF9
:1022100053E061E070E00E94FA0E8FCFC1E0D9CFA9
:102220000F931F93CF93DF93EC018C010B5F1F4F34
:1022300089910E945B04FE0131971082C017D1077B
:10224000B9F7DF91CF911F910F910895CF93DF934D
:10225000EC0188810E945B04FE01CE01049621817D
:102260002193E817F907D9F71C82DF91CF910895E0
:10227000CF93DF93EC01E881F981008CF18DE02DA3
:102280001995882339F08C859D850296DF91CF9131
:102290000C941011DF91CF9108950F931F93CF935A
:1022A000DF931F92CDB7DEB78C01DC01ED91FC917D
:1022B000008CF18DE02D19958823B1F0D8011C9682
:1022C000ED91FC918281882379F041E050E0BE01DC
:1022D0006F5F7F4F0E940A0D898190E00F90DF9120
:1022E000CF911F910F9108958FEF9FEFF7CFCF936D
:1022F000DF931F92CDB7DEB7DC01ED91FC91028830
:10230000F389E02D41E050E0BE016F5F7F4F1995EA
:102310001816190634F4898190E00F90DF91CF915F
:1023200008958FEF9FEFF9CF6F927F928F929F92D8
:10233000AF92BF92CF92DF92EF92FF920F931F93D3
:10234000CF93DF938C014B01EA01DC01ED91FC910D
:10235000008CF18DE02D1995882309F47BC0D801FC
:102360001C96ED91FC918281882309F476C07E0150
:102370008EE1682EBE016E197F09680D791DD801A6
:102380001C96ED91FC91A70182810E940A0D6C01BF
:10239000F801A484B584D50112967C90872D0E9403
:1023A0007B04C816D906E9F5EC18FD08C5010296AC
:1023B0000E942611F801A485B585EC916E9EF0016E
:1023C0001124E058FA4F818D84FF09C011968C9139
:1023D0001197982F967019F4886011968C93D801F4
:1023E0001C96ED91FC911D97828181112EC08181F7
:1023F00082FF05C011821D961C921E921C97CE0171
:102400008E199F09DF91CF911F910F91FF90EF904F
:10241000DF90CF90BF90AF909F908F907F906F9004
:102420000895B5E07B9EF0011124EE5BFB4F8081A7
:1024300091818C0D9D1D91838083828193818C1964
:102440009D0993838283CE01DDCFE114F10409F06D
:1024500091CFF9CF8FEF9FEFD5CF90E080E0D2CF33
:10246000EF92FF920F931F93CF93DF93EC01E881DC
:10247000F981008CF18DE02D19958823E1F00C8510
:102480001D85780182E0E80EF11C095F1F4FD0E046
:10249000C0E0F70181917F010E947B04C80FD91F22
:1024A000E016F106B1F7CE01DF91CF911F910F91A8
:1024B000FF90EF900895D0E0C0E0F5CFFC01448597
:1024C00055854115510551F0FB01248535852115B0
:1024D000310521F081E04217530709F080E00895AB
:1024E000DC011C96ED91FC91309731F082818111D5
:1024F00005C081818170089580E0089581E008958C
:10250000DC01ED91FC91028CF38DE02D199591E0A9
:1025100089270895DC01ED91FC91048CF58DE02D67
:1025200019940F931F93CF93DF93DC0120917E05C5
:1025300030917F052F5F3F4F21158DE7380710F051
:1025400020E030E1522F432FE2E5F5E0EF0180E09B
:102550008430A1F430937F0520937E0530E020E0A5
:102560002430310599F484E080930006F0E0E0E047
:10257000CF01DF91CF911F910F9108950C811D81A3
:102580008F5F2B960417150719F7D4CFC481D58117
:10259000C90101963B96CD2B09F5209300068BE0EF
:1025A000829FF001839FF00D1124EE5AFA4F55835C
:1025B000448377836683109799F484E0DF011D924A
:1025C0008A95E9F78BE0829FD001839FB00D11249B
:1025D000AE5ABA4F80E418968C93CACF9C01C0CFF4
:1025E0008D919C9111979183808312968D919C91EE
:1025F00093838283E7CF0F931F93CF93DF93EC01F5
:102600008B018C859D85892B41F470E060E090E022
:1026100080E00E9491129D878C87EC85FD8580E08B
:10262000309749F0102701271027158304832E9631
:10263000D287C18781E0DF91CF911F910F910895DB
:10264000CF93DF93DC011C96ED91FC913097B1F0B4
:10265000EC0115821482128611861D861C868989DA
:102660000E945B0488890E945B048A890E945B0443
:102670002E9686E0FE0111928A95E9F7DF91CF91BF
:102680000895FC011382128288EE93E0A0E0B0E08E
:1026900084839583A683B7838DE192E091838083C1
:1026A000158614863E9686E0DF011D928A95E9F72D
:1026B0000895DC018BE892E08D939D9384E0FB010B
:1026C00001900D928A95E1F70895EF92FF920F9392
:1026D0001F93CF93DF93FC0110925906C1E0D6E01F
:1026E000DE0130E020E02830310569F490E09830D8
:1026F00009F042C01092CC031092CB0310925906FD
:1027000021E036E044C0CD01815096400D911C91EE
:1027100011970115110561F112964D915C91139776
:102720004115510529F1E080F1800E151F0501F5D5
:102730000281138140175107D9F420935906DC0117
:10274000AB5FB94F86E0FB0101900D928A95E1F7EE
:102750008BE0829FF001839FF00D1124EF5FF94F12
:102760001286DF91CF911F910F91FF90EF90089506
:102770002F5F3F4F1B96B7CF9E0148815981452B54
:10278000B1F44A815B81452B91F49093590684E022
:10279000D90101900D928A95E1F7D901149686E04E
:1027A000FB0101900D928A95E1F7F901D9CF9F5F66
:1027B0002B969DCFEF92FF920F931F93CF93DF93B2
:1027C00000D000D0CDB7DEB74091F3035091F403B1
:1027D0004F3F540731F48091F5039091F603019631
:1027E00019F1809166069091670660916A06709172
:1027F0006B069B0120953095282B392B42175307E8
:10280000A9F520916C0630916D0620953095E091E8
:102810006806F09169062E2B3F2BE091F503F091AD
:10282000F603E217F30711F586E0E1E4F2E0A5ED27
:10283000B3E001900D928A95E1F786E0EAE5F6E0D3
:10284000ABEDB3E001900D928A95E1F788E090E05E
:102850009093E2038093E1038091CD039091CE03A6
:102860000E969093CE038093CD03A5C08427952721
:1028700086239723892B99F42091F5033091F60351
:1028800080916806909169068227932760916C0673
:1028900070916D0686239723892B09F499C0809146
:1028A0006E0690916F069093D2038093D10380912E
:1028B0007006909171069093D4038093D303E090B7
:1028C000D103F090D2030091D3031091D403E1E03F
:1028D000F6E080E0883009F084C08093590646E035
:1028E00050E06FEF70E085ED93E00E94C53486E024
:1028F000E5EFF3E0DF01282F1D922A95E9F7EAE5DD
:10290000F6E0ABEDB3E0982F01900D929A95E1F7C8
:10291000EAE5F6E0ABEEB3E0982F01900D929A95C0
:10292000E1F7F092FC03E092FB031093FE030093A7
:10293000FD0320916606309167063093F2032093E1
:10294000F10320916806309169063093F4032093D7
:10295000F30320E031E03093EA032093E90330935E
:10296000E4032093E30328E030E03093E603209370
:10297000E5038093E70394E09093E80328E036E0D2
:102980003093E2032093E1032BE034E03093D00353
:102990002093CF032AE230E03093CE032093CD037F
:1029A000BE016F5F7F4FDB011D928A95E9F781EDD4
:1029B00093E00E94651326960FB6F894DEBF0FBE13
:1029C000CDBFDF91CF911F910F91FF90EF900895B0
:1029D0005093D2034093D1033093D4032093D30375
:1029E0006ECF20813181E216F306E1F4228133813A
:1029F00002171307B9F49481911103C095819923AB
:102A000029F080935906349686E011CF9681911172
:102A1000F8CF97819111F5CF90859111F2CF9185E3
:102A20009111EFCF8F5F3B9655CFCF93DF93EC01A2
:102A30000E94DA138091CD039091CE038A9759F4C6
:102A40001092B5038091B4038D7F8093B403DF911E
:102A5000CF910C9486100E9486101D821C82DF91FB
:102A6000CF9108959C01AB017093CA036093C90391
:102A70001616170654F48091C7039091C803821765
:102A8000930719F0B9010C94BC340895EF92FF92AA
:102A90000F931F93CF93DF93E091BE03F091BF0399
:102AA000C185D285209709F456C0E090C403E1FEA9
:102AB0001FC08A8181111CC08091F7039091F80397
:102AC000978386838091EF039091F00391838083B5
:102AD0008091F1039091F203938382838091FB03B1
:102AE0009091FC03982789279827089709F51A825F
:102AF000E3FE31C08D81882371F18C818093B50311
:102B00008091B40382608093B4038AE28093B2031D
:102B1000688179816B5271098091CF039091D003C4
:102B2000DF91CF911F910F91FF90EF900C94321590
:102B30000E942A0EF82E8A838823D1F20E947B04F9
:102B40008C012AE230E04091B30370E060E08F2D09
:102B50000E94C90ECDCFDF91CF911F910F91FF90B1
:102B6000EF900895AF92BF92CF92DF92EF92FF92D3
:102B70000F931F93CF93DF93E090C503F090C603AC
:102B8000F701C48DD58DD090C403209761F5D6FC94
:102B900003C0F12CE12CC1C0EAE6F3E090E080E054
:102BA000218121117CC022E1289FE001299FD00DC5
:102BB0001124C659DC4FFE0111922A95E9F7C7018D
:102BC00080589540959587954FEE5EEE849F9001D5
:102BD000859F300D949F300D1124288381E08983D7
:102BE000F701D58FC48FD1FE32C00091CD03109173
:102BF000CE030115110559F189818823A9F181FDC1
:102C000026C05E01F2E0AF0EB11CC12CF50181912E
:102C10005F0181114BC0C8010E942A0EF501319756
:102C20008083882309F442C02091CF033091D003E0
:102C3000255D33404091B30370E060E00E94C90E0F
:102C4000F4E0CF1204C0F701818D8061818F89810A
:102C500083FF0AC0877F89838D2D82608093C403A0
:102C6000F701818D8F7E818F8091C40384FD04C024
:102C700087FD02C085FF26C0CE0107960E94101175
:102C80008A818823E9F0F7018481958198878F8371
:102C9000898184608983F701158E148E7ACF01961D
:102CA00072968430910509F07BCF73CFC394F5E021
:102CB000CF12ACCF8091B4038E7F8093B403C3CF87
:102CC0001982E9CF80FF3FC0CE0107960E942611EE
:102CD0008F818823D1F19885911145C0EC84FD84C2
:102CE000E114F10409F455CF95E0899FF001112416
:102CF000EE5BFB4FF382E2820091CF031091D00391
:102D0000055D13400093B2031127C80108968E0D8C
:102D10009F1D009779F51092B503B7018091CF03FD
:102D20009091D0030E943215F092CE03E092CD0331
:102D3000DF91CF911F910F91FF90EF90DF90CF9097
:102D4000BF90AF9008958C7019F6898181FF21CFD3
:102D50008F81811124C01982F701158E148E80E1B4
:102D60008093C40316CF0E947B047C01892B09F455
:102D700010CFC2CF0E942A0E8093B503882369F238
:102D8000B8016F5F7F4F870130E020E04F810E94E4
:102D9000C90E8091B40382608093B403BECFF70163
:102DA000818D8061818FF5CEAF92BF92CF92DF92FD
:102DB000EF92FF921F93CF93DF93843009F458C1B1
:102DC000C091C503D091C6032BE034E03093D0030B
:102DD0002093CF033093C8032093C7038330C9F4F3
:102DE000898D8F70833009F044C088899989892B37
:102DF00009F03FC088E08093C4030E94B21580911F
:102E0000C40385FF15C61092CA031092C903198E18
:102E100051C0823009F005C18091C3038F5F809358
:102E2000C303811113C08091C2038F5F8093C203DB
:102E300081110CC08091C1038F5F8093C103811108
:102E400005C08091C0038F5F8093C0031092CE03B2
:102E50001092CD031092CA031092C903898D982F46
:102E60009D7F953059F48A8D8F5F8A8F883709F45A
:102E7000198E1092CE031092CD0331C28823C9F36C
:102E800028893989232B09F4C7C09A8D2FEF290F80
:102E90002A8F9111EECF9B8D983031F02FEF280FB4
:102EA000223050F4953041F4198E80E88093C403A9
:102EB0000E94B21584E184C0392F953008F034E0C7
:102EC00023E001C0220F3A95EAF72A8F9F5F9B8F7C
:102ED0008F70833009F47DC008F06AC0813009F436
:102EE00006C4823031F6109204048091040482609A
:102EF0008093040482E080930B0494E090930C048C
:102F000080930D0410920E048CE290E09093CE0317
:102F10008093CD0380E68093030488858093FF032C
:102F20008985809300048A85809301048B85809332
:102F300002048C858093FB038D858093FC038E8532
:102F40008093FD038F858093FE0386E08093EC03DE
:102F50008C819D819093F8038093F7038E819F81EC
:102F60009093FA038093F903809166069091670627
:102F70009093F0038093EF03809168069091690627
:102F80009093F2038093F103888199819093F403E5
:102F90008093F3038A819B819093F6038093F503DA
:102FA000898D84FFCBC51092060410920504D5C20A
:102FB000863029F0883019F0843009F05ACF81E149
:102FC0008093040488E290E09093CE038093CD0335
:102FD00021C084E08093C4030E94B2158091C7038E
:102FE0009091C8039093D0038093CF038091C9033D
:102FF0009091CA03892B09F44CC588899989009757
:1030000009F447C588969093CE038093CD0388E159
:103010008093040480E57FCF8F70833009F029CF3F
:10302000E9CE853009F0A9C0E091BE03F091BF035D
:1030300084819581892B09F41CCF1092C6031092CC
:10304000C5038FEF93E09093D0038093CF039093C9
:10305000C8038093C7031092CA031092C903109249
:10306000CE031092CD0388E08093C4030E944615DE
:103070008091C9039091CA03009709F4FACE9C018C
:10308000245E3F4F3093CE032093CD033093E5036E
:103090002093E603E091BE03F091BF0320852093C7
:1030A000EB0321E12093EC030896982789279827C2
:1030B0009093FC038093FB031092FE031092FD0398
:1030C000848195819093F8038093F703868197819B
:1030D0009093FA038093F9038091660690916706B6
:1030E0009093F0038093EF038091680690916906B6
:1030F0009093F2038093F103808191819093F40384
:103100008093F303828193819093F6038093F50378
:103110008BE094E09093D0038093CF0381E10E94F1
:10312000E90F80959095009709F45BC19093FE0399
:103130008093FD0385E48093E3031092E4031092EF
:10314000EA031092E9038091B6039091B7030196C8
:103150009093B7038093B6039093E7038093E803BB
:103160001092EE031092ED030E94751080959095D9
:103170009093EE038093ED03B2C08091E303853416
:1031800009F077CEC090E503D12CDC2CCC248091C3
:10319000E603C80ED11C8091CD039091CE038C150F
:1031A0009D0508F466CED092CE03C092CD038091E7
:1031B000E9038F7309F05DCE1091EA03111159CE26
:1031C000A0906606B0906706A114B10439F480910E
:1031D000680690916906892B09F441C02091F30398
:1031E0003091F4038091EC03813149F52F3F320790
:1031F00039F48091F5039091F603019609F47DC0AE
:1032000080916A0690916B06809590958A299B29FA
:1032100082179307A1F480916C0690916D068095BA
:1032200090954091680650916906842B952B4091AA
:10323000F5035091F6034817590709F45EC0A2162A
:10324000B30609F016CE2091F5033091F603809174
:103250006806909169062817390709F00ACE0E947E
:103260007510019609F005CE8091EC03863009F4C3
:10327000BBC0813109F441C0813009F0FACD8091A1
:10328000F703883009F0F5CD1092F7038091F90328
:103290009091FA03873F4FEF940768F10996909356
:1032A000FA038093F9038091EF039091F0039093D8
:1032B000F4038093F3038091F1039091F2039093D0
:1032C000F6038093F503B092F003A092EF03809190
:1032D0006806909169069093F2038093F10310922F
:1032E000C403DF91CF911F91FF90EF90DF90CF90BB
:1032F000BF90AF9008950896D2CF8CE1C81AD1083C
:10330000D092CE03C092CD038FEF93E09093D00381
:103310008093CF038091FD039091FE03892BE1F40C
:103320004091F9035091FA036091F7037091F8030B
:10333000A091EF03B091F003C091F103D091F2039B
:10334000E2E5F5E02EE735E02E173F0761F4309314
:10335000BF032093BE038DCD81E10E94E90F01964A
:1033600009F087CDDDCF848195810097C1F1841765
:103370009507A9F586819781009719F08617970719
:1033800071F5808191810097D1F4E280F380EF287C
:10339000F1F4F093BF03E093BE031092C6031092C2
:1033A000C50382E08093C4038FEF93E09093C8033A
:1033B0008093C7031092CA031092C90357CE8F3F60
:1033C000980729F4E280F380EF20E09411F38A1744
:1033D0009B0729F482819381C817D907D1F23B96C4
:1033E000B3CF8FEF9FEFA2CE86E00E94E90F019648
:1033F00009F03FCD4091F9035091FA036091F70332
:103400007091F8038091EF039091F003E091F10344
:10341000F091F203C0E8D5E0298D2223A9F0AC8118
:10342000BD814A175B0781F4AE81BF816A177B07B4
:1034300059F4A881B9818A179B0731F4AA81BB810D
:10344000EA17FB0709F45BC16E9625E0CA3DD20777
:1034500019F310F3809104048F73823061F4509358
:10346000BD034093BC03E8EFF5E080E0843009F051
:1034700091C0809300068091040482FDFACC84E11F
:103480008093040488E290E09093CE038093CD0370
:1034900080E5809303043091FE03809102048093C1
:1034A000FE032091FD03809101048093FD0320938E
:1034B00001049091FC03809100048093FC0390939D
:1034C00000048091FB03809300064091FF0340932A
:1034D000FB038093FF033F5F3093020431110DC063
:1034E0002F5F20930104211108C09F5F9093000477
:1034F000911103C08F5F8093FF038091F703909138
:10350000F8039093BD038093BC032091F90330919D
:10351000FA033093F8032093F7039093FA03809310
:10352000F9038091EF039091F0039093F40380935B
:10353000F3038091F1039091F2039093F60380934B
:10354000F503B092F003A092EF038091680690918A
:1035500069069093F2038093F10380E48093EB0378
:103560008091CD039091CE039093E5038093E60381
:1035700010920A0410920904109208041092070491
:1035800086E00E94E90F80959095909308048093BF
:103590000704D0CD219131918F5F4217530709F075
:1035A00065CF10920006E0E8F5E090E080E0D0E022
:1035B000C0E08430910531F484E0809300062097C8
:1035C00081F457CC3E2F2F2FA18DA11163C0809382
:1035D00000062EE1289FE001299FD00D1124C0583C
:1035E000DA4FD093C603C093C50383E08A8F888FD8
:1035F0001E8A84E08F8B1B8E5D834C837F836E835A
:103600008091EF039091F003998388838091F10377
:103610009091F2039B838A8381E0898F8091C0031C
:103620008C878091C1038D878091C2038E878091A2
:10363000C3038F8781E090E0998B888B8091FE0394
:103640008B878091FD038A878091FC038987809115
:10365000FB03888781E090E00E941E2B8091030489
:10366000982F907F913508F442C082958F708550D5
:10367000990B880F991F880F991FE12FF0E0E81729
:10368000F9072CF4EB52FC4F36A9311112C01093FC
:1036900000062DC0A73031F4209731F0B28DAA8DED
:1036A000AB1710F03C2F2D2F01967E96C32FD22FF3
:1036B00080CF313011F41F5FE0CF27A93230D9F429
:1036C0002430C9F41093000680AD91AD8927982766
:1036D00089279093BD038093BC03813042E0940717
:1036E00010F080E092E09B8B8A8B9D8B8C8B80E12D
:1036F00080930404FACB222351F2120FBECFD09351
:10370000C603C093C5031092C4039091040492FFB2
:1037100007C0198E80E28093C4030E94B215A9CB22
:103720008091030482958F70880F880F8093000624
:10373000C81AD108760184E1E81AF108F092CE03A4
:10374000E092CD032F70223021F4892F8F738231C4
:10375000D1F0E114F10419F4892F8370A1F03985B7
:103760002A858B855091FB0348855413C2C1409133
:10377000FC034313BEC13091FD033213BAC1209143
:10378000FE032813B6C194FF49C068897989611581
:10379000710509F443C0CE010C960E94EB2A3091CA
:1037A000FF038091B803381339C020910004809141
:1037B000B903281333C0909101048091BA03981380
:1037C0002DC0809102044091BB03841327C03C8725
:1037D0002D879E878F87988D8B8D811118C08E893C
:1037E0002A8D921B282F269526952695921B890FA8
:1037F0008E8B97FD91952F89322F36953695231B09
:10380000920F9F8B869586958695890F888F81E08C
:103810008093C403888D8A8F198A188A298DE22F94
:10382000EF70E150E83008F024CBF0E08827E45E48
:10383000F34E8F4F0C947B33241C3D1CA71C5C1D46
:10384000851D961D791D551D8091C40380FF11CBE8
:1038500083E0898F80E48093C403198A188AE11475
:10386000F10431F082E48093C403C7010E941E2B4F
:103870001092CA031092C903C0CA8091C40380FF8A
:103880005FC0809104048F73823109F059C0809128
:103890000304982F907F913598F182958F70855011
:1038A000990B880F991F880F991FE12FF0E0E817F7
:1038B000F9072CF4EB52FC4F36A9311103C01093D9
:1038C00000061EC0313011F41F5FEFCF27A9323040
:1038D00099F5243089F51093000680AD91AD8927C4
:1038E000982789279093BD038093BC03813012E011
:1038F000910710F080E092E09B8B8A8B9D8B8C8BE4
:1039000083E0898F8091FB0388878091FC038987FE
:103910008091FD038A878091FE038B8781E090E090
:103920000E941E2B82E48093C403198A188A109285
:10393000CE031092CD039CCF222309F2120FB5CFF4
:1039400080E28093C4030E94B215198E94CD8091B9
:10395000040480FF20C024FD1EC088899989892B1A
:1039600009F087CAC60143970E941E2B8091C403A9
:10397000982F90619093C403EF2819F0826180938F
:10398000C4030E94B21581E090E0998B888B88E097
:10399000898F1B8E14CB85FF14C0809109049091F0
:1039A0000A04982789279827AC01455F5B4F5093FD
:1039B000D0034093CF03E81AF90AF092CE03E092C5
:1039C000CD034091CD035091CE039091C403411596
:1039D000510541F024FD06C092609093C403CA01D2
:1039E0000E941E2B80910504282F30E0322F2227C1
:1039F00080910604820F932F911D9093BD038093B5
:103A0000BC032C893D892817390710F0892B21F434
:103A10003093BD032093BC038091BC039091BD0300
:103A20009B8B8A8B8091C403837009F422CA20CFB8
:103A300084FF0AC01092CA031092C90381E090E08B
:103A4000998B888B84E0A4CF2091C9033091CA035D
:103A500021153105B9F080FF02C0198A188A8889BA
:103A60009989009789F48A899B898217930720F4A2
:103A70009093CA038093C9038091C9039091CA03AC
:103A8000998B888B1B8EAACA9093CA038093C90313
:103A9000F9CF8091C40381FFECC988E290E0909354
:103AA000CE038093CD0380E1B3CA8091C40380FF2D
:103AB000E0C9198E80E12FCEE114F10419F0C7019D
:103AC0000E941E2B8091C40381709091040490FF8A
:103AD00015C0882381F087E0898F1A8E198A188A89
:103AE00081E090E00E941E2B80E18093C4030E943D
:103AF000B21580E165CA86E0898FF2CF882399F0FC
:103B000085E0898F198A188AB4C9E114F10419F083
:103B1000C7010E941E2B8091040480FF04C087E02F
:103B2000898F1A8EDDCFEF2821F7A3C98091C403B6
:103B300080FF9FC987E0898F1A8E9BC982E080939E
:103B400005041092060409CDCF93DF93EC012C8578
:103B50003D852115310529F490E080E0DF91CF917A
:103B60000895EA89EE23C1F381E08B8B85E0E89F1D
:103B7000F0011124EE5BFB4F8E859F8507969383A2
:103B800082833093BF032093BE0385E00E94D41646
:103B90008091CD039091CE03892BF1F2CE010E9648
:103BA0000E94151581E090E0D9CF8F929F92AF923D
:103BB000BF92CF92DF92EF92FF92CF93DF938091EB
:103BC0004104882309F41FC1D091B303D11151C01E
:103BD00089E30E94760D882309F449C060914B0562
:103BE00070914C056B0126E0C20ED11CC11438E067
:103BF000D30628F06B014AEFC41A47E0D40A80E0EC
:103C00000E94BE0C60E08AE30E94540DE82E60E042
:103C10008AE30E94540DF82EF0924C05E0924B0579
:103C200060E08AE30E94540DB82E60E08AE30E94AF
:103C3000540DC82F60E08AE30E94540DA82E40E482
:103C40006EE180E80E94820CA7FEE8C0E11458E013
:103C5000F50608F0E3C0D0924E05C0924D059C2FAA
:103C60008B2D04979093500580934F05DFEFD093F1
:103C7000B303F090B303FF2009F472C081E0809396
:103C8000B4038F2D0E947B04EC019093CE038093AC
:103C9000CD03892B09F4EFC042E650E065ED73E0F7
:103CA0008F2D0E940A0DC090E103D090E20388E0BE
:103CB000C816D10409F0CDC0F092B5032E97D09369
:103CC000CE03C093CD032091EF033091F003E09138
:103CD0006606F0916706C9018E279F2740916A0604
:103CE00050916B0684239523892B49F54091F1036C
:103CF0005091F2036091680670916906CA018627A7
:103D00009727A0916C06B0916D068A239B23892B7F
:103D1000B1F48091F3039091F403E817F90709F0E7
:103D200080C08091F5039091F6036817790709F038
:103D300078C06BED73E08FEE93E00E94651381E035
:103D40000E94D4168091CD039091CE03892B21F04F
:103D50000E94DA130E9486108091B40380FD8BC00C
:103D60000E94B7026B017C01809160069091610610
:103D7000A0916206B091630646015701881A990A1C
:103D8000AA0ABB0AC0E8D5E0D093C603C093C50316
:103D9000B7FC08C182E00E94D4168091CD039091B7
:103DA000CE03892B21F00E94DA130E9486106E96B2
:103DB00035E0C83FD30741F7B7FC25C04AEFC40E32
:103DC000D11CE11CF11CC0926006D0926106E09209
:103DD0006206F0926306C2E5D5E0D093BF03C093BC
:103DE000BE0385E00E94D4168091CD039091CE034E
:103DF000892B21F089859A850E9415152B9655E00F
:103E0000CE37D50751F7DF91CF91FF90EF90DF903C
:103E1000CF90BF90AF909F908F9008950E94380DE3
:103E200026CFE1E0F6E080E0883019F4809359066F
:103E300086CF608171812617370741F462817381D3
:103E40004617570719F48093590673CF8F5F3B9637
:103E5000EBCF28E0C21626E0D20669F41092CE031A
:103E60001092CD03AA9760F48091CD039091CE0378
:103E7000892B09F06FCF0E94380D1092B30370CFD9
:103E80008091E9039091EA03811531E0930701F1F4
:103E90008115924049F72091FB033091FC038091FA
:103EA00066069091670628173907F1F62091FD0301
:103EB0003091FE03809168069091690628173907B2
:103EC00099F66BEE73E081EF93E00E946513CCCF1F
:103ED000E090FB03F090FC038091660690916706EA
:103EE000E816F90609F6C091FD03D091FE03809112
:103EF000680690916906C817D90709F0B5CF6BEE2F
:103F000073E081EF93E00E94651380E092E090936C
:103F1000EA038093E90386E0EBEEF3E0A5EFB3E07C
:103F200001900D928A95E1F786E0EAE5F6E0ABEEC6
:103F3000B3E001900D928A95E1F786E0EAE5F6E0BC
:103F4000ABEDB3E001900D928A95E1F786E0E5EFE5
:103F5000F3E0A5EDB3E001900D928A95E1F7809131
:103F6000F1039091F2039093FC038093FB03809103
:103F7000F3039091F4039093FE038093FD03F0927A
:103F8000F203E092F103D093F403C093F303D092D1
:103F9000E203C092E1038AE290E09093CE03809323
:103FA000CD0362CFEC8DFD8D309709F400CF86856F
:103FB0009785A089B189A7019601281B390B4A0B67
:103FC0005B0BDA01C901B7FDF2CE83E00E94D41683
:103FD0000E94B702E091C503F091C603048CF58DF1
:103FE000E02D665F7F4F8F4F9F4F66877787808B6F
:103FF000918BD3CECF93DF93EC010E94D51D89899D
:104000000E945B04198ADF91CF9108950F931F934B
:10401000CF93DF931F92CDB7DEB78C010E94D51DE1
:10402000F8018189882389F041E050E0BE016F5F8B
:104030007F4F0E940A0D019741F4898190E00F9013
:10404000DF91CF911F910F9108958FEF9FEFF7CFE1
:10405000EF92FF920F931F93CF93DF937C018B011D
:10406000EA010E94D51DF7018189882369F1AE011B
:10407000B8010E940A0D8C01F701C1898C2F0E94A2
:104080007B048017910769F48C2F0E945B04F70171
:10409000118AC801DF91CF911F910F91FF90EF908E
:1040A000089585E0C89FF0011124EE5BFB4F8081ED
:1040B0009181800F911F9183808382819381801BE6
:1040C000910B93838283E5CF80E090E0E3CFCF93A1
:1040D000DF93EC010E94D51D8989DF91CF910C946B
:1040E0007B04CF93DF93EC010E94D51D8989811158
:1040F0000E945B048889898B188ADF91CF910C9488
:104100007B04CF92DF92EF92FF920F931F93CF9396
:10411000DF9300D01F92CDB7DEB78C017B016A011F
:104120000E94D51DD70112968C91129781110EC055
:1041300013968C911397811109C014968C91149742
:10414000811104C015968C918823E9F0C114D10423
:10415000D1F0D8011C96ED91FC91D70112962D91CA
:104160003C9113973A83298314968D919C919C835B
:104170008B837C2D6D2D309779F177836683318326
:10418000208393838283F80184859585892BB1F1FF
:104190008289811133C08EE096E00E942A0ED801F8
:1041A00052968C9352972BE230E01F963C932E93BD
:1041B0001E9721E090E0811101C020E0822F0F9036
:1041C0000F900F900F90DF91CF911F910F91FF9063
:1041D000EF90DF90CF900895CE0101960E9491124A
:1041E000F80195878487009749F09801225F3F4F37
:1041F000DC011A963C932E931997C5CF80E090E08E
:10420000DECF4F925F926F927F928F929F92AF928A
:10421000BF92CF92DF92EF92FF920F931F93CF93B3
:10422000DF93CDB7DEB763970FB6F894DEBF0FBE4E
:10423000CDBF6C017B013A01FB01DB018D9188232D
:1042400009F444C08E32D1F380538A30B8F3F601BA
:1042500042815381648175818091DE099091DF09EB
:10426000A091E009B091E109481759076A077B0757
:1042700009F455C28601085F1F4F0E94B7026F7094
:1042800077277C5FC8010E94FB12813009F04CC285
:104290008BE892E09A838983F60182819381A481DD
:1042A000B5818B839C83AD83BE8345E350E0BE0123
:1042B0006F5F7F4FC8010E948120892B09F057C092
:1042C000F12CE12CC8010E94201339C030E020E01D
:1042D00090E080E05AE04191442309F18430910557
:1042E0000CF0B5CF4E3271F42F3F310511F00CF0C8
:1042F000AECFD301A80FB91F12962C93019630E0D0
:1043000020E0E9CF529FB001539F700D1124242F5C
:10431000440F330B20533109260F371FDCCF2F3FBB
:10432000310511F00CF093CF843091050CF08FCF54
:10433000680E791EF3012283EE24E394F12CC70169
:1043400063960FB6F894DEBF0FBECDBFDF91CF915D
:104350001F910F91FF90EF90DF90CF90BF90AF90A3
:104360009F908F907F906F905F904F9008950E94E4
:10437000B702F6017783668342E050E0B6016A5FD8
:104380007F4FC8010E94900F81E090E09A8389835B
:1043900042E050E0BE016F5F7F4FC8010E94900F66
:1043A00080E091E09A83898342E050E0BE016F5F34
:1043B0007F4FC8010E94900F1A82198242E050E09C
:1043C000BE016F5F7F4FC8010E94900F42E050E036
:1043D000BE016F5F7F4FC8010E94900F42E050E026
:1043E000BE016F5F7F4FC8010E94900F5701F70118
:1043F0008081882301F17501F70181912F018823C4
:1044000011F08E32B1F447018A189B081814190470
:1044100074F48D8641E050E0BE01635F7F4FC801B8
:104420000E94900FA401B501C8010E94900F520193
:10443000DECF7201E1CF1D8641E050E0BE01635F37
:104440007F4FC8010E94900FE12CFF24F394FA8261
:10445000E98242E050E0BE016F5F7F4FC8010E94D9
:10446000900FFA82E98242E050E0BE016F5F7F4F19
:10447000C8010E94900FC8010E94A41D892B09F455
:104480001FCFA3E0AA2EB12C230122E0420E511C23
:1044900026C0F6016280738084809580B801CE01C9
:1044A00001960E944D0F8B819C81AD81BE81681663
:1044B00079068A069B0629F4C8010E943E0FC5971B
:1044C00059F1FEEFEF2EFF24FA94E1E0AE1AB108A5
:1044D00009F4F8CEFFEFEF16FF0609F0F3CE0E94C5
:1044E000B7023B014C01C8010E9471201816190641
:1044F00084F20E94B7026619770988099909693818
:1045000073418105910508F001C162E370E080E02C
:1045100090E00E948502E7CFC8010E9467200C97B7
:104520000CF4F8C04CE050E0BE016F5F7F4FC80153
:104530000E948A128B819C819827892798279A8BC1
:10454000898BF6014681578129813A8142175307A9
:1045500011F497FD08C0C8010E94FA1FECEFEE2E7F
:10456000FF24FA94B2CF8F709270892B41F0C8016A
:104570000E94FA1F7BEFE72EFF24FA94A6CF6F80EC
:104580007884762467247624F12CE12C611471045C
:10459000D1F4C8010E94FA1F6AEFE62EFF24FA94B4
:1045A00094CF8D85811117C0C8010E94730FC80177
:1045B0000E94730FC8010E94730FC8010E94730FFD
:1045C000FFEFEF1AFF0A8D819E8198278927982790
:1045D000E816F906A8F441E050E0BE01635F7F4FA2
:1045E000C8010E948A128D858823D9F28D859FEF9C
:1045F000980F9D878823A9F2C8010E94730FF6CFF8
:10460000912C812C41E050E0BE016D5E7F4FC801CE
:104610000E948A128B89982F907C61F4882389F0FC
:104620008B899FEF980F9B8B882341F0C8010E94D4
:10463000730FF6CFC8010E94730F1B8A8B898111FB
:10464000E1CF42E050E0BE01615F7F4FC8010E94B0
:104650008A1242E050E0BE01635F7F4FC8010E94B2
:104660008A12C8010E94730FC8010E94730FC8010B
:104670000E94730FC8010E94730F42E050E0BE0118
:104680006F5E7F4FC8010E948A128F8598898115BD
:104690009140E1F48D859E8581159140B9F4898919
:1046A0009A898115944041F0C8010E94FA1F57EF82
:1046B000E52EFF24FA9409CF44E050E0B201C8018E
:1046C0000E948A12EE24E394F12CFFCEF12CE12C0F
:1046D00089899A89982789279827E816F90638F44E
:1046E000C8010E94730F2FEFE21AF20AF1CF8FEF89
:1046F000881A980A8614970409F084CFC8010E948A
:10470000FA1F36EFE32EFF24FA94DFCEEE24EA946C
:10471000FE2CDBCE9DEFE92EFF24FA94D6CE8EEF51
:10472000E82EFF24FA940BCEF12CE12C08CEAF92A8
:10473000BF92CF92DF92EF92FF920F931F93CF938E
:10474000DF93CDB7DEB7A8970FB6F894DEBF0FBEE4
:10475000CDBF7C015B016A010BE812E01A8309837B
:104760001B821C821D821E82CE0109960E9441136B
:104770001CA30BA31DA21EA21FA218A68091CC09E8
:104780009091CD09A091CE09B091CF098F8F98A3B8
:10479000A9A3BAA38B839C83AD83BE8318861F8293
:1047A000AE014D5D5F4FB501CE0101960E94012122
:1047B00081309105B1F4D701ED91FC910488F58920
:1047C000E02D1E8F0D8F8DA19EA1AFA1B8A58F8F5B
:1047D00098A3A9A3BAA3A601BE01635E7F4FC70138
:1047E0001995A8960FB6F894DEBF0FBECDBFDF9126
:1047F000CF911F910F91FF90EF90DF90CF90BF90DE
:10480000AF900895AF92BF92CF92DF92EF92FF9256
:104810000F931F93CF93DF93CDB7DEB7A8970FB653
:10482000F894DEBF0FBECDBF7C015B016A010BE8CF
:1048300012E01A8309831B821C821D821E82CE0114
:1048400009960E9441131CA30BA31DA21EA21FA226
:1048500018A68091CC099091CD09A091CE09B09174
:10486000CF098B839C83AD83BE8318861F82AE01E4
:104870004D5D5F4FB501CE0101960E94012181304F
:104880009105B1F4D701ED91FC910684F785E02DF7
:104890001E8F0D8F8DA19EA1AFA1B8A58F8F98A35C
:1048A000A9A3BAA3A601BE01635E7F4FC7011995F4
:1048B000A8960FB6F894DEBF0FBECDBFDF91CF91A3
:1048C0001F910F91FF90EF90DF90CF90BF90AF902E
:1048D0000895CF93DF93EC010E94D51DEC85FD85F3
:1048E00087818823D9F0DF01189621E08D9181110D
:1048F00010C0215030E0322F2227330F8485958558
:10490000280F391F80E09AE0821B930BDF91CF9133
:1049100008952F5F253051F724E0ECCF80E09AE036
:10492000F5CFAF92BF92CF92DF92EF92FF920F93AB
:104930001F93CF938C015B017A016A010E94D51D00
:104940000115110509F45DC0F8018181882309F47E
:1049500058C0867009F055C03896C1E08191811128
:1049600033C0C150F801EC0FF11D878181110DC0DA
:1049700080E092E00E942A0EF801EC0FF11D87837F
:104980008823E1F2F80115861486A7014C195D0908
:104990004A0D5B1DF801648575859601EC0FF11DCC
:1049A00087810E94FA0EC81AD90AF8012485358534
:1049B000820F931F958784871C141D0454F4C43000
:1049C00009F4BCCFCF5FD4CFCF5FC53039F6C4E098
:1049D000C9CF0E94B702665F7F4F8F4F9F4FF8018C
:1049E00066877787808B918BC7018C199D09CF9142
:1049F0001F910F91FF90EF90DF90CF90BF90AF90FD
:104A0000089590E080E0F3CFFC01848595850C94B7
:104A10009124CF93DF931F92CDB7DEB7698341E036
:104A200050E0BE016F5F7F4FFC01848595850E9439
:104A300091240F90DF91CF910895CF93DF93EC01F4
:104A40000E94D51DEC85FD85309739F0818182FF6C
:104A500008C081E09281911101C080E0DF91CF9187
:104A6000089581E0FBCFCF93DF93EC018C859D858A
:104A7000009769F0FC012181222349F002960E94EF
:104A80001011EC85FD85818182FF07C011821D8692
:104A90001C86DF91CF910C94D51D82608183F7CF66
:104AA000CF92DF92EF92FF920F931F93CF93DF93FA
:104AB0008C01EB016A01DC01ED91FC910488F58920
:104AC000E02D1995EA80FB806C817D815C2D4D2D58
:104AD00080917E0590917F0501968115BDE79B072A
:104AE00010F080E090E1382F292FE0E8F5E0DF01B9
:104AF000C0E0C430D1F490937F0580937E0510927E
:104B0000000680E0D0E0C0E08430F1F4809300063D
:104B1000209711F590E080E0DF91CF911F910F91E8
:104B2000FF90EF90DF90CF9008955996DC915997C0
:104B3000DD2339F01496CD90DC901597C216D3067C
:104B400059F2CF5F5E96D5CFAE2F9F2FB18DB111A9
:104B50003CC080930006EF0182E0898F8091C00302
:104B60008C878091C1038D878091C2038E8780914D
:104B7000C3038F8780E092E09B8B8A8B9D8B8C8B0D
:104B800081E090E0998B888B1B8E8A8F83E0888FE1
:104B90001E8A80E18F8B3D832C835F834E83F98255
:104BA000E8827B836A83898D8F7009F4B3CF0E947A
:104BB000D51D898D8F708330B1F78C8D9D8DF80157
:104BC0009587848781E090E0A7CFB73031F42097B4
:104BD00031F0D28CBA8DBD1510F0AC2F9D2F8F5FA8
:104BE0007E96CA2FD92F90CFFB0101900020E9F7C4
:104BF0003197AF01461B570BDC01ED91FC91028010
:104C0000F381E02D19948F929F92AF92BF92EF9211
:104C1000FF920F931F93CF93DF93CDB7DEB7A1978A
:104C20000FB6F894DEBF0FBECDBF7C01FA01CB01F9
:104C300019A2223008F42AE08E010F5D1F4F822E48
:104C4000912CB12CA12CBF01A50194010E944A33E3
:104C5000F901CA016A300CF5605DD8016E938D01CF
:104C6000232B242B252B79F790E080E0109721F05F
:104C7000BD01C7010E94F425A1960FB6F894DEBFCE
:104C80000FBECDBFDF91CF911F910F91FF90EF909D
:104C9000BF90AF909F908F900895695CDECFCF92C8
:104CA000DF92EF92FF92CF93DF936C01990FEE08A2
:104CB000FF08F7FE23C06DE281E898E00E94C3027E
:104CC000EC0144275527BA014C195D096E097F098B
:104CD0002AE081E898E00E940326C80FD91F6DE8FA
:104CE00072E081E898E00E94F4258C0F9D1FDF910F
:104CF000CF91FF90EF90DF90CF9008952AE0B70119
:104D0000A60181E898E00E940326EC01E8CF8F928B
:104D10009F92AF92BF92CF92DF92EF92FF920F934A
:104D20001F93CF93DF937C018B016C0182E0C80E4F
:104D3000D11C4701E5E08E0E911CD0E0C0E0F601E9
:104D400041916F0150E070E060E02AE0C8010E94EC
:104D500003265C016EE2C8010E94C3028A0D9B1DFE
:104D6000C80FD91FC814D90451F7F701458150E085
:104D700070E060E02AE0C8010E9403268C0F9D1FAE
:104D8000DF91CF911F910F91FF90EF90DF90CF9027
:104D9000BF90AF909F908F900895CF93DF9361E87D
:104DA00078E00E948726EC016DE872E081E898E0E7
:104DB0000E94F4258C0F9D1FDF91CF910895CF9312
:104DC000DF93BC0181E898E00E94F425EC016DE8D6
:104DD00072E081E898E00E94F4258C0F9D1FDF911E
:104DE000CF9108954F925F926F927F928F929F9290
:104DF000AF92BF92CF92DF92EF92FF920F931F93E9
:104E0000CF93DF9300D000D0CDB7DEB77C01562E14
:104E1000742E652E8DB69EB6FC01A6ADB7ADFD0114
:104E200001900020E9F7EA1BED5ECE2ED12C8DB764
:104E30009EB78C199D090FB6F8949EBF0FBE8DBF0B
:104E40000DB71EB70F5F1F4FA60170E060E0C801ED
:104E50000E94C534570191E4A90EB11C8BE892E081
:104E60009A8389838FEF8B838C838D838E8343E436
:104E700050E0BE016F5F7F4FC5010E948120019607
:104E800009F401C181E0F8018083818386E0482E26
:104E900042821382D70114966D917D918D919C91E0
:104EA00017970E9483336483758386839783608614
:104EB000718680E890E0938782874CE150E0B801EA
:104EC000C5010E94900FA60170E060E0C8010E9439
:104ED000C5343701F8E06F0E711CF301D801019061
:104EE0000D924A94E1F740E150E0B801C5010E94FB
:104EF000900FA60170E060E0C8010E94C53496E002
:104F0000C92ED12C40E250E0B801C5010E94900F9B
:104F100021E0C21AD108B1F783E6D8018C9392E858
:104F200011969C93119793E512969C931297139662
:104F30008C93139785E314968C93149781E01596C0
:104F40008C93159716965C9216979DE317969C93F3
:104F5000179797E018969C93189719968C93199722
:104F600086E0F3011A9601900D928A95E1F78CE0A4
:104F7000F801808BD701DE96CD90DC90F601019090
:104F80000020E9F73197EC19FD09D8015196EC930F
:104F9000F60101900020E9F73197AF014C195D0946
:104FA000B601C80142960E94BC34F601019000206F
:104FB000E9F7AF014C195D094F5E5F4FB801C501BC
:104FC0000E94900FF3E05F1234C082E3D8018C930B
:104FD00084E011968C931197F701968512969C9315
:104FE0001297978513969C931397908914969C9388
:104FF0001497918915969C93159796E316969C9312
:10500000169717968C931797828D18968C931897EE
:10501000838D19968C931997848D1A968C931A9771
:10502000858D1B968C934CE050E0B801C5010E9421
:10503000900F87E3D8018C9386E011968C9311979B
:1050400091E012969C93129793E013969C9313977A
:1050500014968C9314978FE015968C9315978AE38A
:1050600016968C9316978BE317968C9317978FEF62
:1050700018968C9349E050E0B801C5010E94900F4A
:10508000C5010E94A41D0FB6F8949EBE0FBE8DBE32
:105090000FB6F8949EBE0FBE8DBE26960FB6F8943E
:1050A000DEBF0FBECDBFDF91CF911F910F91FF905B
:1050B000EF90DF90CF90BF90AF909F908F907F90B8
:1050C0006F905F904F9008952F923F924F925F9212
:1050D0006F927F928F929F92AF92BF92DF92EF92E8
:1050E000FF920F931F93CF93DF93CDB7DEB7C254D8
:1050F000D1090FB6F894DEBF0FBECDBF7C015B01B6
:105100000E94B7022B013C0187010F5B1F4FC801B2
:105110000E947120181619069CF00E94B7026419AB
:10512000750986099709613A7F408105910508F064
:10513000A5C162E370E080E090E00E948502E7CFC5
:1051400042E250E0BE016F5F7F4FC8010E948A12A9
:105150008981823009F08DC1C8010E943E0F8334DD
:10516000910509F086C16D817E818F8198850E94AD
:1051700083332B013C01F5014082518262827382AC
:1051800046E050E0B701685F7F4FCE014D960E9428
:10519000AF34892B99F4F70180819181A281B38189
:1051A000481659066A067B0648F084819581A681D7
:1051B000B78184159505A605B705F0F4C8010E94CE
:1051C000FA1FD12C8D2DCE5BDF4F0FB6F894DEBFCA
:1051D0000FBECDBFDF91CF911F910F91FF90EF9048
:1051E000DF90BF90AF909F908F907F906F905F9077
:1051F0004F903F902F90089589899A89AB89BC89F7
:1052000086879787A08BB18B8EECA82EB12CC80116
:105210000E94730FF1E0AF1AB108C9F7D12CC70192
:1052200082969CAF8BAFF701B696FEAFEDAF0896B6
:1052300021969FAF8EAF219757019AE1A90EB11C1D
:1052400074972396FFAFEEAF23971701F6E12F0E69
:10525000311C27012EE1420E511CC8010E9467201B
:10526000181619060CF006C1C8010E94730F83338B
:10527000910509F4E4C09CF58130910509F480C0E2
:1052800074F4892B51F3C8010E94730F982E9A94DD
:10529000FFEF9F1611F3C8010E94730FF8CF833000
:1052A000910509F47AC0069771F7C8010E94730F3F
:1052B000882E44E050E0B201C8010E948A12712C8D
:1052C000612CE82DE450FF0B4F01681479042CF693
:1052D000C8010E94730FFFEF6F1A7F0AF6CF8A335F
:1052E000910509F47EC0DCF58533910509F440C0D1
:1052F000C69749F6C8010E94730F982E1FAA18AED0
:1053000019AE1AAEB501CE018F960E9459134FA95E
:1053100058AD69AD7AAD89A99AA9ABA9BCA94817BE
:1053200059076A077B07B9F0B801CE0189960E9438
:105330004D0FB501CE0183960E9459134DA15EA178
:105340006FA178A58BA59CA5ADA5BEA5481759074B
:105350006A077B07E9F544E050E0B5011AC08B33DA
:10536000910509F454C08F3F910509F476CF8BCF96
:10537000C8010E94730FC8010E94730FD82E6DCF11
:10538000C8010E94730F44E050E023966EAD7FADDC
:105390002397C8010E948A1260CFC8010E94730F30
:1053A000882E44E050E0B101C8010E948A12712C9D
:1053B000612C882D8450990B4C01681479040CF0F1
:1053C0004CCFC8010E94730F9FEF691A790AF5CF7D
:1053D0009A942FEF921609F440CFC8010E94730FE0
:1053E000F7CFC8010E94730F44E050E06DAD7EAD71
:1053F000C8010E948A12F70166A177A180A591A534
:105400000E94833366A377A380A791A726CFC80104
:105410000E94730F44E050E021966EAD7FAD21975E
:10542000C8010E948A12F70162A573A584A595A5FB
:105430000E94833362A773A784A795A70ECFC801E4
:105440000E94730F44E050E06BAD7CADC8010E9438
:105450008A12F70162A173A184A195A10E948333EE
:1054600062A373A384A395A366A777A780AB91AB30
:10547000F4CED12CC8010E94FA1FA4CEDD24DA9408
:10548000A1CE1F920F920FB60F9211242F933F932C
:105490008F939F93AF93BF938091770690917806F7
:1054A000A0917906B0917A063091760623E0230F19
:1054B0002D3758F50196A11DB11D209376068093D6
:1054C000770690937806A0937906B0937A06809138
:1054D0007B0690917C06A0917D06B0917E06019698
:1054E000A11DB11D80937B0690937C06A0937D0641
:1054F000B0937E06BF91AF919F918F913F912F9175
:105500000F900FBE0F901F90189526E8230F02965C
:10551000A11DB11DD2CF1F920F920FB60F92112471
:105520000BB60F922F933F934F935F936F937F939D
:105530008F939F93AF93BF93EF93FF9381E898E08E
:105540000E943E03FF91EF91BF91AF919F918F9188
:105550007F916F915F914F913F912F910F900BBE73
:105560000F900FBE0F901F9018951F920F920FB6BD
:105570000F9211240BB60F922F938F939F93EF935B
:10558000FF93E0919108F09192088081E091970853
:10559000F091980882FD1DC0908180919A088F5FDC
:1055A0008F7320919B08821741F0E0919A08F0E0F8
:1055B000EF57F74F958F80939A08FF91EF919F9146
:1055C0008F912F910F900BBE0F900FBE0F901F90D9
:1055D00018958081F2CFFC013381360F3093BB03E5
:1055E000A72FBB2792819A0F9093BA032181209312
:1055F000B90340814093B8039A171B0648F481E031
:10560000820F8093B903811103C04F5F4093B803A9
:1056100077273617170688F49F5F9093BA03911186
:105620000CC08091B9038F5F8093B903811105C0CD
:105630008091B8038F5F8093B8030895CF93DF9371
:10564000C091C503D091C603BC01CE0108960E944B
:10565000EB2AE8EBF3E0808188878181898782816A
:105660008A8783818B87DF91CF910895CF92DF92D4
:10567000EF92FF92CF93DF93E1E8F8E0138212827A
:1056800088EEC82E83E0D82EE12CF12CC482D5827E
:10569000E682F7828BE492E09183808385EC90E050
:1056A0009587848784EC90E09787868780EC90E0EC
:1056B000918B808B81EC90E0938B828B82EC90E0DD
:1056C000958B848B86EC90E0978B868B118E128E57
:1056D000138E148EEEE1F9E080E580831182E0E222
:1056E000F9E0158216821186138682E090E0A0E030
:1056F000B0E084879587A687B78713A215A614A65E
:105700008DE592E093A782A717A6E9E6F9E0CBE83A
:10571000D2E0D183C0831282138214821582EFE615
:10572000F9E0D183C0831282138214821582E0EDE6
:10573000F9E0D183C0831282138214821582EAECCD
:10574000F9E0D183C08312821382148215821092F1
:10575000B4091092B30986EB99E00E944113E6ED7B
:10576000F9E0D183C0831282138214821582ECED9A
:10577000F9E0D183C0831282138214821582E2EE93
:10578000F9E0D183C0831282138214821582E6EF7E
:10579000F9E0D183C0831282138214821582E8EE6D
:1057A000F9E013821282C482D582E682F78289E60A
:1057B00092E09183808315861486DF91CF91FF90CC
:1057C000EF90DF90CF900895CF93DF93CDB7DEB702
:1057D000A2970FB6F894DEBF0FBECDBF789484B504
:1057E000826084BD84B5816084BD85B5826085BDDD
:1057F00085B5816085BD80916E00816080936E006B
:10580000109281008091810082608093810080915C
:10581000810081608093810080918000816080930D
:1058200080008091B10084608093B1008091B000CD
:1058300081608093B000809191008260809391009C
:1058400080919100816080939100809190008160AF
:10585000809390008091A10082608093A10080914C
:10586000A10081608093A1008091A000816080935D
:10587000A00080912101826080932101809121010B
:1058800081608093210180912001816080932001BB
:1058900080917A00846080937A0080917A0082609F
:1058A00080937A0080917A00816080937A00809161
:1058B0007A00806880937A001092C100E09191088C
:1058C000F091920882E08083E0918D08F0918E083B
:1058D0001082E0918F08F09190088FEC80831092F5
:1058E0009908E0919508F091960886E08083E09110
:1058F0009308F0919408808180618083E0919308FF
:10590000F0919408808188608083E0919308F09101
:105910009408808180688083E0919308F0919408D6
:1059200080818F7D808389E00E94B50160E972E00B
:1059300081E898E00E94F42580914F09882341F086
:1059400061E08AE499E00E946A0A811110924F098D
:1059500010922B09109229091092260910922509FC
:1059600086E0809324090E94B7028B01809124096C
:105970000E94B50161E0809124090E94D4010E9437
:10598000280482E580931E0910921F0980911E0948
:1059900090911F090E940F04BAE0FB2E8FEF0E9426
:1059A0009404FA94F110FACF80E299E00E94120474
:1059B00020E030E0A90160E080E299E00E94B904B3
:1059C000F82E80932A0921E0821799F00E94B702ED
:1059D000601B710B613D774058F381E0809325098E
:1059E00080E299E00E94040480ED92E00E94DF26AC
:1059F000FFCF2AEA31E040E050E068E080E299E041
:105A00000E94B90482FF2AC0F0922B0980912B09D1
:105A1000C12CD12CE12CF0E4FF2E823019F0C12CE6
:105A2000D12C760120E030E0A90167E380E299E023
:105A30000E94B904A701960169E280E299E00E9400
:105A4000B90480932A098823D1F00E94B702601B11
:105A5000710B613D774030F388E0C0CFA4E0FA2EAF
:105A60000E949B0480932A09FA94F110F9CF8A3A94
:105A700011F082E0B3CF82E080932B09C7CF8091F1
:105A80002B098230D1F420E030E0A9016AE380E202
:105A900099E00E94B904882311F086E09FCF0E940C
:105AA0009B04807C803C19F483E080932B090E9446
:105AB0009B040E949B040E949B0480E299E00E9448
:105AC000040480E580931E0910921F0981E00E9462
:105AD0008A06882309F4C7C080914F09811184CFB9
