:020000040000FA
:100000000C9462000C948A000C948A000C948A0070
:100010000C948A000C948A000C948A000C948A0038
:100020000C948A000C948A000C948A000C948A0028
:100030000C948A000C948A000C948A000C948A0018
:100040000C9400030C948A000C9470030C944A03E3
:100050000C948A000C948A000C948A000C948A00F8
:100060000C948A000C948A000000000024002700F1
:100070002A0000000000250028002B0000000000DE
:1000800023002600290004040404040404040202DA
:100090000202020203030303030301020408102007
:1000A0004080010204081020010204081020000012
:1000B0000008000201000003040700000000000027
:1000C0000000ED0411241FBECFEFD8E0DEBFCDBF8E
:1000D00011E0A0E0B1E0E8E8FAE002C005900D927E
:1000E000AA3CB107D9F722E0AAECB1E001C01D9209
:1000F000A037B207E1F710E0C2E6D0E004C02197D4
:10010000FE010E943C05C136D107C9F70E94A20337
:100110000C9442050C940000833081F028F4813067
:1001200099F08230A9F008958730A9F08830C9F09D
:100130008430B1F4809180008F7D03C08091800075
:100140008F7780938000089584B58F7784BD08955C
:1001500084B58F7DFBCF8091B0008F778093B00006
:1001600008958091B0008F7DF9CFCF93DF93282F32
:1001700030E0F901E255FF4F8491F901E656FF4F57
:10018000D491F901EA57FF4FC491CC23A1F081111A
:100190000E948C00EC2FF0E0EE0FFF1FE458FF4FA1
:1001A000A591B491EC91ED2381E090E009F480E019
:1001B000DF91CF91089580E090E0FACF1F93CF9325
:1001C000DF93282F30E0F901E255FF4F8491F901C8
:1001D000E656FF4FD491F901EA57FF4FC491CC2363
:1001E000A9F0162F81110E948C00EC2FF0E0EE0F89
:1001F000FF1FEE58FF4FA591B4918FB7F894EC9183
:10020000111108C0D095DE23DC938FBFDF91CF9111
:100210001F910895DE2BF8CFCF93DF9390E0FC0180
:10022000E656FF4F24918A579F4FFC018491882303
:10023000D1F090E0880F991FFC01E859FF4FA5917C
:10024000B491FC01EE58FF4FC591D49161110EC0DD
:100250009FB7F8948C91E22FE0958E238C932881A0
:10026000E223E8839FBFDF91CF9108958FB7F89481
:10027000EC91E22BEC938FBFF6CF3FB7F8948091CF
:10028000CF019091D001A091D101B091D20126B5BA
:10029000A89B05C02F3F19F00196A11DB11D3FBFBE
:1002A000BA2FA92F982F8827BC01CD01620F711D8D
:1002B000811D911D42E0660F771F881F991F4A9587
:1002C000D1F708958F929F92AF92BF92CF92DF9213
:1002D000EF92FF924B015C010E943D016B017C019A
:1002E0000E943D016C197D098E099F09683E73408B
:1002F00081059105A8F321E0821A9108A108B108AF
:1003000088EEC80E83E0D81EE11CF11C8114910414
:10031000A104B10429F7FF90EF90DF90CF90BF9038
:10032000AF909F908F900895AF92BF92CF92DF923F
:10033000EF92FF920F931F93CF93DF936C017B019A
:100340008B01040F151FEB015E01AE18BF08C0172B
:10035000D10759F06991D601ED91FC910190F0819E
:10036000E02DC6010995892B79F7C501DF91CF9161
:100370001F910F91FF90EF90DF90CF90BF90AF90C3
:100380000895FC01538D448D252F30E0842F90E09B
:10039000821B930B541710F0CF9608950197089580
:1003A000FC01918D828D981761F0A28DAE0FBF2F49
:1003B000B11D5D968C91928D9F5F9F73928F90E09F
:1003C00008958FEF9FEF0895FC01918D828D98170E
:1003D00031F0828DE80FF11D858D90E008958FEF4B
:1003E0009FEF0895FC01918D228D892F90E0805C14
:1003F0009F4F821B91098F739927089583ED91E098
:100400000E94F20121E0892B09F420E0822F089557
:1004100080E090E0892B29F00E94FE0181110C946C
:1004200000000895FC01A48DA80FB92FB11DA35A97
:10043000BF4F2C91848D90E001968F739927848F04
:10044000A689B7892C93A089B1898C918370806427
:100450008C93938D848D981306C00288F389E02DC8
:1004600080818F7D80830895EF92FF920F931F9379
:10047000CF93DF93EC0181E0888F9B8D8C8D981357
:100480001AC0E889F989808185FF15C09FB7F89463
:10049000EE89FF896083E889F989808183708064AF
:1004A00080839FBF81E090E0DF91CF911F910F91FA
:1004B000FF90EF900895F62E0B8D10E00F5F1F4F09
:1004C0000F731127E02E8C8D8E110CC00FB607FC18
:1004D000FACFE889F989808185FFF5CFCE010E94A6
:1004E0001202F1CFEB8DEC0FFD2FF11DE35AFF4F00
:1004F000F0829FB7F8940B8FEA89FB898081806234
:10050000CFCFCF93DF93EC01888D8823B9F0AA89F0
:10051000BB89E889F9898C9185FD03C0808186FDBE
:100520000DC00FB607FCF7CF8C9185FFF2CF80810D
:1005300085FFEDCFCE010E941202E9CFDF91CF916E
:100540000895FC0101900020E9F73197AF01481BA5
:10055000590BBC0183ED91E00C9494018F929F9212
:10056000AF92BF920F931F93CF93DF93CDB7DEB7B8
:10057000A1970FB6F894DEBF0FBECDBF19A24230CF
:1005800008F44AE08E010F5D1F4F842E912CB12C90
:10059000A12CA50194010E941A05E62FB901CA01F8
:1005A000EA30F4F4E05DD801EE938D01232B242B87
:1005B000252B79F790E080E0109719F0CD010E948B
:1005C000A102A1960FB6F894DEBF0FBECDBFDF919A
:1005D000CF911F910F91BF90AF909F908F900895F2
:1005E000E95CE1CFCF93DF930E94A102EC0182E1AD
:1005F00091E00E94A1028C0F9D1FDF91CF91089581
:100600001F920F920FB60F9211242F933F938F9347
:100610009F93AF93BF938091CB019091CC01A09118
:10062000CD01B091CE013091CA0123E0230F2D37C7
:1006300058F50196A11DB11D2093CA018093CB01ED
:100640009093CC01A093CD01B093CE018091CF01C6
:100650009091D001A091D101B091D2010196A11D3C
:10066000B11D8093CF019093D001A093D101B0939D
:10067000D201BF91AF919F918F913F912F910F9098
:100680000FBE0F901F90189526E8230F0296A11D0C
:10069000B11DD2CF1F920F920FB60F9211242F933C
:1006A0003F934F935F936F937F938F939F93AF93FA
:1006B000BF93EF93FF9383ED91E00E941202FF91AD
:1006C000EF91BF91AF919F918F917F916F915F91CA
:1006D0004F913F912F910F900FBE0F901F90189543
:1006E0001F920F920FB60F9211242F938F939F9307
:1006F000EF93FF93E091E301F091E4018081E091B9
:10070000E901F091EA0182FD1BC090818091EC012A
:100710008F5F8F732091ED01821741F0E091EC0122
:10072000F0E0ED52FE4F958F8093EC01FF91EF9139
:100730009F918F912F910F900FBE0F901F90189542
:100740008081F4CF789484B5826084BD84B5816063
:1007500084BD85B5826085BD85B5816085BD80918C
:100760006E00816080936E00109281008091810004
:1007700082608093810080918100816080938100FC
:10078000809180008160809380008091B1008460BE
:100790008093B1008091B00081608093B00080911F
:1007A0007A00846080937A0080917A0082608093DE
:1007B0007A0080917A00816080937A0080917A003B
:1007C000806880937A001092C10061E084E00E940A
:1007D0000C0161E086E00E940C0160E088E00E946C
:1007E0000C0161E087E00E940C0161E084E00E945E
:1007F000DE0061E086E00E94DE0061E087E00E94AA
:10080000DE0065B770E090E080E04AE00E94AE0252
:1008100082E191E00E94A102E091E301F091E40104
:1008200082E08083E091DF01F091E0011082E091AD
:10083000E101F091E2018FEC80831092EB01E091F5
:10084000E701F091E80186E08083E091E501F09115
:10085000E601808180618083E091E501F091E6010D
:10086000808188608083E091E501F091E6018081DC
:1008700080688083E091E501F091E60180818F7DC1
:10088000808385E191E00E94F20200E010E086E2C0
:1008900091E00E94F20268E873E180E090E00E943B
:1008A000620183ED91E00E94F201181619060CF026
:1008B00088C083ED91E00E94D001C82F682F83ED9E
:1008C00091E00E94340282E191E00E94A10284E45E
:1008D00091E00E94F20261E070E080E090E0C237B7
:1008E00019F060E070E0CB014AE00E94AE0282E1C4
:1008F00091E00E94A1024AE061E070E080E090E0B7
:100900000E94AE0282E191E00E94A1024AE061E011
:1009100070E080E090E00E94AE0282E191E00E94EF
:10092000A102C23791F58AE591E00E94F20281E7C7
:1009300091E00E94F20260E086E00E94DE0060E04A
:1009400084E00E94DE0060E375E780E090E00E94B2
:10095000620161E084E00E94DE0088E00E94B50050
:10096000EC01219749F088E00E94B500EC018FE886
:1009700091E00E94F202F5CF84EA91E00E94F20237
:1009800061E086E00E94DE008CCFC33709F089CF9A
:1009900085EB91E00E94F20268EE73E080E090E067
:1009A0000E94620181E085BF82E085BF88E198E016
:1009B0000FB6F894A895809360000FBE90936000E6
:1009C000FFCF0115110509F462CF0E94FE018823B3
:1009D00009F45DCF0E9400005ACFE3EDF1E01382ED
:1009E000128288EE93E0A0E0B0E084839583A68332
:1009F000B78384E091E09183808385EC90E09587D4
:100A0000848784EC90E09787868780EC90E0918BD8
:100A1000808B81EC90E0938B828B82EC90E0958BC5
:100A2000848B86EC90E0978B868B118E128E138EC2
:100A3000148E0895A1E21A2EAA1BBB1BFD010DC046
:100A4000AA1FBB1FEE1FFF1FA217B307E407F5077E
:100A500020F0A21BB30BE40BF50B661F771F881F5A
:100A6000991F1A9469F760957095809590959B01F0
:100A7000AC01BD01CF010895EE0FFF1F0590F49169
:100A8000E02D0994F894FFCF000000003402940197
:100A9000C1018102F201D001E4010D0A00496E7327
:100AA00069646520746865207365747570004368B7
:100AB00065636B696E6720666F7220612073657273
:100AC00069616C20636F6D6D616E6400496E73695E
:100AD000646520746865207768696C65206C6F6F49
:100AE0007000526563696576656420636F6D6D6142
:100AF0006E642072657365740044697361626C6929
:100B00006E67207468652045746865726E65742030
:100B10006D6F64756C6500446964206E6F7420723B
:100B2000656369657665205472696700526563691B
:100B300065766564205472696767657200547269EE
:100B400067676572696E6720746865207265736592
:020B500074002F
:107E0000112484B714BE81FFF0D085E080938100F7
:107E100082E08093C00088E18093C10086E0809377
:107E2000C20080E18093C4008EE0C9D0259A86E02C
:107E300020E33CEF91E0309385002093840096BBD3
:107E4000B09BFECF1D9AA8958150A9F7CC24DD24C4
:107E500088248394B5E0AB2EA1E19A2EF3E0BF2EE7
:107E6000A2D0813461F49FD0082FAFD0023811F036
:107E7000013811F484E001C083E08DD089C08234E0
:107E800011F484E103C0853419F485E0A6D080C0E4
:107E9000853579F488D0E82EFF2485D0082F10E0AE
:107EA000102F00270E291F29000F111F8ED06801E7
:107EB0006FC0863521F484E090D080E0DECF843638
:107EC00009F040C070D06FD0082F6DD080E0C81688
:107ED00080E7D80618F4F601B7BEE895C0E0D1E017
:107EE00062D089930C17E1F7F0E0CF16F0E7DF06D8
:107EF00018F0F601B7BEE89568D007B600FCFDCFD4
:107F0000A601A0E0B1E02C9130E011968C91119780
:107F100090E0982F8827822B932B1296FA010C0160
:107F200087BEE89511244E5F5F4FF1E0A038BF0790
:107F300051F7F601A7BEE89507B600FCFDCF97BE46
:107F4000E89526C08437B1F42ED02DD0F82E2BD052
:107F50003CD0F601EF2C8F010F5F1F4F84911BD097
:107F6000EA94F801C1F70894C11CD11CFA94CF0C13
:107F7000D11C0EC0853739F428D08EE10CD085E9AC
:107F80000AD08FE07ACF813511F488E018D01DD067
:107F900080E101D065CF982F8091C00085FFFCCF94
:107FA0009093C60008958091C00087FFFCCF809118
:107FB000C00084FD01C0A8958091C6000895E0E648
:107FC000F0E098E1908380830895EDDF803219F02E
:107FD00088E0F5DFFFCF84E1DECF1F93182FE3DFCA
:107FE0001150E9F7F2DF1F91089580E0E8DFEE27F6
:047FF000FF270994CA
:027FFE00040479
:00000001FF
