:100000000C94F9010C942A020C942A020C942A02F2
:100010000C942A020C942A020C942A020C942A02B0
:100020000C942A020C942A020C942A020C942A02A0
:100030000C942A020C942A020C942A020C942A0290
:100040000C942A020C942A020C942A020C942A0280
:100050000C942A020C942A020C942A020C940E2569
:100060000C942A020C9482250C9458250C942A0294
:100070000C942A020C942A020C942A020C942A0250
:100080000C942A020C942A020C942A020C942A0240
:100090000C942A020C942A020C942A020C942A0230
:1000A0000C942A020C942A020C942A020C942A0220
:1000B0000C942A020C942A020C942A020C942A0210
:1000C0000C942A020C942A020C942A020C942A0200
:1000D0000C942A020C942A020C942A020C942A02F0
:1000E0000C942A020C947F020C94931B0C94541BC6
:1000F0000C9422080C949A020C94EB0A0C94A0071E
:100100000C94A5180C9470030C9450170C94AF0722
:100110000C9430200C94AE090C9482020C94BF0A0B
:100120000C9477020C94910A0C94F5090C949D039D
:100130000C94261B0C947B020C94951F0C94352078
:100140000C94AD1B0C9453040C947C200C94B118AB
:100150000C94C0030C94D8090C949D1B0C9420089B
:100160000C945C020C948C020C94321B0C94C218FC
:100170000C94D5070C94270E0C9406040C944C0E8A
:100180000C9496020C94C31E0C9492020C94492079
:100190000C94D10A0C94D3170C94B2020C94CE0395
:1001A0000C942E1F0C94D0180C94AC030C94F207F2
:1001B0000C94E10A0C9488020C947A0C0C94881824
:1001C0000C9481180C9469170C9461020C94A80289
:1001D0000C940A080C94A0020C9473020C949909D4
:1001E0000C94A4020C945F200C94AE020C94032691
:1001F00000407A10F35A00A0724E18090010A5D4DE
:10020000E80000E87648170000E40B54020000CA3A
:100210009A3B000000E1F505000080969800000080
:1002200040420F000000A0860100000010270000DF
:100230000000E803000000006400000000000A0065
:10024000000000000100000000002C76D888DC6768
:100250004F0823DFC1DFAE59E1B1B796E5E3E453C0
:10026000C63AE651997696E8E6C28426EB898C9BDD
:1002700062ED407C6FFCEFBC9C9F40F2BAA56FA57D
:10028000F490055A2AF75C936B6CF9676DC11BFCFF
:10029000E0E40D47FEF520E6B500D0ED902E03001A
:1002A000943577050080841E080000204E0A000067
:1002B00000C80C333333330F986E12831141EF8D26
:1002C0002114893BE65516CFFEE6DB18D1844B3866
:1002D0001BF77C1D901DA4BBE424203284725E2297
:1002E0008100C9F124ECA1E53D2700002100240094
:1002F00027002A002D003000330001010000040116
:1003000007010A0100002200250028002B002E0012
:100310003100340002010000050108010B01050550
:100320000505070508080808020202020A0A08086B
:100330000404040401010101010101010303030399
:1003400003030303040707070C0C0C0C0C0C0C0C28
:100350000202020206060606060606060B0B0B0B39
:100360000B0B0B0B0102102020080810204010205E
:100370004080020102010804020101020408102069
:100380004080804020100804020180040201804067
:1003900020100804020108040201010204081020D0
:1003A0004080010204081020408000000A0B02096E
:1003B0000C0D0E08070304010000000000000000FF
:1003C000000000000000000000000000000000002D
:1003D00000000000000012111000000000000000EA
:1003E000000000000000000000000000000000000D
:1003F000032611241FBECFEFD1E2DEBFCDBF00E048
:100400000CBF13E0A0E0B2E0EAE7FBE600E00BBFC0
:1004100002C007900D92A03FB107D9F728E0A0EFE6
:10042000B3E001C01D92A436B207E1F711E0C9EFB5
:10043000D1E000E006C021970109802FFE010E9453
:100440005633C83FD10780E00807A9F70E949626D7
:100450000C94BB350C940000282F30E0F901E655D0
:10046000FC4F9491F901EC59FC4F4491225E3C4FB2
:10047000F9012491222309F435C0992311F19150F7
:100480009231F8F4E92FF0E08827E65BFD4F8F4FBB
:100490000C9456337B027F025C0273027702610286
:1004A000820288028C02920296029A02A002A402A0
:1004B0006102A802AE02B202809180008F77809321
:1004C0008000E22FF0E0EE0FFF1FEC5FFC4FA591E4
:1004D000B4918FB7F894EC91611148C040954E23C8
:1004E0004C938FBF0895809180008F7DE8CF8091DD
:1004F0008000877FE4CF84B58F7784BDE2CF84B559
:100500008F7DFBCF8091B0008F778093B000D9CFE3
:100510008091B0008F7DF9CF809190008F7780938C
:100520009000CFCF809190008F7DF9CF8091900087
:10053000877FF5CF8091A0008F778093A000C1CFF7
:100540008091A0008F7DF9CF8091A000877FF5CFAB
:10055000809120018F7780932001B3CF809120017B
:100560008F7DF9CF80912001877FF5CF4E2BB8CFBB
:10057000CF93DF9390E0FC01EC59FC4F2491825E15
:100580009C4FFC0184918823D1F090E0880F991F43
:10059000FC01E651FD4FA591B491FC01EC5FFC4FCD
:1005A000C591D49161110EC09FB7F8948C91E22F40
:1005B000E0958E238C932881E223E8839FBFDF910F
:1005C000CF9108958FB7F894EC91E22BEC938FBF05
:1005D000F6CF863308F0865320917B00982F9870D1
:1005E000277F922B90937B008770806480937C00A0
:1005F00080917A00806480937A0080917A0086FDF1
:10060000FCCF809178009091790008953FB7F894DD
:1006100080912C0790912D07A0912E07B0912F0764
:1006200026B5A89B05C02F3F19F00196A11DB11D4D
:100630003FBFBA2FA92F982F8827BC01CD01620F89
:10064000711D811D911D42E0660F771F881F991F44
:100650004A95D1F708958F929F92AF92BF92CF9211
:10066000DF92EF92FF924B015C010E9406036B0147
:100670007C010E9406036C197D098E099F09683E62
:10068000734081059105A8F321E0821A9108A10821
:10069000B10888EEC80E83E0D81EE11CF11C81145D
:1006A0009104A104B10429F7FF90EF90DF90CF905F
:1006B000BF90AF909F908F9008952FB7F89460915E
:1006C00028077091290780912A0790912B072FBF47
:1006D0000895DC01ED91FC910190F081E02D1994D9
:1006E000AF92BF92CF92DF92EF92FF920F931F9340
:1006F000CF93DF936C017B018B01040F151FEB017E
:100700005E01AE18BF08C017D10759F06991D60134
:10071000ED91FC910190F081E02DC6011995892B96
:1007200079F7C501DF91CF911F910F91FF90EF9065
:10073000DF90CF90BF90AF900895FC01538D448D12
:10074000252F30E0842F90E0821B930B541710F07C
:10075000CF96089501970895FC01918D828D981789
:1007600061F0A28DAE0FBF2FB11D5D968C91928D61
:100770009F5F9F73928F90E008958FEF9FEF089592
:10078000FC01918D828D981731F0828DE80FF11D5B
:10079000858D90E008958FEF9FEF0895FC01918D76
:1007A000228D892F90E0805C9F4F821B91098F736F
:1007B0009927089580E397E00E94CE0321E0892BDA
:1007C00009F420E0822F0895FC01A48DA80FB92F11
:1007D000B11DA35ABF4F2C91848D90E001968F7369
:1007E0009927848FA689B7892C93A089B1898C9188
:1007F000837080648C93938D848D981306C00288D7
:10080000F389E02D80818F7D80830895EF92FF92A0
:100810000F931F93CF93DF93EC0181E0888F9B8D23
:100820008C8D98131AC0E889F989808185FF15C0DD
:100830009FB7F894EE89FF896083E889F989808100
:100840008370806480839FBF81E090E0DF91CF91CF
:100850001F910F91FF90EF900895F62E0B8D10E0F1
:100860000F5F1F4F0F731127E02E8C8D8E110CC060
:100870000FB607FCFACFE889F989808185FFF5CFAB
:10088000CE010E94E403F1CFEB8DEC0FFD2FF11DA3
:10089000E35AFF4FF0829FB7F8940B8FEA89FB89E8
:1008A00080818062CFCFCF93DF93EC01888D882346
:1008B000B9F0AA89BB89E889F9898C9185FD03C0C3
:1008C000808186FD0DC00FB607FCF7CF8C9185FFA8
:1008D000F2CF808185FFEDCFCE010E94E403E9CF06
:1008E000DF91CF91089580E090E0892B29F00E945C
:1008F000DA0381110E94000080E090E0892B49F02A
:1009000080E090E0892B29F00E94000081110E9474
:10091000000080E090E0892B49F080E090E0892B96
:1009200029F00E94000081110E94000080E090E008
:10093000892B49F080E090E0892B29F00E9400008B
:1009400081110C94000008958823E9F0A3EFB4E02E
:1009500025E014969C91149789130DC095E0899F0A
:10096000F0011124ED50FB4F848114968C93138277
:10097000128214820895992331F0929FD00111249C
:10098000AD50BB4FE6CF08958823A1F09091F204BB
:10099000992381F08F3F29F4809100069091010600
:1009A000089595E0899FF0011124ED50FB4F82815D
:1009B0009381089590E080E008958EBD00000DB40D
:1009C00007FEFDCF8EB508950F931F93CF93DF934E
:1009D000082FC62F142FD0910A0260E08D2F0E949D
:1009E0002C028C2F8F71802B0E94DD04812F0E949E
:1009F000DD0461E08D2FDF91CF911F910F910C9459
:100A00002C02CF93DF93D82FD076909100029D17C0
:100A1000A1F0C82F43E06FE180EA0E94E4044C2F6C
:100A200050E085E0559547958A95E1F743706FE171
:100A300080E80E94E404D0930002DF91CF910895F2
:100A40001F93CF93DF93C82F162FD72F0E94010536
:100A5000412F6C2F80E40E94E40461E06C0F4D2F65
:100A600080E4DF91CF911F910C94E404EF92FF9208
:100A70000F931F93CF93DF938B017A018F3F59F030
:100A800095E0899FE0011124CD50DB4F6881798189
:100A9000600F711F0FC06091FE057091FF05600F20
:100AA000711FCEEFD5E0611588E0780778F37850B4
:100AB000CEEFD5E080E00E9420058A819B81801BDB
:100AC000910BE816F90608F4C701DF91CF911F9149
:100AD0000F91FF90EF900895CF92DF92FF920F93C6
:100AE0001F93CF93DF93EB0170E060E00E94360527
:100AF0008C01F0900A0260E08F2D0E942C028AE3A4
:100B00000E94DD046E01C00ED11ECC15DD0529F05A
:100B100080E00E94DD048993F8CF61E08F2D0E9470
:100B20002C02C801DF91CF911F910F91FF90DF90B0
:100B3000CF9008956091FC057091FD0561157105D8
:100B400029F0615071098CE00C9420056FEF77E07B
:100B5000FACFCF93DF93C82FD62F0E9401054D2FD8
:100B60006C2F80E4DF91CF910C94E4041F93CF931A
:100B7000DF93182FD62FC0910A0260E08C2F0E94BD
:100B80002C028D2F8F71812B0E94DD04D7FF03C0B3
:100B900080E00E94DD0480E00E94DD04D82F61E047
:100BA0008C2F0E942C028D2FDF91CF911F910895E1
:100BB000CF93C82F0E9401056C2F80E0CF910C9439
:100BC000B605CF93DF93EB01682F84ED0E94A90552
:100BD000BE0186ED0E942005CFE0D0E08AEE0E94A3
:100BE000D80580FF08C06AE070E080E090E00E94D5
:100BF0002B03219799F7DF91CF910895CF93DF933E
:100C0000D62FBC0182E00E942005C0910A0260E05C
:100C10008C2F0E942C028AE70E94DD048D2F0E94F7
:100C2000DD0461E08C2FDF91CF910C942C02CF93E7
:100C3000DF93BC0180E00E942005C0910A0260E0C1
:100C40008C2F0E942C028AE30E94DD0480E00E9427
:100C5000DD04D82F61E08C2F0E942C028D2FDF91B4
:100C6000CF910895CF92DF92EF92FF920F931F934F
:100C7000CF93DF936C018B014130510579F4CB01A7
:100C80000E941706682FC601DF91CF911F910F9127
:100C9000FF90EF90DF90CF900C94FE05EA01C60F15
:100CA000D71F7E0181E0E81AF10880E10E9420054B
:100CB000B60184E10E9420050115184048F4E114B2
:100CC00088E0F80628F07E0181E0E81A88E0F80A5A
:100CD000B70182E10E94200540E16FE180EA0E94B5
:100CE000E40440E26FE180E80E94E4046FE180E008
:100CF0000E94B60585FF07C061E070E080E090E0EB
:100D00000E942B03F3CFDF91CF911F910F91FF90A2
:100D1000EF90DF90CF900895CF92DF92EF92FF9205
:100D20000F931F93CF93DF938C016091F304709125
:100D3000F4046150784EC12C98E1D92EE3EFF4E031
:100D400020E0D0E0C0E045E03481CB01332341F026
:100D5000439FC00111248D509B4FDC018D919C91CC
:100D6000E080F1808E199F090280F381E02D8E1BB7
:100D70009F0B8017910799F4B5E02B9FE001112498
:100D8000CD50DB4FE8EFF4E081E022813381232B6B
:100D900009F453C035968F5F8533B9F744C00817FF
:100DA000190748F48C159D0530F4249FE0011124A7
:100DB000CD50DB4F6C01311121C0209719F7C3EFE3
:100DC000D4E085E0D82E8C8128813981EA80FB80AF
:100DD0008823D9F0E20EF31E8D9DE0011124CD5041
:100DE000DB4F68817981E616F70669F34A815B81FA
:100DF000C7010E943206F982E882E5CF349FF001F4
:100E00001124ED50FB4F232F9FCF8091F30490913D
:100E1000F404821B930B8E199F098150984E801702
:100E2000910708F0AFCF80E0DF91CF911F910F9134
:100E3000FF90EF90DF90CF900895288139814A810B
:100E40005B81240F351F31832083138302839C81B0
:100E500094838C83E9CF0F931F93DB01E42FA801C8
:100E600090E0EF3FE1F065E0E69FF0011124ED50E6
:100E7000FB4F60817181620F731F01C0785025E0C4
:100E8000289FF001299FF00D1124ED50FB4F808128
:100E900091818A0F9B1F1F910F910C9432066091D4
:100EA000FE057091FF05620F731F6115E8E07E0774
:100EB00028F7EEEFF5E0DDCFCF92DF92EF92FF92D1
:100EC0000F931F93CF93DF936B018A01790195E014
:100ED000899FE0011124CD50DB4F688179816C0D31
:100EE0007D1D82E00E9420050A80DB81C02DCC1987
:100EF000DD09EC16FD0608F4E701F0900A0260E057
:100F00008F2D0E942C028AE70E94DD046801CC0E1E
:100F1000DD1EC016D10631F0F80181918F010E94CB
:100F2000DD04F7CF61E08F2D0E942C02CE01DF910E
:100F3000CF911F910F91FF90EF90DF90CF90089588
:100F4000DC011C96ED91FC91309731F08681978100
:100F5000982789279827089590E080E00895CF93F7
:100F6000DF93FC01EB01AC85BD851097A9F01296CB
:100F70009C91129713968C9113973C9111962C91FA
:100F800041E852E0518340833283238394838583F5
:100F9000CF01DF91CF91089581E892E09183808322
:100FA0001282138214821582F3CFCF93DF931F92A4
:100FB000CDB7DEB7DC01ED91FC91048CF58DE02D11
:100FC00041E050E0BE016F5F7F4F1995181619067A
:100FD00034F4898190E00F90DF91CF9108958FEFE5
:100FE0009FEFF9CFCF93DF93EC018A89882379F0C3
:100FF0009A01AB016E857F850E945C072E853F8537
:10100000280F391F3F872E87DF91CF91089590E0F9
:1010100080E0FACFCF93DF931F92CDB7DEB769831D
:10102000DC01ED91FC910280F381E02D41E050E084
:10103000BE016F5F7F4F19950F90DF91CF9108959B
:1010400080E0089590E080E00895FB01415051094F
:10105000460F571FE417F50778F4208130E0322F50
:1010600022276181260F311D820F931F821793075C
:1010700008F401963296EECFE417F50751F420817B
:1010800030E0322F2227820F931F8217930708F434
:1010900001960895BF92CF92DF92EF92FF920F9345
:1010A0001F93CF93DF93C82FE0909D04F12CFE2C6B
:1010B000EE2440919E044451550BE40EF51E48E089
:1010C00050E067EA74E0C7018C0F911D0E9425086B
:1010D00008E0C13129F00091BB04069506950C7318
:1010E00010E0A8016FEA74E00E942508EC010E15DB
:1010F0001F0508F04BC0A701401B510B80916C04E9
:1011000062E270E081FF02C063E270E0600F711F75
:1011100080916D040E94360501977C01B0900A020F
:1011200060E08B2D0E942C028AE30E94DD04D12C0A
:10113000C12CCE14DF04B8F480E00E94DD04082F37
:1011400010E0102F002780E00E94DD04800F912F17
:10115000911DC80FD91FC817D90708F4219682E03E
:10116000C80ED11CE6CFEC14FD0461F480E00E94AF
:10117000DD0490E0982F8827C80FD91FC817D9071A
:1011800008F4219661E08B2D0E942C029C2F8D2F5C
:10119000CD2B11F48FEF9FEFDF91CF911F910F9126
:1011A000FF90EF90DF90CF90BF90089544E150E022
:1011B0006BE974E090E080E00E942508009721F040
:1011C00098278927982708958FEF9FEF0895FF921A
:1011D0000F931F93CF93DF93C0916C04C1FF66C040
:1011E00020916A0430E04DE854E061E070E08091C5
:1011F0006D040E945C07CD7FC0936C04F0906D0479
:101200008091F204882309F444C085E0F89EF0013F
:101210001124ED50FB4F00811181C281D381C00F99
:10122000D11F60E0C8010E94FE05B80184E00E9461
:101230002005BE016850710986E00E9420051AE071
:10124000249740E86FE180E80E94E40440E86FE101
:1012500080EA0E94E4044AE06CE180EA0E94E4042F
:1012600048E06FE180E80E94E4048CE10E94D80528
:10127000082F8A70D1F348E06FE180EA0E94E4040D
:1012800001FF2DC0CE010E94170685FF02C011503C
:10129000C1F6C0E08F2D0E94A40410926D048C2F23
:1012A000DF91CF911F910F91FF900895C091850418
:1012B000D0918604CE01089621F410926D04C0E00E
:1012C000EECF0E948C0680936D048823C1F39E01AB
:1012D0004DE854E061E070E00E945C078FCFC1E010
:1012E000D9CF0F931F93CF93DF93EC018C010B5F4A
:1012F0001F4F89910E94A404FE0131971082C017EC
:10130000D107B9F7DF91CF911F910F910895CF9336
:10131000DF93EC0188810E94A404FE01CE010496B3
:1013200021812193E817F907D9F71C82DF91CF912A
:101330000895CF93DF93EC01E881F981008CF18D62
:10134000E02D1995882339F08C859D850296DF91D3
:10135000CF910C947109DF91CF9108950F931F9352
:10136000CF93DF931F92CDB7DEB78C01DC01ED91F7
:10137000FC91008CF18DE02D19958823B1F0D801F6
:101380001C96ED91FC918281882379F041E050E038
:10139000BE016F5F7F4F0E946C05898190E00F90C6
:1013A000DF91CF911F910F9108958FEF9FEFF7CFAE
:1013B000CF93DF931F92CDB7DEB7DC01ED91FC91A7
:1013C0000288F389E02D41E050E0BE016F5F7F4F5E
:1013D00019951816190634F4898190E00F90DF9161
:1013E000CF9108958FEF9FEFF9CF6F927F928F92F9
:1013F0009F92AF92BF92CF92DF92EF92FF920F93A4
:101400001F93CF93DF938C014B01EA01DC01ED9137
:10141000FC91008CF18DE02D1995882309F47BC097
:10142000D8011C96ED91FC918281882309F476C045
:101430007E018EE1682EBE016E197F09680D791D4F
:10144000D8011C96ED91FC91A70182810E946C0548
:101450006C01F801A484B584D50112967C90872D87
:101460000E94C404C816D906E9F5EC18FD08C501A8
:1014700002960E948709F801A485B585EC916E9EBD
:10148000F0011124EF5CF94F818D84FF09C01196A2
:101490008C911197982F967019F4886011968C93FF
:1014A000D8011C96ED91FC911D97828181112EC06F
:1014B000818182FF05C011821D961C921E921C978D
:1014C000CE018E199F09DF91CF911F910F91FF904F
:1014D000EF90DF90CF90BF90AF909F908F907F90D4
:1014E0006F900895B5E07B9EF0011124ED50FB4F05
:1014F000808191818C0D9D1D918380838281938158
:101500008C199D0993838283CE01DDCFE114F10410
:1015100009F091CFF9CF8FEF9FEFD5CF90E080E02A
:10152000D2CFEF92FF920F931F93CF93DF93EC01F3
:10153000E881F981008CF18DE02D19958823E1F087
:101540000C851D85780182E0E80EF11C095F1F4FB4
:10155000D0E0C0E0F70181917F010E94C404C80F70
:10156000D91FE016F106B1F7CE01DF91CF911F919F
:101570000F91FF90EF900895D0E0C0E0F5CFFC010F
:10158000448555854115510551F0FB01248535856C
:101590002115310521F081E04217530709F080E061
:1015A0000895DC011C96ED91FC91309731F0828119
:1015B000811105C081818170089580E0089581E0E6
:1015C0000895DC01ED91FC91028CF38DE02D1995CD
:1015D00091E089270895DC01ED91FC91048CF58D53
:1015E000E02D1994DC01ED91FC910280F381E02D56
:1015F00019944F925F926F927F928F929F92AF92C7
:10160000BF92CF92DF92EF92FF92CF93DF9360E091
:1016100086E30E94B8020E9406032B013C01C12C04
:10162000D12C7601812C912C54010E94060364195F
:1016300075098609970960327E448105910588F411
:1016400086E30E94E902092E000CAA0BBB0B880E50
:10165000991EAA1EBB1E8FEFC81AD80AE80AF80AFC
:10166000E4CFC501B401A70196010E949731E901B9
:101670000E9406032B013C01C12CD12C7601812C48
:10168000912C54010E940603641975098609970973
:1016900060327E448105910598F486E30E94E90258
:1016A000DC01AC1BBD0B9D010E946533860E971EAD
:1016B000A81EB91E8FEFC81AD80AE80AF80AE2CFA6
:1016C000C501B401A70196010E949731CA01B90171
:1016D0000E9446300E94E83220E030EC4FE754E4AC
:1016E0000E94353220E030E040EA50E40E94A7300A
:1016F00020E030EB48E254E40E94A73020E030E0E4
:10170000A9010E94C931DF91CF91FF90EF90DF9046
:10171000CF90BF90AF909F908F907F906F905F9091
:101720004F900895CF92DF92EF92FF921F93CF9345
:10173000DF93182FC9ECD0E0C12CD12C7601812F7A
:101740000E94E902BC01990F880B990B0E94483056
:1017500020E030EC4FE754E40E94353220E030E4E2
:101760004CE955E40E94A7309B01AC0160E070E4B5
:101770008CE195E40E94C83120E030E049E353E475
:101780000E9435329B01AC010E94A7309B01AC0145
:10179000C701B6010E94C9316B017C0163E070E0B2
:1017A00080E090E00E942B03219749F620E030E092
:1017B00048E453E4C701B6010E943532DF91CF916E
:1017C0001F91FF90EF90DF90CF900C94E832FB01D7
:1017D00001900020E9F73197AF01461B570BDC0160
:1017E000ED91FC910280F381E02D19948F929F92EC
:1017F000AF92BF92EF92FF920F931F93CF93DF931D
:10180000CDB7DEB7A1970FB6F894DEBF0FBECDBF40
:101810007C01FA01CB0119A2223008F42AE08E01E2
:101820000F5D1F4F822E912CB12CA12CBF01A50161
:1018300094010E949731F901CA016A300CF5605D8C
:10184000D8016E938D01232B242B252B79F790E063
:1018500080E0109721F0BD01C7010E94E70BA1961F
:101860000FB6F894DEBF0FBECDBFDF91CF911F91B1
:101870000F91FF90EF90BF90AF909F908F90089541
:10188000695CDECFCF92DF92EF92FF92CF93DF932E
:101890006C01990FEE08FF08F7FE23C06DE280E3AC
:1018A00097E00E946903EC0144275527BA014C19BF
:1018B0005D096E097F092AE080E397E00E94F60B3C
:1018C000C80FD91F63E872E080E397E00E94E70B3E
:1018D0008C0F9D1FDF91CF91FF90EF90DF90CF9005
:1018E00008952AE0B701A60180E397E00E94F60B75
:1018F000EC01E8CF8F929F92AF92BF92CF92DF928E
:10190000EF92FF920F931F93CF93DF937C018B0194
:101910006C0182E0C80ED11C4701E5E08E0E911CDF
:10192000D0E0C0E0F60141916F0150E070E060E06E
:101930002AE0C8010E94F60B5C016EE2C8010E9419
:1019400069038A0D9B1DC80FD91FC814D90451F70C
:10195000F701458150E070E060E02AE0C8010E9494
:10196000F60B8C0F9D1FDF91CF911F910F91FF9070
:10197000EF90DF90CF90BF90AF909F908F900895A1
:10198000CF93DF9360E377E00E947A0CEC0163E889
:1019900072E080E397E00E94E70B8C0F9D1FDF91C0
:1019A000CF910895CF93DF93D0E0C0E0009731F05E
:1019B000BC0180E397E00E94E70BEC0163E872E072
:1019C00080E397E00E94E70B8C0F9D1FDF91CF9182
:1019D00008954F925F926F927F928F929F92AF92F3
:1019E000BF92CF92DF92EF92FF926B017C01AC012C
:1019F0009B010E94283366E872E081111AC04601FB
:101A00005701E894B7F82FEF3FEF4FE75FE7C501C5
:101A1000B4010E942833811126C02FEF3FEF4FE71A
:101A20005FE7C501B4010E9441301816E4F46AE88A
:101A300072E080E397E00E94E70B7C0163E872E0CC
:101A400080E397E00E94E70B8E0D9F1DFF90EF90C3
:101A5000DF90CF90BF90AF909F908F907F906F90CE
:101A60005F904F9008952FEF3FEF4FE75FE4C7017E
:101A7000B6010E94DD3218161CF46EE872E0D9CF70
:101A80002FEF3FEF4FE75FECC701B6010E944130F7
:101A900087FDF3CF20E030E0A901C701B6010E9425
:101AA0004130B12CA12C87FF0AC06DE280E397E0A2
:101AB0000E9469035C01F7FAF094F7F8F0942AE0C9
:101AC00037ED43EA5BE3C701B6010E94C9312B0140
:101AD0003C010E94AE326B017C010E9446309B01AA
:101AE000AC01C301B2010E94C8312B013C012AE0C4
:101AF000B701A60180E397E00E94F60B7C01EA0C97
:101B0000FB1C6EE280E397E00E946903E80EF91E79
:101B100020E030E040E251E4C301B2010E94A7306E
:101B20002B013C010E94AE324B01B12CA12C2AE0CA
:101B3000B501A40180E397E00E94F60BE80EF91EC0
:101B4000C501B4010E9446309B01AC01C301B20142
:101B50000E94C83120E030E040E251E40E94A7300A
:101B60000E94AE32AB0170E060E02AE080E397E0D3
:101B70000E94F60BE80EF91E61CF0F931F93CF93CF
:101B8000DF93DC0120912F06309130062F5F3F4F0D
:101B900021158DE7380710F020E030E1522F432F58
:101BA000E3E0F6E0EF0180E08430A1F4309330060A
:101BB00020932F0630E020E02430310599F484E0B2
:101BC0008093B106F0E0E0E0CF01DF91CF911F916B
:101BD0000F9108950C811D818F5F2B9604171507B7
:101BE00019F7D4CFC481D581C90101963B96CD2B7D
:101BF00009F52093B1068BE0829FF001839FF00DE1
:101C00001124ED5FF94F55834483778366831097E2
:101C100099F484E0DF011D928A95E9F78BE0829FB9
:101C2000D001839FB00D1124AD5FB94F80E41896A9
:101C30008C93CACF9C01C0CF8D919C9111979183B9
:101C4000808312968D919C9193838283E7CF0F932B
:101C50001F93CF93DF93EC018B018C859D85892B9E
:101C600041F470E060E090E080E00E94BD0D9D874F
:101C70008C87EC85FD8580E0309749F0102701279F
:101C80001027158304832E96D287C18781E0DF91C8
:101C9000CF911F910F910895CF93DF93DC011C9694
:101CA000ED91FC913097B1F0EC011582148212860F
:101CB00011861D861C8689890E94A40488890E9439
:101CC000A4048A890E94A4042E9686E0FE01119243
:101CD0008A95E9F7DF91CF910895FC011382128272
:101CE00088EE93E0A0E0B0E084839583A683B78379
:101CF0008FE192E091838083158614863E9686E07C
:101D0000DF011D928A95E9F70895DC0181E892E0F0
:101D10008D939D9384E0FB0101900D928A95E1F7EC
:101D20000895EF92FF920F931F93CF93DF93FC01DF
:101D300010920A07C2EBD6E0DE0130E020E0283046
:101D4000310569F490E0983009F042C010928404A3
:101D50001092830410920A0722EB36E044C0CD01B2
:101D6000825B96400D911C9111970115110561F14F
:101D700012964D915C9113974115510529F1E08020
:101D8000F1800E151F0501F50281138140175107DF
:101D9000D9F420930A07DC01AA54B94F86E0FB016D
:101DA00001900D928A95E1F78BE0829FF001839F6D
:101DB000F00D1124EE54F94F1286DF91CF911F914F
:101DC0000F91FF90EF9008952F5F3F4F1B96B7CF75
:101DD0009E0148815981452BB1F44A815B81452B95
:101DE00091F490930A0784E0D90101900D928A95AD
:101DF000E1F7D901149686E0FB0101900D928A95D6
:101E0000E1F7F901D9CF9F5F2B969DCFEF92FF921B
:101E10000F931F93CF93DF9300D000D0CDB7DEB7E1
:101E20004091AB045091AC044F3F540731F4809182
:101E3000AD049091AE04019619F18091170790912D
:101E4000180760911B0770911C079B012095309526
:101E5000282B392B42175307A9F520911D073091E4
:101E60001E0720953095E0911907F0911A072E2B47
:101E70003F2BE091AD04F091AE04E217F30711F5AA
:101E800086E0E3E4F2E0ADE8B4E001900D928A95DB
:101E9000E1F786E0EBE0F7E0A3E9B4E001900D9212
:101EA0008A95E1F788E090E090939A0480939904F2
:101EB00080918504909186040E9690938604809379
:101EC0008504A5C08427952786239723892B99F419
:101ED0002091AD043091AE048091190790911A07BA
:101EE0008227932760911D0770911E0786239723F1
:101EF000892B09F499C080911F0790912007909336
:101F00008A048093890480912107909122079093FD
:101F10008C0480938B04E0908904F0908A040091F3
:101F20008B0410918C04E2EBF6E080E0883009F03D
:101F300084C080930A0746E050E06FEF70E08DE8C0
:101F400094E00E94A43586E0EDEAF4E0DF01282F5A
:101F50001D922A95E9F7EBE0F7E0A3E9B4E0982FAA
:101F600001900D929A95E1F7EBE0F7E0A3EAB4E077
:101F7000982F01900D929A95E1F7F092B404E092B7
:101F8000B3041093B6040093B50420911707309161
:101F900018073093AA042093A904209119073091BF
:101FA0001A073093AC042093AB0420E031E0309367
:101FB000A2042093A10430939C0420939B0428E066
:101FC00030E030939E0420939D0480939F0494E01E
:101FD0009093A00428E036E030939A04209399046B
:101FE00023EC34E030938804209387042AE230E025
:101FF0003093860420938504BE016F5F7F4FDB0121
:102000001D928A95E9F789E894E00E94910E269640
:102010000FB6F894DEBF0FBECDBFDF91CF911F91F9
:102020000F91FF90EF90089550938A044093890494
:1020300030938C0420938B046ECF20813181E21683
:10204000F306E1F42281338102171307B9F4948176
:10205000911103C09581992329F080930A07349642
:1020600086E011CF96819111F8CF97819111F5CF2C
:1020700090859111F2CF91859111EFCF8F5F3B96B3
:1020800055CFCF93DF93EC010E94060F809185041A
:10209000909186048A9759F410926D0480916C0493
:1020A0008D7F80936C04DF91CF910C94E7080E94A0
:1020B000E7081D821C82DF91CF9108959C01AB013E
:1020C00070938204609381041616170654F480916D
:1020D0007F04909180048217930719F0B9010C9442
:1020E0009B350895EF92FF920F931F93CF93DF9349
:1020F000E0917604F0917704C185D285209709F4A8
:1021000056C0E0907C04E1FE1FC08A8181111CC092
:102110008091AF049091B004978386838091A70447
:102120009091A804918380838091A9049091AA043E
:10213000938382838091B3049091B4049827892774
:102140009827089709F51A82E3FE31C08D8188230C
:1021500071F18C8180936D0480916C048260809316
:102160006C048AE280936A04688179816B527109F8
:102170008091870490918804DF91CF911F910F91F6
:10218000FF90EF900C945E100E948C06F82E8A83CC
:102190008823D1F20E94C4048C012AE230E04091ED
:1021A0006B0470E060E08F2D0E942B07CDCFDF9194
:1021B000CF911F910F91FF90EF900895AF92BF9232
:1021C000CF92DF92EF92FF920F931F93CF93DF9303
:1021D000E0907D04F0907E04F701C48DD58DD09001
:1021E0007C04209761F5D6FC03C0F12CE12CC1C022
:1021F000E2E2F4E090E080E0218121117CC022E164
:10220000289FE001299FD00D1124CE5DDB4FFE01F8
:1022100011922A95E9F7C7018153964095958795C4
:102220004FEE5EEE849F9001859F300D949F300DA0
:102230001124288381E08983F701D58FC48FD1FED3
:1022400032C000918504109186040115110559F1E1
:1022500089818823A9F181FD26C05E01F2E0AF0EDD
:10226000B11CC12CF50181915F0181114BC0C801E6
:102270000E948C06F50131978083882309F442C0BF
:1022800020918704309188042D58344040916B048C
:1022900070E060E00E942B07F4E0CF1204C0F70169
:1022A000818D8061818F898183FF0AC0877F8983C7
:1022B0008D2D826080937C04F701818D8F7E818FCC
:1022C00080917C0484FD04C087FD02C085FF26C088
:1022D000CE0107960E9471098A818823E9F0F701EF
:1022E0008481958198878F83898184608983F701B0
:1022F000158E148E7ACF019672968430910509F06E
:102300007BCF73CFC394F5E0CF12ACCF80916C0438
:102310008E7F80936C04C3CF1982E9CF80FF3FC0CA
:10232000CE0107960E9487098F818823D1F1988575
:10233000911145C0EC84FD84E114F10409F455CFFA
:1023400095E0899FF0011124ED50FB4FF382E2826A
:1023500000918704109188040D58144000936A047A
:102360001127C80108968E0D9F1D009779F51092D0
:102370006D04B70180918704909188040E945E10DB
:10238000F0928604E0928504DF91CF911F910F9126
:10239000FF90EF90DF90CF90BF90AF9008958C703A
:1023A00019F6898181FF21CF8F81811124C0198283
:1023B000F701158E148E80E180937C0416CF0E9465
:1023C000C4047C01892B09F410CFC2CF0E948C0673
:1023D00080936D04882369F2B8016F5F7F4F870196
:1023E00030E020E04F810E942B0780916C048260D6
:1023F00080936C04BECFF701818D8061818FF5CE13
:10240000AF92BF92CF92DF92EF92FF921F93CF9342
:10241000DF93843009F458C1C0917D04D0917E04CB
:1024200023EC34E0309388042093870430938004B5
:1024300020937F048330C9F4898D8F70833009F035
:1024400044C088899989892B09F03FC088E080932E
:102450007C040E94DE1080917C0485FF15C61092DA
:10246000820410928104198E51C0823009F005C196
:1024700080917B048F5F80937B04811113C08091D6
:102480007A048F5F80937A0481110CC08091790463
:102490008F5F80937904811105C0809178048F5FEC
:1024A000809378041092860410928504109282041E
:1024B00010928104898D982F9D7F953059F48A8DD3
:1024C0008F5F8A8F883709F4198E109286041092D4
:1024D000850431C28823C9F328893989232B09F45B
:1024E000C7C09A8D2FEF290F2A8F9111EECF9B8DA8
:1024F000983031F02FEF280F223050F4953041F40E
:10250000198E80E880937C040E94DE1084E184C0F0
:10251000392F953008F034E023E001C0220F3A95BE
:10252000EAF72A8F9F5F9B8F8F70833009F47DC0FD
:1025300008F06AC0813009F406C4823031F6109286
:10254000BC048091BC0482608093BC0482E08093D0
:10255000C30494E09093C4048093C5041092C6040D
:102560008CE290E0909386048093850480E68093CB
:10257000BB0488858093B70489858093B8048A85D5
:102580008093B9048B858093BA048C858093B304BF
:102590008D858093B4048E858093B5048F85809358
:1025A000B60486E08093A4048C819D819093B0044E
:1025B0008093AF048E819F819093B2048093B10485
:1025C00080911707909118079093A8048093A7040F
:1025D0008091190790911A079093AA048093A904F7
:1025E000888199819093AC048093AB048A819B810C
:1025F0009093AE048093AD04898D84FFCBC5109277
:10260000BE041092BD04D5C2863029F0883019F07E
:10261000843009F05ACF81E18093BC0488E290E0D5
:10262000909386048093850421C084E080937C0489
:102630000E94DE1080917F04909180049093880422
:10264000809387048091810490918204892B09F4FE
:102650004CC588899989009709F447C58896909355
:1026600086048093850488E18093BC0480E57FCF55
:102670008F70833009F029CFE9CE853009F0A9C0E9
:10268000E0917604F091770484819581892B09F497
:102690001CCF10927E0410927D0487EB94E09093FF
:1026A0008804809387049093800480937F04109221
:1026B000820410928104109286041092850488E0AE
:1026C00080937C040E947210809181049091820416
:1026D000009709F4FACE9C01245E3F4F30938604A4
:1026E0002093850430939D0420939E04E09176040A
:1026F000F091770420852093A30421E12093A40482
:1027000008969827892798279093B4048093B30458
:102710001092B6041092B504848195819093B00410
:102720008093AF04868197819093B2048093B10423
:1027300080911707909118079093A8048093A7049D
:102740008091190790911A079093AA048093A90485
:10275000808191819093AC048093AB0482819381BA
:102760009093AE048093AD0483EC94E0909388043E
:102770008093870481E10E944A0880959095009794
:1027800009F45BC19093B6048093B50485E480930B
:102790009B0410929C041092A2041092A1048091B8
:1027A0006E0490916F04019690936F0480936E0471
:1027B00090939F048093A0041092A6041092A50405
:1027C0000E94D608809590959093A6048093A504C6
:1027D000B2C080919B04853409F077CEC0909D04EF
:1027E000D12CDC2CCC2480919E04C80ED11C80916D
:1027F0008504909186048C159D0508F466CED092D0
:102800008604C09285048091A1048F7309F05DCE87
:102810001091A204111159CEA0901707B09018077B
:10282000A114B10439F48091190790911A07892BEA
:1028300009F441C02091AB043091AC048091A40410
:10284000813149F52F3F320739F48091AD049091E1
:10285000AE04019609F47DC080911B0790911C077E
:10286000809590958A299B2982179307A1F48091DE
:102870001D0790911E0780959095409119075091E2
:102880001A07842B952B4091AD045091AE04481744
:10289000590709F45EC0A216B30609F016CE2091BE
:1028A000AD043091AE048091190790911A07281752
:1028B000390709F00ACE0E94D608019609F005CE24
:1028C0008091A404863009F4BBC0813109F441C071
:1028D000813009F0FACD8091AF04883009F0F5CD50
:1028E0001092AF048091B1049091B204873F4FEFF2
:1028F000940768F109969093B2048093B104809193
:10290000A7049091A8049093AC048093AB048091A9
:10291000A9049091AA049093AE048093AD04B09260
:10292000A804A092A7048091190790911A07909388
:10293000AA048093A90410927C04DF91CF911F9187
:10294000FF90EF90DF90CF90BF90AF9008950896E2
:10295000D2CF8CE1C81AD108D0928604C0928504E7
:1029600087EB94E090938804809387048091B5046A
:102970009091B604892BE1F44091B1045091B204D6
:102980006091AF047091B004A091A704B091A80425
:10299000C091A904D091AA04E3E0F6E02FE236E06A
:1029A0002E173F0761F430937704209376048DCD82
:1029B00081E10E944A08019609F087CDDDCF84812C
:1029C00095810097C1F184179507A9F586819781B4
:1029D000009719F08617970771F58081918100970C
:1029E000D1F4E280F380EF28F1F4F0937704E093E0
:1029F000760410927E0410927D0482E080937C0421
:102A000087EB94E09093800480937F04109282047B
:102A10001092810457CE8F3F980729F4E280F3800B
:102A2000EF20E09411F38A179B0729F482819381A8
:102A3000C817D907D1F23B96B3CF8FEF9FEFA2CE45
:102A400086E00E944A08019609F03FCD4091B1040A
:102A50005091B2046091AF047091B0048091A704CA
:102A60009091A804E091A904F091AA04C1E3D6E0F2
:102A7000298D2223A9F0AC81BD814A175B0781F41F
:102A8000AE81BF816A177B0759F4A881B9818A1783
:102A90009B0731F4AA81BB81EA17FB0709F45BC1EC
:102AA0006E9626E0CB38D20719F310F38091BC0460
:102AB0008F73823061F45093750440937404E9EA93
:102AC000F6E080E0843009F091C08093B1068091F7
:102AD000BC0482FDFACC84E18093BC0488E290E0DF
:102AE000909386048093850480E58093BB043091A5
:102AF000B6048091BA048093B6042091B504809105
:102B0000B9048093B5042093B9049091B4048091E2
:102B1000B8048093B4049093B8048091B304809374
:102B2000B1064091B7044093B3048093B7043F5F6C
:102B30003093BA0431110DC02F5F2093B9042111D5
:102B400008C09F5F9093B804911103C08F5F80937A
:102B5000B7048091AF049091B00490937504809372
:102B600074042091B1043091B2043093B0042093E6
:102B7000AF049093B2048093B1048091A704909124
:102B8000A8049093AC048093AB048091A904909125
:102B9000AA049093AE048093AD04B092A804A092CE
:102BA000A7048091190790911A079093AA04809323
:102BB000A90480E48093A304809185049091860405
:102BC00090939D0480939E041092C2041092C104BD
:102BD0001092C0041092BF0486E00E944A088095BB
:102BE00090959093C0048093BF04D0CD21913191F2
:102BF0008F5F4217530709F065CF1092B106E1E3EA
:102C0000F6E090E080E0D0E0C0E08430910531F45F
:102C100084E08093B106209781F457CC3E2F2F2F6C
:102C2000A18DA11163C08093B1062EE1289FE00120
:102C3000299FD00D1124CF5CD94FD0937E04C0932F
:102C40007D0483E08A8F888F1E8A84E08F8B1B8EA1
:102C50005D834C837F836E838091A7049091A80449
:102C6000998388838091A9049091AA049B838A8385
:102C700081E0898F809178048C87809179048D8799
:102C800080917A048E8780917B048F8781E090E029
:102C9000998B888B8091B6048B878091B5048A8745
:102CA0008091B40489878091B304888781E090E0A3
:102CB0000E94EB258091BB04982F907F913508F4FA
:102CC00042C082958F708550990B880F991F880F8D
:102CD000991FE12FF0E0E817F9072CF4E357FB4FB9
:102CE00036A9311112C01093B1062DC0A73031F4AE
:102CF000209731F0B28DAA8DAB1710F03C2F2D2FFD
:102D000001967E96C32FD22F80CF313011F41F5FF2
:102D1000E0CF27A93230D9F42430C9F41093B1069A
:102D200080AD91AD8927982789279093750480936A
:102D30007404813042E0940710F080E092E09B8BB5
:102D40008A8B9D8B8C8B80E18093BC04FACB2223F1
:102D500051F2120FBECFD0937E04C0937D04109227
:102D60007C049091BC0492FF07C0198E80E280938E
:102D70007C040E94DE10A9CB8091BB0482958F70E9
:102D8000880F880F8093B106C81AD108760184E1B4
:102D9000E81AF108F0928604E09285042F70223040
:102DA00021F4892F8F738231D1F0E114F10419F4E9
:102DB000892F8370A1F039852A858B855091B304C2
:102DC00048855413C2C14091B4044313BEC130912D
:102DD000B5043213BAC12091B6042813B6C194FFCA
:102DE00049C0688979896115710509F443C0CE012C
:102DF0000C960E94B8253091B70480917004381366
:102E000039C02091B80480917104281333C0909187
:102E1000B9048091720498132DC08091BA04409136
:102E20007304841327C03C872D879E878F87988DD6
:102E30008B8D811118C08E892A8D921B282F269583
:102E400026952695921B890F8E8B97FD91952F893C
:102E5000322F36953695231B920F9F8B869586953C
:102E60008695890F888F81E080937C04888D8A8F76
:102E7000198A188A298DE22FEF70E150E83008F0A6
:102E800024CBF0E08827E85BF84E8F4F0C94563344
:102E900050176917D3178818B118C218A5188118C8
:102EA00080917C0480FF11CB83E0898F80E4809344
:102EB0007C04198A188AE114F10431F082E48093C9
:102EC0007C04C7010E94EB251092820410928104B9
:102ED000C0CA80917C0480FF5FC08091BC048F7366
:102EE000823109F059C08091BB04982F907F9135B1
:102EF00098F182958F708550990B880F991F880FD4
:102F0000991FE12FF0E0E817F9072CF4E357FB4F86
:102F100036A9311103C01093B1061EC0313011F42F
:102F20001F5FEFCF27A9323099F5243089F5109330
:102F3000B10680AD91AD89279827892790937504B4
:102F400080937404813012E0910710F080E092E0E9
:102F50009B8B8A8B9D8B8C8B83E0898F8091B304B4
:102F600088878091B40489878091B5048A8780918D
:102F7000B6048B8781E090E00E94EB2582E4809389
:102F80007C04198A188A10928604109285049CCFBA
:102F9000222309F2120FB5CF80E280937C040E94B5
:102FA000DE10198E94CD8091BC0480FF20C024FDDA
:102FB0001EC088899989892B09F087CAC601439761
:102FC0000E94EB2580917C04982F906190937C0463
:102FD000EF2819F0826180937C040E94DE1081E06A
:102FE00090E0998B888B88E0898F1B8E14CB85FFAE
:102FF00014C08091C1049091C20498278927982712
:10300000AC014D535B4F5093880440938704E81AFA
:10301000F90AF0928604E09285044091850450916B
:10302000860490917C044115510541F024FD06C0B1
:10303000926090937C04CA010E94EB258091BD04AC
:10304000282F30E0322F22278091BE04820F932F49
:10305000911D90937504809374042C893D892817E1
:10306000390710F0892B21F43093750420937404F0
:1030700080917404909175049B8B8A8B80917C0461
:10308000837009F422CA20CF84FF0AC01092820400
:103090001092810481E090E0998B888B84E0A4CF2A
:1030A000209181043091820421153105B9F080FF0F
:1030B00002C0198A188A88899989009789F48A89AF
:1030C0009B898217930720F4909382048093810454
:1030D0008091810490918204998B888B1B8EAACA5F
:1030E0009093820480938104F9CF80917C0481FFC6
:1030F000ECC988E290E0909386048093850480E197
:10310000B3CA80917C0480FFE0C9198E80E12FCE84
:10311000E114F10419F0C7010E94EB2580917C04B1
:1031200081709091BC0490FF15C0882381F087E0E6
:10313000898F1A8E198A188A81E090E00E94EB2507
:1031400080E180937C040E94DE1080E165CA86E005
:10315000898FF2CF882399F085E0898F198A188AA0
:10316000B4C9E114F10419F0C7010E94EB25809164
:10317000BC0480FF04C087E0898F1A8EDDCFEF2862
:1031800021F7A3C980917C0480FF9FC987E0898FC4
:103190001A8E9BC982E08093BD041092BE0409CDB3
:1031A000CF93DF93EC012C853D852115310529F462
:1031B00090E080E0DF91CF910895EA89EE23C1F39A
:1031C00081E08B8B85E0E89FF0011124ED50FB4FEF
:1031D0008E859F850796938382833093770420930F
:1031E000760485E00E940012809185049091860407
:1031F000892BF1F2CE010E960E94411081E090E001
:10320000D9CF8F929F92AF92BF92CF92DF92EF92DF
:10321000FF92CF93DF938091F204882309F41FC1BA
:10322000D0916B04D11151C089E30E94D805882345
:1032300009F449C06091FC057091FD056B0126E021
:10324000C20ED11CC11438E0D30628F06B014AEF3E
:10325000C41A47E0D40A80E00E94200560E08AE3B7
:103260000E94B605E82E60E08AE30E94B605F82EBB
:10327000F092FD05E092FC0560E08AE30E94B6054D
:10328000B82E60E08AE30E94B605C82F60E08AE3AA
:103290000E94B605A82E40E46EE180E80E94E40496
:1032A000A7FEE8C0E11458E0F50608F0E3C0D092AC
:1032B000FF05C092FE059C2F8B2D0497909301066D
:1032C00080930006DFEFD0936B04F0906B04FF2037
:1032D00009F472C081E080936C048F2D0E94C404B5
:1032E000EC019093860480938504892B09F4EFC048
:1032F00042E650E06DE874E08F2D0E946C05C090AE
:103300009904D0909A0488E0C816D10409F0CDC081
:10331000F0926D042E97D0938604C093850420917B
:10332000A7043091A804E0911707F0911807C9018C
:103330008E279F2740911B0750911C0784239523BC
:10334000892B49F54091A9045091AA04609119076D
:1033500070911A07CA0186279727A0911D07B0917F
:103360001E078A239B23892BB1F48091AB04909193
:10337000AC04E817F90709F080C08091AD04909182
:10338000AE046817790709F078C063E974E087EA4A
:1033900094E00E94910E81E00E94001280918504C9
:1033A00090918604892B21F00E94060F0E94E70865
:1033B00080916C0480FD8BC00E945D036B017C01D9
:1033C0008091110790911207A0911307B0911407F3
:1033D00046015701881A990AAA0ABB0AC1E3D6E036
:1033E000D0937E04C0937D04B7FC08C182E00E94A4
:1033F00000128091850490918604892B21F00E940F
:10340000060F0E94E7086E9636E0C93AD30741F7E7
:10341000B7FC25C04AEFC40ED11CE11CF11CC092C0
:103420001107D0921207E0921307F0921407C3E03D
:10343000D6E0D0937704C093760485E00E94001212
:103440008091850490918604892B21F089859A8545
:103450000E9441102B9656E0CF32D50751F7DF91ED
:10346000CF91FF90EF90DF90CF90BF90AF909F9063
:103470008F9008950E949A0526CFE2EBF6E080E057
:10348000883019F480930A0786CF608171812617EE
:10349000370741F4628173814617570719F4809307
:1034A0000A0773CF8F5F3B96EBCF28E0C21626E06A
:1034B000D20669F41092860410928504AA9760F4EB
:1034C0008091850490918604892B09F06FCF0E942A
:1034D0009A0510926B0470CF8091A1049091A20480
:1034E000811531E0930701F18115924049F7209150
:1034F000B3043091B40480911707909118072817EE
:103500003907F1F62091B5043091B604809119077E
:1035100090911A072817390799F663EA74E089EA47
:1035200094E00E94910ECCCFE090B304F090B404EC
:103530008091170790911807E816F90609F6C091CF
:10354000B504D091B6048091190790911A07C81755
:10355000D90709F0B5CF63EA74E089EA94E00E94E4
:10356000910E80E092E09093A2048093A10486E003
:10357000E3EAF4E0ADEAB4E001900D928A95E1F758
:1035800086E0EBE0F7E0A3EAB4E001900D928A95C3
:10359000E1F786E0EBE0F7E0A3E9B4E001900D92FB
:1035A0008A95E1F786E0EDEAF4E0ADE8B4E0019059
:1035B0000D928A95E1F78091A9049091AA049093C5
:1035C000B4048093B3048091AB049091AC049093C5
:1035D000B6048093B504F092AA04E092A904D093B3
:1035E000AC04C093AB04D0929A04C09299048AE2CE
:1035F00090E0909386048093850462CFEC8DFD8DDE
:10360000309709F400CF86859785A089B189A701F5
:103610009601281B390B4A0B5B0BDA01C901B7FD78
:10362000F2CE83E00E9400120E945D03E0917D04CF
:10363000F0917E04048CF58DE02D665F7F4F8F4FF7
:103640009F4F66877787808B918BD3CECF93DF9305
:10365000EC010E94011989890E94A404198ADF9152
:10366000CF9108950F931F93CF93DF931F92CDB700
:10367000DEB78C010E940119F8018189882389F045
:1036800041E050E0BE016F5F7F4F0E946C050197E3
:1036900041F4898190E00F90DF91CF911F910F91BC
:1036A00008958FEF9FEFF7CFEF92FF920F931F9345
:1036B000CF93DF937C018B01EA010E940119F7018E
:1036C0008189882369F1AE01B8010E946C058C01E3
:1036D000F701C1898C2F0E94C4048017910769F4F7
:1036E0008C2F0E94A404F701118AC801DF91CF91A9
:1036F0001F910F91FF90EF90089585E0C89FF00112
:103700001124ED50FB4F80819181800F911F918397
:10371000808382819381801B910B93838283E5CF89
:1037200080E090E0E3CFCF93DF93EC010E9401199A
:103730008989DF91CF910C94C404CF93DF93EC017E
:103740000E940119898981110E94A4048889898BAA
:10375000188ADF91CF910C94C404CF92DF92EF923C
:10376000FF920F931F93CF93DF9300D01F92CDB79B
:10377000DEB78C017B016A010E940119D701129604
:103780008C91129781110EC013968C911397811111
:1037900009C014968C911497811104C015968C91D0
:1037A0008823E9F0C114D104D1F0D8011C96ED9121
:1037B000FC91D70112962D913C9113973A8329835E
:1037C00014968D919C919C838B837C2D6D2D3097CD
:1037D00079F1778366833183208393838283F80131
:1037E00084859585892BB1F18289811133C08EE062
:1037F00096E00E948C06D80152968C9352972BE249
:1038000030E01F963C932E931E9721E090E08111AB
:1038100001C020E0822F0F900F900F900F90DF914A
:10382000CF911F910F91FF90EF90DF90CF9008956F
:10383000CE0101960E94BD0DF801958784870097FF
:1038400049F09801225F3F4FDC011A963C932E937A
:103850001997C5CF80E090E0DECF4F925F926F92D4
:103860007F928F929F92AF92BF92CF92DF92EF9210
:10387000FF920F931F93CF93DF93CDB7DEB763977C
:103880000FB6F894DEBF0FBECDBF6C017B013A01CD
:10389000FB01DB018D91882309F444C08E32D1F302
:1038A00080538A30B8F3F601428153816481758177
:1038B0008091420890914308A0914408B091450836
:1038C000481759076A077B0709F455C28601085F44
:1038D0001F4F0E945D036F7077277C5FC8010E94B5
:1038E000270E813009F04CC281E892E09A838983E7
:1038F000F60182819381A481B5818B839C83AD8302
:10390000BE8345E350E0BE016F5F7F4FC8010E9458
:10391000AD1B892B09F057C0F12CE12CC8010E9486
:103920004C0E39C030E020E090E080E05AE0419158
:10393000442309F1843091050CF0B5CF4E3271F477
:103940002F3F310511F00CF0AECFD301A80FB91FF6
:1039500012962C93019630E020E0E9CF529FB001FF
:10396000539F700D1124242F440F330B2053310922
:10397000260F371FDCCF2F3F310511F00CF093CF0E
:10398000843091050CF08FCF680E791EF3012283ED
:10399000EE24E394F12CC70163960FB6F894DEBFD2
:1039A0000FBECDBFDF91CF911F910F91FF90EF9090
:1039B000DF90CF90BF90AF909F908F907F906F904F
:1039C0005F904F9008950E945D03F60177836683B0
:1039D00042E050E0B6016A5F7F4FC8010E94F207E3
:1039E00081E090E09A83898342E050E0BE016F5FFE
:1039F0007F4FC8010E94F20780E091E09A8389839B
:103A000042E050E0BE016F5F7F4FC8010E94F207A5
:103A10001A82198242E050E0BE016F5F7F4FC801F9
:103A20000E94F20742E050E0BE016F5F7F4FC80185
:103A30000E94F20742E050E0BE016F5F7F4FC80175
:103A40000E94F2075701F7018081882301F1750177
:103A5000F70181912F01882311F08E32B1F44701D3
:103A60008A189B081814190474F48D8641E050E0FC
:103A7000BE01635F7F4FC8010E94F207A401B50138
:103A8000C8010E94F2075201DECF7201E1CF1D860C
:103A900041E050E0BE01635F7F4FC8010E94F20722
:103AA000E12CFF24F394FA82E98242E050E0BE0167
:103AB0006F5F7F4FC8010E94F207FA82E98242E0FD
:103AC00050E0BE016F5F7F4FC8010E94F207C8013E
:103AD0000E94D018892B09F41FCFA3E0AA2EB12C85
:103AE000230122E0420E511C26C0F6016280738041
:103AF00084809580B801CE0101960E94AF078B812A
:103B00009C81AD81BE81681679068A069B0629F4E0
:103B1000C8010E94A007C59759F1FEEFEF2EFF24C0
:103B2000FA94E1E0AE1AB10809F4F8CEFFEFEF160F
:103B3000FF0609F0F3CE0E945D033B014C01C80172
:103B40000E949D1B1816190684F20E945D036619D7
:103B5000770988099909693873418105910508F049
:103B600001C162E370E080E090E00E942B03E7CFA8
:103B7000C8010E94931B0C970CF4F8C04CE050E075
:103B8000BE016F5F7F4FC8010E94EB0A8B819C8151
:103B90009827892798279A8B898BF6014681578128
:103BA00029813A814217530711F497FD08C0C801D3
:103BB0000E94261BECEFEE2EFF24FA94B2CF8F70FA
:103BC0009270892B41F0C8010E94261B7BEFE72EE3
:103BD000FF24FA94A6CF6F80788476246724762415
:103BE000F12CE12C61147104D1F4C8010E94261B50
:103BF0006AEFE62EFF24FA9494CF8D85811117C0C9
:103C0000C8010E94D507C8010E94D507C8010E94BB
:103C1000D507C8010E94D507FFEFEF1AFF0A8D8173
:103C20009E81982789279827E816F906A8F441E08D
:103C300050E0BE01635F7F4FC8010E94EB0A8D8593
:103C40008823D9F28D859FEF980F9D878823A9F24D
:103C5000C8010E94D507F6CF912C812C41E050E09D
:103C6000BE016D5E7F4FC8010E94EB0A8B89982FC1
:103C7000907C61F4882389F08B899FEF980F9B8B50
:103C8000882341F0C8010E94D507F6CFC8010E94E1
:103C9000D5071B8A8B898111E1CF42E050E0BE013C
:103CA000615F7F4FC8010E94EB0A42E050E0BE0115
:103CB000635F7F4FC8010E94EB0AC8010E94D507CD
:103CC000C8010E94D507C8010E94D507C8010E94FB
:103CD000D50742E050E0BE016F5E7F4FC8010E94F1
:103CE000EB0A8F85988981159140E1F48D859E8539
:103CF00081159140B9F489899A898115944041F0E0
:103D0000C8010E94261B57EFE52EFF24FA9409CF25
:103D100044E050E0B201C8010E94EB0AEE24E394B3
:103D2000F12CFFCEF12CE12C89899A8998278927DB
:103D30009827E816F90638F4C8010E94D5072FEF36
:103D4000E21AF20AF1CF8FEF881A980A86149704C4
:103D500009F084CFC8010E94261B36EFE32EFF2412
:103D6000FA94DFCEEE24EA94FE2CDBCE9DEFE92E12
:103D7000FF24FA94D6CE8EEFE82EFF24FA940BCED1
:103D8000F12CE12C08CEAF92BF92CF92DF92EF924E
:103D9000FF920F931F93CF93DF93CDB7DEB7A89712
:103DA0000FB6F894DEBF0FBECDBF7C015B016A0188
:103DB00001E812E01A8309831B821C821D821E8285
:103DC000CE0109960E946D0E1CA30BA31DA21EA27C
:103DD0001FA218A68091300890913108A091320856
:103DE000B09133088F8F98A3A9A3BAA38B839C8328
:103DF000AD83BE8318861F82AE014D5D5F4FB50156
:103E0000CE0101960E942D1C81309105B1F4D7019D
:103E1000ED91FC910488F589E02D1E8F0D8F8DA109
:103E20009EA1AFA1B8A58F8F98A3A9A3BAA3A601FD
:103E3000BE01635E7F4FC7011995A8960FB6F8942F
:103E4000DEBF0FBECDBFDF91CF911F910F91FF90CD
:103E5000EF90DF90CF90BF90AF900895AF92BF9258
:103E6000CF92DF92EF92FF920F931F93CF93DF9346
:103E7000CDB7DEB7A8970FB6F894DEBF0FBECDBFA3
:103E80007C015B016A0101E812E01A8309831B824D
:103E90001C821D821E82CE0109960E946D0E1CA3FB
:103EA0000BA31DA21EA21FA218A6809130089091FC
:103EB0003108A0913208B09133088B839C83AD8385
:103EC000BE8318861F82AE014D5D5F4FB501CE01E6
:103ED00001960E942D1C81309105B1F4D701ED911E
:103EE000FC910684F785E02D1E8F0D8F8DA19EA17C
:103EF000AFA1B8A58F8F98A3A9A3BAA3A601BE01AD
:103F0000635E7F4FC7011995A8960FB6F894DEBF80
:103F10000FBECDBFDF91CF911F910F91FF90EF901A
:103F2000DF90CF90BF90AF900895CF93DF93EC01D7
:103F30000E940119EC85FD8587818823D9F0DF0176
:103F4000189621E08D91811110C0215030E0322F60
:103F50002227330F84859585280F391F80E09AE04A
:103F6000821B930BDF91CF9108952F5F253051F77E
:103F700024E0ECCF80E09AE0F5CFAF92BF92CF92F1
:103F8000DF92EF92FF920F931F93CF938C015B010F
:103F90007A016A010E9401190115110509F45DC039
:103FA000F8018181882309F458C0867009F055C052
:103FB0003896C1E08191811133C0C150F801EC0FF6
:103FC000F11D878181110DC080E092E00E948C0676
:103FD000F801EC0FF11D87838823E1F2F8011586C3
:103FE0001486A7014C195D094A0D5B1DF801648513
:103FF00075859601EC0FF11D87810E945C07C81A38
:10400000D90AF80124853585820F931F9587848707
:104010001C141D0454F4C43009F4BCCFCF5FD4CFBA
:10402000CF5FC53039F6C4E0C9CF0E945D03665F3B
:104030007F4F8F4F9F4FF80166877787808B918BDB
:10404000C7018C199D09CF911F910F91FF90EF909F
:10405000DF90CF90BF90AF90089590E080E0F3CFD5
:10406000FC01848595850C94BD1FCF93DF931F922F
:10407000CDB7DEB7698341E050E0BE016F5F7F4F8F
:10408000FC01848595850E94BD1F0F90DF91CF9123
:104090000895CF93DF93EC010E940119EC85FD8513
:1040A000309739F0818182FF08C081E092819111BF
:1040B00001C080E0DF91CF91089581E0FBCFCF93E5
:1040C000DF93EC018C859D85009769F0FC012181CF
:1040D000222349F002960E947109EC85FD858181B9
:1040E00082FF07C011821D861C86DF91CF910C9440
:1040F000011982608183F7CFCF92DF92EF92FF9216
:104100000F931F93CF93DF938C01EB016A01DC01C6
:10411000ED91FC910488F589E02D1995EA80FB80EA
:104120006C817D815C2D4D2D80912F069091300604
:1041300001968115BDE79B0710F080E090E1382FD4
:10414000292FE1E3F6E0DF01C0E0C430D1F4909321
:10415000300680932F061092B10680E0D0E0C0E0D8
:104160008430F1F48093B106209711F590E080E05F
:10417000DF91CF911F910F91FF90EF90DF90CF9043
:1041800008955996DC915997DD2339F01496CD9016
:10419000DC901597C216D30659F2CF5F5E96D5CF45
:1041A000AE2F9F2FB18DB1113CC08093B106EF01AE
:1041B00082E0898F809178048C87809179048D8743
:1041C00080917A048E8780917B048F8780E092E0D3
:1041D0009B8B8A8B9D8B8C8B81E090E0998B888B5D
:1041E0001B8E8A8F83E0888F1E8A80E18F8B3D83B0
:1041F0002C835F834E83F982E8827B836A83898D77
:104200008F7009F4B3CF0E940119898D8F708330AC
:10421000B1F78C8D9D8DF8019587848781E090E0C2
:10422000A7CFB73031F4209731F0D28CBA8DBD15BD
:1042300010F0AC2F9D2F8F5F7E96CA2FD92F90CF75
:104240004F925F926F927F928F929F92AF92BF92A6
:10425000CF92DF92EF92FF920F931F93CF93DF9352
:1042600000D000D0CDB7DEB77C01562E742E652E5F
:104270008DB69EB6FC01A6ADB7ADFD010190002044
:10428000E9F7EA1BED5ECE2ED12C8DB79EB78C19C7
:104290009D090FB6F8949EBF0FBE8DBF0DB71EB718
:1042A0000F5F1F4FA60170E060E0C8010E94A435B7
:1042B000570191E4A90EB11C81E892E09A838983A9
:1042C0008FEF8B838C838D838E8343E450E0BE011C
:1042D0006F5F7F4FC5010E94AD1B019609F401C1BC
:1042E00081E0F8018083818386E0482E4282138238
:1042F000D70114966D917D918D919C9117970E9495
:104300005E3364837583868397836086718680E8D5
:1043100090E0938782874CE150E0B801C5010E948C
:10432000F207A60170E060E0C8010E94A4353701E1
:10433000F8E06F0E711CF301D80101900D924A94C0
:10434000E1F740E150E0B801C5010E94F207A60183
:1043500070E060E0C8010E94A43596E0C92ED12C1F
:1043600040E250E0B801C5010E94F20721E0C21A04
:10437000D108B1F783E6D8018C9392E811969C930B
:10438000119793E512969C93129713968C9313971B
:1043900085E314968C93149781E015968C9315976A
:1043A00016965C9216979DE317969C93179797E045
:1043B00018969C93189719968C93199786E0F30199
:1043C0001A9601900D928A95E1F78CE0F801808BA6
:1043D000D701DE96CD90DC90F60101900020E9F740
:1043E0003197EC19FD09D8015196EC93F601019033
:1043F0000020E9F73197AF014C195D09B601C801FA
:1044000042960E949B35F60101900020E9F7AF012A
:104410004C195D094F5E5F4FB801C5010E94F2075C
:10442000F3E05F1234C082E3D8018C9384E01196EC
:104430008C931197F701968512969C931297978506
:1044400013969C931397908914969C931497918933
:1044500015969C93159796E316969C931697179628
:104460008C931797828D18968C931897838D199635
:104470008C931997848D1A968C931A97858D1B9619
:104480008C934CE050E0B801C5010E94F20787E32D
:10449000D8018C9386E011968C93119791E0129637
:1044A0009C93129793E013969C93139714968C9376
:1044B00014978FE015968C9315978AE316968C9334
:1044C00016978BE317968C9317978FEF18968C930C
:1044D00049E050E0B801C5010E94F207C5010E9401
:1044E000D0180FB6F8949EBE0FBE8DBE0FB6F894CE
:1044F0009EBE0FBE8DBE26960FB6F894DEBF0FBED1
:10450000CDBFDF91CF911F910F91FF90EF90DF9082
:10451000CF90BF90AF909F908F907F906F905F9063
:104520004F9008952F923F924F925F926F927F9299
:104530008F929F92AF92BF92DF92EF92FF920F9372
:104540001F93CF93DF93CDB7DEB7C254D1090FB617
:10455000F894DEBF0FBECDBF7C015B010E945D03FE
:104560002B013C0187010F5B1F4FC8010E949D1B5F
:10457000181619069CF00E945D03641975098609D6
:104580009709613A7F408105910508F0A5C162E372
:1045900070E080E090E00E942B03E7CF42E250E021
:1045A000BE016F5F7F4FC8010E94EB0A8981823094
:1045B00009F08DC1C8010E94A0078334910509F05C
:1045C00086C16D817E818F8198850E945E332B012B
:1045D0003C01F501408251826282738246E050E0E4
:1045E000B701685F7F4FCE014D960E948E35892BB3
:1045F00099F4F70180819181A281B381481659060F
:104600006A067B0648F084819581A681B78184156E
:104610009505A605B705F0F4C8010E94261BD12C0C
:104620008D2DCE5BDF4F0FB6F894DEBF0FBECDBF32
:10463000DF91CF911F910F91FF90EF90DF90BF908E
:10464000AF909F908F907F906F905F904F903F9032
:104650002F90089589899A89AB89BC898687978725
:10466000A08BB18B8EECA82EB12CC8010E94D5076F
:10467000F1E0AF1AB108C9F7D12CC70182969CAFFF
:104680008BAFF701B696FEAFEDAF089621969FAFC0
:104690008EAF219757019AE1A90EB11C749723960A
:1046A000FFAFEEAF23971701F6E12F0E311C270164
:1046B0002EE1420E511CC8010E94931B18161906C8
:1046C0000CF006C1C8010E94D5078333910509F497
:1046D000E4C09CF58130910509F480C074F4892B05
:1046E00051F3C8010E94D507982E9A94FFEF9F16A8
:1046F00011F3C8010E94D507F8CF8330910509F462
:104700007AC0069771F7C8010E94D507882E44E049
:1047100050E0B201C8010E94EB0A712C612CE82D17
:10472000E450FF0B4F01681479042CF6C8010E9475
:10473000D507FFEF6F1A7F0AF6CF8A33910509F488
:104740007EC0DCF58533910509F440C0C69749F673
:10475000C8010E94D507982E1FAA18AE19AE1AAE2E
:10476000B501CE018F960E94850E4FA958AD69AD57
:104770007AAD89A99AA9ABA9BCA9481759076A07B4
:104780007B07B9F0B801CE0189960E94AF07B50149
:10479000CE0183960E94850E4DA15EA16FA178A5E2
:1047A0008BA59CA5ADA5BEA5481759076A077B0731
:1047B000E9F544E050E0B5011AC08B33910509F4E6
:1047C00054C08F3F910509F476CF8BCFC8010E946A
:1047D000D507C8010E94D507D82E6DCFC8010E9409
:1047E000D50744E050E023966EAD7FAD2397C80116
:1047F0000E94EB0A60CFC8010E94D507882E44E0D2
:1048000050E0B101C8010E94EB0A712C612C882D87
:104810008450990B4C01681479040CF04CCFC801FA
:104820000E94D5079FEF691A790AF5CF9A942FEF66
:10483000921609F440CFC8010E94D507F7CFC801EE
:104840000E94D50744E050E06DAD7EADC8010E94E6
:10485000EB0AF70166A177A180A591A50E945E33BE
:1048600066A377A380A791A726CFC8010E94D5078A
:1048700044E050E021966EAD7FAD2197C8010E94C3
:10488000EB0AF70162A573A584A595A50E945E3386
:1048900062A773A784A795A70ECFC8010E94D5076A
:1048A00044E050E06BAD7CADC8010E94EB0AF7011B
:1048B00062A173A184A195A10E945E3362A373A338
:1048C00084A395A366A777A780AB91ABF4CED12C38
:1048D000C8010E94261BA4CEDD24DA94A1CE4F92FB
:1048E0005F926F927F928F929F92AF92BF92EF9260
:1048F000FF920F931F93CF93DF932B013C0149014C
:104900005A0120E030E04AE754E40E94A7300E94B8
:10491000A732EB01F12CE12C2AE030E0209749F09E
:104920008FEFE81AF80ACE01B9010E944233EB0179
:10493000F5CF83E0E816F104C9F01CF08FEFE81A18
:10494000F80A20E030E048EC52E4C501B4010E94CE
:10495000A7300E94A7322AE030E06115710551F0BE
:104960002196CB01B9010E944233F7CF85E0E82EB2
:10497000F12CE7CFC330D10529F10CF02196C70106
:104980000E94420CCE010E94420C08E114E023E098
:104990004E2DC301B2010E942E2D0EE014E022E044
:1049A0004C2FC501B4010E942E2DA0EFB3E0E8E129
:1049B000F4E0CF01885194408E159F0534F4819125
:1049C0008D93F7CFC5E0D0E0DACF8AE3F701E0516D
:1049D000FC4F8083AEE0B4E03196CD018E50944020
:1049E0008C179D071CF48D918083F6CFC051DC4F4E
:1049F000CE0DDF1D85E192E0898380EF93E0DF91AA
:104A0000CF911F910F91FF90EF90BF90AF909F902B
:104A10008F907F906F905F904F9008951F920F92AC
:104A20000FB60F9211242F933F938F939F93AF93C1
:104A3000BF938091280790912907A0912A07B091F0
:104A40002B073091270723E0230F2D3758F50196C8
:104A5000A11DB11D20932707809328079093290754
:104A6000A0932A07B0932B0780912C0790912D07D4
:104A7000A0912E07B0912F070196A11DB11D809323
:104A80002C0790932D07A0932E07B0932F07BF916B
:104A9000AF919F918F913F912F910F900FBE0F90EB
:104AA0001F90189526E8230F0296A11DB11DD2CFA5
:104AB0001F920F920FB60F9211240BB60F922F93E5
:104AC0003F934F935F936F937F938F939F93AF9396
:104AD000BF93EF93FF9380E397E00E94E403FF917D
:104AE000EF91BF91AF919F918F917F916F915F9166
:104AF0004F913F912F910F900BBE0F900FBE0F90D3
:104B00001F9018951F920F920FB60F9211240BB69B
:104B10000F922F938F939F93EF93FF93E091400712
:104B2000F09141078081E0914607F091470782FDAF
:104B30001DC09081809149078F5F8F7320914A0734
:104B4000821741F0E0914907F0E0E05DF84F958F62
:104B500080934907FF91EF919F918F912F910F9033
:104B60000BBE0F900FBE0F901F9018958081F2CF53
:104B7000FC013381360F30937304A72FBB2792813A
:104B80009A0F909372042181209371044081409385
:104B900070049A171B0648F481E0820F8093710419
:104BA000811103C04F5F40937004772736171706B3
:104BB00088F49F5F9093720491110CC080917104EE
:104BC0008F5F80937104811105C0809170048F5FA5
:104BD000809370040895CF93DF93C0917D04D091AA
:104BE0007E04BC01CE0108960E94B825E0E7F4E0FF
:104BF000808188878181898782818A8783818B8769
:104C0000DF91CF910895CF92DF92EF92FF92CF93F1
:104C1000DF93E0E3F7E01382128288EEC82E83E090
:104C2000D82EE12CF12CC482D582E682F7828DE465
:104C300092E09183808385EC90E09587848784EC73
:104C400090E09787868780EC90E0918B808B81EC59
:104C500090E0938B828B82EC90E0958B848B86EC3A
:104C600090E0978B868B118E128E138E148EEDEC46
:104C7000F7E0C1E8D2E0D183C083128213821482AC
:104C80001582E3EDF7E0D183C08312821382148290
:104C90001582E4E3F8E0D183C08312821382148288
:104CA0001582EEE2F8E0D183C0831282138214826F
:104CB000158210921808109217088AE198E00E9455
:104CC0006D0EEAE3F8E0D183C0831282138214826E
:104CD0001582E0E4F8E0D183C0831282138214824B
:104CE0001582E6E4F8E0D183C08312821382148235
:104CF0001582EAE5F8E0D183C08312821382148220
:104D00001582ECE4F8E013821282C482D582E68236
:104D1000F7828FE592E09183808315861486DF9178
:104D2000CF91FF90EF90DF90CF900895CF93DF93D6
:104D3000CDB7DEB7A0970FB6F894DEBF0FBECDBFDC
:104D4000789484B5826084BD84B5816084BD85B566
:104D5000826085BD85B5816085BD80916E00816072
:104D600080936E0010928100809181008260809318
:104D7000810080918100816080938100809180001A
:104D80008160809380008091B10084608093B10045
:104D90008091B00081608093B0008091910082602A
:104DA0008093910080919100816080939100809127
:104DB00090008160809390008091A1008260809338
:104DC000A1008091A10081608093A1008091A0004A
:104DD00081608093A00080912101826080932101F5
:104DE0008091210181608093210180912001816067
:104DF0008093200180917A00846080937A00809172
:104E00007A00826080937A0080917A00816080933A
:104E10007A0080917A00806880937A001092C100B5
:104E2000E0914007F091410782E08083E0913C07E8
:104E3000F0913D071082E0913E07F0913F078FEC23
:104E4000808310924807E0914407F091450786E07F
:104E50008083E0914207F0914307808180618083E5
:104E6000E0914207F0914307808188608083E09160
:104E70004207F0914307808180688083E091420778
:104E8000F091430780818F7D808361E089E00E94FB
:104E9000B80261E08DE00E94B80261E085E00E9406
:104EA000B80260E08DE00E942C0261E085E00E9483
:104EB0002C0268E873E180E090E00E942B0384E01C
:104EC00080930A0289ED97E0909316078093150767
:104ED0000E945D0366507F4F8F4F9F4F6093110775
:104EE0007093120780931307909314078091F20434
:104EF00081114AC061E084E00E94B80261E084E070
:104F00000E942C021FB7F8948091F104811127C0F0
:104F1000E3E5F3E08491E9E9F3E09491E82FF0E030
:104F2000EE0FFF1FE651FD4FA591B491EC91E923DF
:104F300021F461E085E30E942C0261E085E30E9498
:104F4000B8028CB580618CBD8CB580648CBD61E08D
:104F500084E30E94B80261E083E30E94B80280917A
:104F6000F1048F5F8093F1041FBF8CB58C7F8CBDE3
:104F70008DB581608DBD82E70E94D8058093F204D3
:104F80008F3F11F41092F2041092FF051092FE056B
:104F90001092010610920006E3EFF4E089E091E040
:104FA000DF019C011D9221503040E1F781E098E043
:104FB0009093F4048093F3044FEF60E08FEF0E942E
:104FC000E40462E070E080E090E00E942B0362E382
:104FD00070E080E090E00E942B031092FD0510929B
:104FE000FC0500E110E06DE180E00E94B605811152
:104FF0000AC00150110939F06AE070E080E090E0E9
:105000000E942B03F0CF70E060E088E00E94200552
:1050100070E060E08CE00E9420056FEF77E08AE0AE
:105020000E94200561EB88E30E94A9056FE370E30D
:1050300088E20E94200569EF77EF80E30E94200557
:105040006DE070E080EC0E94200542E362EC80E8B5
:105050000E94E40462E17CE086EC0E94200562E1AB
:1050600084EC0E94A9056CED75E08AEC0E94200595
:1050700064E784EE0E94A90569E685EE0E94A90511
:1050800069E682EE0E94A9056DE283EE0E94A90501
:1050900060E380EE0E94A90561E381EE0E94A9050C
:1050A00060E071E080E10E94E1058FE10E9401056E
:1050B00040EC6BE180E80E94E40444E06FE180E8AA
:1050C0000E94E40466E774E084E10E94E10584E75D
:1050D00080930B0789E680930C0780930D078DE280
:1050E00080930E0780E380930F0781E3809310077E
:1050F0001092AA061092A9061092AC061092AB0666
:105100001092AE061092AD061092B0061092AF0645
:1051100010924A0610926806109286061092A40613
:1051200080E094E09093300680932F06109208065A
:1051300010920706109213061092120610921E0685
:1051400010921D06109229061092280684E0809382
:10515000B10610920A079BE024E080910A0788308C
:1051600008F4D5C10091150710911607D801929641
:105170001D921D921D921C929597F80116A217A2DE
:1051800010A611A69A961D921D921D921C929D9793
:1051900016AA17AA10AE11AE86AD97AD009711F002
:1051A0000E9424348AE090E00E948833D801DF9680
:1051B0009C938E93DE9762E972E00E94B43586E09C
:1051C000F8013896DF011D928A95E9F784E1369659
:1051D000DF011D928A95E9F784E7F801808789E667
:1051E000818782878DE2838780E3848781E3858757
:1051F0009801205C3F4F3E8F2D8FD9011C920E9459
:10520000982D2FEC37E040E050E00E946531DC0142
:10521000CB010196A11DB11DF80184839583A6835E
:10522000B78380839183A283B3835801F1E4AF0EE7
:10523000B11CC5010E944C0E64E470E0C5010E94DF
:10524000270E882309F4A6C00E945D032B013C01B0
:1052500048EEC42E43E0D42EE12CF12C52E0252E52
:10526000912C812CAD8DBE8D8C91833081F181117B
:105270005CC1F80184819581A681B7810196A11D49
:10528000B11D84839583A683B7830E945D0364194F
:10529000750986099709A70196010E949731A9010E
:1052A00061E0C8010E94202181E0AD8DBE8D8C930C
:1052B000F1E08F169104B1F20E945D036419750943
:1052C0008609970961367A4E8105910548F2C50134
:1052D0000E944C0EF80184819581A681B7810196C8
:1052E000A11DB11D84839583A683B7838A948928E1
:1052F00009F050C00091150710911607B8016E5EB5
:105300007F4FCE0147960E94850EB8016A5E7F4F9F
:10531000CE0141960E94850EB801625E7F4FCE019C
:105320000B960E94850EB801625F7F4FCE010196F9
:105330000E94850E8D819E812B813C8130931807C0
:105340002093170790931A07809319078D899E89D8
:105350002B893C893093200720931F0790932207C5
:10536000809321078B8D9C8D298D3A8D30931C075E
:1053700020931B0790931E0780931D078D859E85A4
:10538000AF85B8898093300890933108A093320894
:10539000B09333086CE972E080E397E00E94E70B7A
:1053A00030911707209118079091190780911A07DB
:1053B00001E812E01A8309833B832C839D838E834B
:1053C000CE0101960E94C00C66EA72E080E397E08D
:1053D0000E94E70B30911B0720911C0790911D073D
:1053E00080911E071A8309833B832C839D838E83C0
:1053F000CE0101960E94C00C63EB72E080E397E05F
:105400000E94E70B30911F07209120079091210700
:10541000809122071A8309833B832C839D838E838B
:10542000CE0101960E94C00C6FEB72E080E397E022
:105430000E94E70B1A83098380913008909131080C
:10544000A0913208B09133088B839C83AD83BE83D7
:10545000CE0101960E94C00C1092230710922407DF
:1054600010922507109226078DE8782E409017029B
:1054700050901802609019020E945D03009123076A
:10548000109124072091250730912607601B710B8E
:10549000820B930B16161706180619060CF0D6C2C7
:1054A0000E945D0368577C4E8F4F9F4F6093230788
:1054B0007093240780932507909326078DEC92E044
:1054C0000E94D20C21E832E03A8329833AE03B8300
:1054D0008DE08C8394E69D837E8240E553ECBE0193
:1054E0006F5F7F4F8CE498E00E947C20892B09F449
:1054F000B0C28CED92E00E94D20C8CE498E00E9445
:10550000910A892B09F0C7C00E945D03F6CF899FDD
:10551000F0011124EE54F94FDF01322F1D923A951C
:10552000E9F78F5F80930A0718CE8430F9F4F80109
:1055300084819581A681B7810196A11DB11D8483C7
:105540009583A683B7830E945D0364197509860954
:105550009709A70196010E949731A90163E0C8014C
:105560000E942021AD8DBE8D2C92A2CE813031F5CE
:10557000BE016F5F7F4FC8010E949222382EB2E0B9
:105580008B1382C089819A81AB81BC81F8018483AD
:105590009583A683B7830E945D0364197509860904
:1055A0009709A70196010E949731A90163E0C801FC
:1055B0000E942021AD8DBE8D3C927ACE823009F0C2
:1055C00077CEBE016F5F7F4FC8010E949222382EB6
:1055D000B5E08B1352C023E0ED8DFE8D2083F801E2
:1055E00082A193A1A4A1B5A1892B8A2B8B2B41F475
:1055F00084E893E0A0E0B0E082A393A3A4A3B5A3C2
:10560000F80186A197A1A0A5B1A5892B8A2B8B2B88
:1056100061F482A193A1A4A1B5A1B695A795979590
:10562000879586A397A3A0A7B1A7F80186A197A104
:10563000A0A5B1A542A553A564A575A5452B462BEC
:10564000472B51F4AC01BD01440F551F661F771F56
:1056500042A753A764A775A7F80186A797A7A0AB91
:10566000B1AB82A593A5A4A5B5A582AB93ABA4AB22
:10567000B5AB88248394912C1BCEF6E08F1304C025
:10568000AD8DBE8D1C9214CEBFEF3B1211CEED8DB1
:10569000FE8D10820DCE8CE498E00E94910A8C0160
:1056A000181619060CF0C4C12DB63EB6ADB7BEB77C
:1056B000A81BB90B0FB6F894BEBF0FBEADBFEDB7B8
:1056C000FEB731967F010E94420CA801B7018CE41D
:1056D00098E00E94F5098C018CE498E00E949909F9
:1056E000A801B70180E397E00E94F20A49E050E088
:1056F00061E072E08CE498E00E94F20A8CE498E0A9
:105700000E9499098AE090E00E94420C4FE050E02C
:10571000BE016F5F7F4F8CE498E00E94F5096C0139
:10572000181619069CF7AC01BE016F5F7F4F80E32E
:1057300097E00E94F20AC6010E94420C2DB73EB7C4
:105740002C193D090FB6F8943EBF0FBE2DBF0DB703
:105750001EB70F5F1F4FCE0101964C015801F12C6F
:10576000E12CD4016D914D01653409F45CC1F50162
:1057700061935F0180E397E00E946903FFEFEF1AF6
:10578000FF0AEC14FD046CF36AE080E397E00E94EA
:1057900069036AE070E090E080E00E94AD349E8F83
:1057A0008D8F009731F0DC011C926DEE72E00E944B
:1057B000B4356DEE72E0C8010E94AB350E94420C18
:1057C0004B865C866D866DEE72E0C8010E94AB353B
:1057D000892B89F487EF92E00E94D20C60E089E087
:1057E0000E942C0243E050E0BE01655F7F4F8CE4D5
:1057F00098E00E94F20A6CE173E0C8010E94AB35A8
:10580000892B89F487E293E00E94D20C61E089E061
:105810000E942C0243E050E0BE01655F7F4F8CE4A4
:1058200098E00E94F20AC8010E94D20C6DE473E075
:10583000C8010E94AB350E94420C6DE473E0C801C0
:105840000E94AB35892B99F587E593E00E94D20C35
:1058500020E030E046E653E46AE077ED83EE9EE335
:105860000E946F247C014EE150E0BC018CE498E082
:105870000E94F20A63E873E080E397E00E94E70B7E
:105880006AE077ED83EE9EE30E94E90C80EA93E004
:105890000E94D20C60E070E086E693E40E94E90C7E
:1058A0008DE893E00E94D20CC7010E94D20C6AEAF4
:1058B00073E0C8010E94AB35892BA1F587E593E021
:1058C0000E94D20C0E94F90A4B015C0188E30E94FD
:1058D000920B6B017C01A50194010E946F2498A397
:1058E0008F8F4EE150E0BC018CE498E00E94F20AF8
:1058F00063E873E080E397E00E94E70BC701B6011D
:105900000E94E90C80EA93E00E94D20CC501B40128
:105910000E94E90C8DE893E00E94D20C8F8D98A133
:105920000E94D20C64EB73E0C8010E94AB35892B56
:10593000A1F587E593E00E94D20C0E94F90A4B0181
:105940005C0189E30E94920B6B017C01A50194012B
:105950000E946F2498A38F8F4EE150E0BC018CE42D
:1059600098E00E94F20A63E873E080E397E00E9407
:10597000E70BC701B6010E94E90C80EA93E00E94A0
:10598000D20CC501B4010E94E90C8DE893E00E949D
:10599000D20C8F8D98A10E94D20C6EEB73E0C801DF
:1059A0000E94AB35892B91F587E593E00E94D20CDC
:1059B0000E94F90A4B015C018AE30E94920B6B0181
:1059C0007C01A50194010E946F248C014EE150E0FE
:1059D000BC018CE498E00E94F20A63E873E080E383
:1059E00097E00E94E70BC701B6010E94E90C80EA2C
:1059F00093E00E94D20CC501B4010E94E90C8DE82D
:105A000093E00E94D20CC8010E94D20CED8DFE8D55
:105A1000309719F0CF010E9424340FB6F8943EBE9F
:105A20000FBE2DBE38CEF801EE0DFF1D1082ACCE9C
:105A300060ED77E080E090E00E942B0388EC93E03B
:105A40000E94D20C8CE498E00E945F200E947304B4
:105A500013CD8AED93E00E94D20CF8CFEF920F9312
:105A60001F93CF93DF93E80134E047FD34E1042E28
:105A7000000C550B57FF03C0519541955109E32E7A
:105A8000022F242FAE010E94F02DCE01DF91CF9185
:105A90001F910F91EF9008958F929F92AF92BF92B6
:105AA000CF92DF92EF92FF92CF93DF93EC01688168
:105AB00079818A819B81611571058105910521F4A8
:105AC00064E279ED8BE597E02DE133EF41E050E0C2
:105AD0000E94653149015A019B01AC01A7EAB1E47A
