:100000000C9435010C9466010C9466010C94660105
:100010000C9466010C9466010C9466010C946601C4
:100020000C9466010C9466010C9466010C946601B4
:100030000C9466010C9466010C9466010C946601A4
:100040000C9466010C9466010C9466010C94660194
:100050000C9466010C9466010C9466010C944104A6
:100060000C9466010C94B5040C948B040C946601FA
:100070000C9466010C9466010C9466010C94660164
:100080000C9466010C9466010C9466010C94660154
:100090000C9466010C9466010C9466010C94660144
:1000A0000C9466010C9466010C9466010C94660134
:1000B0000C9466010C9466010C9466010C94660124
:1000C0000C9466010C9466010C9466010C94660114
:1000D0000C9466010C9466010C9466010C94660104
:1000E0000C9466010C9486010C9444030C94C70193
:1000F0000C94BD010C94FE020C94AE020C94AF0162
:100100000C94AB010C9458060C94B9010C94980112
:100110000C94CB010C94DB020C948C010C940C031A
:100120000C9490010C9491030C949B010C94EA02A2
:100130000C94A5010C94A1010C94C1010C94C6016E
:100140000C94B3010C9494010000210024002700BA
:100150002A002D00300033000101000004010701D6
:100160000A0100002200250028002B002E0031008B
:10017000340002010000050108010B01000020000D
:100180002300260029002C002F003200000100006F
:10019000030106010901050505050705080808080A
:1001A000020202020A0A080804040404010101010F
:1001B000010101010303030303030303040707070A
:1001C0000C0C0C0C0C0C0C0C0202020206060606AF
:1001D000060606060B0B0B0B0B0B0B0B010210207C
:1001E000200808102040102040800201020108046D
:1001F0000201010204081020408080402010080401
:100200000201800402018040201008040201080459
:10021000020101020408102040800102040810209D
:10022000408000000A0B02090C0D0E0807030401B0
:1002300000000000000000000000000000000000BE
:10024000000000000000000000000000000012118B
:10025000100000000000000000000000000000008E
:100260000000000000000000580611241FBECFEF60
:10027000D1E2DEBFCDBF00E00CBF12E0A0E0B2E0F3
:10028000E2E6FDE000E00BBF02C007900D92AA3C41
:10029000B107D9F723E0AAECB2E001C01D92A03764
:1002A000B207E1F711E0C5E3D1E000E006C0219715
:1002B0000109802FFE010E94A706C433D10780E008
:1002C0000807A9F70E94EB040C94AF060C940000F9
:1002D0008150823108F05AC0E82FF0E08827EC58AE
:1002E000FE4F8F4F0C94A7069401980186018C0154
:1002F0009001C6019B01A101A501AB01AF01B301B2
:10030000B901BD01C601C101C701CB0180918000C7
:100310008F77809380000895809180008F7DF9CF42
:1003200080918000877FF5CF84B58F7784BD089555
:1003300084B58F7DFBCF8091B0008F778093B00024
:1003400008958091B0008F7DF9CF809190008F77D4
:10035000809390000895809190008F7DF9CF8091D7
:100360009000877FF5CF8091A0008F778093A000C9
:1003700008958091A0008F7DF9CF8091A000877FA4
:10038000F5CF809120018F7780932001089580918F
:1003900020018F7DF9CF80912001877FF5CFCF930A
:1003A000DF93282F30E0F901EE5DFD4F8491F901D4
:1003B000E452FE4FD491F901EA56FE4FC491CC238A
:1003C000A1F081110E946801EC2FF0E0EE0FFF1FF9
:1003D000E458FE4FA591B491EC91ED2381E090E0BB
:1003E00009F480E0DF91CF91089580E090E0FACFAA
:1003F0001F93CF93DF93282F30E0F901EE5DFD4F7F
:100400008491F901E452FE4FD491F901EA56FE4F6E
:10041000C491CC23A9F0162F81110E946801EC2F02
:10042000F0E0EE0FFF1FEE59FE4FA591B4918FB78C
:10043000F894EC91111108C0D095DE23DC938FBFA6
:10044000DF91CF911F910895DE2BF8CFCF93DF93EB
:1004500090E0FC01E452FE4F24918A569E4FFC012D
:1004600084918823D1F090E0880F991FFC01E85B0C
:10047000FE4FA591B491FC01EE59FE4FC591D49168
:1004800061110EC09FB7F8948C91E22FE0958E23F6
:100490008C932881E223E8839FBFDF91CF91089559
:1004A0008FB7F894EC91E22BEC938FBFF6CF3FB768
:1004B000F8948091CF029091D002A091D102B09196
:1004C000D20226B5A89B05C02F3F19F00196A11DA9
:1004D000B11D3FBFBA2FA92F982F8827BC01CD018E
:1004E000620F711D811D911D42E0660F771F881FED
:1004F000991F4A95D1F708958F929F92AF92BF921C
:10050000CF92DF92EF92FF924B015C010E94570263
:100510006B017C010E9457026C197D098E099F09AD
:10052000683E734081059105A8F321E0821A910885
:10053000A108B10888EEC80E83E0D81EE11CF11CAA
:1005400081149104A104B10429F7FF90EF90DF908A
:10055000CF90BF90AF909F908F900895AF92BF9231
:10056000CF92DF92EF92FF920F931F93CF93DF937F
:100570006C017B018B01040F151FEB015E01AE18AE
:10058000BF08C017D10759F06991D601ED91FC91D0
:100590000190F081E02DC6011995892B79F7C501ED
:1005A000DF91CF911F910F91FF90EF90DF90CF904F
:1005B000BF90AF900895FC01538D448D252F30E0FE
:1005C000842F90E0821B930B541710F0CF96089560
:1005D00001970895FC01918D828D981761F0A28D8D
:1005E000AE0FBF2FB11D5D968C91928D9F5F9F7353
:1005F000928F90E008958FEF9FEF0895FC01918D09
:10060000828D981731F0828DE80FF11D858D90E075
:1006100008958FEF9FEF0895FC01918D228D892F12
:1006200090E0805C9F4F821B91098F7399270895FA
:1006300083ED92E00E940C0321E0892B09F420E075
:10064000822F0895FC01A48DA80FB92FB11DA35AC4
:10065000BF4F2C91848D90E001968F739927848FE2
:10066000A689B7892C93A089B1898C918370806405
:100670008C93938D848D981306C00288F389E02DA6
:1006800080818F7D80830895EF92FF920F931F9357
:10069000CF93DF93EC0181E0888F9B8D8C8D981335
:1006A0001AC0E889F989808185FF15C09FB7F89441
:1006B000EE89FF896083E889F9898081837080648D
:1006C00080839FBF81E090E0DF91CF911F910F91D8
:1006D000FF90EF900895F62E0B8D10E00F5F1F4FE7
:1006E0000F731127E02E8C8D8E110CC00FB607FCF6
:1006F000FACFE889F989808185FFF5CFCE010E9484
:100700002203F1CFEB8DEC0FFD2FF11DE35AFF4FCC
:10071000F0829FB7F8940B8FEA89FB898081806211
:10072000CFCFCF93DF93EC01888D8823B9F0AA89CE
:10073000BB89E889F9898C9185FD03C0808186FD9C
:100740000DC00FB607FCF7CF8C9185FFF2CF8081EB
:1007500085FFEDCFCE010E942203E9CFDF91CF913B
:10076000089580E090E0892B29F00E941803811100
:100770000E94000080E090E0892B49F080E090E04A
:10078000892B29F00E94000081110E94000080E066
:1007900090E0892B49F080E090E0892B29F00E94BD
:1007A000000081110E94000080E090E0892B49F058
:1007B00080E090E0892B29F00E94000081110C94C8
:1007C00000000895FC0101900020E9F73197AF0186
:1007D000481B590BBC0183ED92E00C94AE028F9242
:1007E0009F92AF92BF920F931F93CF93DF93CDB79A
:1007F000DEB7A1970FB6F894DEBF0FBECDBF19A22A
:10080000423008F44AE08E010F5D1F4F842E912C78
:10081000B12CA12CA50194010E948506E62FB901F7
:10082000CA01EA30F4F4E05DD801EE938D01232B88
:10083000242B252B79F790E080E0109719F0CD015B
:100840000E94E203A1960FB6F894DEBF0FBECDBFA3
:10085000DF91CF911F910F91BF90AF909F908F909C
:100860000895E95CE1CFCF93DF930E94E203EC01AE
:1008700082E192E00E94E2038C0F9D1FDF91CF91F5
:1008800008951F920F920FB60F9211242F933F934A
:100890008F939F93AF93BF938091CB029091CC02A3
:1008A000A091CD02B091CE023091CA0223E0230F75
:1008B0002D3758F50196A11DB11D2093CA028093D2
:1008C000CB029093CC02A093CD02B093CE02809144
:1008D000CF029091D002A091D102B091D2020196A4
:1008E000A11DB11D8093CF029093D002A093D1029D
:1008F000B093D202BF91AF919F918F913F912F9171
:100900000F900FBE0F901F90189526E8230F0296A8
:10091000A11DB11DD2CF1F920F920FB60F921124BD
:100920000BB60F922F933F934F935F936F937F93E9
:100930008F939F93AF93BF93EF93FF9383ED92E0D9
:100940000E942203FF91EF91BF91AF919F918F91F0
:100950007F916F915F914F913F912F910F900BBEBF
:100960000F900FBE0F901F9018951F920F920FB609
:100970000F9211240BB60F922F938F939F93EF93A7
:10098000FF93E091E302F091E4028081E091E902BB
:10099000F091EA0282FD1DC090818091EC028F5F90
:1009A0008F732091ED02821741F0E091EC02F0E0AC
:1009B000ED52FD4F958F8093EC02FF91EF919F9147
:1009C0008F912F910F900BBE0F900FBE0F901F9025
:1009D00018958081F2CF789484B5826084BD84B507
:1009E000816084BD85B5826085BD85B5816085BD2A
:1009F00080916E00816080936E00109281008091E2
:100A00008100826080938100809181008160809369
:100A10008100809180008160809380008091B1008E
:100A200084608093B1008091B00081608093B000B9
:100A3000809191008260809391008091910081600B
:100A400080939100809190008160809390008091CC
:100A5000A10082608093A1008091A10081608093B9
:100A6000A1008091A00081608093A000809121016D
:100A70008260809321018091210181608093210116
:100A80008091200181608093200180917A008460B0
:100A900080937A0080917A00826080937A008091BE
:100AA0007A00816080937A0080917A0080688093D8
:100AB0007A001092C10061E084E00E94260261E0A9
:100AC00086E00E94260260E088E00E94260261E043
:100AD00087E00E94260261E084E00E94F80161E064
:100AE00086E00E94F80161E087E00E94F80165B7A6
:100AF00070E090E080E04AE00E94EF0382E192E043
:100B00000E94E203E091E302F091E40282E080833C
:100B1000E091DF02F091E0021082E091E102F091B9
:100B2000E2028FEC80831092EB02E091E702F091F9
:100B3000E80286E08083E091E502F091E6028081A0
:100B400080618083E091E502F091E6028081886017
:100B50008083E091E502F091E602808180688083E5
:100B6000E091E502F091E60280818F7D808385E14E
:100B700092E00E94330486E292E00E94330468E827
:100B800073E180E090E00E947C0283ED92E00E949D
:100B90000C03181619060CF088C083ED92E00E9431
:100BA000EA02C82F682F83ED92E00E94440382E19D
:100BB00092E00E94E20384E492E00E94330461E048
:100BC00070E080E090E0C23719F060E070E0CB01A7
:100BD0004AE00E94EF0382E192E00E94E2034AE0D1
:100BE00061E070E080E090E00E94EF0382E192E03B
:100BF0000E94E2034AE061E070E080E090E00E9441
:100C0000EF0382E192E00E94E203C23791F58AE5A8
:100C100092E00E94330481E792E00E94330460E096
:100C200086E00E94F80160E084E00E94F80160E341
:100C300075E780E090E00E947C0261E084E00E9421
:100C4000F80188E00E94CF01EC01219749F088E08B
:100C50000E94CF01EC018FE892E00E943304F5CFAF
:100C600084EA92E00E94330461E086E00E94F80189
:100C70008CCFC33709F089CF85EB92E00E94330413
:100C800068EE73E080E090E00E947C0281E085BF26
:100C900082E085BF88E198E00FB6F894A89580932C
:100CA00060000FBE90936000FFCF0E94B10363CF3E
:100CB000E3EDF2E01382128288EE93E0A0E0B0E070
:100CC00084839583A683B78384E092E091838083B5
:100CD00085EC90E09587848784EC90E09787868701
:100CE00080EC90E0918B808B81EC90E0938B828BF9
:100CF00082EC90E0958B848B86EC90E0978B868BD2
:100D0000118E128E138E148E0895A1E21A2EAA1B34
:100D1000BB1BFD010DC0AA1FBB1FEE1FFF1FA217AB
:100D2000B307E407F50720F0A21BB30BE40BF50BA8
:100D3000661F771F881F991F1A9469F76095709531
:100D4000809590959B01AC01BD01CF010895EE0FF8
:100D5000FF1F881F8BBF0790F691E02D1994F89420
:020D6000FFCFC3
:100D6200000000004403AE02DB0291030C03EA021E
:100D7200FE020D0A00496E7369646520746865207D
:100D8200736574757000436865636B696E6720668E
:100D92006F7220612073657269616C20636F6D6D83
:100DA200616E6400496E73696465207468652077BA
:100DB20068696C65206C6F6F700052656369657657
:100DC200656420636F6D6D616E6420726573657416
:100DD2000044697361626C696E67207468652045BE
:100DE200746865726E6574206D6F64756C6500441D
:100DF2006964206E6F74207265636965766520543C
:100E02007269670052656369657665642054726928
:100E1200676765720054726967676572696E6720F9
:0A0E22007468652072657365740042
:00000001FF
