:020000040000FA
:100000000C945D000C9485000C9485000C94850084
:100010000C9485000C9485000C9485000C9485004C
:100020000C9485000C9485000C9485000C9485003C
:100030000C9485000C9485000C9485000C9485002C
:100040000C9454200C9485000C94C4200C949E2095
:100050000C9485000C9485000C9485000C9485000C
:100060000C9485000C94850000000008000201003B
:100070000003040700000000000000000000000072
:10008000250028002B0000000000240027002A0083
:10009000040404040404040402020202020203032E
:1000A0000303030301020408102040800102040836
:1000B0001020010204081020412111241FBECFEF9F
:1000C000D8E0DEBFCDBF12E0A0E0B1E0E2E2F5E5AE
:1000D00002C005900D92A636B107D9F726E0A6E634
:1000E000B2E001C01D92A83AB207E1F710E0CDE5F9
:1000F000D0E004C02197FE010E947328CC35D107BF
:10010000C9F70E94D4210C948F2A0C94000090E02F
:10011000FC01EC55FF4F249180579F4FFC018491C7
:10012000882399F090E0880F991FFC01EA57FF4F50
:10013000A591B491FC01E458FF4F859194918FB73C
:10014000F894EC91E22BEC938FBF089590E0FC01C2
:10015000E859FF4F2491FC01EC55FF4F3491FC010D
:10016000E057FF4FE491EE23C9F0222339F023300A
:1001700001F1A8F4213019F1223029F1F0E0EE0F5D
:10018000FF1FE458FF4FA591B4918FB7F894EC91FD
:10019000611126C030953E233C938FBF08952730D0
:1001A000A9F02830C9F0243049F7809180008F7D74
:1001B00003C0809180008F7780938000DFCF84B56B
:1001C0008F7784BDDBCF84B58F7DFBCF8091B0006E
:1001D0008F778093B000D2CF8091B0008F7DF9CF20
:1001E0003E2BDACF3FB7F89480917005909171055E
:1001F000A0917205B091730526B5A89B05C02F3F4D
:1002000019F00196A11DB11D3FBFBA2FA92F982F3C
:100210008827BC01CD01620F711D811D911D42E037
:10022000660F771F881F991F4A95D1F708958F92FF
:100230009F92AF92BF92CF92DF92EF92FF924B01CB
:100240005C010E94F2006B017C010E94F2006C19BB
:100250007D098E099F09683E734081059105A8F3C9
:1002600021E0821A9108A108B10888EEC80E83E047
:10027000D81EE11CF11C81149104A104B10429F7DA
:10028000FF90EF90DF90CF90BF90AF909F908F90B6
:1002900008952FB7F89460916C0570916D05809169
:1002A0006E0590916F052FBF0895DC01ED91FC91D3
:1002B0000190F081E02D0994AF92BF92CF92DF922E
:1002C000EF92FF920F931F93CF93DF936C017B010B
:1002D0008B01040F151FEB015E01AE18BF08C0179C
:1002E000D10759F06991D601ED91FC910190F0810F
:1002F000E02DC6010995892B79F7C501DF91CF91D2
:100300001F910F91FF90EF90DF90CF90BF90AF9033
:100310000895FC01538D448D252F30E0842F90E00B
:10032000821B930B541710F0CF96089501970895F0
:10033000FC01918D828D981761F0A28DAE0FBF2FB9
:10034000B11D5D968C91928D9F5F9F73928F90E00F
:1003500008958FEF9FEF0895FC01918D828D98177E
:1003600031F0828DE80FF11D858D90E008958FEFBB
:100370009FEF0895FC01918D228D892F90E0805C84
:100380009F4F821B91098F739927089584E795E009
:100390000E94BA0121E0892B09F420E0822F089500
:1003A00080E090E0892B29F00E94C60181110C9415
:1003B00000000895FC01A48DA80FB92FB11DA35A08
:1003C000BF4F2C91848D90E001968F739927848F75
:1003D000A689B7892C93A089B1898C918370806498
:1003E0008C93938D848D981306C00288F389E02D39
:1003F00080818F7D80830895EF92FF920F931F93EA
:10040000CF93DF93EC0181E0888F9B8D8C8D9813C7
:100410001AC0E889F989808185FF15C09FB7F894D3
:10042000EE89FF896083E889F9898081837080641F
:1004300080839FBF81E090E0DF91CF911F910F916A
:10044000FF90EF900895F62E0B8D10E00F5F1F4F79
:100450000F731127E02E8C8D8E110CC00FB607FC88
:10046000FACFE889F989808185FFF5CFCE010E9416
:10047000DA01F1CFEB8DEC0FFD2FF11DE35AFF4FA9
:10048000F0829FB7F8940B8FEA89FB8980818062A4
:10049000CFCFCF93DF93EC01888D8823B9F0AA8961
:1004A000BB89E889F9898C9185FD03C0808186FD2F
:1004B0000DC00FB607FCF7CF8C9185FFF2CF80817E
:1004C00085FFEDCFCE010E94DA01E9CFDF91CF9118
:1004D00008958823E9F0A7E3B3E025E014969C9102
:1004E000149789130DC095E0899FF0011124E95CF0
:1004F000FC4F848114968C93138212821482089587
:10050000992331F0929FD0011124A95CBC4FE6CF12
:1005100008958823A1F090913603992381F08F3FAD
:1005200029F48091440490914504089595E0899FB1
:10053000F0011124E95CFC4F82819381089590E0E1
:1005400080E008958EBD00000DB407FEFDCF8EB58E
:1005500008951F93CF93DF93182FC62FD42F60E0F9
:100560008AE00E94A6008C2F8F71812B0E94A2022C
:100570008D2F0E94A20261E08AE0DF91CF911F914E
:100580000C94A600CF93DF93D82FD07690910001E2
:100590009D17A1F0C82F43E06FE180EA0E94A902F5
:1005A0004C2F50E085E0559547958A95E1F74370CB
:1005B0006FE180E80E94A902D0930001DF91CF9102
:1005C00008951F93CF93DF93C82F162FD72F0E9424
:1005D000C202412F6C2F80E40E94A90261E06C0FDF
:1005E0004D2F80E4DF91CF911F910C94A902EF92DF
:1005F000FF920F931F93CF93DF938B017A018F3F6D
:1006000059F095E0899FE0011124C95CDC4F6881B5
:100610007981600F711F0FC0609142047091430493
:10062000600F711FC2E4D4E0611588E0780778F3A9
:100630007850C2E4D4E080E00E94E1028A819B818C
:10064000801B910BE816F90608F4C701DF91CF91E2
:100650001F910F91FF90EF900895EF92FF920F93EB
:100660001F93CF93DF93EB0170E060E00E94F702ED
:100670008C0160E08AE00E94A6008AE30E94A20248
:100680007E01E00EF11EEC16FD0629F080E00E94CE
:10069000A2028993F8CF61E08AE00E94A600C80117
:1006A000DF91CF911F910F91FF90EF90089560918E
:1006B0004004709141046115710529F06150710980
:1006C0008CE00C94E1026FEF77E0FACFCF93DF93E9
:1006D000C82FD62F0E94C2024D2F6C2F80E4DF91CD
:1006E000CF910C94A902CF93DF93D82FC62F60E04F
:1006F0008AE00E94A6008C2F8F718D2B0E94A2028F
:10070000C7FF03C080E00E94A20280E00E94A20214
:10071000C82F61E08AE00E94A6008C2FDF91CF9164
:100720000895CF93C82F0E94C2026C2F80E0CF9112
:100730000C947303CF93DF93EB01682F84ED0E9439
:100740006603BE0186ED0E94E102CFE0D0E08AEEB2
:100750000E94910380FF08C06AE070E080E090E0B2
:100760000E941701219799F7DF91CF910895CF93B8
:10077000C62FBC0182E00E94E10260E08AE00E9494
:10078000A6008AE70E94A2028C2F0E94A20261E0CA
:100790008AE0CF910C94A600CF93BC0180E00E9428
:1007A000E10260E08AE00E94A6008AE30E94A202C1
:1007B00080E00E94A202C82F61E08AE00E94A600A9
:1007C0008C2FCF910895CF92DF92EF92FF920F93EB
:1007D0001F93CF93DF936C018B014130510579F466
:1007E000CB010E94CC03682FC601DF91CF911F91EE
:1007F0000F91FF90EF90DF90CF900C94B703EA0138
:10080000C60FD71F7E0181E0E81AF10880E10E943F
:10081000E102B60184E10E94E1020115184048F4AA
:10082000E11488E0F80628F07E0181E0E81A88E00B
:10083000F80AB70182E10E94E10240E16FE180EA3B
:100840000E94A90240E26FE180E80E94A9026FE1E4
:1008500080E00E94730385FF07C061E070E080E0E4
:1008600090E00E941701F3CFDF91CF911F910F917C
:10087000FF90EF90DF90CF900895CF92DF92EF92AC
:10088000FF920F931F93CF93DF938C0160913703F7
:10089000709138036150784EC12C98E1D92EE7E36E
:1008A000F3E020E0D0E0C0E045E03481CB01332329
:1008B00041F0439FC0011124895C9C4FDC018D9164
:1008C0009C91E080F1808E199F090280F381E02DD8
:1008D0008E1B9F0B8017910799F4B5E02B9FE001C9
:1008E0001124C95CDC4FECE3F3E081E02281338129
:1008F000232B09F453C035968F5F8533B9F744C075
:100900000817190748F48C159D0530F4249FE00161
:100910001124C95CDC4F6C01311121C0209719F7FB
:10092000C7E3D3E085E0D82E8C8128813981EA8025
:10093000FB808823D9F0E20EF31E8D9DE001112487
:10094000C95CDC4F68817981E616F70669F34A8154
:100950005B81C7010E94E303F982E882E5CF349FFF
:10096000F0011124E95CFC4F232F9FCF80913703C6
:1009700090913803821B930B8E199F098150984EDA
:100980008017910708F0AFCF80E0DF91CF911F91E2
:100990000F91FF90EF90DF90CF90089528813981DB
:1009A0004A815B81240F351F3183208313830283A7
:1009B0009C8194838C83E9CF0F931F93DB01E42FF9
:1009C000A80190E0EF3FE1F065E0E69FF00111241F
:1009D000E95CFC4F60817181620F731F01C0785028
:1009E00025E0289FF001299FF00D1124E95CFC4FC0
:1009F000808191818A0F9B1F1F910F910C94E303BB
:100A00006091420470914304620F731F6115E8E026
:100A10007E0728F7E2E4F4E0DDCFCF92DF92EF9299
:100A2000FF920F931F93CF93DF936B018A0179019C
:100A300095E0899FE0011124C95CDC4F68817981D0
:100A40006C0D7D1D82E00E94E1020A80DB81C02DD9
:100A5000CC19DD09EC16FD0608F4E70160E08AE038
:100A60000E94A6008AE70E94A2027801EC0EFD1EF9
:100A7000E016F10631F0F80181918F010E94A20287
:100A8000F7CF61E08AE00E94A600CE01DF91CF910E
:100A90001F910F91FF90EF90DF90CF900895DC01B0
:100AA0001C96ED91FC91309731F0868197819827C3
:100AB00089279827089590E080E00895CF93DF93E9
:100AC000FC01EB01AC85BD851097A9F012969C91B5
:100AD000129713968C9113973C9111962C914EE797
:100AE00051E0518340833283238394838583CF01F4
:100AF000DF91CF9108958EE791E0918380831282F8
:100B0000138214821582F3CFCF93DF931F92CDB758
:100B1000DEB7DC01ED91FC91048CF58DE02D41E018
:100B200050E0BE016F5F7F4F09951816190634F427
:100B3000898190E00F90DF91CF9108958FEF9FEF23
:100B4000F9CFCF93DF93EC018A89882379F09A015A
:100B5000AB016E857F850E940D052E853F85280F90
:100B6000391F3F872E87DF91CF91089590E080E075
:100B7000FACFCF93DF931F92CDB7DEB76983DC0145
:100B8000ED91FC910280F381E02D41E050E0BE0147
:100B90006F5F7F4F09950F90DF91CF91089580E0AF
:100BA000089590E080E00895FB0141505109460FFF
:100BB000571FE417F50778F4208130E0322F222701
:100BC0006181260F311D820F931F8217930708F44E
:100BD00001963296EECFE417F50751F4208130E00C
:100BE000322F2227820F931F8217930708F4019652
:100BF0000895CF92DF92EF92FF920F931F93CF93BE
:100C0000DF93C82FE090E102F12CFE2CEE244091FE
:100C1000E2024451550BE40EF51E48E050E06BEE45
:100C200072E0C7018C0F911D0E94D40508E0C1310C
:100C300029F00091FF02069506950C7310E0A801BB
:100C400063EF72E00E94D405EC010E151F0508F059
:100C500049C0A701401B510B8091B00262E270E0D5
:100C600081FF02C063E270E0600F711F8091B102EA
:100C70000E94F70201977C0160E08AE00E94A600D2
:100C80008AE30E94A202D12CC12CCE14DF04B8F456
:100C900080E00E94A202082F10E0102F002780E0C1
:100CA0000E94A202800F912F911DC80FD91FC81753
:100CB000D90708F4219682E0C80ED11CE6CFEC14C7
:100CC000FD0461F480E00E94A20290E0982F882742
:100CD000C80FD91FC817D90708F4219661E08AE028
:100CE0000E94A6009C2F8D2FCD2B11F48FEF9FEF2C
:100CF000DF91CF911F910F91FF90EF90DF90CF90F8
:100D0000089544E150E06FED72E090E080E00E94D1
:100D1000D405009721F098278927982708958FEF09
:100D20009FEF0895FF920F931F93CF93DF93C0918E
:100D3000B002C1FF66C02091AE0230E041ED52E04A
:100D400061E070E08091B1020E940D05CD7FC093FB
:100D5000B002F090B10280913603882309F444C0B8
:100D600085E0F89EF0011124E95CFC4F00811181BF
:100D7000C281D381C00FD11F60E0C8010E94B703B8
:100D8000B80184E00E94E102BE016850710986E06A
:100D90000E94E1021AE0249740E86FE180E80E9497
:100DA000A90240E86FE180EA0E94A9024AE06CE1F2
:100DB00080EA0E94A90248E06FE180E80E94A9024F
:100DC0008CE10E949103082F8A70D1F348E06FE113
:100DD00080EA0E94A90201FF2DC0CE010E94CC032F
:100DE00085FF02C01150C1F6C0E08F2D0E9469023C
:100DF0001092B1028C2FDF91CF911F910F91FF9034
:100E00000895C091C902D091CA02CE01089621F47A
:100E10001092B102C0E0EECF0E943D048093B10277
:100E20008823C1F39E0141ED52E061E070E00E9431
:100E30000D058FCFC1E0D9CF0F931F93CF93DF93D1
:100E4000EC018C010B5F1F4F89910E946902FE012A
:100E500031971082C017D107B9F7DF91CF911F9159
:100E60000F910895CF93DF93EC0188810E9469026E
:100E7000FE01CE01049621812193E817F907D9F7E5
:100E80001C82DF91CF910895CF93DF93EC01E8812D
:100E9000F981008CF18DE02D0995882339F08C853E
:100EA0009D850296DF91CF910C941C07DF91CF9125
:100EB00008950F931F93CF93DF931F92CDB7DEB7A3
:100EC0008C01DC01ED91FC91008CF18DE02D0995F8
:100ED0008823B1F0D8011C96ED91FC918281882382
:100EE00079F041E050E0BE016F5F7F4F0E942D031B
:100EF000898190E00F90DF91CF911F910F9108951C
:100F00008FEF9FEFF7CFCF93DF931F92CDB7DEB771
:100F1000DC01ED91FC910288F389E02D41E050E085
:100F2000BE016F5F7F4F09951816190634F4898149
:100F300090E00F90DF91CF9108958FEF9FEFF9CF61
:100F40006F927F928F929F92AF92BF92CF92DF92D9
:100F5000EF92FF920F931F93CF93DF938C014B017E
:100F6000EA01DC01ED91FC91008CF18DE02D0995F9
:100F7000882309F47BC0D8011C96ED91FC918281F5
:100F8000882309F476C07E018EE1682EBE016E19B9
:100F90007F09680D791DD8011C96ED91FC91A70180
:100FA00082810E942D036C01F801A484B584D501CF
:100FB00012967C90872D0E948902C816D906E9F501
:100FC000EC18FD08C50102960E943207F801A485BD
:100FD000B585EC916E9EF0011124EB58FB4F818D8D
:100FE00084FF09C011968C911197982F967019F46F
:100FF000886011968C93D8011C96ED91FC911D97F9
:10100000828181112EC0818182FF05C011821D96CF
:101010001C921E921C97CE018E199F09DF91CF91D1
:101020001F910F91FF90EF90DF90CF90BF90AF9006
:101030009F908F907F906F900895B5E07B9EF00118
:101040001124E95CFC4F808191818C0D9D1D918361
:101050008083828193818C199D0993838283CE0141
:10106000DDCFE114F10409F091CFF9CF8FEF9FEFBD
:10107000D5CF90E080E0D2CFEF92FF920F931F93F5
:10108000CF93DF93EC01E881F981008CF18DE02DA5
:1010900009958823E1F00C851D85780182E0E80E32
:1010A000F11C095F1F4FD0E0C0E0F70181917F0183
:1010B0000E948902C80FD91FE016F106B1F7CE01D0
:1010C000DF91CF911F910F91FF90EF900895D0E0A5
:1010D000C0E0F5CFFC01448555854115510551F01F
:1010E000FB01248535852115310521F081E042176A
:1010F000530709F080E00895DC011C96ED91FC9106
:10110000309731F08281811105C08181817008950D
:1011100080E0089581E00895DC01ED91FC91028C5E
:10112000F38DE02D099591E089270895DC01ED917B
:10113000FC91048CF58DE02D0994DC01ED91FC917E
:101140000280F381E02D0994FB0101900020E9F772
:101150003197AF01461B570BDC01ED91FC910280EA
:10116000F381E02D09948F929F92AF92BF92EF92FC
:10117000FF920F931F93CF93DF93CDB7DEB7A19765
:101180000FB6F894DEBF0FBECDBF7C01FA01CB01D4
:1011900019A2223008F42AE08E010F5D1F4F822E23
:1011A000912CB12CA12CBF01A50194010E944228D1
:1011B000F901CA016A300CF5605DD8016E938D01AA
:1011C000232B242B252B79F790E080E0109721F03A
:1011D000BD01C7010E94A408A1960FB6F894DEBF16
:1011E0000FBECDBFDF91CF911F910F91FF90EF9078
:1011F000BF90AF909F908F900895695CDECFCF92A3
:10120000DF92EF92FF92CF93DF936C01990FEE087C
:10121000FF08F7FE23C06DE284E795E00E945501C8
:10122000EC0144275527BA014C195D096E097F0965
:101230002AE084E795E00E94B308C80FD91F60E850
:1012400071E084E795E00E94A4088C0F9D1FDF9158
:10125000CF91FF90EF90DF90CF9008952AE0B701F3
:10126000A60184E795E00E94B308EC01E8CF8F92D5
:101270009F92AF92BF92CF92DF92EF92FF920F9325
:101280001F93CF93DF937C018B016C0182E0C80E2A
:10129000D11C4701E5E08E0E911CD0E0C0E0F601C4
:1012A00041916F0150E070E060E02AE0C8010E94C7
:1012B000B3085C016EE2C8010E9455018A0D9B1DB6
:1012C000C80FD91FC814D90451F7F701458150E060
:1012D00070E060E02AE0C8010E94B3088C0F9D1FF7
:1012E000DF91CF911F910F91FF90EF90DF90CF9002
:1012F000BF90AF909F908F900895CF93DF9364E756
:1013000075E00E943709EC0160E871E084E795E040
:101310000E94A4088C0F9D1FDF91CF910895CF9359
:10132000DF93BC0184E795E00E94A408EC0160E82B
:1013300071E084E795E00E94A4088C0F9D1FDF9167
:10134000CF9108950F931F93CF93DF93DC012091EA
:101350007304309174042F5F3F4F21158DE73807D8
:1013600010F020E030E1522F432FE7E4F4E0EF01EA
:1013700080E08430A1F4309374042093730430E04F
:1013800020E02430310599F484E08093F504F0E006
:10139000E0E0CF01DF91CF911F910F9108950C8173
:1013A0001D818F5F2B960417150719F7D4CFC481C1
:1013B000D581C90101963B96CD2B09F52093F50403
:1013C0008BE0829FF001839FF00D1124E95BFB4FBE
:1013D0005583448377836683109799F484E0DF0113
:1013E0001D928A95E9F78BE0829FD001839FB00D13
:1013F0001124A95BBB4F80E418968C93CACF9C0143
:10140000C0CF8D919C9111979183808312968D917D
:101410009C9193838283E7CF0F931F93CF93DF93A6
:10142000EC018B018C859D85892B41F470E060E097
:1014300090E080E00E94A2099D878C87EC85FD8565
:1014400080E0309749F01027012710271583048387
:101450002E96D287C18781E0DF91CF911F910F91A6
:101460000895CF93DF93DC011C96ED91FC913097AA
:10147000B1F0EC0115821482128611861D861C863D
:1014800089890E94690288890E9469028A890E946A
:1014900069022E9686E0FE0111928A95E9F7DF91A6
:1014A000CF910895FC011382128288EE93E0A0E0B0
:1014B000B0E084839583A683B7838CE191E0918328
:1014C0008083158614863E9686E0DF011D928A95FC
:1014D000E9F70895DC018EE791E08D939D9384E018
:1014E000FB0101900D928A95E1F70895EF92FF922A
:1014F0000F931F93CF93DF93FC0110924E05C6EF1D
:10150000D4E0DE0130E020E02830310569F490E0DD
:10151000983009F042C01092C8021092C70210928F
:101520004E0526EF34E044C0CD01865F94400D9116
:101530001C9111970115110561F112964D915C9165
:1015400013974115510529F1E080F1800E151F0513
:1015500001F50281138140175107D9F420934E05FC
:10156000DC01A650BB4F86E0FB0101900D928A95ED
:10157000E1F78BE0829FF001839FF00D1124EA5088
:10158000FB4F1286DF91CF911F910F91FF90EF904B
:1015900008952F5F3F4F1B96B7CF9E014881598119
:1015A000452BB1F44A815B81452B91F490934E0514
:1015B00084E0D90101900D928A95E1F7D901149642
:1015C00086E0FB0101900D928A95E1F7F901D9CFF0
:1015D0009F5F2B969DCFEF92FF920F931F93CF9318
:1015E000DF9300D000D000D0CDB7DEB74091EF023E
:1015F0005091F0024F3F540731F48091F1029091E5
:10160000F202019619F180915B0590915C05609161
:101610005F05709160059B0120953095282B392B33
:1016200042175307A9F52091610530916205209575
:101630003095E0915D05F0915E052E2B3F2BE091FA
:10164000F102F091F202E217F30711F586E0E0E40F
:10165000F1E0A1EDB2E001900D928A95E1F786E00C
:10166000EFE4F5E0A7EDB2E001900D928A95E1F785
:1016700088E090E09093DE028093DD028091C902C1
:101680009091CA020E969093CA028093C902A5C097
:101690008427952786239723892B99F42091F1029B
:1016A0003091F20280915D0590915E05822793272B
:1016B000609161057091620586239723892B09F457
:1016C00099C080916305909164059093CE028093B8
:1016D000CD0280916505909166059093D00280932C
:1016E000CF02E090CD02F090CE020091CF02109197
:1016F000D002E6EFF4E080E0883009F084C0809307
:101700004E0546E050E06FEF70E081ED92E00E9400
:10171000782A86E0E1EFF2E0DF01282F1D922A957A
:10172000E9F7EFE4F5E0A7EDB2E0982F01900D9214
:101730009A95E1F7EFE4F5E0A7EEB2E0982F01907B
:101740000D929A95E1F7F092F802E092F702109369
:10175000FA020093F90220915B0530915C05309309
:10176000EE022093ED0220915D0530915E053093ED
:10177000F0022093EF0220E031E03093E602209364
:10178000E5023093E0022093DF0228E030E030935E
:10179000E2022093E1028093E30294E09093E4025A
:1017A00028E036E03093DE022093DD0227E033E0CC
:1017B0003093CC022093CB022AE230E03093CA026D
:1017C0002093C902BE016F5F7F4FDB011D928A9596
:1017D000E9F78DEC92E00E94760A26960FB6F8940F
:1017E000DEBF0FBECDBFDF91CF911F910F91FF9054
:1017F000EF9008955093CE024093CD023093D002E3
:101800002093CF026ECF20813181E216F306E1F4FE
:101810002281338102171307B9F49481911103C017
:101820009581992329F080934E05349686E011CF57
:1018300096819111F8CF97819111F5CF90859111F3
:10184000F2CF91859111EFCF8F5F3B9655CFCF931C
:10185000DF93EC010E94EB0A8091C9029091CA02C9
:101860008A9759F41092B1028091B0028D7F8093D3
:10187000B002DF91CF910C9492060E9492061D82D5
:101880001C82DF91CF9108959C01AB017093C60239
:101890006093C5021616170654F48091C302909106
:1018A000C4028217930719F0B9010C946F2A0895A6
:1018B000EF92FF920F931F93CF93DF93E091BA02C1
:1018C000F091BB02C185D285209709F456C0E09003
:1018D000C002E1FE1FC08A8181111CC08091F30209
:1018E0009091F402978386838091EB029091EC02B1
:1018F000918380838091ED029091EE0293838283A5
:101900008091F7029091F8029827892798270897E5
:1019100009F51A82E3FE31C08D81882371F18C8133
:101920008093B1028091B00282608093B0028AE21B
:101930008093AE02688179816B5271098091CB02EC
:101940009091CC02DF91CF911F910F91FF90EF907A
:101950000C94440C0E943D04F82E8A838823D1F213
:101960000E9489028C012AE230E04091AF0270E0CF
:1019700060E08F2D0E94DC04CDCFDF91CF911F91CD
:101980000F91FF90EF900895AF92BF92CF92DF92A8
:10199000EF92FF920F931F93CF93DF93E090C102DA
:1019A000F090C202F701C48DD58DD090C00220976F
:1019B00061F5D6FC03C0F12CE12CC1C0E6E6F2E0F3
:1019C00090E080E0218121117CC022E1289FE0018C
:1019D000299FD00D1124CA59DD4FFE0111922A957D
:1019E000E9F7C70185579440959587954FEE5EEED0
:1019F000849F9001859F300D949F300D1124288382
:101A000081E08983F701D58FC48FD1FE32C0009168
:101A1000C9021091CA020115110559F18981882363
:101A2000A9F181FD26C05E01F2E0AF0EB11CC12C10
:101A3000F50181915F0181114BC0C8010E943D04F5
:101A4000F50131978083882309F442C02091CB02AD
:101A50003091CC02215D32404091AF0270E060E0F5
:101A60000E94DC04F4E0CF1204C0F701818D806194
:101A7000818F898183FF0AC0877F89838D2D826052
:101A80008093C002F701818D8F7E818F8091C0028B
:101A900084FD04C087FD02C085FF26C0CE010796E5
:101AA0000E941C078A818823E9F0F70184819581CF
:101AB00098878F83898184608983F701158E148EBE
:101AC0007ACF019672968430910509F07BCF73CF5F
:101AD000C394F5E0CF12ACCF8091B0028E7F80939B
:101AE000B002C3CF1982E9CF80FF3FC0CE01079675
:101AF0000E9432078F818823D1F19885911145C0CA
:101B0000EC84FD84E114F10409F455CF95E0899F3C
:101B1000F0011124E95CFC4FF382E2820091CB02D8
:101B20001091CC02015D12400093AE021127C80152
:101B300008968E0D9F1D009779F51092B102B7019E
:101B40008091CB029091CC020E94440CF092CA0288
:101B5000E092C902DF91CF911F910F91FF90EF901A
:101B6000DF90CF90BF90AF9008958C7019F6898167
:101B700081FF21CF8F81811124C01982F701158E39
:101B8000148E80E18093C00216CF0E9489027C01EE
:101B9000892B09F410CFC2CF0E943D048093B1027B
:101BA000882369F2B8016F5F7F4F870130E020E042
:101BB0004F810E94DC048091B00282608093B00269
:101BC000BECFF701818D8061818FF5CEAF92BF923C
:101BD000CF92DF92EF92FF921F93CF93DF938430E7
:101BE00009F458C1C091C102D091C20227E033E08C
:101BF0003093CC022093CB023093C4022093C302D3
:101C00008330C9F4898D8F70833009F044C088898E
:101C10009989892B09F03FC088E08093C0020E9417
:101C2000C40C8091C00285FF13C61092C6021092A8
:101C3000C502198E51C0823009F005C18091BF02E2
:101C40008F5F8093BF02811113C08091BE028F5FAE
:101C50008093BE0281110CC08091BD028F5F809382
:101C6000BD02811105C08091BC028F5F8093BC02D0
:101C70001092CA021092C9021092C6021092C502B6
:101C8000898D982F9D7F953059F48A8D8F5F8A8F2B
:101C9000883709F4198E1092CA021092C90231C213
:101CA0008823C9F328893989232B09F4C7C09A8D61
:101CB0002FEF290F2A8F9111EECF9B8D983031F0A5
:101CC0002FEF280F223050F4953041F4198E80E820
:101CD0008093C0020E94C40C84E184C0392F9530E7
:101CE00008F034E023E001C0220F3A95EAF72A8F8A
:101CF0009F5F9B8F8F70833009F47DC008F06AC0AE
:101D0000813009F406C4823031F6109200038091CC
:101D1000000382608093000382E08093070394E0D5
:101D2000909308038093090310920A038CE290E0D9
:101D30009093CA028093C90280E68093FF0288854F
:101D40008093FB0289858093FC028A858093FD0243
:101D50008B858093FE028C858093F7028D8580931E
:101D6000F8028E858093F9028F858093FA0286E0CF
:101D70008093E8028C819D819093F4028093F3021A
:101D80008E819F819093F6028093F50280915B058E
:101D900090915C059093EC028093EB0280915D053D
:101DA00090915E059093EE028093ED028881998177
:101DB0009093F0028093EF028A819B819093F202CC
:101DC0008093F102898D84FFC9C51092020310929D
:101DD0000103D5C2863029F0883019F0843009F02B
:101DE0005ACF81E18093000388E290E09093CA0289
:101DF0008093C90221C084E08093C0020E94C40C79
:101E00008091C3029091C4029093CC028093CB0244
:101E10008091C5029091C602892B09F44AC5888930
:101E20009989009709F445C588969093CA028093D2
:101E3000C90288E18093000380E57FCF8F708330F3
:101E400009F029CFE9CE853009F0A9C0E091BA02A6
:101E5000F091BB0284819581892B09F41CCF1092EB
:101E6000C2021092C1028BEF92E09093CC02809359
:101E7000CB029093C4028093C3021092C6021092C8
:101E8000C5021092CA021092C90288E08093C00273
:101E90000E94580C8091C5029091C602009709F4E7
:101EA000FACE9C01245E3F4F3093CA022093C902B0
:101EB0003093E1022093E202E091BA02F091BB027A
:101EC00020852093E70221E12093E80208969827D5
:101ED000892798279093F8028093F7021092FA02CC
:101EE0001092F902848195819093F4028093F30219
:101EF000868197819093F6028093F50280915B052D
:101F000090915C059093EC028093EB0280915D05CB
:101F100090915E059093EE028093ED028081918115
:101F20009093F0028093EF02828193819093F2026A
:101F30008093F10287E093E09093CC028093CB02F0
:101F400081E10E94F90580959095009709F45BC1A5
:101F50009093FA028093F90285E48093DF02109255
:101F6000E0021092E6021092E5028091B202909196
:101F7000B30201969093B3028093B2029093E3026E
:101F80008093E4021092EA021092E9020E94810614
:101F9000809590959093EA028093E902B2C0809177
:101FA000DF02853409F077CEC090E102D12CDC2C21
:101FB000CC248091E202C80ED11C8091C90290917C
:101FC000CA028C159D0508F466CED092CA02C09252
:101FD000C9028091E5028F7309F05DCE1091E6028F
:101FE000111159CEA0905B05B0905C05A114B1040D
:101FF00039F480915D0590915E05892B09F441C00B
:102000002091EF023091F0028091E802813149F590
:102010002F3F320739F48091F1029091F20201963C
:1020200009F47DC080915F05909160058095909541
:102030008A299B2982179307A1F4809161059091C9
:1020400062058095909540915D0550915E05842BC9
:10205000952B4091F1025091F2024817590709F46B
:102060005EC0A216B30609F016CE2091F10230919F
:10207000F20280915D0590915E052817390709F0FD
:102080000ACE0E948106019609F005CE8091E802F1
:10209000863009F4BBC0813109F441C0813009F0B8
:1020A000FACD8091F302883009F0F5CD1092F30259
:1020B0008091F5029091F602873F4FEF940768F107
:1020C00009969093F6028093F5028091EB0290912D
:1020D000EC029093F0028093EF028091ED029091D8
:1020E000EE029093F2028093F102B092EC02A09281
:1020F000EB0280915D0590915E059093EE028093D6
:10210000ED021092C002DF91CF911F91FF90EF90EE
:10211000DF90CF90BF90AF9008950896D2CF8CE11A
:10212000C81AD108D092CA02C092C9028BEF92E0BD
:102130009093CC028093CB028091F9029091FA02A5
:10214000892BE1F44091F5025091F6026091F3027F
:102150007091F402A091EB02B091EC02C091ED02FB
:10216000D091EE02E7E4F4E023E734E02E173F07D6
:1021700061F43093BB022093BA028DCD81E10E94BD
:10218000F905019609F087CDDDCF8481958100970F
:10219000C1F184179507A9F586819781009719F0F9
:1021A0008617970771F5808191810097D1F4E280BD
:1021B000F380EF28F1F4F093BB02E093BA0210929F
:1021C000C2021092C10282E08093C0028BEF92E0C3
:1021D0009093C4028093C3021092C6021092C5026B
:1021E00057CE8F3F980729F4E280F380EF20E094E8
:1021F00011F38A179B0729F482819381C817D907A5
:10220000D1F23B96B3CF8FEF9FEFA2CE86E00E9434
:10221000F905019609F03FCD4091F5025091F60283
:102220006091F3027091F4028091EB029091EC02C4
:10223000E091ED02F091EE02C5E7D4E0298D222372
:10224000A9F0AC81BD814A175B0781F4AE81BF81E3
:102250006A177B0759F4A881B9818A179B0731F463
:10226000AA81BB81EA17FB0709F45BC16E9624E0E3
:10227000CF3CD20719F310F3809100038F738230A3
:1022800061F45093B9024093B802EDEEF4E080E0BF
:10229000843009F091C08093F5048091000382FDA1
:1022A000FACC84E18093000388E290E09093CA0224
:1022B0008093C90280E58093FF023091FA028091F9
:1022C000FE028093FA022091F9028091FD02809330
:1022D000F9022093FD029091F8028091FC02809314
:1022E000F8029093FC028091F7028093F5044091EC
:1022F000FB024093F7028093FB023F5F3093FE02A4
:1023000031110DC02F5F2093FD02211108C09F5F86
:102310009093FC02911103C08F5F8093FB02809128
:10232000F3029091F4029093B9028093B802209145
:10233000F5023091F6023093F4022093F302909369
:10234000F6028093F5028091EB029091EC0290935B
:10235000F0028093EF028091ED029091EE02909353
:10236000F2028093F102B092EC02A092EB02809113
:102370005D0590915E059093EE028093ED0280E4FE
:102380008093E7028091C9029091CA029093E10282
:102390008093E20210920603109205031092040348
:1023A0001092030386E00E94F90580959095909322
:1023B000040380930303D0CD219131918F5F4217A5
:1023C000530709F065CF1092F504E5E7F4E090E0DB
:1023D00080E0D0E0C0E08430910531F484E0809367
:1023E000F504209781F457CC3E2F2F2FA18DA111FA
:1023F00063C08093F5042EE1289FE001299FD00D52
:102400001124CB58DB4FD093C202C093C10283E0AA
:102410008A8F888F1E8A84E08F8B1B8E5D834C830E
:102420007F836E838091EB029091EC029983888385
:102430008091ED029091EE029B838A8381E0898FE7
:102440008091BC028C878091BD028D878091BE02F5
:102450008E878091BF028F8781E090E0998B888B77
:102460008091FA028B878091F9028A878091F80225
:1024700089878091F702888781E090E00E94292176
:102480008091FF02982F907F913508F442C0829589
:102490008F708550990B880F991F880F991FE12F16
:1024A000F0E0E817F9072CF4EF52FD4F36A931118F
:1024B00012C01093F5042DC0A73031F4209731F0ED
:1024C000B28DAA8DAB1710F03C2F2D2F01967E9662
:1024D000C32FD22F80CF313011F41F5FE0CF27A957
:1024E0003230D9F42430C9F41093F50480AD91ADA5
:1024F0008927982789279093B9028093B802813061
:1025000042E0940710F080E092E09B8B8A8B9D8BD9
:102510008C8B80E180930003FACB222351F2120FBF
:10252000BECFD093C202C093C1021092C00290915C
:10253000000392FF07C0198E80E28093C0020E94C0
:10254000C40CA9CB8091FF0282958F70880F880FF1
:102550008093F504C81AD108760184E1E81AF108DD
:10256000F092CA02E092C9022F70223021F4892F22
:102570008F738231D1F0E114F10419F4892F837043
:10258000A1F039852A858B855091F702488554132F
:10259000C0C14091F8024313BCC13091F90232131B
:1025A000B8C12091FA022813B4C194FF49C06889C8
:1025B00079896115710509F443C0CE010C960E941A
:1025C000F6203091FB028091B402381339C020917B
:1025D000FC028091B502281333C09091FD028091D6
:1025E000B60298132DC08091FE024091B702841369
:1025F00027C03C872D879E878F87988D8B8D811173
:1026000018C08E892A8D921B282F269526952695EF
:10261000921B890F8E8B97FD91952F89322F3695BE
:102620003695231B920F9F8B869586958695890FED
:10263000888F81E08093C002888D8A8F198A188ADA
:10264000298DE22FEF70E150E83008F024CBF0E064
:10265000E45DFC4E0C94732834134D13B7136C14C3
:102660009514A614891465148091C00280FF13CBC1
:1026700083E0898F80E48093C002198A188AE1146C
:10268000F10431F082E48093C002C7010E94292145
:102690001092C6021092C502C2CA8091C00280FF89
:1026A0005FC0809100038F73823109F059C080911F
:1026B000FF02982F907F913598F182958F70855009
:1026C000990B880F991F880F991FE12FF0E0E817E9
:1026D000F9072CF4EF52FD4F36A9311103C01093C6
:1026E000F5041EC0313011F41F5FEFCF27A932303F
:1026F00099F5243089F51093F50480AD91AD8927C3
:10270000982789279093B9028093B802813012E00C
:10271000910710F080E092E09B8B8A8B9D8B8C8BD5
:1027200083E0898F8091F70288878091F8028987FA
:102730008091F9028A878091FA028B8781E090E08C
:102740000E94292182E48093C002198A188A10927B
:10275000CA021092C9029CCF222309F2120FB5CFF0
:1027600080E28093C0020E94C40C198E96CD8091A5
:10277000000380FF20C024FD1EC088899989892B11
:1027800009F089CAC60143970E9429218091C0029D
:10279000982F90619093C002EF2819F08261809386
:1027A000C0020E94C40C81E090E0998B888B88E085
:1027B000898F1B8E16CB85FF14C0809105039091E5
:1027C0000603982789279827AC01495F5C4F5093EF
:1027D000CC024093CB02E81AF90AF092CA02E092C6
:1027E000C9024091C9025091CA029091C00241159C
:1027F000510541F024FD06C092609093C002CA01C9
:102800000E94292180910103282F30E0322F2227B6
:1028100080910203820F932F911D9093B9028093B0
:10282000B8022C893D892817390710F0892B21F42B
:102830003093B9022093B8028091B8029091B90206
:102840009B8B8A8B8091C002837009F424CA20CFAD
:1028500084FF0AC01092C6021092C50281E090E087
:10286000998B888B84E0A4CF2091C5023091C60259
:1028700021153105B9F080FF02C0198A188A8889AC
:102880009989009789F48A899B898217930720F494
:102890009093C6028093C5028091C5029091C602B2
:1028A000998B888B1B8EACCA9093C6028093C5020D
:1028B000F9CF8091C00281FFEEC988E290E0909349
:1028C000CA028093C90280E1B5CA8091C00280FF2C
:1028D000E2C9198E80E131CEE114F10419F0C7018B
:1028E0000E9429218091C00281709091000390FF85
:1028F00015C0882381F087E0898F1A8E198A188A7B
:1029000081E090E00E94292180E18093C0020E9432
:10291000C40C80E167CA86E0898FF2CF882399F0E2
:1029200085E0898F198A188AB6C9E114F10419F073
:10293000C7010E9429218091000380FF04C087E025
:10294000898F1A8EDDCFEF2821F7A5C98091C002AB
:1029500080FFA1C987E0898F1A8E9DC982E080938C
:102960000103109202030BCDCF93DF93EC012C8572
:102970003D852115310529F490E080E0DF91CF916C
:102980000895EA89EE23C1F381E08B8B85E0E89F0F
:10299000F0011124E95CFC4F8E859F850796938397
:1029A00082833093BB022093BA0285E00E94E60D39
:1029B0008091C9029091CA02892BF1F2CE010E9644
:1029C0000E94270C81E090E0D9CF8F929F92AF9226
:1029D000BF92CF92DF92EF92FF92CF93DF938091DD
:1029E0003603882309F41FC1D091AF02D11151C021
:1029F00089E30E949103882309F449C0609140044F
:102A0000709141046B0126E0C20ED11CC11438E064
:102A1000D30628F06B014AEFC41A47E0D40A80E0DD
:102A20000E94E10260E08AE30E947303E82E60E006
:102A30008AE30E947303F82EF0924104E09240046E
:102A400060E08AE30E947303B82E60E08AE30E948C
:102A50007303C82F60E08AE30E947303A82E40E44A
:102A60006EE180E80E94A902A7FEE8C0E11458E0E8
:102A7000F50608F0E3C0D0924304C09242049C2FB4
:102A80008B2D04979093450480934404DFEFD093FB
:102A9000AF02F090AF02FF2009F472C081E0809392
:102AA000B0028F2D0E948902EC019093CA0280939C
:102AB000C902892B09F4EFC042E650E061ED72E0F3
:102AC0008F2D0E942D03C090DD02D090DE0288E0A1
:102AD000C816D10409F0CDC0F092B1022E97D09360
:102AE000CA02C093C9022091EB023091EC02E0913E
:102AF0005B05F0915C05C9018E279F2740915F051A
:102B00005091600584239523892B49F54091ED026E
:102B10005091EE0260915D0570915E05CA018627B5
:102B20009727A0916105B09162058A239B23892B89
:102B3000B1F48091EF029091F002E817F90709F0E3
:102B400080C08091F1029091F2026817790709F034
:102B500078C067ED72E08BEE92E00E94760A81E029
:102B60000E94E60D8091C9029091CA02892B21F042
:102B70000E94EB0A0E9492068091B00280FD8BC0F9
:102B80000E9449016B017C01809155059091560589
:102B9000A0915705B091580546015701881A990A26
:102BA000AA0ABB0AC5E7D4E0D093C202C093C1020F
:102BB000B7FC08C182E00E94E60D8091C9029091A5
:102BC000CA02892B21F00E94EB0A0E9492066E969F
:102BD00034E0CD3ED30741F7B7FC25C04AEFC40E21
:102BE000D11CE11CF11CC0925505D0925605E09213
:102BF0005705F0925805C7E4D4E0D093BB02C093C8
:102C0000BA0285E00E94E60D8091C9029091CA0245
:102C1000892B21F089859A850E94270C2B9654E0F8
:102C2000C337D50751F7DF91CF91FF90EF90DF9039
:102C3000CF90BF90AF909F908F9008950E945703C0
:102C400026CFE6EFF4E080E0883019F480934E055B
:102C500086CF608171812617370741F462817381C5
:102C60004617570719F480934E0573CF8F5F3B9635
:102C7000EBCF28E0C21626E0D20669F41092CA0211
:102C80001092C902AA9760F48091C9029091CA0279
:102C9000892B09F06FCF0E9457031092AF0270CFBB
:102CA0008091E5029091E602811531E0930701F1F0
:102CB0008115924049F72091F7023091F8028091F6
:102CC0005B0590915C0528173907F1F62091F90210
:102CD0003091FA0280915D0590915E0528173907C1
:102CE00099F667EE72E08DEE92E00E94760ACCCF04
:102CF000E090F702F090F80280915B0590915C05FE
:102D0000E816F90609F6C091F902D091FA0280910D
:102D10005D0590915E05C817D90709F0B5CF67EE3C
:102D200072E08DEE92E00E94760A80E092E090934D
:102D3000E6028093E50286E0E7EEF2E0A1EFB2E082
:102D400001900D928A95E1F786E0EFE4F5E0A7EEB9
:102D5000B2E001900D928A95E1F786E0EFE4F5E0AC
:102D6000A7EDB2E001900D928A95E1F786E0E1EFE0
:102D7000F2E0A1EDB2E001900D928A95E1F7809129
:102D8000ED029091EE029093F8028093F702809109
:102D9000EF029091F0029093FA028093F902F09280
:102DA000EE02E092ED02D093F002C093EF02D092D7
:102DB000DE02C092DD028AE290E09093CA02809324
:102DC000C90262CFEC8DFD8D309709F400CF868566
:102DD0009785A089B189A7019601281B390B4A0B59
:102DE0005B0BDA01C901B7FDF2CE83E00E94E60D6C
:102DF0000E944901E091C102F091C202048CF58D5C
:102E0000E02D665F7F4F8F4F9F4F66877787808B60
:102E1000918BD3CECF93DF93EC010E94E514898987
:102E20000E946902198ADF91CF9108950F931F9331
:102E3000CF93DF931F92CDB7DEB78C010E94E514CC
:102E4000F8018189882389F041E050E0BE016F5F7D
:102E50007F4F0E942D03019741F4898190E00F90EC
:102E6000DF91CF911F910F9108958FEF9FEFF7CFD3
:102E7000EF92FF920F931F93CF93DF937C018B010F
:102E8000EA010E94E514F7018189882369F1AE0106
:102E9000B8010E942D038C01F701C1898C2F0E947B
:102EA00089028017910769F48C2F0E946902F7014B
:102EB000118AC801DF91CF911F910F91FF90EF9080
:102EC000089585E0C89FF0011124E95CFC4F8081E2
:102ED0009181800F911F9183808382819381801BD8
:102EE000910B93838283E5CF80E090E0E3CFCF9393
:102EF000DF93EC010E94E5148989DF91CF910C9456
:102F00008902CF93DF93EC010E94E5148989811136
:102F10000E9469028889898B188ADF91CF910C946D
:102F20008902CF92DF92EF92FF920F931F93CF937C
:102F3000DF9300D000D0CDB7DEB78C017B016A01F2
:102F40000E94E514D70112968C91129781110EC040
:102F500013968C911397811109C014968C91149734
:102F6000811104C015968C918823E9F0C114D10415
:102F7000D1F0D8011C96ED91FC91D70112962D91BC
:102F80003C9113973A83298314968D919C919C834D
:102F90008B837C2D6D2D309779F177836683318318
:102FA000208393838283F80184859585892BB1F1F1
:102FB0008289811133C08EE096E00E943D04D801E1
:102FC00052968C9352972BE230E01F963C932E93AF
:102FD0001E9721E090E0811101C020E0822F0F9028
:102FE0000F900F900F90DF91CF911F910F91FF9055
:102FF000EF90DF90CF900895CE0101960E94A20934
:10300000F80195878487009749F09801225F3F4F28
:10301000DC011A963C932E931997C5CF80E090E07F
:10302000DECF4F925F926F927F928F929F92AF927C
:10303000BF92CF92DF92EF92FF920F931F93CF93A5
:10304000DF93CDB7DEB763970FB6F894DEBF0FBE40
:10305000CDBF6C017B013A01FB01DB018D9188231F
:1030600009F444C08E32D1F380538A30B8F3F601AC
:103070004281538164817581809186069091870693
:10308000A0918806B0918906481759076A077B07FF
:1030900009F455C28601085F1F4F0E9449016F70F5
:1030A00077277C5FC8010E940C0A813009F04CC26E
:1030B0008EE791E09A838983F60182819381A481CE
:1030C000B5818B839C83AD83BE8345E350E0BE0115
:1030D0006F5F7F4FC8010E949117892B09F057C07D
:1030E000F12CE12CC8010E94310A39C030E020E007
:1030F00090E080E05AE04191442309F18430910549
:103100000CF0B5CF4E3271F42F3F310511F00CF0B9
:10311000AECFD301A80FB91F12962C93019630E0C1
:1031200020E0E9CF529FB001539F700D1124242F4E
:10313000440F330B20533109260F371FDCCF2F3FAD
:10314000310511F00CF093CF843091050CF08FCF46
:10315000680E791EF3012283EE24E394F12CC7015B
:1031600063960FB6F894DEBF0FBECDBFDF91CF914F
:103170001F910F91FF90EF90DF90CF90BF90AF9095
:103180009F908F907F906F905F904F9008950E94D6
:103190004901F6017783668342E050E0B6016A5F39
:1031A0007F4FC8010E94A10581E090E09A83898346
:1031B00042E050E0BE016F5F7F4FC8010E94A10551
:1031C00080E091E09A83898342E050E0BE016F5F26
:1031D0007F4FC8010E94A1051A82198242E050E087
:1031E000BE016F5F7F4FC8010E94A10542E050E021
:1031F000BE016F5F7F4FC8010E94A10542E050E011
:10320000BE016F5F7F4FC8010E94A1055701F70102
:103210008081882301F17501F70181912F018823B5
:1032200011F08E32B1F447018A189B081814190462
:1032300074F48D8641E050E0BE01635F7F4FC801AA
:103240000E94A105A401B501C8010E94A105520177
:10325000DECF7201E1CF1D8641E050E0BE01635F29
:103260007F4FC8010E94A105E12CFF24F394FA824C
:10327000E98242E050E0BE016F5F7F4FC8010E94CB
:10328000A105FA82E98242E050E0BE016F5F7F4F04
:10329000C8010E94A105C8010E94B414892B09F439
:1032A0001FCFA3E0AA2EB12C230122E0420E511C15
:1032B00026C0F6016280738084809580B801CE01BB
:1032C00001960E945E058B819C81AD81BE8168164E
:1032D00079068A069B0629F4C8010E944F05C59706
:1032E00059F1FEEFEF2EFF24FA94E1E0AE1AB10897
:1032F00009F4F8CEFFEFEF16FF0609F0F3CE0E94B7
:1033000049013B014C01C8010E948117181619069A
:1033100084F20E9449016619770988099909693878
:1033200073418105910508F001C162E370E080E01E
:1033300090E00E941701E7CFC8010E9477170C9711
:103340000CF4F8C04CE050E0BE016F5F7F4FC80145
:103350000E9496088B819C819827892798279A8BB1
:10336000898BF6014681578129813A81421753079B
:1033700011F497FD08C0C8010E940A17ECEFEE2E69
:10338000FF24FA94B2CF8F709270892B41F0C8015C
:103390000E940A177BEFE72EFF24FA94A6CF6F80D6
:1033A0007884762467247624F12CE12C611471044E
:1033B000D1F4C8010E940A176AEFE62EFF24FA949E
:1033C00094CF8D85811117C0C8010E948405C80162
:1033D0000E948405C8010E948405C8010E948405DA
:1033E000FFEFEF1AFF0A8D819E8198278927982782
:1033F000E816F906A8F441E050E0BE01635F7F4F94
:10340000C8010E9496088D858823D9F28D859FEF8B
:10341000980F9D878823A9F2C8010E948405F6CFE2
:10342000912C812C41E050E0BE016D5E7F4FC801C0
:103430000E9496088B89982F907C61F4882389F0EC
:103440008B899FEF980F9B8B882341F0C8010E94C6
:103450008405F6CFC8010E9484051B8A8B898111DF
:10346000E1CF42E050E0BE01615F7F4FC8010E94A2
:10347000960842E050E0BE01635F7F4FC8010E94A2
:103480009608C8010E948405C8010E948405C801ED
:103490000E948405C8010E94840542E050E0BE01FC
:1034A0006F5E7F4FC8010E9496088F8598898115AD
:1034B0009140E1F48D859E8581159140B9F489890B
:1034C0009A898115944041F0C8010E940A1757EF6C
:1034D000E52EFF24FA9409CF44E050E0B201C80180
:1034E0000E949608EE24E394F12CFFCEF12CE12CFF
:1034F00089899A89982789279827E816F90638F440
:10350000C8010E9484052FEFE21AF20AF1CF8FEF73
:10351000881A980A8614970409F084CFC8010E947B
:103520000A1736EFE32EFF24FA94DFCEEE24EA9456
:10353000FE2CDBCE9DEFE92EFF24FA94D6CE8EEF43
:10354000E82EFF24FA940BCEF12CE12C08CEAF929A
:10355000BF92CF92DF92EF92FF920F931F93CF9380
:10356000DF93CDB7DEB7A8970FB6F894DEBF0FBED6
:10357000CDBF7C015B016A010EE711E01A8309836C
:103580001B821C821D821E82CE0109960E94520A55
:103590001CA30BA31DA21EA21FA218A68091740635
:1035A00090917506A0917606B09177068F8F98A3BB
:1035B000A9A3BAA38B839C83AD83BE8318861F8285
:1035C000AE014D5D5F4FB501CE0101960E9411180D
:1035D00081309105B1F4D701ED91FC910488F58912
:1035E000E02D1E8F0D8F8DA19EA1AFA1B8A58F8F4D
:1035F00098A3A9A3BAA3A601BE01635E7F4FC7012A
:103600000995A8960FB6F894DEBF0FBECDBFDF9127
:10361000CF911F910F91FF90EF90DF90CF90BF90CF
:10362000AF900895AF92BF92CF92DF92EF92FF9248
:103630000F931F93CF93DF93CDB7DEB7A8970FB645
:10364000F894DEBF0FBECDBF7C015B016A010EE7BF
:1036500011E01A8309831B821C821D821E82CE0107
:1036600009960E94520A1CA30BA31DA21EA21FA210
:1036700018A68091740690917506A0917606B09177
:1036800077068B839C83AD83BE8318861F82AE0131
:103690004D5D5F4FB501CE0101960E94111881303A
:1036A0009105B1F4D701ED91FC910684F785E02DE9
:1036B0001E8F0D8F8DA19EA1AFA1B8A58F8F98A34E
:1036C000A9A3BAA3A601BE01635E7F4FC7010995F6
:1036D000A8960FB6F894DEBF0FBECDBFDF91CF9195
:1036E0001F910F91FF90EF90DF90CF90BF90AF9020
:1036F0000895CF93DF93EC010E94E514EC85FD85DE
:1037000087818823D9F0DF01189621E08D918111FE
:1037100010C0215030E0322F2227330F8485958549
:10372000280F391F80E09AE0821B930BDF91CF9125
:1037300008952F5F253051F724E0ECCF80E09AE028
:10374000F5CFAF92BF92CF92DF92EF92FF920F939D
:103750001F93CF938C015B017A016A010E94E514EB
:103760000115110509F45DC0F8018181882309F470
:1037700058C0867009F055C03896C1E0819181111A
:1037800033C0C150F801EC0FF11D878181110DC0CC
:1037900080E092E00E943D04F801EC0FF11D878368
:1037A0008823E1F2F80115861486A7014C195D09FA
:1037B0004A0D5B1DF801648575859601EC0FF11DBE
:1037C00087810E940D05C81AD90AF801248535851C
:1037D000820F931F958784871C141D0454F4C430F2
:1037E00009F4BCCFCF5FD4CFCF5FC53039F6C4E08A
:1037F000C9CF0E944901665F7F4F8F4F9F4FF801ED
:1038000066877787808B918BC7018C199D09CF9133
:103810001F910F91FF90EF90DF90CF90BF90AF90EE
:10382000089590E080E0F3CFFC01848595850C94A9
:10383000A11BCF93DF931F92CDB7DEB7698341E021
:1038400050E0BE016F5F7F4FFC01848595850E942B
:10385000A11B0F90DF91CF910895CF93DF93EC01DF
:103860000E94E514EC85FD85309739F0818182FF57
:1038700008C081E09281911101C080E0DF91CF9179
:10388000089581E0FBCFCF93DF93EC018C859D857C
:10389000009769F0FC012181222349F002960E94E1
:1038A0001C07EC85FD85818182FF07C011821D8682
:1038B0001C86DF91CF910C94E51482608183F7CF51
:1038C000CF92DF92EF92FF920F931F93CF93DF93EC
:1038D0008C01EB016A01DC01ED91FC910488F58912
:1038E000E02D0995EA80FB806C817D815C2D4D2D5A
:1038F000809173049091740401968115BDE79B0734
:1039000010F080E090E1382F292FE5E7F4E0DF01A7
:10391000C0E0C430D1F49093740480937304109287
:10392000F50480E0D0E0C0E08430F1F48093F50449
:10393000209711F590E080E0DF91CF911F910F91DA
:10394000FF90EF90DF90CF9008955996DC915997B2
:10395000DD2339F01496CD90DC901597C216D3066E
:1039600059F2CF5F5E96D5CFAE2F9F2FB18DB1119B
:103970003CC08093F504EF0182E0898F8091BC0206
:103980008C878091BD028D878091BE028E87809149
:10399000BF028F8780E092E09B8B8A8B9D8B8C8B04
:1039A00081E090E0998B888B1B8E8A8F83E0888FD3
:1039B0001E8A80E18F8B3D832C835F834E83F98247
:1039C000E8827B836A83898D8F7009F4B3CF0E946C
:1039D000E514898D8F708330B1F78C8D9D8DF80142
:1039E0009587848781E090E0A7CFB73031F42097A6
:1039F00031F0D28CBA8DBD1510F0AC2F9D2F8F5F9A
:103A00007E96CA2FD92F90CF4F925F926F927F925E
:103A10008F929F92AF92BF92CF92DF92EF92FF92DE
:103A20000F931F93CF93DF9300D000D000D0CDB77A
:103A3000DEB77C01562E742E652E8DB69EB6FC0127
:103A4000A6ADB7ADFD0101900020E9F7EA1BED5EE0
:103A5000CE2ED12C8DB79EB78C199D090FB6F89438
:103A60009EBF0FBE8DBF0DB71EB70F5F1F4FA601C4
:103A700070E060E0C8010E94782A570191E4A90E25
:103A8000B11C8EE791E09A8389838FEF8B838C83BF
:103A90008D838E8343E450E0BE016F5F7F4FC5018D
:103AA0000E949117019609F401C181E0F801808319
:103AB000818386E0482E42821382D70114966D914D
:103AC0007D918D919C9117970E94792864837583CD
:103AD000868397836086718680E890E093878287EB
:103AE0004CE150E0B801C5010E94A105A60170E0BB
:103AF00060E0C8010E94782A3701F8E06F0E711C5F
:103B0000F301D80101900D924A94E1F740E150E0B1
:103B1000B801C5010E94A105A60170E060E0C801DE
:103B20000E94782A96E0C92ED12C40E250E0B801DC
:103B3000C5010E94A10521E0C21AD108B1F783E6B0
:103B4000D8018C9392E811969C93119793E5129665
:103B50009C93129713968C93139785E314968C93EA
:103B6000149781E015968C93159716965C9216978C
:103B70009DE317969C93179797E018969C93189738
:103B800019968C93199786E0F3011A9601900D927D
:103B90008A95E1F78CE0F801808BD701DE96CD9015
:103BA000DC90F60101900020E9F73197EC19FD094E
:103BB000D8015196EC93F60101900020E9F7319776
:103BC000AF014C195D09B601C80142960E946F2AE7
:103BD000F60101900020E9F7AF014C195D094F5E35
:103BE0005F4FB801C5010E94A105F3E05F1234C028
:103BF00082E3D8018C9384E011968C931197F7019E
:103C0000968512969C931297978513969C9313977B
:103C1000908914969C931497918915969C93159767
:103C200096E316969C93169717968C931797828D0A
:103C300018968C931897838D19968C931997848D69
:103C40001A968C931A97858D1B968C934CE050E0B6
:103C5000B801C5010E94A10587E3D8018C9386E0D5
:103C600011968C93119791E012969C93129793E082
:103C700013969C93139714968C9314978FE0159634
:103C80008C9315978AE316968C9316978BE3179669
:103C90008C9317978FEF18968C9349E050E0B801FA
:103CA000C5010E94A105C5010E94B4140FB6F89485
:103CB0009EBE0FBE8DBE0FB6F8949EBE0FBE8DBECB
:103CC00026960FB6F894DEBF0FBECDBFDF91CF9121
:103CD0001F910F91FF90EF90DF90CF90BF90AF902A
:103CE0009F908F907F906F905F904F9008952F924C
:103CF0003F924F925F926F927F928F929F92AF927C
:103D0000BF92DF92EF92FF920F931F93CF93DF93B7
:103D1000CDB7DEB7C254D1090FB6F894DEBF0FBEDF
:103D2000CDBF7C015B010E9449012B013C01870151
:103D30000F5B1F4FC8010E948117181619069CF0CF
:103D40000E9449016419750986099709613A7F4003
:103D50008105910508F0A5C162E370E080E090E084
:103D60000E941701E7CF42E250E0BE016F5F7F4F34
:103D7000C8010E9496088981823009F08DC1C8016E
:103D80000E944F058334910509F086C16D817E81C3
:103D90008F8198850E9479282B013C01F501408292
:103DA00051826282738246E050E0B701685F7F4FC4
:103DB000CE014D960E94622A892B99F4F7018081E9
:103DC0009181A281B381481659066A067B0648F0A4
:103DD00084819581A681B78184159505A605B705CF
:103DE000F0F4C8010E940A17D12C8D2DCE5BDF4F55
:103DF0000FB6F894DEBF0FBECDBFDF91CF911F91FC
:103E00000F91FF90EF90DF90BF90AF909F908F90B9
:103E10007F906F905F904F903F902F900895898989
:103E20009A89AB89BC8986879787A08BB18B8EECEA
:103E3000A82EB12CC8010E948405F1E0AF1AB10888
:103E4000C9F7D12CC70182969CAF8BAFF701B6960C
:103E5000FEAFEDAF089621969FAF8EAF2197570129
:103E60009AE1A90EB11C74972396FFAFEEAF23978A
:103E70001701F6E12F0E311C27012EE1420E511CD5
:103E8000C8010E947717181619060CF006C1C80160
:103E90000E9484058333910509F4E4C09CF58130C8
:103EA000910509F480C074F4892B51F3C8010E9474
:103EB0008405982E9A94FFEF9F1611F3C8010E9473
:103EC0008405F8CF8330910509F47AC0069771F71D
:103ED000C8010E948405882E44E050E0B201C80168
:103EE0000E949608712C612CE82DE450FF0B4F01C5
:103EF000681479042CF6C8010E948405FFEF6F1A3C
:103F00007F0AF6CF8A33910509F47EC0DCF585334C
:103F1000910509F440C0C69749F6C8010E9484057E
:103F2000982E1FAA18AE19AE1AAEB501CE018F9603
:103F30000E946A0A4FA958AD69AD7AAD89A99AA9BC
:103F4000ABA9BCA9481759076A077B07B9F0B801A4
:103F5000CE0189960E945E05B501CE0183960E942E
:103F60006A0A4DA15EA16FA178A58BA59CA5ADA500
:103F7000BEA5481759076A077B07E9F544E050E0FA
:103F8000B5011AC08B33910509F454C08F3F9105D8
:103F900009F476CF8BCFC8010E948405C8010E9426
:103FA0008405D82E6DCFC8010E94840544E050E0FE
:103FB00023966EAD7FAD2397C8010E94960860CF0F
:103FC000C8010E948405882E44E050E0B101C80178
:103FD0000E949608712C612C882D8450990B4C01FD
:103FE000681479040CF04CCFC8010E9484059FEF3F
:103FF000691A790AF5CF9A942FEF921609F440CFF7
:10400000C8010E948405F7CFC8010E94840544E0DE
:1040100050E06DAD7EADC8010E949608F70166A123
:1040200077A180A591A50E94792866A377A380A790
:1040300091A726CFC8010E94840544E050E0219654
:104040006EAD7FAD2197C8010E949608F70162A569
:1040500073A584A595A50E94792862A773A784A754
:1040600095A70ECFC8010E94840544E050E06BADD7
:104070007CADC8010E949608F70162A173A184A1DA
:1040800095A10E94792862A373A384A395A366A730
:1040900077A780AB91ABF4CED12CC8010E940A1750
:1040A000A4CEDD24DA94A1CE1F920F920FB60F9208
:1040B00011242F933F938F939F93AF93BF9380913E
:1040C0006C0590916D05A0916E05B0916F053091D2
:1040D0006B0523E0230F2D3758F50196A11DB11D67
:1040E00020936B0580936C0590936D05A0936E05EE
:1040F000B0936F058091700590917105A091720544
:10410000B09173050196A11DB11D80937005909328
:104110007105A0937205B0937305BF91AF919F9104
:104120008F913F912F910F900FBE0F901F90189578
:1041300026E8230F0296A11DB11DD2CF1F920F9228
:104140000FB60F9211242F933F934F935F936F936A
:104150007F938F939F93AF93BF93EF93FF9384E7E6
:1041600095E00E94DA01FF91EF91BF91AF919F918D
:104170008F917F916F915F914F913F912F910F9010
:104180000FBE0F901F9018951F920F920FB60F92AF
:1041900011242F938F939F93EF93FF93E0918405C6
:1041A000F09185058081E0918A05F0918B0582FD73
:1041B0001BC0908180918D058F5F8F7320918E053C
:1041C000821741F0E0918D05F0E0EC58FA4F958FA1
:1041D00080938D05FF91EF919F918F912F910F907B
:1041E0000FBE0F901F9018958081F4CFFC01338192
:1041F000360F3093B702A72FBB2792819A0F909367
:10420000B60221812093B50240814093B4029A17EF
:104210001B0648F481E0820F8093B502811103C030
:104220004F5F4093B40277273617170688F49F5FD5
:104230009093B60291110CC08091B5028F5F80936C
:10424000B502811105C08091B4028F5F8093B402E2
:104250000895CF93DF93C091C102D091C202BC01F7
:10426000CE0108960E94F620E4EBF2E08081888778
:104270008181898782818A8783818B87DF91CF9132
:104280000895CF92DF92EF92FF92CF93DF93E4E70E
:10429000F5E01382128288EEC82E83E0D82EE12C3E
:1042A000F12CC482D582E682F7828AE491E0918380
:1042B000808385EC90E09587848784EC90E09787F5
:1042C000868780EC90E0918B808B81EC90E0938BE3
:1042D000828B82EC90E0958B848B86EC90E0978BC0
:1042E000868B118E128E138E148EE1E1F6E0CEE7EE
:1042F000D1E0D183C0831282138214821582E7E158
:10430000F6E0D183C0831282138214821582E8E71B
:10431000F6E0D183C0831282138214821582E2E711
:10432000F6E0D183C0831282138214821582109228
:104330005C0610925B068EE596E00E94520AEEE75C
:10434000F6E0D183C0831282138214821582E4E8DE
:10435000F6E0D183C0831282138214821582EAE8C8
:10436000F6E0D183C0831282138214821582EEE9B3
:10437000F6E0D183C0831282138214821582E0E9B1
:10438000F6E013821282C482D582E682F7828CE53F
:1043900091E09183808315861486DF91CF91FF9001
:1043A000EF90DF90CF900895CF93DF93CDB7DEB736
:1043B0006E970FB6F894DEBF0FBECDBF789484B56C
:1043C000826084BD84B5816084BD85B5826085BD11
:1043D00085B5816085BD80916E00816080936E009F
:1043E0001092810080918100826080938100809191
:1043F0008100816080938100809180008160809342
:1044000080008091B10084608093B1008091B00001
:1044100081608093B00080917A00846080937A00FC
:1044200080917A00826080937A0080917A00816026
:1044300080937A0080917A00806880937A0010924D
:10444000C100E0918405F091850582E08083E091D0
:104450008005F09181051082E0918205F09183053D
:104460008FEC808310928C05E0918805F09189058E
:1044700086E08083E0918605F091870580818061E8
:104480008083E0918605F091870580818860808334
:10449000E0918605F0918705808180688083E091B6
:1044A0008605F091870580818F7D808389E00E9459
:1044B00087008DE196E090935A05809359050E94FC
:1044C000490166507F4F8F4F9F4F60935505709302
:1044D00056058093570590935805809136038111B6
:1044E00046C08AE00E94870061E08AE00E94A60040
:1044F0001FB7F89480913503811124C0EAE9F0E0F8
:104500008491EEEAF0E09491E82FF0E0EE0FFF1FC7
:10451000EA57FF4FA591B491EC91E92321F461E0B2
:104520008AE00E94A6008AE00E9487008CB5806124
:104530008CBD8CB580648CBD8DE00E9487008BE0C3
:104540000E948700809135038F5F809335031FBFE2
:104550008CB58C7F8CBD8DB581608DBD82E70E944E
:104560009103809336038F3F11F41092360310921B
:104570004304109242041092450410924404E7E36D
:10458000F3E089E091E0DF019C011D922150304071
:10459000E1F781E098E090933803809337034FEF81
:1045A00060E08FEF0E94A90262E070E080E090E09E
:1045B0000E94170162E370E080E090E00E94170122
:1045C000109241041092400400E110E06DE180E09F
:1045D0000E94730381110AC00150110939F06AE089
:1045E00070E080E090E00E941701F0CF70E060E0A2
:1045F00088E00E94E10270E060E08CE00E94E1024D
:104600006FEF77E08AE00E94E10261EB88E30E94AD
:1046100066036FE370E388E20E94E10269EF77EFDF
:1046200080E30E94E1026DE070E080EC0E94E10214
:1046300042E362EC80E80E94A90262E17CE086EC41
:104640000E94E10262E184EC0E9466036CED75E079
:104650008AEC0E94E10264E784EE0E94660369E648
:1046600085EE0E94660369E682EE0E9466036DE2B3
:1046700083EE0E94660360E380EE0E94660361E3BE
:1046800081EE0E94660360E071E080E10E949A037F
:104690008FE10E94C20240EC6BE180E80E94A90217
:1046A00044E06FE180E80E94A90266E774E084E1DB
:1046B0000E949A0384E780934F0589E68093500512
:1046C000809351058DE28093520580E380935305DA
:1046D00081E3809354051092EE041092ED04109241
:1046E000F0041092EF041092F2041092F104109270
:1046F000F4041092F30410928E041092AC04109201
:10470000CA041092E80480E094E0909374048093CB
:10471000730410924C0410924B04109257041092A0
:104720005604109262041092610410926D0410926B
:104730006C0484E08093F50410924E059BE024E025
:1047400080914E05883008F4D5C10091590510912B
:104750005A05D80192961D921D921D921C92959712
:10476000F80116A217A210A611A69A961D921D92E4
:104770001D921C929D9716AA17AA10AE11AE86AD77
:1047800097AD009711F00E941C298AE090E00E94EA
:104790008028D801DF969C938E93DE9763E871E0C2
:1047A0000E94882A86E0F8013896DF011D928A95DA
:1047B000E9F784E13696DF011D928A95E9F784E7EF
:1047C000F801808789E6818782878DE2838780E38D
:1047D000848781E385879801205C3F4F3E8F2D8F32
:1047E000D9011C920E9481272FEC37E040E050E075
:1047F0000E94D927DC01CB010196A11DB11DF80152
:1048000084839583A683B78380839183A283B383B4
:104810005801F1E4AF0EB11CC5010E94310A64E4F5
:1048200070E0C5010E940C0A882309F4A6C00E940A
:1048300049012B013C0148EEC42E43E0D42EE12C6B
:10484000F12C52E0252E912C812CAD8DBE8D8C91BA
:10485000833081F181115CC1F80184819581A68149
:10486000B7810196A11DB11D84839583A683B7836B
:104870000E9449016419750986099709A7019601E3
:104880000E944228A90161E0C8010E94041D81E044
:10489000AD8DBE8D8C93F1E08F169104B1F20E9424
:1048A0004901641975098609970961367A4E8105AF
:1048B000910548F2C5010E94310AF8018481958171
:1048C000A681B7810196A11DB11D84839583A6831E
:1048D000B7838A94892809F050C000915905109136
:1048E0005A05B8016E5E7F4FCE0147960E946A0A54
:1048F000B8016A5E7F4FCE0141960E946A0AB801F4
:10490000625E7F4FCE010B960E946A0AB801625F19
:104910007F4FCE0101960E946A0A8D819E812B8174
:104920003C8130935C0520935B0590935E058093FA
:104930005D058D899E892B893C8930936405209380
:10494000630590936605809365058B8D9C8D298DFD
:104950003A8D3093600520935F05909362058093B4
:1049600061058D859E85AF85B88980937406909387
:104970007506A0937606B09377066DE871E084E73C
:1049800095E00E94A40830915B0520915C05909110
:104990005D0580915E050EE711E01A8309833B8374
:1049A0002C839D838E83CE0101960E947D0967E949
:1049B00071E084E795E00E94A40830915F052091A2
:1049C000600590916105809162051A8309833B839C
:1049D0002C839D838E83CE0101960E947D0964EA1B
:1049E00071E084E795E00E94A4083091630520916E
:1049F000640590916505809166051A8309833B8360
:104A00002C839D838E83CE0101960E947D0960EBED
:104A100071E084E795E00E94A4081A8309838091DD
:104A2000740690917506A0917606B09177068B83F7
:104A30009C83AD83BE83CE0101960E947D091092B6
:104A40006705109268051092690510926A054090FA
:104A5000140150901501609016018DE8782E0E9487
:104A60004901009167051091680520916905309111
:104A70006A05601B710B820B930B1616170618063E
:104A800019060CF0E0C10E94490168577C4E8F4F17
:104A90009F4F6093670570936805809369059093B5
:104AA0006A058EEB91E00E948F092EE731E03A8390
:104AB00029833AE03B838DE08C8394E69D837E825C
:104AC00040E553ECBE016F5F7F4F80E996E00E94A6
:104AD000601C892B09F4C4C18DEC91E00E948F0900
:104AE00080E996E00E943C08892B09F0C7C00E942B
:104AF0004901F6CF899FF0011124EA50FB4FDF01F5
:104B0000322F1D923A95E9F78F5F80934E0518CEAC
:104B10008430F9F4F80184819581A681B7810196EA
:104B2000A11DB11D84839583A683B7830E9449018B
:104B30006419750986099709A70196010E94422800
:104B4000A90163E0C8010E94041DAD8DBE8D2C92A9
:104B5000A2CE813031F5BE016F5F7F4FC8010E9448
:104B6000771E382EB2E08B1382C089819A81AB8187
:104B7000BC81F80184839583A683B7830E94490191
:104B80006419750986099709A70196010E944228B0
:104B9000A90163E0C8010E94041DAD8DBE8D3C9249
:104BA0007ACE823009F077CEBE016F5F7F4FC801A9
:104BB0000E94771E382EB5E08B1352C023E0ED8D96
:104BC000FE8D2083F80182A193A1A4A1B5A1892B18
:104BD0008A2B8B2B41F484E893E0A0E0B0E082A321
:104BE00093A3A4A3B5A3F80186A197A1A0A5B1A5FD
:104BF000892B8A2B8B2B61F482A193A1A4A1B5A14F
:104C0000B695A7959795879586A397A3A0A7B1A7D3
:104C1000F80186A197A1A0A5B1A542A553A564A5B9
:104C200075A5452B462B472B51F4AC01BD01440F14
:104C3000551F661F771F42A753A764A775A7F801E2
:104C400086A797A7A0ABB1AB82A593A5A4A5B5A550
:104C500082AB93ABA4ABB5AB88248394912C1BCED1
:104C6000F6E08F1304C0AD8DBE8D1C9214CEBFEF45
:104C70003B1211CEED8DFE8D10820DCE80E996E0B7
:104C80000E943C088C01181619060CF0CEC02DB6F7
:104C90003EB6ADB7BEB7A81BB90B0FB6F894BEBFF2
:104CA0000FBEADBFEDB7FEB731967F010E94FF0882
:104CB000A801B70180E996E00E94A0078C0180E975
:104CC00096E00E944407A801B70184E795E00E949E
:104CD0009D0849E050E061E071E080E996E00E94C3
:104CE0009D0880E996E00E9444078AE090E00E94D7
:104CF000FF084FE050E0BE016F5F7F4F80E996E014
:104D00000E94A0076C01181619069CF7AC01BE01A1
:104D10006F5F7F4F84E795E00E949D08C6010E9467
:104D2000FF082DB73EB72C193D090FB6F8943EBFCA
:104D30000FBE2DBF8DB79EB701967C01DE01119687
:104D40004D015C0110E000E0F40161914F01653418
:104D500009F466C0D5016D935D0184E795E00E947A
:104D600055010F5F1F4F0C151D0574F36AE084E7B2
:104D700095E00E9455016AE070E090E080E00E94BA
:104D8000A5298C01009731F0FC0110826EED71E0D5
:104D90000E94882A6EED71E0C7010E947F2A0E945E
:104DA000FF084B865C866D866EED71E0C7010E9440
:104DB0007F2A892B89F488EE91E00E948F0960E0B8
:104DC00089E00E94A60043E050E0BE01655F7F4F8E
:104DD00080E996E00E949D086DE072E0C7010E94A4
:104DE0007F2A892B89F488E192E00E948F0961E093
:104DF00089E00E94A60043E050E0BE01655F7F4F5E
:104E000080E996E00E949D080115110519F0C8017E
:104E10000E941C290FB6F8943EBE0FBE2DBE2ECFA9
:104E2000F701E00FF11F1082A1CF60ED77E080E085
:104E300090E00E9417018EE392E00E948F0980E9C2
:104E400096E00E94431C20E030E0232B09F407CEBB
:104E50000E94C601882309F400CE0E940000FDCD07
:104E600080E592E00E948F09EECF8F929F92AF92E1
:104E7000BF92CF92DF92EF92FF92CF93DF93EC013C
:104E8000688179818A819B81611571058105910510
:104E900021F464E279ED8BE597E02DE133EF41E019
:104EA00050E00E94D92749015A019B01AC01A7EAB1
:104EB000B1E40E94F8276B017C01ACEEB4EFA501D0
:104EC00094010E940628C60ED71EE81EF91EF7FEA2
:104ED00006C081E0C81AD108E10880E8F80AC88253
:104EE000D982EA82FB82C701B6019F77DF91CF9119
:104EF000FF90EF90DF90CF90BF90AF909F908F90FA
:104F000008958F929F92AF92BF92CF92DF92EF92CD
:104F1000FF9260910A0170910B0180910C019091B8
:104F20000D01611571058105910521F464E279EDAA
:104F30008BE597E02DE133EF41E050E00E94D92767
:104F400049015A019B01AC01A7EAB1E40E94F8278C
:104F50006B017C01ACEEB4EFA50194010E94062820
:104F6000C60ED71EE81EF91EF7FE06C081E0C81A5D
:104F7000D108E10880E8F80AC0920A01D0920B013A
:104F8000E0920C01F0920D01C701B6019F77FF90EE
:104F9000EF90DF90CF90BF90AF909F908F9008954B
:104FA00060930A0170930B0180930C0190930D01A3
:104FB0000895052E97FB1EF400940E94F02757FDDC
:104FC00007D00E94422807FC03D04EF40C94F0272F
:104FD00050954095309521953F4F4F4F5F4F089525
:104FE00090958095709561957F4F8F4F9F4F089555
:104FF0000E946428A59F900DB49F900DA49F800DE2
:10500000911D11240895B7FF0C94F8270E94F827EA
:10501000821B930B08952F923F924F925F926F9253
:105020007F928F929F92AF92BF92CF92DF92EF9238
:10503000FF920F931F93CF93DF93CDB7DEB7CA1BB9
:10504000DB0B0FB6F894DEBF0FBECDBF09942A88E4
:10505000398848885F846E847D848C849B84AA848C
:10506000B984C884DF80EE80FD800C811B81AA8119
:10507000B981CE0FD11D0FB6F894DEBF0FBECDBFE4
:10508000ED010895A1E21A2EAA1BBB1BFD010DC064
:10509000AA1FBB1FEE1FFF1FA217B307E407F507E8
:1050A00020F0A21BB30BE40BF50B661F771F881FC4
:1050B000991F1A9469F760957095809590959B015A
:1050C000AC01BD01CF010895A29FB001B39FC00103
:1050D000A39F700D811D1124911DB29F700D811D24
:1050E0001124911D0895EE0FFF1F0590F491E02DFE
:1050F00009946927962769277827872778270895AD
:105100000F931F93CF93DF938230910510F482E0C9
:1051100090E0E091A606F091A70630E020E0B0E034
:10512000A0E0309799F42115310509F44AC0281BF5
:10513000390B24303105D8F58A819B8161157105C1
:1051400089F1FB0193838283FE0111C0408151816B
:105150000281138148175907E0F04817590799F45D
:10516000109761F012960C93129713961C93329637
:10517000CF01DF91CF911F910F9108950093A60663
:105180001093A706F4CF2115310551F042175307AC
:1051900038F0A901DB019A01BD01DF01F801C1CF9F
:1051A000EF01F9CF9093A7068093A606CDCFFE011D
:1051B000E20FF31F819391932250310939832883A1
:1051C000D7CF2091A4063091A506232B41F420913E
:1051D0001001309111013093A5062093A40620916F
:1051E0000E0130910F012115310541F42DB73EB765
:1051F0004091120150911301241B350BE091A4063C
:10520000F091A506E217F307A0F42E1B3F0B281719
:10521000390778F0AC014E5F5F4F2417350748F02F
:105220004E0F5F1F5093A5064093A4068193919360
:105230009FCFF0E0E0E09CCFCF93DF930097E9F0C1
:10524000FC01329713821282A091A606B091A706A4
:10525000ED0130E020E01097A1F420813181820F30
:10526000931F2091A4063091A5062817390709F04D
:1052700061C0F093A506E093A406DF91CF91089555
:10528000EA01CE17DF07E8F54A815B819E014115EF
:105290005105B1F7E901FB83EA8349915991C40FA4
:1052A000D51FEC17FD0761F4808191810296840F70
:1052B000951FE90199838883828193819B838A83E7
:1052C000F0E0E0E012968D919C9113970097B9F56C
:1052D0002D913C911197CD010296820F931F209141
:1052E000A4063091A5062817390739F6309751F5ED
:1052F0001092A7061092A606B093A506A093A40646
:10530000BCCFD383C28340815181840F951FC817BE
:10531000D90761F44E5F5F4F88819981480F591F0B
:10532000518340838A819B81938382832115310538
:1053300009F0B0CFF093A706E093A6069ECFFD013B
:10534000DC01C0CF13821282D7CFB0E0A0E0EBEA3D
:10535000F9E20C940D288C01009751F4CB010E94C6
:1053600080288C01C801CDB7DEB7E0E10C94292874
:10537000FC01E60FF71F9C0122503109E217F307E9
:1053800008F49DC0D901CD91DC911197C617D707BC
:1053900098F0C530D10530F3CE01049786179707F2
:1053A00008F3C61BD70B2297C193D1936D937C93BF
:1053B000CF010E941C29D6CF5B01AC1ABD0A4C015B
:1053C0008C0E9D1EA091A606B091A706512C412CD3
:1053D000F12CE12C109731F58091A4069091A5064F
:1053E0008815990509F05CC04616570608F058C0A4
:1053F00080910E0190910F01009741F48DB79EB7F7
:105400004091120150911301841B950BE817F90785
:1054100008F055C0F093A506E093A406F901718346
:105420006083A0CF8D919C91119712966C901297EA
:1054300013967C901397A815B90559F56C0142E0B5
:10544000C40ED11CCA14DB0420F1AC014A195B095B
:10545000DA011296159780F062827382518340833D
:10546000D9016D937C93E114F10471F0D701139687
:10547000FC93EE93129776CF22968C0F9D1FF90125
:1054800091838083F301EFCFF093A706E093A60604
:1054900069CF4816590608F42C017D01D3019ACF33
:1054A000CB010E9480287C01009749F0AE01B80131
:1054B0000E946F2AC8010E941C29870153CF10E067
:1054C00000E050CFFB01DC0104C08D9101908019F8
:1054D00021F441505040C8F7881B990B0895FB01F7
:1054E000DC0102C001900D9241505040D8F7089560
:1054F000DC0101C06D9341505040E0F70895FB017D
:10550000DC018D91019080190110D9F3990B089558
:10551000FB01DC0101900D920020E1F70895F89461
:10552000FFCFFF415854435031303100010000009B
:105530000000A806800041434B0000000000B905B0
:10554000A105D1050A177717840516170C0ACF0590
:10555000310A9117A71AB4148117381796085E05F7
:105560004F05FFFFFFFFFFFF00000000FC015C0193
:1055700089014902BA019801AC0100000000191C20
:10558000141C791B44073C0883075907601C121B35
:10559000A007431C7C082D1C6A088C080000000032
:1055A00037090D0A00414358544350313031006CE3
:1055B0006F63616C49503A20007375626E65744D7B
:1055C00061736B3A20006761746577617949503A7D
:1055D0002000646E7353657276657249503A2000FC
:1055E000436C69656E7420636F6E6E65637400430F
:1055F0006C69656E7420636F6E6E656374656400BC
:1056000072656C61794F6E30310052656369657601
:105610006564204F4E20436F6D6D616E642C207366
:10562000656E64696E67207468652041434B007243
:10563000656C61794F6666303100526563696576E5
:105640006564204F464620636F6D6D616E642C204B
:1056500073656E64696E67207468652041434B0012
:10566000436C69656E7420646973636F6E6E656305
:105670007400436C69656E7420636F6E6E6563744D
:08568000206661696C6564009D
:107E0000112484B714BE81FFF0D085E080938100F7
:107E100082E08093C00088E18093C10086E0809377
:107E2000C20080E18093C4008EE0C9D0259A86E02C
:107E300020E33CEF91E0309385002093840096BBD3
:107E4000B09BFECF1D9AA8958150A9F7CC24DD24C4
:107E500088248394B5E0AB2EA1E19A2EF3E0BF2EE7
:107E6000A2D0813461F49FD0082FAFD0023811F036
:107E7000013811F484E001C083E08DD089C08234E0
:107E800011F484E103C0853419F485E0A6D080C0E4
:107E9000853579F488D0E82EFF2485D0082F10E0AE
:107EA000102F00270E291F29000F111F8ED06801E7
:107EB0006FC0863521F484E090D080E0DECF843638
:107EC00009F040C070D06FD0082F6DD080E0C81688
:107ED00080E7D80618F4F601B7BEE895C0E0D1E017
:107EE00062D089930C17E1F7F0E0CF16F0E7DF06D8
:107EF00018F0F601B7BEE89568D007B600FCFDCFD4
:107F0000A601A0E0B1E02C9130E011968C91119780
:107F100090E0982F8827822B932B1296FA010C0160
:107F200087BEE89511244E5F5F4FF1E0A038BF0790
:107F300051F7F601A7BEE89507B600FCFDCF97BE46
:107F4000E89526C08437B1F42ED02DD0F82E2BD052
:107F50003CD0F601EF2C8F010F5F1F4F84911BD097
:107F6000EA94F801C1F70894C11CD11CFA94CF0C13
:107F7000D11C0EC0853739F428D08EE10CD085E9AC
:107F80000AD08FE07ACF813511F488E018D01DD067
:107F900080E101D065CF982F8091C00085FFFCCF94
:107FA0009093C60008958091C00087FFFCCF809118
:107FB000C00084FD01C0A8958091C6000895E0E648
:107FC000F0E098E1908380830895EDDF803219F02E
:107FD00088E0F5DFFFCF84E1DECF1F93182FE3DFCA
:107FE0001150E9F7F2DF1F91089580E0E8DFEE27F6
:047FF000FF270994CA
:027FFE00040479
:00000001FF
