:020000040000FA
:100000000C9437020C9468020C9468020C946802F9
:100010000C9468020C9468020C9468020C946802B8
:100020000C9468020C9468020C9468020C946802A8
:100030000C9468020C9468020C9468020C94680298
:100040000C9468020C9468020C9468020C94680288
:100050000C9468020C9468020C9468020C949F390A
:100060000C9468020C94133A0C94E9390C946802CD
:100070000C9468020C9468020C9468020C94680258
:100080000C9468020C9468020C9468020C94680248
:100090000C9468020C9468020C9468020C94680238
:1000A0000C9468020C9468020C9468020C94680228
:1000B0000C9468020C9468020C9468020C94680218
:1000C0000C9468020C9468020C9468020C94680208
:1000D0000C9468020C9468020C9468020C946802F8
:1000E0000C9468020C94F9180C94B1020C94462BF1
:1000F0000C949A020C948A100C94D0020C94F21670
:100100000C94AE030C94C6020C94D6280C94C12B0C
:100110000C945D300C94A92F0C94C6160C9490305E
:100120000C94E7270C9491040C943A2B0C94B9028C
:100130000C94EA030C941D0E0C94DF150C94733090
:100140000C94EE180C9464270C94D8020C948C0533
:100150000C94DB030C945C050C94E2020C9498164E
:100160000C949C280C9449300C94CA020C94EC0218
:100170000C94A0150C94D4020C94FA160C94DD1B6C
:100180000C94E8160C9444040C949F020C943419BB
:100190000C94D72E0C94C5280C94E5180C94D81602
:1001A0000C947D270C9491350C94B5150C949B10F0
:1001B0000C94E4280C94FC150C9474130C940C040B
:1001C0000C94A9130C94031C0C94DE020C94E60E00
:1001D0000C94DF180C94F61A0C94422F0C9404190A
:1001E0000C9483130C947C050C94130E0C947919C5
:1001F0000C947B0E0C94F6130C94FE030C94B9280B
:100200000C941B1B0C94C6130C94C0020C94211765
:100210000C9495280C94682B0C94F4130C9464356E
:100220000C9444300C94DE130C94BD020C94E60242
:100230000C94D9180C943F190C94EF1D0C94B12B0D
:100240000C94B8180C944A190C94A72B0C94F00237
:100250000C940F390C94943A0C94B50200407A1027
:10026000F35A00A0724E18090010A5D4E80000E867
:100270007648170000E40B54020000CA9A3B0000C5
:1002800000E1F505000080969800000040420F0054
:100290000000A08601000000102700000000E80315
:1002A000000000006400000000000A0000000000E0
:1002B0000100000000002C76D888DC674F0823DF9F
:1002C000C1DFAE59E1B1B796E5E3E453C63AE65172
:1002D000997696E8E6C28426EB898C9B62ED407C99
:1002E0006FFCEFBC9C9F40F2BAA56FA5F490055A35
:1002F0002AF75C936B6CF9676DC11BFCE0E40D475A
:10030000FEF520E6B500D0ED902E0300943577057C
:100310000080841E080000204E0A000000C80C3334
:100320003333330F986E12831141EF8D2114893BC3
:10033000E65516CFFEE6DB18D1844B381BF77C1D43
:10034000901DA4BBE424203284725E228100C9F196
:1003500024ECA1E53D277C3C3E5E2B3D3F2F5B5DC1
:100360003B2C2A225C0000002100240027002A00E8
:100370002D003000330001010000040107010A01D3
:1003800000002200250028002B002E003100340040
:1003900002010000050108010B010505050507051F
:1003A00008080808020202020A0A080804040404F1
:1003B000010101010101010103030303030303031D
:1003C000040707070C0C0C0C0C0C0C0C02020202AC
:1003D00006060606060606060B0B0B0B0B0B0B0B95
:1003E0000102102020080810204010204080020147
:1003F000020108040201010204081020408080402C
:10040000201008040201800402018040201008042A
:1004100002010804020101020408102040800102C8
:1004200004081020408000000A0B02090C0D0E0881
:1004300007030401000000000000000000000000AD
:1004400000000000000000000000000000000000AC
:100450000000121110000000000000000000000069
:10046000000000000000000000000000943A112489
:100470001FBECFEFD1E2DEBFCDBF00E00CBF18E062
:10048000A0E0B2E0E2EAFDEA00E00BBF02C00790A4
:100490000D92A639B107D9F72FE0A6E9B8E001C05F
:1004A0001D92AD3EB207E1F712E0C7E3D2E000E0F3
:1004B00006C021970109802FFE010E946651C633B4
:1004C000D10780E00807A9F70E94613B0C94CF5642
:1004D0000C940000282F30E0F901EA5DFB4F949165
:1004E000F901E052FC4F449126563C4FF90124910A
:1004F000222309F435C0992311F191509231F8F477
:10050000E92FF0E08827E857FD4F8F4F0C94665194
:10051000B902BD029A02B102B5029F02C002C60230
:10052000CA02D002D402D802DE02E2029F02E60230
:10053000EC02F002809180008F7780938000E22FA0
:10054000F0E0EE0FFF1FE058FC4FA591B4918FB77C
:10055000F894EC91611148C040954E234C938FBFA5
:100560000895809180008F7DE8CF80918000877F03
:10057000E4CF84B58F7784BDE2CF84B58F7DFBCF88
:100580008091B0008F778093B000D9CF8091B00078
:100590008F7DF9CF809190008F7780939000CFCF9F
:1005A000809190008F7DF9CF80919000877FF5CF6B
:1005B0008091A0008F778093A000C1CF8091A00090
:1005C0008F7DF9CF8091A000877FF5CF80912001AA
:1005D0008F7780932001B3CF809120018F7DF9CF59
:1005E00080912001877FF5CF4E2BB8CFCF93DF933B
:1005F00090E0FC01E052FC4F249186569C4FFC0198
:1006000084918823D1F090E0880F991FFC01EA596A
:10061000FC4FA591B491FC01E058FC4FC591D491D9
:1006200061110EC09FB7F8948C91E22FE0958E2354
:100630008C932881E223E8839FBFDF91CF910895B7
:100640008FB7F894EC91E22BEC938FBFF6CF863303
:1006500008F0865320917B00982F9870277F922B6B
:1006600090937B008770806480937C0080917A00F7
:10067000806480937A0080917A0086FDFCCF80911F
:1006800078009091790008953FB7F89480910D0C0F
:1006900090910E0CA0910F0CB091100C26B5A89B58
:1006A00005C02F3F19F00196A11DB11D3FBFBA2F04
:1006B000A92F982F8827BC01CD01620F711D811DC4
:1006C000911D42E0660F771F881F991F4A95D1F749
:1006D00008958F929F92AF92BF92CF92DF92EF9246
:1006E000FF924B015C010E9444036B017C010E945C
:1006F00044036C197D098E099F09683E734081058A
:100700009105A8F321E0821A9108A108B10888EEAA
:10071000C80E83E0D81EE11CF11C81149104A104D1
:10072000B10429F7FF90EF90DF90CF90BF90AF908A
:100730009F908F9008952FB7F8946091090C709155
:100740000A0C80910B0C90910C0C2FBF0895DC01CA
:10075000ED91FC910190F081E02D1994AF92BF9240
:10076000CF92DF92EF92FF920F931F93CF93DF937D
:100770006C017B018B01040F151FEB015E01AE18AC
:10078000BF08C017D10759F06991D601ED91FC91CE
:100790000190F081E02DC6011995892B79F7C501EB
:1007A000DF91CF911F910F91FF90EF90DF90CF904D
:1007B000BF90AF900895FC01538D448D252F30E0FC
:1007C000842F90E0821B930B541710F0CF9608955E
:1007D00001970895FC01918D828D981761F0A28D8B
:1007E000AE0FBF2FB11D5D968C91928D9F5F9F7351
:1007F000928F90E008958FEF9FEF0895FC01918D07
:10080000828D981731F0828DE80FF11D858D90E073
:1008100008958FEF9FEF0895FC01918D228D892F10
:1008200090E0805C9F4F821B91098F7399270895F8
:1008300085E49EE00E940C0421E0892B09F420E06D
:10084000822F0895FC01A48DA80FB92FB11DA35AC2
:10085000BF4F2C91848D90E001968F739927848FE0
:10086000A689B7892C93A089B1898C918370806403
:100870008C93938D848D981306C00288F389E02DA4
:1008800080818F7D80830895EF92FF920F931F9355
:10089000CF93DF93EC0181E0888F9B8D8C8D981333
:1008A0001AC0E889F989808185FF15C09FB7F8943F
:1008B000EE89FF896083E889F9898081837080648B
:1008C00080839FBF81E090E0DF91CF911F910F91D6
:1008D000FF90EF900895F62E0B8D10E00F5F1F4FE5
:1008E0000F731127E02E8C8D8E110CC00FB607FCF4
:1008F000FACFE889F989808185FFF5CFCE010E9482
:100900002204F1CFEB8DEC0FFD2FF11DE35AFF4FC9
:10091000F0829FB7F8940B8FEA89FB89808180620F
:10092000CFCFCF93DF93EC01888D8823B9F0AA89CC
:10093000BB89E889F9898C9185FD03C0808186FD9A
:100940000DC00FB607FCF7CF8C9185FFF2CF8081E9
:1009500085FFEDCFCE010E942204E9CFDF91CF9138
:10096000089580E090E0892B29F00E9418048111FD
:100970000E94000080E090E0892B49F080E090E048
:10098000892B29F00E94000081110E94000080E064
:1009900090E0892B49F080E090E0892B29F00E94BB
:1009A000000081110E94000080E090E0892B49F056
:1009B00080E090E0892B29F00E94000081110C94C6
:1009C000000008958FB7F894809167098FBF08954C
:1009D00061E0FC0184810E946A02809166098111B4
:1009E0001092660908958CBD9DBD0895CF93DF9345
:1009F000EC0180916609811109C081E0809366094C
:100A00008091E20E9091E30E0E94F30460E08C81ED
:100A1000DF91CF910C946A02FC01DB0112968D915B
:100A20009C9113979383828382E992E091838083E0
:100A300014968C911497848315968C9115978583C1
:100A400016964D915D916D917C91199746835783D0
:100A5000608771871A964D915D916D917C911D977C
:100A600042875387648775871E964D915D916D917E
:100A70007C91519746875787608B718B52968C91EA
:100A80005297828B53964D915D916D917C915697C3
:100A9000438B548B658B768B57964D915D916D9101
:100AA0007C915A97478B508F618F728F5B968D9197
:100AB0009C91948F838F0895DC015996ED91FC9160
:100AC0003097B9F083899489A589B6894285538581
:100AD00064857585841B950BA60BB70B811520E8E3
:100AE0009207A105B10538F08FEF9FE7A0E0B0E0D5
:100AF000089590E080E00895DC0159968D919C91D5
:100B0000009739F0DC01ED91FC910480F581E02D36
:100B1000199490E080E00895CF93DF931F92CDB7B2
:100B2000DEB76983DC01ED91FC910280F381E02D59
:100B300041E050E0BE016F5F7F4F19950F90DF914C
:100B4000CF910895CF93CFB7F89480916509811123
:100B500027C0EFECF3E08491E5E1F4E09491E82F15
:100B6000F0E0EE0FFF1FEA59FC4FA591B491EC9114
:100B7000E92321F461E085E30E946A0261E085E3F4
:100B80000E94F6028CB580618CBD8CB580648CBDF2
:100B900061E084E30E94F60261E083E30E94F602D2
:100BA000809165098F5F80936509CFBFCF910895CC
:100BB0008823E9F0A5E7BAE025E014969C91149704
:100BC00089130DC095E0899FF0011124EB58F54F72
:100BD000848114968C93138212821482089599232F
:100BE00031F0929FD0011124AB58B54FE6CF089554
:100BF0008823A1F09091850B992381F08F3F29F4F0
:100C00008091820B9091830B089595E0899FF0016C
:100C10001124EB58F54F82819381089590E080E094
:100C200008958EBD00000DB407FEFDCF8EB508956A
:100C30008FEF0C9411060F931F93CF93DF93EC016A
:100C40000E949B038B010E9418068F3F69F00E944F
:100C50009B03601B710B6C177D07A8F380E0DF918D
:100C6000CF911F910F91089581E0F9CF8F929F92BC
:100C7000AF92BF92FF920F931F93CF93DF93EC013C
:100C8000F62E49015A018E81882389F08F8198853B
:100C90009C012F5F3F4F38872F838230924018F49A
:100CA0000E941806F3CFCE010E94E8041E82CE01F6
:100CB0000E94F6048CE291E00E941B068F2D806456
:100CC0000E94110608E110E0D501C401002E04C005
:100CD000B695A795979587950A94D2F70E94110625
:100CE00008501109083F8FEF180771F785E9FF20B9
:100CF00021F028E087E8F2128FEF0E94110610E041
:100D00000E9418068A8787FF04C01F3F11F01F5FEB
:100D1000F7CFDF91CF911F910F91FF90BF90AF90D0
:100D20009F908F900895AF92BF92CF92DF92EF92F3
:100D3000FF920F931F93CF93DF93EC016901C801DA
:100D4000820F931F8130924050F58E81882379F075
:100D500088819981AA81BB8184179507A607B70767
:100D600031F48F819885C816D90608F042C04883AF
:100D700059836A837B838B85833039F089E0440F04
:100D8000551F661F771F8A95D1F79A01AB0161E164
:100D9000CE010E943606882389F083E08D83CE0140
:100DA0000E94E80480E0DF91CF911F910F91FF90A6
:100DB000EF90DF90CF90BF90AF9008950E949B037B
:100DC0005B010E9418068A878F3F69F40E949B038B
:100DD0006A197B096D327140A0F38FE08D83CE01DB
:100DE0000E94E804DCCF8E3F89F418861F8281E0E0
:100DF0008E838F8198858C159D0550F40E9418066E
:100E00008F819885019698878F83F3CF8DE0E6CF09
:100E10006701E00EF11E0E941806F60181936F0132
:100E2000EE15FF05C1F78F819885080F191F1887E8
:100E30000F838985882319F001151240A0F08E8157
:100E4000882389F08F8198859C012F5F3F4F3887D9
:100E50002F838230924018F40E941806F3CFCE01FF
:100E60000E94E8041E8281E09ECFCF92DF92EF9233
:100E7000FF920F93CF93DF93EC01690182E141155B
:100E800051056105710599F08B85833039F089E052
:100E9000440F551F661F771F8A95D1F79A01AB0142
:100EA00068E1CE010E943606882319F084E08D8324
:100EB0002DC08EEF0E94110676018EEFD81AF70131
:100EC00081917F010E941106EC14FD04C1F78FEFA0
:100ED0000E9411068FEF0E9411060E9418068A8751
:100EE0008F71853071F4011116C0CE010E94E804A3
:100EF00081E0DF91CF910F91FF90EF90DF90CF9045
:100F0000089581E18D83CE010E94E804CE010E9404
:100F1000E80480E0EECF88E592E00E941B06811194
:100F200002C085E1C4CF20E030E0A9016DE0CE0130
:100F30000E943606882311F084E1B9CF0E9418067A
:100F40008111FACFD2CF0F934091690950916A096C
:100F500060916B0970916C0941155105610571052E
:100F600099F0082F23E43CE08091430E9091440EC9
:100F70000E943507882349F01092690910926A0986
:100F800010926B0910926C0981E00F9108950F93F4
:100F9000CF93C82F80916809811105C0C1E08C2FC3
:100FA000CF910F91089540910102509102026091FA
:100FB0000302709104020C2F23E43CE08091430E65
:100FC0009091440E0E943507811102C0C0E0E7CF26
:100FD000CC2321F381E00E94A3078823B9F3109268
:100FE0006809DDCF8F929F92AF92BF92EF92FF92EE
:100FF0000F931F93CF934B015C01C42F809101028B
:1010000090910202A0910302B09104028815990503
:10101000AA05BB0551F181E00E94C70781110BC0F1
:1010200080E0CF911F910F91FF90EF90BF90AF9014
:101030009F908F90089583E4E82E8CE0F82E00E0D6
:1010400012E030E020E0B501A4018091430E9091C0
:10105000440E0E949306882319F380920102909215
:101060000202A0920302B0920402409168094C2B44
:101070004093680981E0D5CF8F929F92AF92BF9243
:10108000CF92DF92EF92FF92CF9324EE3EE0309327
:10109000440E2093430E882309F46DC040E060E0C5
:1010A00070E0CB010E94F20781110BC080E0CF916C
:1010B000FF90EF90DF90CF90BF90AF909F908F9078
:1010C00008958091010E8F7789F780910D0E909190
:1010D0000E0EA0910F0EB091100E84369105A10551
:1010E000B10520F3C090090ED0900A0EE0900B0ECF
:1010F000F0900C0EC114D104E104F104B9F240E007
:10110000C701B6010E94F207882381F280914E0C3C
:1011100090914F0C8115924049F6A091530CAA234F
:1011200029F26091510C7091520C6115710509F40E
:10113000BDCF2091500C222309F4B8CFA093020F09
:101140002093F40E90E080E030E0E1E0F0E0C82F82
:10115000AF01082E02C0440F551F0A94E2F724176E
:10116000350769F041E0480F01968930910579F71C
:101170004093FD0E9BCFC12CD12C7601C0CF809324
:10118000FD0E2091590C30915A0C50E040E0211591
:10119000310541F42091670C3091680C4091690C45
:1011A00050916A0C2093F50E3093F60E4093F70E93
:1011B0005093F80E46015701860E971EA11CB11CD4
:1011C0008092030F9092040FA092050FB092060F29
:1011D000E091540CF091550CF093090FE093080F37
:1011E000B0E00E94D14FDC01CB01880D991DAA1DF2
:1011F000BB1D80930A0F90930B0FA0930C0FB0931D
:101200000D0F25E0EE0FFF1F2A95E1F7E150FE4F8D
:10121000EF2FFF27E6958E0F9F1FA11DB11D809315
:10122000FE0E9093FF0EA093000FB093010F8090DD
:10123000560C9090570CB12CA12C8114910441F4C0
:101240008090630C9090640CA090650CB090660C3C
:10125000C81AD90AEA0AFB0AC80CD91CEA1CFB1CEA
:1012600004C0F694E794D794C794CA95D2F7C09275
:10127000F90ED092FA0EE092FB0EF092FC0E85EF82
:10128000C8168FE0D806E104F10428F48CE08093BE
:10129000070F81E00CCF80E125EFC2162FEFD206B9
:1012A000E104F104A0F380916F0C9091700CA09177
:1012B000710CB091720C80930A0F90930B0FA09356
:1012C0000C0FB0930D0F80E2E2CFCF93DF93EC01D0
:1012D0006E857F858889998941E00E94F20788237D
:1012E00051F08A8920E2829FC00111248D5B934FC7
:1012F000DF91CF91089590E080E0FACF4F925F9216
:101300006F927F928F929F92AF92BF92CF92DF9215
:10131000EF92FF920F931F93CF93DF93EC01423034
:1013200051056105710590F480E0DF91CF911F9127
:101330000F91FF90EF90DF90CF90BF90AF909F9074
:101340008F907F906F905F904F90089589859A85D8
:10135000AB85BC850196A11DB11D84179507A60715
:10136000B70710F3CB88DC88ED88FE888F89803141
:1013700009F042C0BB27A72F962F852F480159019E
:101380002A013B01C80ED91EEA1EFB1E80910102F4
:1013900090910202A0910302B0910402C816D906EE
:1013A000EA06FB0699F58F898031C1F5B301A201E8
:1013B000552766277727440F551F4D5B534FFA017A
:1013C00091828082809168098160809368098A890E
:1013D000823080F08D819E81AF81B8858C0D9D1DFE
:1013E000AE1DBF1D8093690990936A09A0936B0994
:1013F000B0936C0981E099CFDB01CA01E7E0B695B3
:10140000A79597958795EA95D1F7B8CF40E0C701A2
:10141000B6010E94F2078111C6CF86CFB301A201A7
:101420004F77552766277727440F551F440F551FC1
:101430004D5B534FFA0180829182A282B382C2CF68
:101440008F929F92AF92BF92CF92DF92EF92FF92D4
:101450000F931F93CF93DF93FC0181859285A38522
:10146000B4850196A11DB11D84179507A607B7077E
:1014700070F480E0DF91CF911F910F91FF90EF907A
:10148000DF90CF90BF90AF909F908F90089583880A
:101490009488A588B6888789803189F5BB27A72FCE
:1014A000962F852FE9016A017B018F01BC01CD01D7
:1014B000680D791D8A1D9B1D80900102909002028B
:1014C000A0900302B090040286169706A806B906FB
:1014D00001F5F8018789803111F5DD24EE24FF2420
:1014E000F601EE0FFF1FED5BF34F80819181B0E0BD
:1014F000A0E088839983AA83BB8381E0BBCFDB0113
:10150000CA01C7E0B695A79597958795CA95D1F773
:10151000C9CF40E00E94F2078111DBCFAACFE89447
:10152000C7F8DD24EE24FF24F601EE0FFF1FEE0FB7
:10153000FF1FED5BF34F80819181A281B381BF706A
:10154000D8CF4F925F926F927F92AF92BF92CF921D
:10155000DF92EF92FF920F931F93CF93DF9300D010
:101560001F92CDB7DEB78C0149835A836B837C838E
:101570005901C12CD12C7601412C82E0582E612CCE
:10158000712C49815A816B817C819E012F5F3F4F75
:10159000C8010E94200A882339F1F8018585A3013A
:1015A000920104C0220F331F441F551F8A95D2F7A2
:1015B000DA01C901C80ED91EEA1EFB1E49815A81F3
:1015C0006B817C818789803111F188EF9FEFAFEFCC
:1015D000BFE0481759076A077B0798F2F501C082F8
:1015E000D182E282F38281E00F900F900F900F90F2
:1015F000DF91CF911F910F91FF90EF90DF90CF90EF
:10160000BF90AF907F906F905F904F90089588EF5C
:101610009FEFA0E0B0E0DDCFCF93DF93FC01258109
:10162000222321F080E0DF91CF910895EC01809199
:10163000070F803159F582E08583178A108E118E4D
:10164000128E8091080F9091090FB0E0A0E025E084
:10165000880F991FAA1FBB1F2A95D1F7838B948BE4
:10166000A58BB68B80EF9EE09C8F8B8F81E08C8367
:101670001E821F82188619861A861B861C861D8666
:101680001E861F86188A198A1A8ACDCF803251F693
:1016900083E0858340910A0F50910B0F60910C0FEE
:1016A00070910D0F478B508F618F728F9F012D5E50
:1016B0003F4F80EF9EE00E94A10A8111D3CFB2CFAD
:1016C0008F929F92AF92BF92CF92DF92EF92FF9252
:1016D0000F931F93CF93DF93EC018D8181110EC087
:1016E00080E0DF91CF911F910F91FF90EF90DF90FD
:1016F000CF90BF90AF909F908F9008950B891C89D9
:101700002D893E89041715072607370748F34A0134
:101710005B01823031F48A869B86AC86BD8681E08F
:10172000E0CF81149104A104B10449F41E821F8208
:10173000188619861A861B861C861D86F0CF0A8598
:101740001B852C853D85EB8DFC8D858590E009966C
:10175000B901A8014150510961097109082E04C05D
:1017600076956795579547950A94D2F77501640168
:10177000E1E0CE1AD108E108F10804C0F694E7943C
:10178000D794C7948A95D2F7C416D506E606F7060D
:1017900020F0012B022B032B11F58F89988DA98D39
:1017A000BA8D8E839F83A887B9878E010A5F1F4FEA
:1017B000C114D104E104F10409F4ADCF4E815F817D
:1017C0006885798598018B8D9C8D0E94200A91E017
:1017D000C91AD108E108F1088111EACF81CFC41AF2
:1017E000D50AE60AF70AE1CF3F924F925F926F92D5
:1017F0007F928F929F92AF92BF92CF92DF92EF92A1
:10180000FF920F931F93CF93DF93CDB7DEB72C9743
:101810000FB6F894DEBF0FBECDBF5C01DC015B9656
:101820008D909C905C9716964D905D906D907C90FD
:101830001997411451046104710409F468C0BFEFA1
:101840004B1A5B0A6B0A7B0A312CF4018185928565
:10185000A385B4859C01AD012F5F3F4F4F4F5F4F74
:1018600029873A874B875C87730162011D821E823C
:101870001F821886F40181859285A385B4852D8108
:101880003E814F815885281739074A075B0708F0C2
:1018900056C089859A85AB85BC858C159D05AE059E
:1018A000BF0550F482E0C82ED12CE12CF12C92E03F
:1018B000492E512C612C712C9E012F5F3F4FB70197
:1018C000A601C4010E94200A8823C9F189819A8156
:1018D000AB81BC81892B8A2B8B2B09F12601370127
:1018E0009FEF491A590A690A790A2D813E814F8171
:1018F00058852F5F3F4F4F4F5F4F2D833E834F8360
:1019000058873FEFC31AD30AE30AF30AB3CFF401AF
:1019100040805180628073803324339496CFC41406
:10192000D504E604F70409F70FEF1FEF2FEF3FE0B0
:10193000B701A601C4010E947E09811119C080E08F
:101940002C960FB6F894DEBF0FBECDBFDF91CF91BE
:101950001F910F91FF90EF90DF90CF90BF90AF90CD
:101960009F908F907F906F905F904F903F900895E1
:10197000D50116964D915D916D917C911997411508
:1019800051056105710539F097018601C4010E9476
:101990007E098823A1F2D5011696CD92DD92ED92B3
:1019A000FC921997332051F0D701C6010196A11D71
:1019B000B11DF40180839183A283B383F5018789EC
:1019C000908DA18DB28D892B8A2B8B2B39F484813C
:1019D000C78AD08EE18EF28E80688483F50184817F
:1019E0008062848381E0ACCF2F923F924F925F92CE
:1019F0006F927F928F929F92AF92BF92CF92DF921F
:101A0000EF92FF920F931F93CF93DF9300D0CDB748
:101A1000DEB7FC018581811118C08FEF9FEF0F9019
:101A20000F900F90DF91CF911F910F91FF90EF904A
:101A3000DF90CF90BF90AF909F908F907F906F90EE
:101A40005F904F903F902F900895848180FFE5CF65
:101A5000438954896589768982859385A485B5856E
:101A6000312C212C481759076A077B0719F02224CB
:101A70002394312C6F012101CE0101963C01DF013D
:101A80001696BB83AA834114510409F4C5C0F6011C
:101A900042855385648575854A01F1E09F22D60110
:101AA0005B968D919C915C978A019B01E9E036954C
:101AB000279517950795EA95D1F71596EC91E230A1
:101AC000E9F5FC01628D738D848D958D600F711F1A
:101AD000821F931FA12C22E0B22EA818B9084A1425
:101AE0005B0408F45201F601248126FD04C0A11410
:101AF000F2E0BF0671F40091010210910202209100
:101B0000030230910402061717072807390709F066
:101B10005EC040E00E94F207882309F47ECFC40132
:101B20008D5B934FD3019C012A0D3B1DFC012E17A9
:101B30003F0709F46CC041914D93F9CFDC01149635
:101B4000BC90BA94B0228114910479F4B1100DC004
:101B5000452B462B472B69F5F6018789908DA18D82
:101B6000B28D86839783A087B187D6015B96ED916E
:101B7000FC915C9716966D917D918D919C91199732
:101B80006250710981099109258504C0660F771F8C
:101B9000881F991F2A95D2F70685178520893189D4
:101BA000600F711F821F931F6B0D711D811D911D91
:101BB00091CFD60116964D915D916D917C911997BB
:101BC0002A813B810E94200A8111CFCF26CF730149
:101BD00085019401AB01BC018091430E9091440EAC
:101BE0000E949306882309F418CF6A0C7B1CF60127
:101BF00082859385A485B5858A0D9B1DA11DB11D88
:101C000082879387A487B5874A185B083CCF281B37
:101C1000390B620E731EEBCF2A94232809F0FDCEF8
:101C2000898190E0FCCEFC01818D928D009711F0AE
:101C30000C94F40C8FEF9FEF08950F931F93CF93A5
:101C4000DF93EC01898D9A8D10E000E0009799F008
:101C50000E94F40C8C010F3F100769F0898D9A8D5A
:101C6000FC014285538564857585415051096109A0
:101C700071090E94600BC801DF91CF911F910F91F4
:101C800008951F93CF93DF93FC012581222371F1E7
:101C9000162FEC01848187FF1EC0CF010E946509C9
:101CA000FC01892B19F18D81823040F48B899C894C
:101CB000AD89BE89848F958FA68FB78F8F89988DB8
:101CC000938F828F8F89988DA98DBA8DB58BA48BB8
:101CD0008C818F778C83111103C08C818F7E8C83D4
:101CE000812FDF91CF911F910C94C70780E0DF9186
:101CF000CF911F910895FF920F931F93CF93DF937E
:101D0000EC018D81813041F090E080E0DF91CF9156
:101D10001F910F91FF9008958C8181FFF5CF82FD77
:101D20001BC00091430E1091440EC8010E94F6049E
:101D30000E941806F82EC8010E94E8048FEFF812DE
:101D4000E3CF8C8185FF1BC060E0CE010E94410E75
:101D50008C818F7D8C83D8CF4B895C896D897E89FE
:101D60008A859B85AC85BD8584179507A607B7072F
:101D7000C1F2CE010E94600B8111D3CFC5CF40913B
:101D8000690950916A0960916B0970916C09452B42
:101D9000462B472B21F080E00E94A307B5CF80613E
:101DA0008C832A853B85317080E092E0821B930B07
:101DB000ADCFCF93DF93EC0161E00E94410E882309
:101DC00011F01D8281E0DF91CF910895FC01818D9A
:101DD000928D009719F061E00C94410E08952F92B6
:101DE0003F924F925F926F927F928F929F92AF92AB
:101DF000BF92CF92DF92EF92FF920F931F93CF93F8
:101E0000DF9300D01F921F92CDB7DEB77C015B013C
:101E1000342E5D83DC0115968C911597813009F085
:101E2000CEC014962C9021FECAC022FCB4C0C32C94
:101E3000DD8022947FE027222094B22DB1702B2EDA
:101E4000D7011A964D915D916D917C911D97C114AA
:101E5000D10409F428C15B968D919C915C97FC019B
:101E600074807A948A019B0169E0369527951795CD
:101E700007956A95D1F770228A011170711020C000
:101E800001151105E9F416964D915D916D917C91C6
:101E90001997411551056105710509F099C05796CB
:101EA0008D919D910D90BC91A02D0097A105B1053C
:101EB00009F0B0C0C7010E94F40B882309F47FC069
:101EC00080E092E0801B910B46018C159D0508F483
:101ED0004C01D7015B964D915C915C9716968D9164
:101EE0009D910D90BC91A02D0297A109B109FA0115
:101EF000258504C0880F991FAA1FBB1F2A95D2F7FA
:101F00004685578560897189840F951FA61FB71F65
:101F10009C01AD01270D311D411D511D29013A01C3
:101F2000811432E0930609F07BC080910102909108
:101F30000202A0910302B091040284159505A60542
:101F4000B70559F48FEF9FEFDC0180930102909366
:101F50000202A0930302B0930402022D9501B30183
:101F6000A2018091430E9091440E0E943507882370
:101F700031F19EEFB91AC818D908F7018285938507
:101F8000A485B585880D991DA11DB11D82879387F4
:101F9000A487B58755CFF701438954896589768928
:101FA00082859385A485B585481759076A077B07FD
:101FB00009F43DCFC7010E94600B811138CF81E049
:101FC00090E0D70113969C938E93129780E007C000
:101FD0009E012F5F3F4F0E94200A811102C090E0B6
:101FE00079C089819A81AB81BC81F701238D348DC1
:101FF000F901278948EF5FEF60E070E0203121F0C0
:1020000048EF5FEF6FEF7FE084179507A607B707EC
:1020100008F050CFF70186839783A087B18750CF10
:102020000115110599F5D7011A964D915D916D91A4
:102030007C911D9753968D919D910D90BC91A02DF3
:10204000481759076A077B0708F181E00E94C70714
:10205000882309F4B4CF40920102509202026092A8
:10206000030270920402809168098160809368097C
:10207000C8018D5B934FD5019C01280D391DFC01D2
:102080002E173F0759F04D914193FACF41E0C3011C
:10209000B2010E94F2078111EBCF91CF281B390BBF
:1020A000A20EB31E68CFF70183899489A589B689EA
:1020B00084179507A607B70738F48481438B548BA0
:1020C000658B768B80688483F701848183FD1AC0D9
:1020D000832D9D810F900F900F900F900F90DF91A7
:1020E000CF911F910F91FF90EF90DF90CF90BF9015
:1020F000AF909F908F907F906F905F904F903F90A8
:102100002F90089561E0C7010E94410E882309F4D1
:1021100056CFDECFCF93DF931F92CDB7DEB7698363
:1021200041E050E0BE016F5F7F4F0E94EF0E0F90C5
:10213000DF91CF910895CF93DF93EC01E98DFA8D74
:10214000309749F481E090E09B838A8390E080E0BF
:10215000DF91CF91089513821282898D9A8D0E940A
:10216000EF0EE98DFA8D22813381232B59F7F0CFC1
:102170000F931F93CF93DF93082FC62F142FD09167
:102180001B0260E08D2F0E946A028C2F8F71802BC2
:102190000E941106812F0E94110661E08D2FDF91B0
:1021A000CF911F910F910C946A02CF93DF93D82F98
:1021B000D076909100029D17A1F0C82F43E06FE107
:1021C00080EA0E94B8104C2F50E085E05595479565
:1021D0008A95E1F743706FE180E80E94B810D093D0
:1021E0000002DF91CF9108951F93CF93DF93C82F03
:1021F000162FD72F0E94D510412F6C2F80E40E94FC
:10220000B81061E06C0F4D2F80E4DF91CF911F91EA
:102210000C94B810EF92FF920F931F93CF93DF931C
:102220008B017A018F3F59F095E0899FE0011124DD
:10223000CB58D54F68817981600F711F0FC06091B5
:10224000800B7091810B600F711FC0E8DBE061159E
:1022500088E0780778F37850C0E8DBE080E00E94FF
:10226000F4108A819B81801B910BE816F90608F413
:10227000C701DF91CF911F910F91FF90EF900895CB
:10228000CF92DF92FF920F931F93CF93DF93EB01D7
:1022900070E060E00E940A118C01F0901B0260E087
:1022A0008F2D0E946A028AE30E9411066E01C00E01
:1022B000D11ECC15DD0529F080E00E94110689931E
:1022C000F8CF61E08F2D0E946A02C801DF91CF91A3
:1022D0001F910F91FF90DF90CF90089560917E0B3A
:1022E00070917F0B6115710529F0615071098CE0C7
:1022F0000C94F4106FEF77E0FACFCF93DF93C82FF1
:10230000D62F0E94D5104D2F6C2F80E4DF91CF91F6
:102310000C94B8101F93CF93DF93182FD62FC09132
:102320001B0260E08C2F0E946A028D2F8F71812B1F
:102330000E941106D7FF03C080E00E94110680E0D2
:102340000E941106D82F61E08C2F0E946A028D2F07
:10235000DF91CF911F910895CF93C82F0E94D51080
:102360006C2F80E0CF910C948A11CF93DF93EB0117
:10237000682F84ED0E947D11BE0186ED0E94F4104D
:10238000CFE0D0E08AEE0E94AC1180FF08C06AE086
:1023900070E080E090E00E946903219799F7DF9157
:1023A000CF910895CF93DF93D62FBC0182E00E9496
:1023B000F410C0911B0260E08C2F0E946A028AE731
:1023C0000E9411068D2F0E94110661E08C2FDF9173
:1023D000CF910C946A02CF93DF93BC0180E00E94FE
:1023E000F410C0911B0260E08C2F0E946A028AE305
:1023F0000E94110680E00E941106D82F61E08C2F08
:102400000E946A028D2FDF91CF910895CF92DF92C3
:10241000EF92FF920F931F93CF93DF936C018B0189
:102420004130510579F4CB010E94EB11682FC601B0
:10243000DF91CF911F910F91FF90EF90DF90CF90A0
:102440000C94D211EA01C60FD71F7E0181E0E81A71
:10245000F10880E10E94F410B60184E10E94F410BA
:102460000115184048F4E11488E0F80628F07E01D0
:1024700081E0E81A88E0F80AB70182E10E94F410CE
:1024800040E16FE180EA0E94B81040E26FE180E82D
:102490000E94B8106FE180E00E948A1185FF07C09A
:1024A00061E070E080E090E00E946903F3CFDF918B
:1024B000CF911F910F91FF90EF90DF90CF900895F3
:1024C000CF92DF92EF92FF920F931F93CF93DF9300
:1024D0008C016091750A7091760A6150784EC12C1A
:1024E00098E1D92EE5E7FAE020E0D0E0C0E045E051
:1024F0003481CB01332341F0439FC00111248B5819
:10250000954FDC018D919C91E080F1808E199F099F
:102510000280F381E02D8E1B9F0B8017910799F4A9
:10252000B5E02B9FE0011124CB58D54FEAE7FAE044
:1025300081E022813381232B09F453C035968F5FCC
:102540008533B9F744C00817190748F48C159D0561
:1025500030F4249FE0011124CB58D54F6C01311188
:1025600021C0209719F7C5E7DAE085E0D82E8C81E5
:1025700028813981EA80FB808823D9F0E20EF31E9E
:102580008D9DE0011124CB58D54F68817981E616E5
:10259000F70669F34A815B81C7010E940612F9823E
:1025A000E882E5CF349FF0011124EB58F54F232F3B
:1025B0009FCF8091750A9091760A821B930B8E199A
:1025C0009F098150984E8017910708F0AFCF80E0A7
:1025D000DF91CF911F910F91FF90EF90DF90CF90FF
:1025E0000895288139814A815B81240F351F318309
:1025F0002083138302839C8194838C83E9CF0F9380
:102600001F93DB01E42FA80190E0EF3FE1F065E0CC
:10261000E69FF0011124EB58F54F60817181620F44
:10262000731F01C0785025E0289FF001299FF00D0D
:102630001124EB58F54F808191818A0F9B1F1F91C8
:102640000F910C9406126091800B7091810B620FB8
:10265000731F6115E8E07E0728F7E0E8FBE0DDCFB7
:10266000CF92DF92EF92FF920F931F93CF93DF935E
:102670006B018A01790195E0899FE0011124CB5813
:10268000D54F688179816C0D7D1D82E00E94F41028
:102690000A80DB81C02DCC19DD09EC16FD0608F49B
:1026A000E701F0901B0260E08F2D0E946A028AE72A
:1026B0000E9411066801CC0EDD1EC016D10631F055
:1026C000F80181918F010E941106F7CF61E08F2DF3
:1026D0000E946A02CE01DF91CF911F910F91FF906E
:1026E000EF90DF90CF900895DC011C96ED91FC9166
:1026F000309731F086819781982789279827089508
:1027000090E080E00895CF93DF93FC01EB01AC856E
:10271000BD851097A9F012969C91129713968C91F3
:1027200013973C9111962C9142ED52E051834083D6
:102730003283238394838583CF01DF91CF910895E2
:1027400082ED92E09183808312821382148215823B
:10275000F3CFCF93DF931F92CDB7DEB7DC01ED91BE
:10276000FC91048CF58DE02D41E050E0BE016F5FDF
:102770007F4F19951816190634F4898190E00F904F
:10278000DF91CF9108958FEF9FEFF9CFCF93DF9334
:10279000EC018A89882379F09A01AB016E857F85E7
:1027A0000E9430132E853F85280F391F3F872E87C3
:1027B000DF91CF91089590E080E0FACFCF93DF933F
:1027C0001F92CDB7DEB76983DC01ED91FC910280E9
:1027D000F381E02D41E050E0BE016F5F7F4F19951E
:1027E0000F90DF91CF91089580E008950895FB0147
:1027F00041505109460F571FE417F50778F420811F
:1028000030E0322F22276181260F311D820F931F66
:102810008217930708F401963296EECFE417F50776
:1028200051F4208130E0322F2227820F931F82172C
:10283000930708F401960895BF92CF92DF92EF922A
:10284000FF920F931F93CF93DF93C82FE09011094E
:10285000F12CFE2CEE24409112094451550BE40E4C
:10286000F51E48E050E06BE179E0C7018C0F911D47
:102870000E94F71308E0C13129F000912F09069555
:1028800006950C7310E0A80163E279E00E94F7134B
:10289000EC010E151F0508F04BC0A701401B510BA2
:1028A0008091E00862E270E081FF02C063E270E0C4
:1028B000600F711F8091E1080E940A1101977C014D
:1028C000B0901B0260E08B2D0E946A028AE30E9496
:1028D0001106D12CC12CCE14DF04B8F480E00E9484
:1028E0001106082F10E0102F002780E00E9411062B
:1028F000800F912F911DC80FD91FC817D90708F451
:10290000219682E0C80ED11CE6CFEC14FD0461F4E0
:1029100080E00E94110690E0982F8827C80FD91FE9
:10292000C817D90708F4219661E08B2D0E946A022E
:102930009C2F8D2FCD2B11F48FEF9FEFDF91CF9137
:102940001F910F91FF90EF90DF90CF90BF9008956F
:1029500044E150E06FE079E090E080E00E94F713FE
:10296000009721F098278927982708958FEF9FEFE8
:102970000895CF93DF93EC01AC81BD81E0E9FBE0EA
:102980008A819B8191838083B383A283FA018481AE
:102990009581E8E9FBE0DA0112964D915C91518353
:1029A000408393838283E9018C819D81E4E9FBE08C
:1029B0002A813B813183208393838283FB0182813F
:1029C0009381A481B5818093900F9093910FA093F0
:1029D000920FB093930FDF91CF910895FF920F93D1
:1029E0001F93CF93DF93C091E008C1FF66C0209191
:1029F000DE0830E041E059E061E070E08091E108FC
:102A00000E943013CD7FC093E008F090E1088091E0
:102A1000850B882309F444C085E0F89EF001112459
:102A2000EB58F54F00811181C281D381C00FD11FB6
:102A300060E0C8010E94D211B80184E00E94F41045
:102A4000BE016850710986E00E94F4101AE02497D4
:102A500040E86FE180E80E94B81040E86FE180EA4A
:102A60000E94B8104AE06CE180EA0E94B81048E089
:102A70006FE180E80E94B8108CE10E94AC11082F31
:102A80008A70D1F348E06FE180EA0E94B81001FF3C
:102A90002DC0CE010E94EB1185FF02C01150C1F67E
:102AA000C0E08F2D0E94D8051092E1088C2FDF9195
:102AB000CF911F910F91FF900895C091F908D09187
:102AC000FA08CE01089621F41092E108C0E0EECF9A
:102AD0000E9460128093E1088823C1F39E0141E0C7
:102AE00059E061E070E00E9430138FCFC1E0D9CF90
:102AF0000F931F93CF93DF93EC018C010B5F1F4F5C
:102B000089910E94D805FE0131971082C017D10724
:102B1000B9F7DF91CF911F910F910895CF93DF9374
:102B2000EC0188810E94D805FE01CE010496218126
:102B30002193E817F907D9F71C82DF91CF91089507
:102B4000CF93DF93EC01E881F981008CF18DE02DCA
:102B50001995882339F08C859D850296DF91CF9158
:102B60000C947815DF91CF9108950F931F93CF9315
:102B7000DF931F92CDB7DEB78C01DC01ED91FC91A4
:102B8000008CF18DE02D19958823B1F0D8011C96A9
:102B9000ED91FC918281882379F041E050E0BE0103
:102BA0006F5F7F4F0E944011898190E00F90DF910D
:102BB000CF911F910F9108958FEF9FEFF7CFCF9394
:102BC000DF931F92CDB7DEB7DC01ED91FC91028857
:102BD000F389E02D41E050E0BE016F5F7F4F199512
:102BE0001816190634F4898190E00F90DF91CF9187
:102BF00008958FEF9FEFF9CF6F927F928F929F9200
:102C0000AF92BF92CF92DF92EF92FF920F931F93FA
:102C1000CF93DF938C014B01EA01DC01ED91FC9134
:102C2000008CF18DE02D1995882309F47BC0D80123
:102C30001C96ED91FC918281882309F476C07E0177
:102C40008EE1682EBE016E197F09680D791DD801CD
:102C50001C96ED91FC91A70182810E9440116C01AC
:102C6000F801A484B584D50112967C90872D0E942A
:102C7000F805C816D906E9F5EC18FD08C501029655
:102C80000E948E15F801A485B585EC916E9EF00129
:102C90001124EC50F64F818D84FF09C011968C9160
:102CA0001197982F967019F4886011968C93D8011B
:102CB0001C96ED91FC911D97828181112EC081811E
:102CC00082FF05C011821D961C921E921C97CE0198
:102CD0008E199F09DF91CF911F910F91FF90EF9077
:102CE000DF90CF90BF90AF909F908F907F906F902C
:102CF0000895B5E07B9EF0011124EB58F54F8081DB
:102D000091818C0D9D1D91838083828193818C198B
:102D10009D0993838283CE01DDCFE114F10409F094
:102D200091CFF9CF8FEF9FEFD5CF90E080E0D2CF5A
:102D3000EF92FF920F931F93CF93DF93EC01E88103
:102D4000F981008CF18DE02D19958823E1F00C8537
:102D50001D85780182E0E80EF11C095F1F4FD0E06D
:102D6000C0E0F70181917F010E94F805C80FD91FCB
:102D7000E016F106B1F7CE01DF91CF911F910F91CF
:102D8000FF90EF900895D0E0C0E0F5CFFC014485BE
:102D900055854115510551F0FB01248535852115D7
:102DA000310521F081E04217530709F080E00895D2
:102DB000DC011C96ED91FC91309731F082818111FC
:102DC00005C081818170089580E0089581E00895B3
:102DD000DC01ED91FC91028CF38DE02D199591E0D1
:102DE00089270895DC01ED91FC91048CF58DE02D8F
:102DF00019940895CF93DF93EC018C859D85DC01B8
:102E0000ED91FC910288F389E02D1995288D398D7B
:102E1000285031092330310588F44C8D5D8D6E8D3D
:102E20007F8D141615061606170644F497FD06C086
:102E300028A139A1280F391F39A328A3DF91CF91E9
:102E400008950F931F93CF93DF93EC018EA181110F
:102E500010C08C859D85DC01ED91FC910284F38589
:102E6000E02D199597FF11C0DF91CF911F910F9120
:102E70000895E881F9810084F185E02DCE0119954E
:102E8000892B39F78FEF9FEFEFCF488D598D9A013E
:102E9000285031092330310538F70C8D1D8D2E8DCA
:102EA0003F8D101611061206130634F428A139A11D
:102EB0002F5F3F4F39A328A34A305105A9F62FA110
:102EC00038A52150310938A72FA3232B69F629E013
:102ED00030E0398F288FC8CF0F931F93CF93DF93A4
:102EE000EC010E949B03688779878A879B87CE01C4
:102EF0000E94211797FF15C00E949B030885198522
:102F00002A853B85601B710B820B930B0C811D8105
:102F10002E813F81601771078207930740F38FEF7F
:102F20009FEFDF91CF911F910F9108952F923F92C4
:102F30004F925F926F927F928F929F92AF92BF92C9
:102F4000CF92DF92EF92FF920F931F93CF93DF9375
:102F5000EC01888D998D0897039708F4D0C00E94E2
:102F60009B034B015C0184E0482E512C06E010E0ED
:102F700098E0292E312C29E0622E712C37E0E32EC7
:102F8000F12C45E0C42ED12C888D998D089703979C
:102F900008F4B5C00E949B03681979098A099B0946
:102FA00029A53AA54BA55CA5621773078407950769
:102FB00008F0A5C0E881F9810084F185E02DCE01FB
:102FC0001995892B09F494C0E881F9810284F3856D
:102FD000E02DCE011995B82E888D998D9C01285031
:102FE00031092330310508F440C08530910509F4DA
:102FF00041C08730910509F45AC0049709F074C0A4
:10300000AAA1BBA18C91B81214C0CD0101969BA3BB
:103010008AA311968C91811108C0D98EC88E1C8EFE
:103020001D8E1E8E1F8E19A218A29AE0B9121DC005
:103030004DC0ECA1FDA18081B8120CC0CF0101965A
:103040009DA38CA381818111F0CF81E08EA3198F84
:10305000088FEBCFA45DB240D1F7E55EF240B9F73F
:103060009DE0B912F4CFF98EE88E0E949B034B01CC
:103070005C018ACFEB2D0B2C000CFF0BF097EA3094
:10308000F10528F72C8D3D8D4E8D5F8DAAE0B0E0C7
:103090000E94D14F9F01FF0F440B550B620F731F0E
:1030A000841F951F6C8F7D8F8E8F9F8FBECF8AE080
:1030B000B812DBCF8EA18823A1F0798E688E18A676
:1030C0001FA2888D998D0897039778F2598E488EA4
:1030D00084ED92E09BA38AA385EE92E09DA38CA34E
:1030E000C4CF398E288EEDCF9AE0B912BECFE9CF8A
:1030F00068EE73E080E090E00E94690345CF6C8D3C
:103100007D8D8E8D9F8DDF91CF911F910F91FF90BF
:10311000EF90DF90CF90BF90AF909F908F907F9077
:103120006F905F904F903F902F900895FC01118E0B
:10313000108E138E128E8FEF9FEFDC01848F958F90
:10314000A68FB78F11A210A284ED92E093A382A361
:1031500085EE92E095A384A316A210A617A280E3A1
:1031600095E7A0E0B0E081A792A7A3A7B4A7089530
:10317000CF93DF93EC018C859D85DC01ED91FC9173
:103180000488F589E02D1995CE01DF91CF910C943B
:10319000961860E08AE00E946A0261E084E00C9484
:1031A0006A0261E08AE00E946A0260E084E00C94B6
:1031B0006A02FC0141A752A763A774A70895FC0106
:1031C00061A572A583A594A5089521E0FC018485DD
:1031D0009585892B09F420E0822F0895DC011C9647
:1031E0008D919C91DC01ED91FC910688F789E02D91
:1031F0001994DC011C968D919C91DC01ED91FC9160
:103200000088F189E02D19940F931F93CF93DF93DA
:1032100000D000D0CDB7DEB7DC011C968D919C911B
:10322000DC01ED91FC910684F785E02D22ED32E082
:103230003A832983DB0112960D911D912D913C91CA
:1032400015970B831C832D833E83BE016F5F7F4FD9
:10325000199526960FB6F894DEBF0FBECDBFDF914D
:10326000CF911F910F910895DC011C968D919C9137
:10327000DC01ED91FC910680F781E02D1994DC01D1
:103280001C968D919C91DC01ED91FC910484F58557
:10329000E02D1994CF92DF92EF92FF92CF93DF93BC
:1032A000FC01208D318D285031092330310510F07B
:1032B00020E017C0EC010E9496176F3F7F4F8F4FA1
:1032C0009F4FB1F3C8A0D9A00D2C000CEE08FF0849
:1032D000CE010E94961721E0C616D706E806F90629
:1032E0003CF3822FDF91CF91FF90EF90DF90CF9052
:1032F000089590E080E00895DC01ED91FC9102805A
:10330000F381E02D19948F929F92AF92BF92CF924A
:10331000DF92EF92FF920F931F93CF93DF9300D032
:103320001F92CDB7DEB7FC018581813091F080E03E
:103330000F900F900F900F90DF91CF911F910F91F1
:10334000FF90EF90DF90CF90BF90AF909F908F90C5
:103350000895848181FFEBCF83899489A589B689FB
:10336000892B8A2B8B2B09F45FC07F0140E050E052
:10337000BA01CF010E94600B8823C9F2F701C38C08
:10338000D48C8788908CA18CB28C82E090E0A0E0F5
:10339000B0E0F60180839183A283B3839E012F5F07
:1033A0003F4FB501A401C6010E94200A882309F4F9
:1033B000BECF00E010E09801B501A401C6010E9453
:1033C0007E09882309F4B3CF89809A80AB80BC80C2
:1033D000F6018789803119F188EF9FEFAFEFBFE0E9
:1033E00088169906AA06BB06C8F2F701178A108E3E
:1033F000118E128E138A148A158A168A8481806827
:10340000848361E0C7010E94410E882309F48FCFB5
:1034100040E050E0BA01C7010E94600B89CF88EFFD
:103420009FEFA0E0B0E0DCCF81E082CFCF92DF92CF
:10343000EF92FF921F93CF93DF93EC0180E2689F9E
:10344000F0011124ED5BF34F9385917161F0842FAE
:10345000827449F080E0DF91CF911F91FF90EF904F
:10346000DF90CF900895142F6A8B80910102909184
:103470000202A0910302B09104028E879F87A88B5D
:10348000B98BC488D588F12CE12C7601DD24CC24BD
:10349000CF8AD88EE98EFA8E828D938DB0E0A0E02F
:1034A000AC01BD014C295D296E297F294F8B588FB6
:1034B000698F7A8F83858871B1F4848D958DA68DFF
:1034C000B78D8B8B9C8BAD8BBE8B81E08D831F70FA
:1034D0001C831E821F82188619861A861B861C86EC
:1034E0001D8681E0B8CF803109F0B4CF9E012D5EFA
:1034F0003F4F8B8D9C8D0E94A10A882309F4AACF8F
:1035000084E0E4CFFC0180819181009711F00C945C
:10351000205208950C9420520F931F93CF93DF9362
:10352000DC012091F2093091F3092F5F3F4F211503
:103530008DE7380710F020E030E1522F432FE6EC02
:10354000F9E0EF0180E08430A1F43093F309209397
:10355000F20930E020E02430310599F484E08093D2
:10356000740AF0E0E0E0CF01DF91CF911F910F915D
:1035700008950C811D818F5F2B960417150719F78D
:10358000D4CFC481D581C90101963B96CD2B09F5D5
:103590002093740A8BE0829FF001839FF00D112429
:1035A000EA53F64F5583448377836683109799F4E3
:1035B00084E0DF011D928A95E9F78BE0829FD001BC
:1035C000839FB00D1124AA53B64F80E418968C93B4
:1035D000CACF9C01C0CF8D919C911197918380831C
:1035E00012968D919C9193838283E7CF0F931F93C3
:1035F000CF93DF93EC018B018C859D85892B41F462
:1036000070E060E090E080E00E948C1A9D878C87DB
:10361000EC85FD8580E0309749F0102701271027C1
:10362000158304832E96D287C18781E0DF91CF91E5
:103630001F910F910895CF93DF93DC011C96ED91BC
:10364000FC913097B1F0EC0115821482128611863C
:103650001D861C8689890E94D80588890E94D80504
:103660008A890E94D8052E9686E0FE0111928A95DD
:10367000E9F7DF91CF910895FC011382128288EE61
:1036800093E0A0E0B0E084839583A683B7838CE2C7
:1036900092E091838083158614863E9686E0DF0152
:1036A0001D928A95E9F708950F931F93CF93DF93A7
:1036B000CDB7DEB764970FB6F894DEBF0FBECDBFAF
:1036C0008E010F5F1F4F22E044E00E940F4AC801A5
:1036D0000E94965364960FB6F894DEBF0FBECDBF1E
:1036E000DF91CF911F910F910895CF92DF92EF92CA
:1036F000FF921F93CF93DF93182FC9ECD0E0C12C1A
:10370000D12C7601812F0E942703BC01990F880BD1
:10371000990B0E94634E20E030EC4FE754E40E9486
:10372000605020E030E44CE955E40E94C24E9B0119
:10373000AC0160E070E48CE195E40E94F34F20E07E
:1037400030E048EC52E40E9460509B01AC010E94C2
:10375000C24E9B01AC01C701B6010E94F44F6B0140
:103760007C0163E070E080E090E00E9469032197B3
:1037700049F620E030E048E453E4C701B6010E9476
:103780006050DF91CF911F91FF90EF90DF90CF902D
:103790000C940C51FB0101900020E9F73197AF0127
:1037A000461B570BDC01ED91FC910280F381E02D6B
:1037B000199460E073E00C94CA1BEF92FF920F9390
:1037C0001F93CF93DF93EC018B017A01888D998D44
:1037D000029744F48C859D850E94D91B82E090E07D
:1037E000998F888F8C859D85DC01ED91FC910280FD
:1037F000F381E02DA701B801DF91CF911F910F91C7
:10380000FF90EF9019941F93CF93DF93EC01162F45
:10381000888D998D029744F48C859D850E94D91BD3
:1038200082E090E0998F888F8C859D85DC01ED91F9
:10383000FC910190F081E02D612FDF91CF911F91DC
:1038400019948F929F92AF92BF92EF92FF920F9333
:103850001F93CF93DF93CDB7DEB7A1970FB6F89440
:10386000DEBF0FBECDBF7C01FA01CB0119A2223011
:1038700008F42AE08E010F5D1F4F822E912CB12C8F
:10388000A12CBF01A50194010E94904FF901CA012A
:103890006A300CF5605DD8016E938D01232B242BCB
:1038A000252B79F790E080E0109721F0BD01C7014A
:1038B0000E94CA1BA1960FB6F894DEBF0FBECDBF03
:1038C000DF91CF911F910F91FF90EF90BF90AF903C
:1038D0009F908F900895695CDECFCF92DF92EF9238
:1038E000FF92CF93DF936B017C01F7FE21C06DE265
:1038F00085E49EE00E94A703EC0144275527BA0106
:103900004C195D096E097F092AE085E49EE00E945A
:10391000211CC80FD91F85E49EE00E94D91B8C0F83
:103920009D1FDF91CF91FF90EF90DF90CF90089592
:103930002AE0BC01A60185E49EE00E94211CEC0166
:10394000EACFCF92DF92EF92FF920F931F93CF9324
:10395000DF938C016B01770FEE08FF08F7FE1FC0A5
:103960006DE20E94A703EC0144275527BA014C19C8
:103970005D096E097F092AE0C8010E94211CC80F59
:10398000D91FC8010E94D91B8C0F9D1FDF91CF91B9
:103990001F910F91FF90EF90DF90CF9008952AE054
:1039A000B701A6010E94211CEC01EBCF0F931F93DE
:1039B00065E070E085E49EE00E94A11C66E070E096
:1039C00085E49EE00E94A11C09E31CE023E045E0A1
:1039D0006AE077ED83EE9EE30E940F4A0FE21CE05F
:1039E00022E046E060E070E086E693E40E940F4A41
:1039F000A1E1BCE0E9E3FCE0CF0189539C400597DD
:103A00001CF481918D93F8CF8AE38093160CE6E144
:103A1000FCE0AFE2BCE03196CD018F529C400697AE
:103A20001CF48D918083F7CF86E292E080931D0C89
:103A300081E19CE01F910F9108954F925F926F92E8
:103A40007F928F929F92AF92BF92CF92DF92EF922E
:103A5000FF926B017C01AC019B010E944C5163E021
:103A600073E081111AC046015701E894B7F82FEFAF
:103A70003FEF4FE75FE7C501B4010E944C51811150
:103A800024C02FEF3FEF4FE75FE7C501B4010E946D
:103A90005C4E1816D4F467E073E085E49EE00E9463
:103AA000CA1B7C0185E49EE00E94D91B8E0D9F1DE0
:103AB000FF90EF90DF90CF90BF90AF909F908F904E
:103AC0007F906F905F904F9008952FEF3FEF4FE7FB
:103AD0005FE4C701B6010E94015118161CF46BE0A7
:103AE00073E0DBCF2FEF3FEF4FE75FECC701B6018D
:103AF0000E945C4E87FDF3CF20E030E0A901C701B2
:103B0000B6010E945C4EB12CA12C87FF0AC06DE269
:103B100085E49EE00E94A7035C01F7FAF094F7F8B1
:103B2000F0942AE037ED43EA5BE3C701B6010E9457
:103B3000F44F2B013C010E94D2506B017C010E948A
:103B4000614E9B01AC01C301B2010E94F34F2B01F6
:103B50003C012AE0B701A60185E49EE00E94211CF9
:103B60007C01EA0CFB1C6EE285E49EE00E94A70348
:103B7000E80EF91E20E030E040E251E4C301B2015A
:103B80000E94C24E2B013C010E94D2504B01B12C2D
:103B9000A12C2AE0B501A40185E49EE00E94211C2D
:103BA000E80EF91EC501B4010E94614E9B01AC01F3
:103BB000C301B2010E94F34F20E030E040E251E443
:103BC0000E94C24E0E94D250AB0170E060E02AE039
:103BD00085E49EE00E94211CE80EF91E63CF8F92BF
:103BE0009F92AF92BF92CF92DF92EF92FF920F938C
:103BF0001F93CF93DF937C018B016C0182E0C80E91
:103C0000D11C4701E5E08E0E911CD0E0C0E0F6012A
:103C100041916F0150E070E060E02AE0C8010E942D
:103C2000211C5C016EE2C8010E94A7038A0D9B1D46
:103C3000C80FD91FC814D90451F7F701458150E0C6
:103C400070E060E02AE0C8010E94211C8C0F9D1FDB
:103C5000DF91CF911F910F91FF90EF90DF90CF9068
:103C6000BF90AF909F908F900895CF93DF9365E4BE
:103C70007EE00E94EF1DEC0185E49EE00E94D91BCE
:103C80008C0F9D1FDF91CF9108950F931F93CF93BA
:103C9000DF938C01D0E0C0E06115710519F00E943E
:103CA000CA1BEC01C8010E94D91B8C0F9D1FDF911C
:103CB000CF911F910F9108956115710511F00C942A
:103CC000CA1B90E080E00895DC0182ED92E08D93C4
:103CD0009D9384E0FB0101900D928A95E1F7089590
:103CE000EF92FF920F931F93CF93DF93EC017B0131
:103CF0008A011B821A8288EE93E0A0E0B0E08C83F8
:103D00009D83AE83BF838EE992E0998388838DE1A2
:103D100090E00E9484519A8F898F009779F02DE16D
:103D2000F701DC0101900D922A95E1F74CE050E09B
:103D3000B801CE010C960E94DD53188EDF91CF9111
:103D40001F910F91FF90EF900895EF92FF920F93C4
:103D50001F93CF93DF93FC011092C509CDE6D9E004
:103D6000DE0130E020E02830310569F490E0983041
:103D700009F042C01092F8081092F7081092C50995
:103D80002DE639E044C0CD018D5699400D911C912E
:103D900011970115110561F112964D915C911397E0
:103DA0004115510529F1E080F1800E151F0501F53F
:103DB0000281138140175107D9F42093C509DC0112
:103DC000AF58B64F86E0FB0101900D928A95E1F75E
:103DD0008BE0829FF001839FF00D1124E359F64F91
:103DE0001286DF91CF911F910F91FF90EF90089570
:103DF0002F5F3F4F1B96B7CF9E0148815981452BBE
:103E0000B1F44A815B81452B91F49093C50984E01C
:103E1000D90101900D928A95E1F7D901149686E0B7
:103E2000FB0101900D928A95E1F7F901D9CF9F5FCF
:103E30002B969DCFEF92FF920F931F93CF93DF931B
:103E400000D000D0CDB7DEB740911F0950912009B6
:103E50004F3F540731F48091210990912209019636
:103E600019F18091900B9091910B6091940B70914E
:103E7000950B9B0120953095282B392B4217530722
:103E8000A9F52091960B3091970B20953095E091F4
:103E9000920BF091930B2E2B3F2BE0912109F09187
:103EA0002209E217F30711F586E0E0E5F2E0A1E070
:103EB000B9E001900D928A95E1F786E0E6E8FBE033
:103EC000A7E0B9E001900D928A95E1F788E090E0D3
:103ED00090930E0980930D098091F9089091FA084A
:103EE0000E969093FA088093F908A5C08427952729
:103EF00086239723892B99F4209121093091220957
:103F00008091920B9091930B822793276091960B4F
:103F10007091970B86239723892B09F499C0809180
:103F2000980B9091990B9093FE088093FD088091D7
:103F30009A0B90919B0B909300098093FF08E0905F
:103F4000FD08F090FE080091FF0810910009EDE6D1
:103F5000F9E080E0883009F084C08093C50946E02C
:103F600050E06FEF70E081E099E00E94C65386E078
:103F7000E1E2F9E0DF01282F1D922A95E9F7E6E852
:103F8000FBE0A7E0B9E0982F01900D929A95E1F738
:103F9000E6E8FBE0A7E1B9E0982F01900D929A9531
:103FA000E1F7F0922809E092270910932A0900937B
:103FB00029092091900B3091910B30931E09209389
:103FC0001D092091920B3091930B3093200920937F
:103FD0001F0920E031E03093160920931509309332
:103FE000100920930F0928E030E030931209209344
:103FF00011098093130994E09093140928E036E0A6
:1040000030930E0920930D0927E339E03093FC0823
:104010002093FB082AE230E03093FA082093F90855
:10402000BE016F5F7F4FDB011D928A95E9F78DEF2F
:1040300098E00E94A51E26960FB6F894DEBF0FBE2C
:10404000CDBFDF91CF911F910F91FF90EF90089519
:104050005093FE084093FD08309300092093FF0819
:104060006ECF20813181E216F306E1F422813381A3
:1040700002171307B9F49481911103C09581992314
:1040800029F08093C509349686E011CF968191116D
:10409000F8CF97819111F5CF90859111F2CF91854D
:1040A0009111EFCF8F5F3B9655CFCF93DF93EC010C
:1040B0000E941A1F8091F9089091FA088A9759F482
:1040C0001092E1088091E0088D7F8093E008DF91F5
:1040D000CF910C94EE140E94EE141D821C82DF918D
:1040E000CF9108959C01AB017093F6086093F50899
:1040F0001616170654F48091F3089091F40882176D
:10410000930719F0B9010C94BD530895EF92FF92F3
:104110000F931F93CF93DF93E091EA08F091EB08A0
:10412000C185D285209709F456C0E090F008E1FEE1
:104130001FC08A8181111CC080912309909124099C
:104140009783868380911B0990911C0991838083BA
:1041500080911D0990911E09938382838091270984
:1041600090912809982789279827089709F51A8296
:10417000E3FE31C08D81882371F18C818093E10849
:104180008091E00882608093E0088AE28093DE08F4
:10419000688179816B5271098091FB089091FC08CC
:1041A000DF91CF911F910F91FF90EF900C947220AF
:1041B0000E946012F82E8A838823D1F20E94F805AB
:1041C0008C012AE230E04091DF0870E060E08F2D42
:1041D0000E94FF12CDCFDF91CF911F910F91FF90E1
:1041E000EF900895AF92BF92CF92DF92EF92FF923D
:1041F0000F931F93CF93DF93E090F108F090F208B4
:10420000F701C48DD58DD090F008209761F5D6FCCC
:1042100003C0F12CE12CC1C0E6E9F8E090E080E0B9
:10422000218121117CC022E1289FE001299FD00D2E
:104230001124CA56D74FFE0111922A95E9F7C701FA
:10424000845F9940959587954FEE5EEE849F90012F
:10425000859F300D949F300D1124288381E0898340
:10426000F701D58FC48FD1FE32C00091F9081091AB
:10427000FA080115110559F189818823A9F181FDF9
:1042800026C05E01F2E0AF0EB11CC12CF501819198
:104290005F0181114BC0C8010E946012F501319786
:1042A0008083882309F442C02091FB083091FC08E8
:1042B000215039404091DF0870E060E00E94FF1219
:1042C000F4E0CF1204C0F701818D8061818F898174
:1042D00083FF0AC0877F89838D2D82608093F008D9
:1042E000F701818D8F7E818F8091F00884FD04C05D
:1042F00087FD02C085FF26C0CE0107960E94781573
:104300008A818823E9F0F7018481958198878F83DA
:10431000898184608983F701158E148E7ACF019686
:1043200072968430910509F07BCF73CFC394F5E08A
:10433000CF12ACCF8091E0088E7F8093E008C3CF8E
:104340001982E9CF80FF3FC0CE0107960E948E15EB
:104350008F818823D1F19885911145C0EC84FD842B
:10436000E114F10409F455CF95E0899FF00111247F
:10437000EB58F54FF382E2820091FB081091FC08A4
:10438000015019400093DE081127C80108968E0DD0
:104390009F1D009779F51092E108B7018091FB0805
:1043A0009091FC080E947220F092FA08E092F908BD
:1043B000DF91CF911F910F91FF90EF90DF90CF9001
:1043C000BF90AF9008958C7019F6898181FF21CF3D
:1043D0008F81811124C01982F701158E148E80E11E
:1043E0008093F00816CF0E94F8057C01892B09F410
:1043F00010CFC2CF0E9460128093E108882369F237
:10440000B8016F5F7F4F870130E020E04F810E944D
:10441000FF128091E00882608093E008BECFF70130
:10442000818D8061818FF5CEAF92BF92CF92DF9266
:10443000EF92FF921F93CF93DF93843009F458C11A
:10444000C091F108D091F20827E339E03093FC08DD
:104450002093FB083093F4082093F3088330C9F4C9
:10446000898D8F70833009F044C088899989892BA0
:1044700009F03FC088E08093F0080E94F22080910C
:10448000F00885FF15C61092F6081092F508198EEF
:1044900051C0823009F005C18091EF088F5F809391
:1044A000EF08811113C08091EE088F5F8093EE08B2
:1044B00081110CC08091ED088F5F8093ED08811110
:1044C00005C08091EC088F5F8093EC081092FA0889
:1044D0001092F9081092F6081092F508898D982F1D
:1044E0009D7F953059F48A8D8F5F8A8F883709F4C4
:1044F000198E1092FA081092F90831C28823C9F374
:1045000028893989232B09F4C7C09A8D2FEF290FE9
:104510002A8F9111EECF9B8D983031F02FEF280F1D
:10452000223050F4953041F4198E80E88093F008E1
:104530000E94F22084E184C0392F953008F034E0E5
:1045400023E001C0220F3A95EAF72A8F9F5F9B8FE5
:104550008F70833009F47DC008F06AC0813009F49F
:1045600006C4823031F610923009809130098260A1
:104570008093300982E08093370994E09093380962
:104580008093390910923A098CE290E09093FA08EE
:104590008093F90880E680932F09888580932B0902
:1045A000898580932C098A8580932D098B8580933A
:1045B0002E098C85809327098D85809328098E8507
:1045C000809329098F8580932A0986E080931809B2
:1045D0008C819D8190932409809323098E819F81F2
:1045E00090932609809325098091900B9091910BCF
:1045F00090931C0980931B098091920B9091930BCF
:1046000090931E0980931D098881998190932009B8
:1046100080931F098A819B819093220980932109AD
:10462000898D84FFCBC51092320910923109D5C211
:10463000863029F0883019F0843009F05ACF81E1B2
:104640008093300988E290E09093FA088093F9080B
:1046500021C084E08093F0080E94F2208091F3084A
:104660009091F4089093FC088093FB088091F508E2
:104670009091F608892B09F44CC58889998900978F
:1046800009F447C588969093FA088093F90888E161
:104690008093300980E57FCF8F70833009F029CF78
:1046A000E9CE853009F0A9C0E091EA08F091EB0865
:1046B00084819581892B09F41CCF1092F208109205
:1046C000F1088BE299E09093FC088093FB089093AB
:1046D000F4088093F3081092F6081092F5081092EF
:1046E000FA081092F90888E08093F0080E9486206A
:1046F0008091F5089091F608009709F4FACE9C0194
:10470000245E3F4F3093FA082093F9083093110943
:1047100020931209E091EA08F091EB08208520939C
:10472000170921E1209318090896982789279827C7
:10473000909328098093270910922A091092290939
:1047400084819581909324098093230986819781A0
:1047500090932609809325098091900B9091910B5D
:1047600090931C0980931B098091920B9091930B5D
:1047700090931E0980931D09808191819093200957
:1047800080931F098281938190932209809321094C
:1047900087E399E09093FC088093FB0881E10E94F5
:1047A0001C1480959095009709F45BC190932A0999
:1047B0008093290985E480930F09109210091092C3
:1047C0001609109215098091E2089091E30801966C
:1047D0009093E3088093E20890931309809314095F
:1047E00010921A09109219090E94A81480959095A8
:1047F00090931A0980931909B2C080910F098534EA
:1048000009F077CEC0901109D12CDC2CCC248091FA
:104810001209C80ED11C8091F9089091FA088C15E4
:104820009D0508F466CED092FA08C092F9088091EE
:1048300015098F7309F05DCE10911609111159CE2B
:10484000A090900BB090910BA114B10439F4809119
:10485000920B9091930B892B09F441C020911F0971
:104860003091200980911809813149F52F3F320795
:1048700039F48091210990912209019609F47DC0B3
:104880008091940B9091950B809590958A299B2906
:1048900082179307A1F48091960B9091970B8095C6
:1048A00090954091920B5091930B842B952B4091B6
:1048B0002109509122094817590709F45EC0A21630
:1048C000B30609F016CE209121093091220980917A
:1048D000920B9091930B2817390709F00ACE0E948A
:1048E000A814019609F005CE80911809863009F4C4
:1048F000BBC0813109F441C0813009F0FACD80910B
:104900002309883009F0F5CD1092230980912509FB
:1049100090912609873F4FEF940768F1099690938D
:1049200026098093250980911B0990911C09909379
:10493000200980931F0980911D0990911E09909371
:10494000220980932109B0921C09A0921B09809131
:10495000920B9091930B90931E0980931D091092D6
:10496000F008DF91CF911F91FF90EF90DF90CF90F3
:10497000BF90AF9008950896D2CF8CE1C81AD108A5
:10498000D092FA08C092F9088BE299E09093FC0863
:104990008093FB088091290990912A09892BE1F4E1
:1049A00040912509509126096091230970912409AD
:1049B000A0911B09B0911C09C0911D09D0911E093D
:1049C000E6ECF9E022EF39E02E173F0761F430936F
:1049D000EB082093EA088DCD81E10E941C1401961A
:1049E00009F087CDDDCF848195810097C1F18417CF
:1049F0009507A9F586819781009719F08617970783
:104A000071F5808191810097D1F4E280F380EF28E5
:104A1000F1F4F093EB08E093EA081092F208109298
:104A2000F10882E08093F0088BE299E09093F4081B
:104A30008093F3081092F6081092F50857CE8F3F36
:104A4000980729F4E280F380EF20E09411F38A17AD
:104A50009B0729F482819381C817D907D1F23B962D
:104A6000B3CF8FEF9FEFA2CE86E00E941C14019679
:104A700009F03FCD40912509509126096091230905
:104A80007091240980911B0990911C09E0911D09E6
:104A9000F0911E09C4EFD9E0298D2223A9F0AC8141
:104AA000BD814A175B0781F4AE81BF816A177B071E
:104AB00059F4A881B9818A179B0731F4AA81BB8177
:104AC000EA17FB0709F45BC16E962AE0CE34D207E1
:104AD00019F310F3809130098F73823061F4509391
:104AE000E9084093E808ECE6FAE080E0843009F059
:104AF00091C08093740A8091300982FDFACC84E1E0
:104B00008093300988E290E09093FA088093F90846
:104B100080E580932F0930912A0980912E09809396
:104B20002A092091290980912D0980932909209330
:104B30002D099091280980912C0980932809909340
:104B40002C09809127098093740A40912B09409386
:104B5000270980932B093F5F30932E0931110DC037
:104B60002F5F20932D09211108C09F5F90932C097E
:104B7000911103C08F5F80932B098091230990913D
:104B800024099093E9088093E80820912509309141
:104B900026093093240920932309909326098093B2
:104BA000250980911B0990911C09909320098093FD
:104BB0001F0980911D0990911E09909322098093ED
:104BC0002109B0921C09A0921B098091920B90912F
:104BD000930B90931E0980931D0980E4809317091D
:104BE0008091F9089091FA08909311098093120925
:104BF0001092360910923509109234091092330937
:104C000086E00E941C1480959095909334098093BF
:104C10003309D0CD219131918F5F4217530709F0AD
:104C200065CF1092740AE4EFF9E090E080E0D0E004
:104C3000C0E08430910531F484E08093740A2097B9
:104C400081F457CC3E2F2F2FA18DA11163C08093EB
:104C5000740A2EE1289FE001299FD00D1124CC5029
:104C6000D64FD093F208C093F10883E08A8F888FE3
:104C70001E8A84E08F8B1B8E5D834C837F836E83C3
:104C800080911B0990911C099983888380911D094B
:104C900090911E099B838A8381E0898F8091EC0823
:104CA0008C878091ED088D878091EE088E878091AA
:104CB000EF088F8781E090E0998B888B80912A099B
:104CC0008B87809129098A8780912809898780911B
:104CD0002709888781E090E00E947C3A80912F0923
:104CE000982F907F913508F442C082958F7085503F
:104CF000990B880F991F880F991FE12FF0E0E81793
:104D0000F9072CF4EF5FF64F36A9311112C010935A
:104D1000740A2DC0A73031F4209731F0B28DAA8DDE
:104D2000AB1710F03C2F2D2F01967E96C32FD22F5C
:104D300080CF313011F41F5FE0CF27A93230D9F492
:104D40002430C9F41093740A80AD91AD8927982757
:104D500089279093E9088093E808813042E094071E
:104D600010F080E092E09B8B8A8B9D8B8C8B80E196
:104D700080933009FACB222351F2120FBECFD09389
:104D8000F208C093F1081092F0089091300992FF58
:104D900007C0198E80E28093F0080E94F220A9CB10
:104DA00080912F0982958F70880F880F8093740AE5
:104DB000C81AD108760184E1E81AF108F092FA08DD
:104DC000E092F9082F70223021F4892F8F738231FD
:104DD000D1F0E114F10419F4892F8370A1F0398521
:104DE0002A858B855091270948855413C2C140916B
:104DF00028094313BEC1309129093213BAC1209149
:104E00002A092813B6C194FF49C0688979896115B8
:104E1000710509F443C0CE010C960E94493A3091C5
:104E20002B098091E408381339C020912C09809116
:104E3000E508281333C090912D098091E608981356
:104E40002DC080912E094091E708841327C03C872C
:104E50002D879E878F87988D8B8D811118C08E89A5
:104E60002A8D921B282F269526952695921B890F11
:104E70008E8B97FD91952F89322F36953695231B72
:104E8000920F9F8B869586958695890F888F81E0F6
:104E90008093F008888D8A8F198A188A298DE22FCD
:104EA000EF70E150E83008F024CBF0E08827E45AB6
:104EB000F84D8F4F0C94665164277D27E7279C2877
:104EC000C528D628B92895288091F00880FF11CBF5
:104ED00083E0898F80E48093F008198A188AE114AE
:104EE000F10431F082E48093F008C7010E947C3A1B
:104EF0001092F6081092F508C0CA8091F00880FF61
:104F00005FC0809130098F73823109F059C0809160
:104F10002F09982F907F913598F182958F70855049
:104F2000990B880F991F880F991FE12FF0E0E81760
:104F3000F9072CF4EF5FF64F36A9311103C0109337
:104F4000740A1EC0313011F41F5FEFCF27A9323031
:104F500099F5243089F51093740A80AD91AD8927B5
:104F6000982789279093E9088093E808813012E018
:104F7000910710F080E092E09B8B8A8B9D8B8C8B4D
:104F800083E0898F80912709888780912809898704
:104F9000809129098A8780912A098B8781E090E096
:104FA0000E947C3A82E48093F008198A188A109251
:104FB000FA081092F9089CCF222309F2120FB5CFFC
:104FC00080E28093F0080E94F220198E94CD8091A7
:104FD000300980FF20C024FD1EC088899989892B53
:104FE00009F087CAC60143970E947C3A8091F00875
:104FF000982F90619093F008EF2819F082618093C8
:10500000F0080E94F22081E090E0998B888B88E084
:10501000898F1B8E14CB85FF14C080913509909128
:105020003609982789279827AC01495C564F509339
:10503000FC084093FB08E81AF90AF092FA08E0929B
:10504000F9084091F9085091FA089091F00841153B
:10505000510541F024FD06C092609093F008CA010A
:105060000E947C3A80913109282F30E0322F22278C
:1050700080913209820F932F911D9093E9088093BC
:10508000E8082C893D892817390710F0892B21F46D
:105090003093E9082093E8088091E8089091E908A6
:1050A0009B8B8A8B8091F008837009F422CA20CFF1
:1050B00084FF0AC01092F6081092F50881E090E093
:1050C000998B888B84E0A4CF2091F5083091F60865
:1050D00021153105B9F080FF02C0198A188A888924
:1050E0009989009789F48A899B898217930720F40C
:1050F0009093F6088093F5088091F5089091F60852
:10510000998B888B1B8EAACA9093F6088093F5081A
:10511000F9CF8091F00881FFECC988E290E090938C
:10512000FA088093F90880E1B3CA8091F00880FF03
:10513000E0C9198E80E12FCEE114F10419F0C70106
:105140000E947C3A8091F00881709091300990FF24
:1051500015C0882381F087E0898F1A8E198A188AF2
:1051600081E090E00E947C3A80E18093F0080E9408
:10517000F22080E165CA86E0898FF2CF882399F01A
:1051800085E0898F198A188AB4C9E114F10419F0ED
:10519000C7010E947C3A8091300980FF04C087E0FB
:1051A000898F1A8EDDCFEF2821F7A3C98091F008EF
:1051B00080FF9FC987E0898F1A8E9BC982E0809308
:1051C00031091092320909CDCF93DF93EC012C8580
:1051D0003D852115310529F490E080E0DF91CF91E4
:1051E0000895EA89EE23C1F381E08B8B85E0E89F87
:1051F000F0011124EB58F54F8E859F850796938318
:1052000082833093EB082093EA0885E00E94142201
:105210008091F9089091FA08892BF1F2CE010E964F
:105220000E94552081E090E0D9CF8F929F92AF925B
:10523000BF92CF92DF92EF92FF92CF93DF93809154
:10524000850B882309F41FC1D091DF08D11151C00B
:1052500089E30E94AC11882309F449C060917E0B58
:1052600070917F0B6B0126E0C20ED11CC11438E097
:10527000D30628F06B014AEFC41A47E0D40A80E055
:105280000E94F41060E08AE30E948A11E82E60E038
:105290008AE30E948A11F82EF0927F0BE0927E0B37
:1052A00060E08AE30E948A11B82E60E08AE30E94DF
:1052B0008A11C82F60E08AE30E948A11A82E40E478
:1052C0006EE180E80E94B810A7FEE8C0E11458E043
:1052D000F50608F0E3C0D092810BC092800B9C2FA2
:1052E0008B2D04979093830B8093820BDFEFD093E9
:1052F000DF08F090DF08FF2009F472C081E080939E
:10530000E0088F2D0E94F805EC019093FA08809335
:10531000F908892B09F4EFC042E650E061E079E03A
:105320008F2D0E944011C0900D09D0900E0988E089
:10533000C816D10409F0CDC0F092E1082E97D093A1
:10534000FA08C093F90820911B0930911C09E091DB
:10535000900BF091910BC9018E279F274091940BE0
:105360005091950B84239523892B49F540911D0974
:1053700050911E096091920B7091930BCA01862780
:105380009727A091960BB091970B8A239B23892B8B
:10539000B1F480911F0990912009E817F90709F0ED
:1053A00080C080912109909122096817790709F03E
:1053B00078C067E079E08BE199E00E94A51E81E06A
:1053C0000E9414228091F9089091FA08892B21F00B
:1053D0000E941A1F0E94EE148091E00880FD8BC08D
:1053E0000E949B036B017C0180918C0B90918D0B33
:1053F000A0918E0BB0918F0B46015701881A990A24
:10540000AA0ABB0AC4EFD9E0D093F208C093F1080E
:10541000B7FC08C182E00E9414228091F9089091A3
:10542000FA08892B21F00E941A1F0E94EE146E9632
:105430003AE0CC36D30741F7B7FC25C04AEFC40E9B
:10544000D11CE11CF11CC0928C0BD0928D0BE09210
:105450008E0BF0928F0BC6ECD9E0D093EB08C09383
:10546000EA0885E00E9414228091F9089091FA08D8
:10547000892B21F089859A850E9455202B9659E029
:10548000C23FD50751F7DF91CF91FF90EF90DF90AA
:10549000CF90BF90AF909F908F9008950E946E1113
:1054A00026CFEDE6F9E080E0883019F48093C50955
:1054B00086CF608171812617370741F4628173813D
:1054C0004617570719F48093C50973CF8F5F3B9632
:1054D000EBCF28E0C21626E0D20669F41092FA0853
:1054E0001092F908AA9760F48091F9089091FA084F
:1054F000892B09F06FCF0E946E111092DF0870CFD8
:105500008091150990911609811531E0930701F1F9
:105510008115924049F720912709309128098091FF
:10552000900B9091910B28173907F1F620912909DA
:1055300030912A098091920B9091930B281739078B
:1055400099F667E179E08DE199E00E94A51ECCCF44
:10555000E0902709F09028098091900B9091910B91
:10556000E816F90609F6C0912909D0912A09809117
:10557000920B9091930BC817D90709F0B5CF67E14B
:1055800079E08DE199E00E94A51E80E092E0909381
:1055900016098093150986E0E7E1F9E0A1E2B9E098
:1055A00001900D928A95E1F786E0E6E8FBE0A7E13D
:1055B000B9E001900D928A95E1F786E0E6E8FBE01C
:1055C000A7E0B9E001900D928A95E1F786E0E1E26B
:1055D000F9E0A1E0B9E001900D928A95E1F78091A0
:1055E0001D0990911E0990932809809327098091A5
:1055F0001F099091200990932A0980932909F0921C
:105600001E09E0921D09D0932009C0931F09D09272
:105610000E09C0920D098AE290E09093FA088093F7
:10562000F90862CFEC8DFD8D309709F400CF8685A7
:105630009785A089B189A7019601281B390B4A0BD0
:105640005B0BDA01C901B7FDF2CE83E00E941422A0
:105650000E949B03E091F108F091F208048CF58D13
:10566000E02D665F7F4F8F4F9F4F66877787808BD8
:10567000918BD3CECF93DF93EC010E9415298989BA
:105680000E94D805198ADF91CF9108950F931F9337
:10569000CF93DF931F92CDB7DEB78C010E941529FF
:1056A000F8018189882389F041E050E0BE016F5FF5
:1056B0007F4F0E944011019741F4898190E00F9043
:1056C000DF91CF911F910F9108958FEF9FEFF7CF4B
:1056D000EF92FF920F931F93CF93DF937C018B0187
:1056E000EA010E941529F7018189882369F1AE0139
:1056F000B8010E9440118C01F701C1898C2F0E94D2
:10570000F8058017910769F48C2F0E94D805F701DE
:10571000118AC801DF91CF911F910F91FF90EF90F7
:10572000089585E0C89FF0011124EB58F54F808162
:105730009181800F911F9183808382819381801B4F
:10574000910B93838283E5CF80E090E0E3CFCF930A
:10575000DF93EC010E9415298989DF91CF910C9488
:10576000F805CF93DF93EC010E94152989898111F7
:105770000E94D8058889898B188ADF91CF910C9473
:10578000F805CF92DF92EF92FF920F931F93CF9382
:10579000DF9300D01F92CDB7DEB78C017B016A0189
:1057A0000E941529D70112968C91129781110EC073
:1057B00013968C911397811109C014968C911497AC
:1057C000811104C015968C918823E9F0C114D1048D
:1057D000D1F0D8011C96ED91FC91D70112962D9134
:1057E0003C9113973A83298314968D919C919C83C5
:1057F0008B837C2D6D2D309779F177836683318390
:10580000208393838283F80184859585892BB1F168
:105810008289811133C08EE096E00E946012D80127
:1058200052968C9352972BE230E01F963C932E9326
:105830001E9721E090E0811101C020E0822F0F909F
:105840000F900F900F90DF91CF911F910F91FF90CC
:10585000EF90DF90CF900895CE0101960E948C1AB0
:10586000F80195878487009749F09801225F3F4FA0
:10587000DC011A963C932E931997C5CF80E090E0F7
:10588000DECF4F925F926F927F928F929F92AF92F4
:10589000BF92CF92DF92EF92FF920F931F93CF931D
:1058A000DF93CDB7DEB763970FB6F894DEBF0FBEB8
:1058B000CDBF6C017B013A01FB01DB018D91882397
:1058C00009F444C08E32D1F380538A30B8F3F60124
:1058D00042815381648175818091A20F9091A30FC1
:1058E000A091A40FB091A50F481759076A077B072D
:1058F00009F455C28601085F1F4F0E949B036F7019
:1059000077277C5FC8010E94F61A813009F04CC2EB
:1059100082ED92E09A838983F60182819381A4814A
:10592000B5818B839C83AD83BE8345E350E0BE018C
:105930006F5F7F4FC8010E94C12B892B09F057C0B0
:10594000F12CE12CC8010E941B1B39C030E020E083
:1059500090E080E05AE04191442309F184309105C0
:105960000CF0B5CF4E3271F42F3F310511F00CF031
:10597000AECFD301A80FB91F12962C93019630E039
:1059800020E0E9CF529FB001539F700D1124242FC6
:10599000440F330B20533109260F371FDCCF2F3F25
:1059A000310511F00CF093CF843091050CF08FCFBE
:1059B000680E791EF3012283EE24E394F12CC701D3
:1059C00063960FB6F894DEBF0FBECDBFDF91CF91C7
:1059D0001F910F91FF90EF90DF90CF90BF90AF900D
:1059E0009F908F907F906F905F904F9008950E944E
:1059F0009B03F6017783668342E050E0B6016A5F5D
:105A00007F4FC8010E94C61381E090E09A8389838A
:105A100042E050E0BE016F5F7F4FC8010E94C61395
:105A200080E091E09A83898342E050E0BE016F5F9D
:105A30007F4FC8010E94C6131A82198242E050E0CB
:105A4000BE016F5F7F4FC8010E94C61342E050E065
:105A5000BE016F5F7F4FC8010E94C61342E050E055
:105A6000BE016F5F7F4FC8010E94C6135701F70147
:105A70008081882301F17501F70181912F0188232D
:105A800011F08E32B1F447018A189B0818141904DA
:105A900074F48D8641E050E0BE01635F7F4FC80122
:105AA0000E94C613A401B501C8010E94C613520189
:105AB000DECF7201E1CF1D8641E050E0BE01635FA1
:105AC0007F4FC8010E94C613E12CFF24F394FA8291
:105AD000E98242E050E0BE016F5F7F4FC8010E9443
