:100000000C9437020C9468020C9468020C946802F9
:100010000C9468020C9468020C9468020C946802B8
:100020000C9468020C9468020C9468020C946802A8
:100030000C9468020C9468020C9468020C94680298
:100040000C9468020C9468020C9468020C94680288
:100050000C9468020C9468020C9468020C94783F2B
:100060000C9468020C94EC3F0C94C23F0C94680210
:100070000C9468020C9468020C9468020C94680258
:100080000C9468020C9468020C9468020C94680248
:100090000C9468020C9468020C9468020C94680238
:1000A0000C9468020C9468020C9468020C94680228
:1000B0000C9468020C9468020C9468020C94680218
:1000C0000C9468020C9468020C9468020C94680208
:1000D0000C9468020C9468020C9468020C946802F8
:1000E0000C9468020C9494130C94851A0C94902729
:1000F0000C94D0020C94F3020C9487180C94CF0348
:100100000C947F030C9451180C94B40E0C940F03B0
:100110000C946D400C94DF240C94F1270C94BD2CAE
:100120000C94F32B0C9401030C9451130C94ED32AA
:100130000C948B160C940B030C948E2C0C948C2B1F
:100140000C947E180C94E6240C94DF020C94EF02BD
:100150000C94BA160C9469100C94BE020C94912D58
:100160000C94AC030C9477130C944E150C940F253F
:100170000C949E360C94AC320C949D2E0C94DD03A2
:100180000C94CD180C94490E0C940B280C94EB0D88
:100190000C9493160C94C2130C944D050C94E31814
:1001A0000C9471160C9478180C9481160C94FD0222
:1001B0000C94B2270C949D180C945F160C942E2569
:1001C0000C94FB270C9458100C94BB030C94312412
:1001D0000C9405030C94B72D0C94D8180C94121998
:1001E0000C942D050C9478150C94B9020C94AC1356
:1001F0000C94E5020C94E10D0C94DA2C0C945D0542
:100200000C9484270C94E9020C9420250C94AA1ACF
:100210000C9442130C9462040C9431160C94DC027E
:100220000C9403250C9415040C94D4020C94A72C64
:100230000C9439150C9492180C94932C0C94F7028E
:100240000C9472180C94C4130C9495150C94212BD7
:100250000C94C7230C94AE230C94D80200407A105F
:10026000F35A00A0724E18090010A5D4E80000E867
:100270007648170000E40B54020000CA9A3B0000C5
:1002800000E1F505000080969800000040420F0054
:100290000000A08601000000102700000000E80315
:1002A000000000006400000000000A0000000000E0
:1002B0000100000000002C76D888DC674F0823DF9F
:1002C000C1DFAE59E1B1B796E5E3E453C63AE65172
:1002D000997696E8E6C28426EB898C9B62ED407C99
:1002E0006FFCEFBC9C9F40F2BAA56FA5F490055A35
:1002F0002AF75C936B6CF9676DC11BFCE0E40D475A
:10030000FEF520E6B500D0ED902E0300943577057C
:100310000080841E080000204E0A000000C80C3334
:100320003333330F986E12831141EF8D2114893BC3
:10033000E65516CFFEE6DB18D1844B381BF77C1D43
:10034000901DA4BBE424203284725E228100C9F196
:1003500024ECA1E53D277C3C3E5E2B3D3F2F5B5DC1
:100360003B2C2A225C0000000A0B02090C0D0E082F
:10037000070304010000000000000000000000006E
:10038000000000000000000000000000000000006D
:10039000000012111000000000000000000000002A
:1003A000000000000000000000000000000022002B
:1003B000250028002B002E0031003400020100002F
:1003C000050108010B0100002100240027002A007C
:1003D0002D003000330001010000040107010A0173
:1003E00005050505070508080808020202020A0AB1
:1003F00008080404040401010101010101010303CF
:10040000030303030303040707070C0C0C0C0C0C79
:100410000C0C0202020206060606060606060B0B76
:100420000B0B0B0B0B0B01021020200808102040B7
:1004300010204080020102010804020101020408A8
:100440001020408080402010080402018004020136
:10045000804020100804020108040201010204087F
:100460001020408001020408102040806D401124BB
:100470001FBECFEFD1E2DEBFCDBF00E00CBF17E063
:10048000A0E0B2E0E4EAF4EA00E00BBF02C00790AB
:100490000D92A63CB107D9F72FE0A6ECB7E001C05A
:1004A0001D92AF31B207E1F712E0C7E3D2E000E0FE
:1004B00006C021970109802FFE010E94F64CC63329
:1004C000D10780E00807A9F70E943A410C945052E6
:1004D0000C94000090E0FC01EA5DFB4F24918052F7
:1004E0009C4FFC018491882399F090E0880F991F1C
:1004F000FC01EA53FC4FA591B491FC01E455FC4F7B
:10050000859194918FB7F894EC91E22BEC938FBF87
:100510000895282F30E0F901EA59FC4F9491F90130
:10052000EA5DFB4F449120523C4FF9012491222374
:1005300009F435C0992311F191509231F8F4E92F63
:10054000F0E08827E955FD4F8F4F0C94F64CD80208
:10055000DC02B902D002D402BE02DF02E502E902E7
:10056000EF02F302F702FD020103BE0205030B03D3
:100570000F03809180008F7780938000E22FF0E05E
:10058000EE0FFF1FE455FC4FA591B4918FB7F8947F
:10059000EC91611148C040954E234C938FBF089554
:1005A000809180008F7DE8CF80918000877FE4CFAD
:1005B00084B58F7784BDE2CF84B58F7DFBCF8091EA
:1005C000B0008F778093B000D9CF8091B0008F7D3D
:1005D000F9CF809190008F7780939000CFCF80915A
:1005E00090008F7DF9CF80919000877FF5CF80912B
:1005F000A0008F778093A000C1CF8091A0008F7D55
:10060000F9CF8091A000877FF5CF809120018F776F
:1006100080932001B3CF809120018F7DF9CF80910D
:100620002001877FF5CF4E2BB8CF3FB7F89480914C
:100630003F0B9091400BA091410BB091420B26B51E
:10064000A89B05C02F3F19F00196A11DB11D3FBF0A
:10065000BA2FA92F982F8827BC01CD01620F711DD9
:10066000811D911D42E0660F771F881F991F4A95D3
:10067000D1F708958F929F92AF92BF92CF92DF925F
:10068000EF92FF924B015C010E9415036B017C010C
:100690000E9415036C197D098E099F09683E7340FD
:1006A00081059105A8F321E0821A9108A108B108FB
:1006B00088EEC80E83E0D81EE11CF11C8114910461
:1006C000A104B10429F7FF90EF90DF90CF90BF9085
:1006D000AF909F908F9008952FB7F89460913B0B47
:1006E00070913C0B80913D0B90913E0B2FBF089574
:1006F000DC01ED91FC910190F081E02D1994AF9215
:10070000BF92CF92DF92EF92FF920F931F93CF93FE
:10071000DF936C017B018B01040F151FEB015E0160
:10072000AE18BF08C017D10759F06991D601ED91F5
:10073000FC910190F081E02DC6011995892B79F784
:10074000C501DF91CF911F910F91FF90EF90DF9046
:10075000CF90BF90AF900895FC01538D448D252F0D
:1007600030E0842F90E0821B930B541710F0CF964B
:10077000089501970895FC01918D828D981761F07D
:10078000A28DAE0FBF2FB11D5D968C91928D9F5F94
:100790009F73928F90E008958FEF9FEF0895FC0173
:1007A000918D828D981731F0828DE80FF11D858D26
:1007B00090E008958FEF9FEF0895FC01918D228DB9
:1007C000892F90E0805C9F4F821B91098F7399273E
:1007D000089587E79DE00E94DD0321E0892B09F45D
:1007E00020E0822F0895FC01A48DA80FB92FB11D20
:1007F000A35ABF4F2C91848D90E001968F73992757
:10080000848FA689B7892C93A089B1898C91837034
:1008100080648C93938D848D981306C00288F3892D
:10082000E02D80818F7D80830895EF92FF920F935A
:100830001F93CF93DF93EC0181E0888F9B8D8C8D8C
:1008400098131AC0E889F989808185FF15C09FB780
:10085000F894EE89FF896083E889F9898081837043
:10086000806480839FBF81E090E0DF91CF911F91F2
:100870000F91FF90EF900895F62E0B8D10E00F5F13
:100880001F4F0F731127E02E8C8D8E110CC00FB6E9
:1008900007FCFACFE889F989808185FFF5CFCE0181
:1008A0000E94F303F1CFEB8DEC0FFD2FF11DE35A06
:1008B000FF4FF0829FB7F8940B8FEA89FB89808104
:1008C0008062CFCFCF93DF93EC01888D8823B9F07E
:1008D000AA89BB89E889F9898C9185FD03C080814B
:1008E00086FD0DC00FB607FCF7CF8C9185FFF2CFC8
:1008F000808185FFEDCFCE010E94F303E9CFDF9128
:10090000CF91089580E090E0892B29F00E94E903BF
:1009100081110E94000080E090E0892B49F080E086
:1009200090E0892B29F00E94000081110E940000B4
:1009300080E090E0892B49F080E090E0892B29F05D
:100940000E94000081110E94000080E090E0892B4D
:1009500049F080E090E0892B29F00E94000081118D
:100960000C94000008958FB7F8948091FF088FBF12
:10097000089561E0FC0184810E9489028091FE0853
:1009800081111092FE0808958CBD9DBD0895CF93EE
:10099000DF93EC018091FE08811109C081E0809312
:1009A000FE088091140E9091150E0E94C40460E020
:1009B0008C81DF91CF910C948902FC01DB011296AE
:1009C0008D919C9113979383828389E892E0918320
:1009D000808314968C911497848315968C91159727
:1009E000858316964D915D916D917C911997468303
:1009F0005783608771871A964D915D916D917C91B7
:100A00001D9742875387648775871E964D915D9128
:100A10006D917C91519746875787608B718B529669
:100A20008C915297828B53964D915D916D917C91F3
:100A30005697438B548B658B768B57964D915D9172
:100A40006D917C915A97478B508F618F728F5B9617
:100A50008D919C91948F838F0895DC015996ED912F
:100A6000FC913097B9F083899489A589B68942852C
:100A7000538564857585841B950BA60BB70B811573
:100A800020E89207A105B10538F08FEF9FE7A0E0BD
:100A9000B0E0089590E080E00895DC0159968D91D2
:100AA0009C91009739F0DC01ED91FC910480F58177
:100AB000E02D199490E080E00895CF93DF931F928A
:100AC000CDB7DEB76983DC01ED91FC910280F38143
:100AD000E02D41E050E0BE016F5F7F4F19950F9010
:100AE000DF91CF910895CF93CFB7F8948091FD080F
:100AF000811124C0E5E1F4E08491EBE5F4E0949108
:100B0000E82FF0E0EE0FFF1FEA53FC4FA591B491E0
:100B1000EC91E92321F461E085E30E94890285E3F9
:100B20000E946A028CB580618CBD8CB580648CBDDE
:100B300084E30E946A0283E30E946A028091FD08B6
:100B40008F5F8093FD08CFBFCF9108958823E9F090
:100B5000A6E0B9E025E014969C91149789130DC086
:100B600095E0899FF0011124EA5FF64F8481149685
:100B70008C931382128214820895992331F0929FEC
:100B8000D0011124AA5FB64FE6CF08958823A1F0C3
:100B900090910509992381F08F3F29F48091130AE0
:100BA0009091140A089595E0899FF0011124EA5F5D
:100BB000F64F82819381089590E080E008958EBD84
:100BC00000000DB407FEFDCF8EB508958FEF0C9495
:100BD000DF050F931F93CF93DF93EC010E946C030B
:100BE0008B010E94E6058F3F69F00E946C03601B39
:100BF000710B6C177D07A8F380E0DF91CF911F91F7
:100C00000F91089581E0F9CF8F929F92AF92BF929A
:100C1000FF920F931F93CF93DF93EC01F62E4901C0
:100C20005A018E81882389F08F8198859C012F5FDE
:100C30003F4F38872F838230924018F40E94E60598
:100C4000F3CFCE010E94B9041E82CE010E94C704D8
:100C50008CE291E00E94E9058F2D80640E94DF05FF
:100C600008E110E0D501C401002E04C0B695A79597
:100C7000979587950A94D2F70E94DF0508501109CD
:100C8000083F8FEF180771F785E9FF2021F028E072
:100C900087E8F2128FEF0E94DF0510E00E94E60560
:100CA0008A8787FF04C01F3F11F01F5FF7CFDF91D6
:100CB000CF911F910F91FF90BF90AF909F908F9019
:100CC0000895AF92BF92CF92DF92EF92FF920F936F
:100CD0001F93CF93DF93EC016901C801820F931F2B
:100CE0008130924050F58E81882379F088819981F6
:100CF000AA81BB8184179507A607B70731F48F81B6
:100D00009885C816D90608F042C0488359836A837B
:100D10007B838B85833039F089E0440F551F661F34
:100D2000771F8A95D1F79A01AB0161E1CE010E944C
:100D30000406882389F083E08D83CE010E94B904E4
:100D400080E0DF91CF911F910F91FF90EF90DF90A6
:100D5000CF90BF90AF9008950E946C035B010E94FA
:100D6000E6058A878F3F69F40E946C036A197B0944
:100D70006D327140A0F38FE08D83CE010E94B904E3
:100D8000DCCF8E3F89F418861F8281E08E838F81AD
:100D900098858C159D0550F40E94E6058F819885F5
:100DA000019698878F83F3CF8DE0E6CF6701E00E41
:100DB000F11E0E94E605F60181936F01EE15FF0515
:100DC000C1F78F819885080F191F18870F838985B0
:100DD000882319F001151240A0F08E81882389F034
:100DE0008F8198859C012F5F3F4F38872F838230FA
:100DF000924018F40E94E605F3CFCE010E94B90498
:100E00001E8281E09ECFCF92DF92EF92FF920F93EE
:100E1000CF93DF93EC01690182E141155105610532
:100E2000710599F08B85833039F089E0440F551FA7
:100E3000661F771F8A95D1F79A01AB0168E1CE0151
:100E40000E940406882319F084E08D832DC08EEF64
:100E50000E94DF0576018EEFD81AF70181917F019C
:100E60000E94DF05EC14FD04C1F78FEF0E94DF053F
:100E70008FEF0E94DF050E94E6058A878F7185301B
:100E800071F4011116C0CE010E94B90481E0DF9116
:100E9000CF910F91FF90EF90DF90CF90089581E177
:100EA0008D83CE010E94B904CE010E94B90480E076
:100EB000EECF88E592E00E94E905811102C085E14C
:100EC000C4CF20E030E0A9016DE0CE010E9404060D
:100ED000882311F084E1B9CF0E94E6058111FACF91
:100EE000D2CF0F93409101095091020960910309FB
:100EF00070910409411551056105710599F0082F9C
:100F000025E73BE08091750D9091760D0E940307D7
:100F1000882349F0109201091092020910920309E6
:100F20001092040981E00F9108950F93CF93C82F79
:100F300080910009811105C0C1E08C2FCF910F91E4
:100F4000089540910A0250910B0260910C02709139
:100F50000D020C2F25E73BE08091750D9091760DE9
:100F60000E940307811102C0C0E0E7CFCC2321F328
:100F700081E00E9471078823B9F310920009DDCF48
:100F80008F929F92AF92BF92EF92FF920F931F9317
:100F9000CF934B015C01C42F80910A0290910B0208
:100FA000A0910C02B0910D0288159905AA05BB0508
:100FB00051F181E00E94950781110BC080E0CF9133
:100FC0001F910F91FF90EF90BF90AF909F908F90E7
:100FD000089585E7E82E8BE0F82E00E012E030E07F
:100FE00020E0B501A4018091750D9091760D0E94CD
:100FF0006106882319F380920A0290920B02A09254
:101000000C02B0920D02409100094C2B4093000954
:1010100081E0D5CF8F929F92AF92BF92CF92DF9215
:10102000EF92FF92CF9326E13EE03093760D20932E
:10103000750D882309F46DC040E060E070E0CB01DD
:101040000E94C00781110BC080E0CF91FF90EF900C
:10105000DF90CF90BF90AF909F908F900895809138
:10106000330D8F7789F780913F0D9091400DA091BE
:10107000410DB091420D84369105A105B10520F3D3
:10108000C0903B0DD0903C0DE0903D0DF0903E0D9A
:10109000C114D104E104F104B9F240E0C701B60182
:1010A0000E94C007882381F28091800B9091810B70
:1010B0008115924049F6A091850BAA2329F26091EF
:1010C000830B7091840B6115710509F4BDCF2091DC
:1010D000820B222309F4B8CFA093340E2093260E5E
:1010E00090E080E030E0E1E0F0E0C82FAF01082EB2
:1010F00002C0440F551F0A94E2F72417350769F020
:1011000041E0480F01968930910579F740932F0E01
:101110009BCFC12CD12C7601C0CF80932F0E209174
:101120008B0B30918C0B50E040E02115310541F4E0
:101130002091990B30919A0B40919B0B50919C0BF5
:101140002093270E3093280E4093290E50932A0E99
:1011500046015701860E971EA11CB11C8092350EC8
:101160009092360EA092370EB092380EE091860B18
:10117000F091870BF0933B0EE0933A0EB0E00E94A3
:101180002E4CDC01CB01880D991DAA1DBB1D80933F
:101190003C0E90933D0EA0933E0EB0933F0E25E083
:1011A000EE0FFF1F2A95E1F7E150FE4FEF2FFF27CB
:1011B000E6958E0F9F1FA11DB11D8093300E909359
:1011C000310EA093320EB093330E8090880B909026
:1011D000890BB12CA12C8114910441F48090950BC2
:1011E0009090960BA090970BB090980BC81AD90AC4
:1011F000EA0AFB0AC80CD91CEA1CFB1C04C0F694C2
:10120000E794D794C794CA95D2F7C0922B0ED09288
:101210002C0EE0922D0EF0922E0E85EFC8168FE068
:10122000D806E104F10428F48CE08093390E81E0C3
:101230000CCF80E125EFC2162FEFD206E104F104B6
:10124000A0F38091A10B9091A20BA091A30BB09160
:10125000A40B80933C0E90933D0EA0933E0EB09352
:101260003F0E80E2E2CFCF93DF93EC016E857F8566
:101270008889998941E00E94C007882351F08A89B2
:1012800020E2829FC00111248B58944FDF91CF91AF
:10129000089590E080E0FACF4F925F926F927F9234
:1012A0008F929F92AF92BF92CF92DF92EF92FF9276
:1012B0000F931F93CF93DF93EC01423051056105EB
:1012C000710590F480E0DF91CF911F910F91FF9015
:1012D000EF90DF90CF90BF90AF909F908F907F90D6
:1012E0006F905F904F90089589859A85AB85BC85F6
:1012F0000196A11DB11D84179507A607B70710F326
:10130000CB88DC88ED88FE888F89803109F042C067
:10131000BB27A72F962F852F480159012A013B0192
:10132000C80ED91EEA1EFB1E80910A0290910B0284
:10133000A0910C02B0910D02C816D906EA06FB0670
:1013400099F58F898031C1F5B301A2015527662730
:101350007727440F551F4B58544FFA0191828082D2
:10136000809100098160809300098A89823080F031
:101370008D819E81AF81B8858C0D9D1DAE1DBF1DD9
:101380008093010990930209A0930309B093040983
:1013900081E099CFDB01CA01E7E0B695A795979563
:1013A0008795EA95D1F7B8CF40E0C701B6010E9412
:1013B000C0078111C6CF86CFB301A2014F77552751
:1013C00066277727440F551F440F551F4B58544F1E
:1013D000FA0180829182A282B382C2CF8F929F92C1
:1013E000AF92BF92CF92DF92EF92FF920F931F9333
:1013F000CF93DF93FC0181859285A385B485019607
:10140000A11DB11D84179507A607B70770F480E0EA
:10141000DF91CF911F910F91FF90EF90DF90CF90D0
:10142000BF90AF909F908F90089583889488A588EF
:10143000B6888789803189F5BB27A72F962F852FFE
:10144000E9016A017B018F01BC01CD01680D791DA5
:101450008A1D9B1D80900A0290900B02A0900C02A6
:10146000B0900D0286169706A806B90601F5F80198
:101470008789803111F5DD24EE24FF24F601EE0F7B
:10148000FF1FEB58F44F80819181B0E0A0E088838A
:101490009983AA83BB8381E0BBCFDB01CA01C7E08C
:1014A000B695A79597958795CA95D1F7C9CF40E08E
:1014B0000E94C0078111DBCFAACFE894C7F8DD24D2
:1014C000EE24FF24F601EE0FFF1FEE0FFF1FEB5877
:1014D000F44F80819181A281B381BF70D8CF4F92A8
:1014E0005F926F927F92AF92BF92CF92DF92EF9214
:1014F000FF920F931F93CF93DF9300D01F92CDB72E
:10150000DEB78C0149835A836B837C835901C12CDC
:10151000D12C7601412C82E0582E612C712C49810E
:101520005A816B817C819E012F5F3F4FC8010E94D1
:10153000EE09882339F1F8018585A301920104C0E1
:10154000220F331F441F551F8A95D2F7DA01C901B4
:10155000C80ED91EEA1EFB1E49815A816B817C810F
:101560008789803111F188EF9FEFAFEFBFE0481717
:1015700059076A077B0798F2F501C082D182E2829F
:10158000F38281E00F900F900F900F90DF91CF9139
:101590001F910F91FF90EF90DF90CF90BF90AF9091
:1015A0007F906F905F904F90089588EF9FEFA0E03D
:1015B000B0E0DDCFCF93DF93FC012581222321F022
:1015C00080E0DF91CF910895EC018091390E803158
:1015D00059F582E08583178A108E118E128E8091C4
:1015E0003A0E90913B0EB0E0A0E025E0880F991FE5
:1015F000AA1FBB1F2A95D1F7838B948BA58BB68B23
:1016000082E29EE09C8F8B8F81E08C831E821F8202
:10161000188619861A861B861C861D861E861F86BE
:10162000188A198A1A8ACDCF803251F683E08583D1
:1016300040913C0E50913D0E60913E0E70913F0ED8
:10164000478B508F618F728F9F012D5E3F4F82E2DB
:101650009EE00E946F0A8111D3CFB2CF8F929F92EA
:10166000AF92BF92CF92DF92EF92FF920F931F93B0
:10167000CF93DF93EC018D8181110EC080E0DF916B
:10168000CF911F910F91FF90EF90DF90CF90BF907F
:10169000AF909F908F9008950B891C892D893E896A
:1016A000041715072607370748F34A015B01823004
:1016B00031F48A869B86AC86BD8681E0E0CF8114BA
:1016C0009104A104B10449F41E821F821886198670
:1016D0001A861B861C861D86F0CF0A851B852C85E5
:1016E0003D85EB8DFC8D858590E00996B901A801BB
:1016F0004150510961097109082E04C0769567951A
:10170000579547950A94D2F775016401E1E0CE1A26
:10171000D108E108F10804C0F694E794D794C7947F
:101720008A95D2F7C416D506E606F70620F0012BF7
:10173000022B032B11F58F89988DA98DBA8D8E837D
:101740009F83A887B9878E010A5F1F4FC114D104F8
:10175000E104F10409F4ADCF4E815F81688579859C
:1017600098018B8D9C8D0E94EE0991E0C91AD108D9
:10177000E108F1088111EACF81CFC41AD50AE60A3F
:10178000F70AE1CF3F924F925F926F927F928F92D2
:101790009F92AF92BF92CF92DF92EF92FF920F9300
:1017A0001F93CF93DF93CDB7DEB72C970FB6F89486
:1017B000DEBF0FBECDBF5C01DC015B968D909C90BF
:1017C0005C9716964D905D906D907C9019974114A2
:1017D00051046104710409F468C0BFEF4B1A5B0A3D
:1017E0006B0A7B0A312CF40181859285A385B4852F
:1017F0009C01AD012F5F3F4F4F4F5F4F29873A87C5
:101800004B875C87730162011D821E821F821886CE
:10181000F40181859285A385B4852D813E814F8118
:101820005885281739074A075B0708F056C089858D
:101830009A85AB85BC858C159D05AE05BF0550F41A
:1018400082E0C82ED12CE12CF12C92E0492E512CB3
:10185000612C712C9E012F5F3F4FB701A601C4017F
:101860000E94EE098823C9F189819A81AB81BC81EC
:10187000892B8A2B8B2B09F1260137019FEF491AFF
:10188000590A690A790A2D813E814F8158852F5F57
:101890003F4F4F4F5F4F2D833E834F8358873FEF1E
:1018A000C31AD30AE30AF30AB3CFF401408051808C
:1018B000628073803324339496CFC414D504E60435
:1018C000F70409F70FEF1FEF2FEF3FE0B701A60175
:1018D000C4010E944C09811119C080E02C960FB6FA
:1018E000F894DEBF0FBECDBFDF91CF911F910F9156
:1018F000FF90EF90DF90CF90BF90AF909F908F9030
:101900007F906F905F904F903F900895D50116960D
:101910004D915D916D917C9119974115510561052E
:10192000710539F097018601C4010E944C09882392
:10193000A1F2D5011696CD92DD92ED92FC92199707
:10194000332051F0D701C6010196A11DB11DF4014C
:1019500080839183A283B383F5018789908DA18DC4
:10196000B28D892B8A2B8B2B39F48481C78AD08E38
:10197000E18EF28E80688483F501848180628483A5
:1019800081E0ACCF2F923F924F925F926F927F9205
:101990008F929F92AF92BF92CF92DF92EF92FF927F
:1019A0000F931F93CF93DF9300D0CDB7DEB7FC0129
:1019B0008581811118C08FEF9FEF0F900F900F90CE
:1019C000DF91CF911F910F91FF90EF90DF90CF901B
:1019D000BF90AF909F908F907F906F905F904F904F
:1019E0003F902F900895848180FFE5CF43895489EB
:1019F0006589768982859385A485B585312C212CCE
:101A0000481759076A077B0719F022242394312CC1
:101A10006F012101CE0101963C01DF011696BB83C7
:101A2000AA834114510409F4C5C0F60142855385C7
:101A3000648575854A01F1E09F22D6015B968D9100
:101A40009C915C978A019B01E9E036952795179553
:101A50000795EA95D1F71596EC91E230E9F5FC018E
:101A6000628D738D848D958D600F711F821F931F02
:101A7000A12C22E0B22EA818B9084A145B0408F47D
:101A80005201F601248126FD04C0A114F2E0BF0634
:101A900071F400910A0210910B0220910C02309116
:101AA0000D02061717072807390709F05EC040E046
:101AB0000E94C007882309F47ECFC4018B58944F3D
:101AC000D3019C012A0D3B1DFC012E173F0709F491
:101AD0006CC041914D93F9CFDC011496BC90BA943F
:101AE000B0228114910479F4B1100DC0452B462B1E
:101AF000472B69F5F6018789908DA18DB28D86837C
:101B00009783A087B187D6015B96ED91FC915C9796
:101B100016966D917D918D919C91199762507109E6
:101B200081099109258504C0660F771F881F991FB9
:101B30002A95D2F70685178520893189600F711F94
:101B4000821F931F6B0D711D811D911D91CFD601B9
:101B500016964D915D916D917C9119972A813B81EB
:101B60000E94EE098111CFCF26CF73018501940128
:101B7000AB01BC018091750D9091760D0E946106BC
:101B8000882309F418CF6A0C7B1CF60182859385A3
:101B9000A485B5858A0D9B1DA11DB11D82879387E4
:101BA000A487B5874A185B083CCF281B390B620E07
:101BB000731EEBCF2A94232809F0FDCE898190E093
:101BC000FCCEFC01818D928D009711F00C94C20C1B
:101BD0008FEF9FEF08950F931F93CF93DF93EC0147
:101BE000898D9A8D10E000E0009799F00E94C20C58
:101BF0008C010F3F100769F0898D9A8DFC01428599
:101C000053856485758541505109610971090E94A8
:101C10002E0BC801DF91CF911F910F9108951F9353
:101C2000CF93DF93FC012581222371F1162FEC0164
:101C3000848187FF1EC0CF010E943309FC01892BDC
:101C400019F18D81823040F48B899C89AD89BE89E0
:101C5000848F958FA68FB78F8F89988D938F828F62
:101C60008F89988DA98DBA8DB58BA48B8C818F7738
:101C70008C83111103C08C818F7E8C83812FDF9127
:101C8000CF911F910C94950780E0DF91CF911F9128
:101C90000895FF920F931F93CF93DF93EC018D81F3
:101CA000813041F090E080E0DF91CF911F910F9162
:101CB000FF9008958C8181FFF5CF82FD1BC00091BC
:101CC000750D1091760DC8010E94C7040E94E605AB
:101CD000F82EC8010E94B9048FEFF812E3CF8C816F
:101CE00085FF1BC060E0CE010E940F0E8C818F7DAE
:101CF0008C83D8CF4B895C896D897E898A859B8549
:101D0000AC85BD8584179507A607B707C1F2CE013C
:101D10000E942E0B8111D3CFC5CF40910109509164
:101D200002096091030970910409452B462B472B4A
:101D300021F080E00E947107B5CF80618C832A85F5
:101D40003B85317080E092E0821B930BADCFCF9347
:101D5000DF93EC0161E00E940F0E882311F01D82D9
:101D600081E0DF91CF910895FC01818D928D0097E4
:101D700019F061E00C940F0E08952F923F924F924C
:101D80005F926F927F928F929F92AF92BF92CF920B
:101D9000DF92EF92FF920F931F93CF93DF9300D0C8
:101DA0001F921F92CDB7DEB77C015B01342E5D839D
:101DB000DC0115968C911597813009F0CEC01496F0
:101DC0002C9021FECAC022FCB4C0C32CDD8022941A
:101DD0007FE027222094B22DB1702B2ED7011A96C6
:101DE0004D915D916D917C911D97C114D10409F4C1
:101DF00028C15B968D919C915C97FC0174807A94CC
:101E00008A019B0169E036952795179507956A9594
:101E1000D1F770228A011170711020C001151105CF
:101E2000E9F416964D915D916D917C91199741154C
:101E300051056105710509F099C057968D919D91E5
:101E40000D90BC91A02D0097A105B10509F0B0C07F
:101E5000C7010E94C20B882309F47FC080E092E092
:101E6000801B910B46018C159D0508F44C01D70190
:101E70005B964D915C915C9716968D919D910D901E
:101E8000BC91A02D0297A109B109FA01258504C0D2
:101E9000880F991FAA1FBB1F2A95D2F74685578521
:101EA00060897189840F951FA61FB71F9C01AD0122
:101EB000270D311D411D511D29013A01811432E0C8
:101EC000930609F07BC080910A0290910B02A091C9
:101ED0000C02B0910D0284159505A605B70559F4BD
:101EE0008FEF9FEFDC0180930A0290930B02A09387
:101EF0000C02B0930D02022D9501B301A201809155
:101F0000750D9091760D0E940307882331F19EEFA5
:101F1000B91AC818D908F70182859385A485B585B3
:101F2000880D991DA11DB11D82879387A487B58750
:101F300055CFF701438954896589768982859385D0
:101F4000A485B585481759076A077B0709F43DCF73
:101F5000C7010E942E0B811138CF81E090E0D7019C
:101F600013969C938E93129780E007C09E012F5F7B
:101F70003F4F0E94EE09811102C090E079C0898133
:101F80009A81AB81BC81F701238D348DF9012789BA
:101F900048EF5FEF60E070E0203121F048EF5FEF45
:101FA0006FEF7FE084179507A607B70708F050CFBB
:101FB000F70186839783A087B18750CF011511055C
:101FC00099F5D7011A964D915D916D917C911D9770
:101FD00053968D919D910D90BC91A02D4817590756
:101FE0006A077B0708F181E00E949507882309F4BE
:101FF000B4CF40920A0250920B0260920C0270928F
:102000000D0280910009816080930009C8018B58FE
:10201000944FD5019C01280D391DFC012E173F0757
:1020200059F04D914193FACF41E0C301B2010E94B2
:10203000C0078111EBCF91CF281B390BA20EB31E25
:1020400068CFF70183899489A589B6898417950794
:10205000A607B70738F48481438B548B658B768B46
:1020600080688483F701848183FD1AC0832D9D815C
:102070000F900F900F900F900F90DF91CF911F91C5
:102080000F91FF90EF90DF90CF90BF90AF909F9017
:102090008F907F906F905F904F903F902F9008951A
:1020A00061E0C7010E940F0E882309F456CFDECFEE
:1020B000CF93DF931F92CDB7DEB7698341E050E045
:1020C000BE016F5F7F4F0E94BD0E0F90DF91CF91D9
:1020D0000895CF93DF93EC01E98DFA8D309749F4A1
:1020E00081E090E09B838A8390E080E0DF91CF9154
:1020F000089513821282898D9A8D0E94BD0EE98DFA
:10210000FA8D22813381232B59F7F0CF0F931F9340
:10211000CF93DF93082FC62F142FD0910E0260E0CB
:102120008D2F0E9489028C2F8F71802B0E94DF05DA
:10213000812F0E94DF0561E08D2FDF91CF911F91EC
:102140000F910C948902CF93DF93D82FD076909182
:1021500009029D17A1F0C82F43E06FE180EA0E94B9
:1021600086104C2F50E085E0559547958A95E1F70C
:1021700043706FE180E80E948610D0930902DF91DE
:10218000CF9108951F93CF93DF93C82F162FD72F8A
:102190000E94A310412F6C2F80E40E94861061E002
:1021A0006C0F4D2F80E4DF91CF911F910C9486101E
:1021B000EF92FF920F931F93CF93DF938B017A01DE
:1021C0008F3F59F095E0899FE0011124CA5FD64FF7
:1021D00068817981600F711F0FC06091110A709141
:1021E000120A600F711FC1E1DAE0611588E078071B
:1021F00078F37850C1E1DAE080E00E94C2108A8171
:102200009B81801B910BE816F90608F4C701DF914A
:10221000CF911F910F91FF90EF900895CF92DF9291
:10222000FF920F931F93CF93DF93EB0170E060E079
:102230000E94D8108C01F0900E0260E08F2D0E9459
:1022400089028AE30E94DF056E01C00ED11ECC1503
:10225000DD0529F080E00E94DF058993F8CF61E079
:102260008F2D0E948902C801DF91CF911F910F919C
:10227000FF90DF90CF90089560910F0A7091100A3F
:102280006115710529F0615071098CE00C94C21040
:102290006FEF77E0FACFCF93DF93C82FD62F0E944E
:1022A000A3104D2F6C2F80E4DF91CF910C948610FA
:1022B0001F93CF93DF93182FD62FC0910E0260E0AB
:1022C0008C2F0E9489028D2F8F71812B0E94DF0538
:1022D000D7FF03C080E00E94DF0580E00E94DF0599
:1022E000D82F61E08C2F0E9489028D2FDF91CF9132
:1022F0001F910895CF93C82F0E94A3106C2F80E0E8
:10230000CF910C945811CF93DF93EB01682F84ED9C
:102310000E944B11BE0186ED0E94C210CFE0D0E0BA
:102320008AEE0E947A1180FF08C06AE070E080E0C7
:1023300090E00E943A03219799F7DF91CF91089599
:10234000CF93DF93D62FBC0182E00E94C210C091D0
:102350000E0260E08C2F0E9489028AE70E94DF054E
:102360008D2F0E94DF0561E08C2FDF91CF910C94BF
:102370008902CF93DF93BC0180E00E94C210C0911C
:102380000E0260E08C2F0E9489028AE30E94DF0522
:1023900080E00E94DF05D82F61E08C2F0E94890227
:1023A0008D2FDF91CF910895CF92DF92EF92FF9220
:1023B0000F931F93CF93DF936C018B014130510535
:1023C00079F4CB010E94B911682FC601DF91CF913A
:1023D0001F910F91FF90EF90DF90CF900C94A01180
:1023E000EA01C60FD71F7E0181E0E81AF10880E1FB
:1023F0000E94C210B60184E10E94C210011518406B
:1024000048F4E11488E0F80628F07E0181E0E81A3B
:1024100088E0F80AB70182E10E94C21040E16FE152
:1024200080EA0E94861040E26FE180E80E948610F8
:102430006FE180E00E94581185FF07C061E070E005
:1024400080E090E00E943A03F3CFDF91CF911F919B
:102450000F91FF90EF90DF90CF900895CF92DF9291
:10246000EF92FF920F931F93CF93DF938C016091B4
:102470000609709107096150784EC12C98E1D92E58
:10248000E6E0F9E020E0D0E0C0E045E03481CB01B7
:10249000332341F0439FC00111248A5F964FDC0132
:1024A0008D919C91E080F1808E199F090280F381CB
:1024B000E02D8E1B9F0B8017910799F4B5E02B9FA1
:1024C000E0011124CA5FD64FEBE0F9E081E0228100
:1024D0003381232B09F453C035968F5F8533B9F7C9
:1024E00044C00817190748F48C159D0530F4249F43
:1024F000E0011124CA5FD64F6C01311121C0209731
:1025000019F7C6E0D9E085E0D82E8C812881398181
:10251000EA80FB808823D9F0E20EF31E8D9DE00156
:102520001124CA5FD64F68817981E616F70669F3F0
:102530004A815B81C7010E94D411F982E882E5CF0C
:10254000349FF0011124EA5FF64F232F9FCF809133
:10255000060990910709821B930B8E199F098150E0
:10256000984E8017910708F0AFCF80E0DF91CF91B0
:102570001F910F91FF90EF90DF90CF9008952881E9
:1025800039814A815B81240F351F31832083138376
:1025900002839C8194838C83E9CF0F931F93DB018B
:1025A000E42FA80190E0EF3FE1F065E0E69FF00145
:1025B0001124EA5FF64F60817181620F731F01C0C1
:1025C000785025E0289FF001299FF00D1124EA5F43
:1025D000F64F808191818A0F9B1F1F910F910C9460
:1025E000D4116091110A7091120A620F731F611564
:1025F000E8E07E0728F7E1E1FAE0DDCFCF92DF9255
:10260000EF92FF920F931F93CF93DF936B018A0199
:10261000790195E0899FE0011124CA5FD64F688156
:1026200079816C0D7D1D82E00E94C2100A80DB81E1
:10263000C02DCC19DD09EC16FD0608F4E701F09079
:102640000E0260E08F2D0E9489028AE70E94DF055A
:102650006801CC0EDD1EC016D10631F0F801819163
:102660008F010E94DF05F7CF61E08F2D0E94890264
:10267000CE01DF91CF911F910F91FF90EF90DF90EE
:10268000CF900895DC011C96ED91FC91309731F0CC
:1026900086819781982789279827089590E080E080
:1026A0000895CF93DF93FC01EB01AC85BD851097B6
:1026B000A9F012969C91129713968C9113973C91C6
:1026C00011962C9149EC52E051834083328323834D
:1026D00094838583CF01DF91CF91089589EC92E0B7
:1026E000918380831282138214821582F3CFCF9359
:1026F000DF931F92CDB7DEB7DC01ED91FC91048C26
:10270000F58DE02D41E050E0BE016F5F7F4F1995E0
:102710001816190634F4898190E00F90DF91CF915B
:1027200008958FEF9FEFF9CFCF93DF93EC018A8964
:10273000882379F09A01AB016E857F850E94FE1295
:102740002E853F85280F391F3F872E87DF91CF9138
:10275000089590E080E0FACFCF93DF931F92CDB73A
:10276000DEB76983DC01ED91FC910280F381E02DFD
:1027700041E050E0BE016F5F7F4F19950F90DF91F0
:10278000CF91089580E008950895FB0141505109CB
:10279000460F571FE417F50778F4208130E0322FF9
:1027A00022276181260F311D820F931F8217930705
:1027B00008F401963296EECFE417F50751F4208124
:1027C00030E0322F2227820F931F8217930708F4DD
:1027D00001960895BF92CF92DF92EF92FF920F93EE
:1027E0001F93CF93DF93C82FE090A908F12CFE2C04
:1027F000EE244091AA084451550BE40EF51E48E022
:1028000050E063EB78E0C7018C0F911D0E94C51367
:1028100008E0C13129F00091C708069506950C73B0
:1028200010E0A8016BEB78E00E94C513EC010E15D7
:102830001F0508F04BC0A701401B510B8091780881
:1028400062E270E081FF02C063E270E0600F711F1E
:10285000809179080E94D81001977C01B0900E02F7
:1028600060E08B2D0E9489028AE30E94DF05D12C53
:10287000C12CCE14DF04B8F480E00E94DF05082FDD
:1028800010E0102F002780E00E94DF05800F912FBD
:10289000911DC80FD91FC817D90708F4219682E0E7
:1028A000C80ED11CE6CFEC14FD0461F480E00E9458
:1028B000DF0590E0982F8827C80FD91FC817D907C0
:1028C00008F4219661E08B2D0E9489029C2F8D2FA8
:1028D000CD2B11F48FEF9FEFDF91CF911F910F91CF
:1028E000FF90EF90DF90CF90BF90089544E150E0CB
:1028F00067EA78E090E080E00E94C513009721F03D
:1029000098278927982708958FEF9FEF0895FF92C2
:102910000F931F93CF93DF93C0917808C1FF66C0D8
:102920002091760830E049E958E061E070E080915C
:1029300079080E94FE12CD7FC0937808F090790844
:1029400080910509882309F444C085E0F89EF001D0
:102950001124EA5FF64F00811181C281D381C00F3B
:10296000D11F60E0C8010E94A011B80184E00E945C
:10297000C210BE016850710986E00E94C2101AE0C0
:10298000249740E86FE180E80E94861040E86FE1FC
:1029900080EA0E9486104AE06CE180EA0E9486107C
:1029A00048E06FE180E80E9486108CE10E947A1175
:1029B000082F8A70D1F348E06FE180EA0E94861008
:1029C00001FF2DC0CE010E94B91185FF02C0115038
:1029D000C1F6C0E08F2D0E94A605109279088C2FB9
:1029E000DF91CF911F910F91FF900895C0919108B1
:1029F000D0919208CE01089621F410927908C0E097
:102A0000EECF0E942E12809379088823C1F39E0195
:102A100049E958E061E070E00E94FE128FCFC1E00A
:102A2000D9CF0F931F93CF93DF93EC018C010B5FF2
:102A30001F4F89910E94A605FE0131971082C01791
:102A4000D107B9F7DF91CF911F910F910895CF93DF
:102A5000DF93EC0188810E94A605FE01CE01049659
:102A600021812193E817F907D9F71C82DF91CF91D3
:102A70000895CF93DF93EC01E881F981008CF18D0B
:102A8000E02D1995882339F08C859D850296DF917C
:102A9000CF910C941115DF91CF9108950F931F934F
:102AA000CF93DF931F92CDB7DEB78C01DC01ED91A0
:102AB000FC91008CF18DE02D19958823B1F0D8019F
:102AC0001C96ED91FC918281882379F041E050E0E1
:102AD000BE016F5F7F4F0E940E11898190E00F90C1
:102AE000DF91CF911F910F9108958FEF9FEFF7CF57
:102AF000CF93DF931F92CDB7DEB7DC01ED91FC9150
:102B00000288F389E02D41E050E0BE016F5F7F4F06
:102B100019951816190634F4898190E00F90DF9109
:102B2000CF9108958FEF9FEFF9CF6F927F928F92A1
:102B30009F92AF92BF92CF92DF92EF92FF920F934C
:102B40001F93CF93DF938C014B01EA01DC01ED91E0
:102B5000FC91008CF18DE02D1995882309F47BC040
:102B6000D8011C96ED91FC918281882309F476C0EE
:102B70007E018EE1682EBE016E197F09680D791DF8
:102B8000D8011C96ED91FC91A70182810E940E1143
:102B90006C01F801A484B584D50112967C90872D30
:102BA0000E94C605C816D906E9F5EC18FD08C5014E
:102BB00002960E942715F801A485B585EC916E9EBA
:102BC000F0011124EC5BF54F818D84FF09C0119653
:102BD0008C911197982F967019F4886011968C93A8
:102BE000D8011C96ED91FC911D97828181112EC018
:102BF000818182FF05C011821D961C921E921C9736
:102C0000CE018E199F09DF91CF911F910F91FF90F7
:102C1000EF90DF90CF90BF90AF909F908F907F907C
:102C20006F900895B5E07B9EF0011124EA5FF64FA6
:102C3000808191818C0D9D1D918380838281938100
:102C40008C199D0993838283CE01DDCFE114F104B9
:102C500009F091CFF9CF8FEF9FEFD5CF90E080E0D3
:102C6000D2CFEF92FF920F931F93CF93DF93EC019C
:102C7000E881F981008CF18DE02D19958823E1F030
:102C80000C851D85780182E0E80EF11C095F1F4F5D
:102C9000D0E0C0E0F70181917F010E94C605C80F16
:102CA000D91FE016F106B1F7CE01DF91CF911F9148
:102CB0000F91FF90EF900895D0E0C0E0F5CFFC01B8
:102CC000448555854115510551F0FB012485358515
:102CD0002115310521F081E04217530709F080E00A
:102CE0000895DC011C96ED91FC91309731F08281C2
:102CF000811105C081818170089580E0089581E08F
:102D00000895DC01ED91FC91028CF38DE02D199575
:102D100091E089270895DC01ED91FC91048CF58DFB
:102D2000E02D19940895CF93DF93EC018C859D8558
:102D3000DC01ED91FC910288F389E02D1995288D35
:102D4000398D285031092330310588F44C8D5D8D43
:102D50006E8D7F8D141615061606170644F497FD22
:102D600006C028A139A1280F391F39A328A3DF9154
:102D7000CF9108950F931F93CF93DF93EC018EA112
:102D8000811110C08C859D85DC01ED91FC91028440
:102D9000F385E02D199597FF11C0DF91CF911F9119
:102DA0000F910895E881F9810084F185E02DCE012D
:102DB0001995892B39F78FEF9FEFEFCF488D598DFC
:102DC0009A01285031092330310538F70C8D1D8DBB
:102DD0002E8D3F8D101611061206130634F428A10D
:102DE00039A12F5F3F4F39A328A34A305105A9F6D7
:102DF0002FA138A52150310938A72FA3232B69F61D
:102E000029E030E0398F288FC8CF0F931F93CF93DD
:102E1000DF93EC010E946C03688779878A879B8720
:102E2000CE010E94BA1697FF15C00E946C03088558
:102E300019852A853B85601B710B820B930B0C81D6
:102E40001D812E813F81601771078207930740F330
:102E50008FEF9FEFDF91CF911F910F9108952F92E8
:102E60003F924F925F926F927F928F929F92AF921A
:102E7000BF92CF92DF92EF92FF920F931F93CF9367
:102E8000DF93EC01888D998D0897039708F4D0C0E3
:102E90000E946C034B015C0184E0482E512C06E03B
:102EA00010E098E0292E312C29E0622E712C37E0B9
:102EB000E32EF12C45E0C42ED12C888D998D0897F6
:102EC000039708F4B5C00E946C03681979098A0950
:102ED0009B0929A53AA54BA55CA562177307840732
:102EE000950708F0A5C0E881F9810084F185E02DFF
:102EF000CE011995892B09F494C0E881F9810284E7
:102F0000F385E02DCE011995B82E888D998D9C0101
:102F1000285031092330310508F440C0853091052F
:102F200009F441C08730910509F45AC0049709F0AB
:102F300074C0AAA1BBA18C91B81214C0CD01019696
:102F40009BA38AA311968C91811108C0D98EC88E3B
:102F50001C8E1D8E1E8E1F8E19A218A29AE0B91209
:102F60001DC04DC0ECA1FDA18081B8120CC0CF01E5
:102F700001969DA38CA381818111F0CF81E08EA366
:102F8000198F088FEBCFAB5CB240D1F7EC5DF2400C
:102F9000B9F79DE0B912F4CFF98EE88E0E946C0368
:102FA0004B015C018ACFEB2D0B2C000CFF0BF09733
:102FB000EA30F10528F72C8D3D8D4E8D5F8DAAE00E
:102FC000B0E00E942E4C9F01FF0F440B550B620F87
:102FD000731F841F951F6C8F7D8F8E8F9F8FBECF29
:102FE0008AE0B812DBCF8EA18823A1F0798E688E9B
:102FF00018A61FA2888D998D0897039778F2598E8D
:10300000488E8BEC92E09BA38AA38CED92E09DA36B
:103010008CA3C4CF398E288EEDCF9AE0B912BECFE3
:10302000E9CF68EE73E080E090E00E943A0345CF7C
:103030006C8D7D8D8E8D9F8DDF91CF911F910F9126
:10304000FF90EF90DF90CF90BF90AF909F908F90C8
:103050007F906F905F904F903F902F900895FC016C
:10306000118E108E138E128E8FEF9FEFDC01848FE6
:10307000958FA68FB78F11A210A28BEC92E093A32D
:1030800082A38CED92E095A384A316A210A617A2AA
:1030900080E395E7A0E0B0E081A792A7A3A7B4A73B
:1030A0000895CF93DF93EC018C859D85DC01ED9134
:1030B000FC910488F589E02D1995CE01DF91CF911F
:1030C0000C942F1860E08AE00E94890261E084E09D
:1030D0000C94890261E08AE00E94890260E084E049
:1030E0000C948902FC0141A752A763A774A7089515
:1030F000FC0161A572A583A594A5089521E0FC01BA
:1031000084859585892B09F420E0822F0895DC01C0
:103110001C968D919C91DC01ED91FC910688F789BC
:10312000E02D1994DC011C968D919C91DC01ED91B0
:10313000FC910088F189E02D19940F931F93CF9390
:10314000DF9300D000D0CDB7DEB7DC011C968D91A7
:103150009C91DC01ED91FC910684F785E02D29EC32
:1031600032E03A832983DB0112960D911D912D9156
:103170003C9115970B831C832D833E83BE016F5FAB
:103180007F4F199526960FB6F894DEBF0FBECDBFC0
:10319000DF91CF911F910F910895DC011C968D91C5
:1031A0009C91DC01ED91FC910680F781E02D199452
:1031B000DC011C968D919C91DC01ED91FC910484C5
:1031C000F585E02D1994CF92DF92EF92FF92CF9385
:1031D000DF93FC01208D318D2850310923303105DA
:1031E00010F020E017C0EC010E942F176F3F7F4FB7
:1031F0008F4F9F4FB1F3C8A0D9A00D2C000CEE0843
:10320000FF08CE010E942F1721E0C616D706E80658
:10321000F9063CF3822FDF91CF91FF90EF90DF9082
:10322000CF90089590E080E00895DC01ED91FC914D
:103230000280F381E02D19948F929F92AF92BF92FA
:10324000CF92DF92EF92FF920F931F93CF93DF9372
:1032500000D01F92CDB7DEB7FC018581813091F09F
:1032600080E00F900F900F900F90DF91CF911F9102
:103270000F91FF90EF90DF90CF90BF90AF909F9015
:103280008F900895848181FFEBCF83899489A589EC
:10329000B689892B8A2B8B2B09F45FC07F0140E014
:1032A00050E0BA01CF010E942E0B8823C9F2F7012A
:1032B000C38CD48C8788908CA18CB28C82E090E0F7
:1032C000A0E0B0E0F60180839183A283B3839E01E6
:1032D0002F5F3F4FB501A401C6010E94EE0988236C
:1032E00009F4BECF00E010E09801B501A401C601C9
:1032F0000E944C09882309F4B3CF89809A80AB805F
:10330000BC80F6018789803119F188EF9FEFAFEF1C
:10331000BFE088169906AA06BB06C8F2F701178A0D
:10332000108E118E128E138A148A158A168A848141
:103330008068848361E0C7010E940F0E882309F42E
:103340008FCF40E050E0BA01C7010E942E0B89CF19
:1033500088EF9FEFA0E0B0E0DCCF81E082CFCF929A
:10336000DF92EF92FF921F93CF93DF93EC0180E205
:10337000689FF0011124EB58F44F9385917161F02F
:10338000842F827449F080E0DF91CF911F91FF90EC
:10339000EF90DF90CF900895142F6A8B80910A02EE
:1033A00090910B02A0910C02B0910D028E879F8725
:1033B000A88BB98BC488D588F12CE12C7601DD244B
:1033C000CC24CF8AD88EE98EFA8E828D938DB0E090
:1033D000A0E0AC01BD014C295D296E297F294F8BEE
:1033E000588F698F7A8F83858871B1F4848D958D1C
:1033F000A68DB78D8B8B9C8BAD8BBE8B81E08D8327
:103400001F701C831E821F82188619861A861B86CF
:103410001C861D8681E0B8CF803109F0B4CF9E01B3
:103420002D5E3F4F8B8D9C8D0E946F0A882309F47F
:10343000AACF84E0E4CF0F931F93CF93DF93DC01F7
:103440002091420A3091430A2F5F3F4F21158DE7AB
:10345000380710F020E030E1522F432FE6E1FAE088
:10346000EF0180E08430A1F43093430A2093420AB4
:1034700030E020E02430310599F484E08093C40AE0
:10348000F0E0E0E0CF01DF91CF911F910F9108951F
:103490000C811D818F5F2B960417150719F7D4CF68
:1034A000C481D581C90101963B96CD2B09F52093A6
:1034B000C40A8BE0829FF001839FF00D1124EA5E25
:1034C000F54F5583448377836683109799F484E09E
:1034D000DF011D928A95E9F78BE0829FD001839FDF
:1034E000B00D1124AA5EB54F80E418968C93CACF14
:1034F0009C01C0CF8D919C911197918380831296EE
:103500008D919C9193838283E7CF0F931F93CF93E9
:10351000DF93EC018B018C859D85892B41F470E054
:1035200060E090E080E00E941B1A9D878C87EC850C
:10353000FD8580E0309749F010270127102715837B
:1035400004832E96D287C18781E0DF91CF911F91AE
:103550000F910895CF93DF93DC011C96ED91FC91C0
:103560003097B1F0EC0115821482128611861D8607
:103570001C8689890E94A60588890E94A6058A89D9
:103580000E94A6052E9686E0FE0111928A95E9F723
:10359000DF91CF910895FC011382128288EE93E0AF
:1035A000A0E0B0E084839583A683B78389E492E0AA
:1035B00091838083158614863E9686E0DF011D92F6
:1035C0008A95E9F70895DC0189EC92E08D939D934B
:1035D00084E0FB0101900D928A95E1F70895EF9246
:1035E000FF920F931F93CF93DF93FC0110921D0B5B
:1035F000C5ECDAE0DE0130E020E02830310569F486
:1036000090E0983009F042C01092900810928F0814
:1036100010921D0B25EC3AE044C0CD01855C9A4028
:103620000D911C9111970115110561F112964D91A3
:103630005C9113974115510529F1E080F1800E1539
:103640001F0501F50281138140175107D9F420931A
:103650001D0BDC01A753B54F86E0FB0101900D92D5
:103660008A95E1F78BE0829FF001839FF00D112492
:10367000EB53F54F1286DF91CF911F910F91FF9081
:10368000EF9008952F5F3F4F1B96B7CF9E01488163
:103690005981452BB1F44A815B81452B91F490937C
:1036A0001D0B84E0D90101900D928A95E1F7D901B3
:1036B000149686E0FB0101900D928A95E1F7F901DD
:1036C000D9CF9F5F2B969DCFEF92FF920F931F93C1
:1036D000CF93DF9300D000D0CDB7DEB74091B708CD
:1036E0005091B8084F3F540731F48091B908909138
:1036F000BA08019619F180912A0B90912B0B6091D9
:103700002E0B70912F0B9B0120953095282B392B78
:1037100042175307A9F52091300B3091310B2095BA
:103720003095E0912C0BF0912D0B2E2B3F2BE0913F
:10373000B908F091BA08E217F30711F586E0EDE653
:10374000F2E0A9E9B8E001900D928A95E1F786E0F0
:10375000EEE1FBE0AFE9B8E001900D928A95E1F768
:1037600088E090E09093A6088093A5088091910846
:10377000909192080E969093920880939108A5C01C
:103780008427952786239723892B99F42091B908BC
:103790003091BA0880912C0B90912D0B82279327A2
:1037A0006091300B7091310B86239723892B09F49C
:1037B00099C08091320B9091330B9093960880932F
:1037C00095088091340B9091350B909398088093D5
:1037D0009708E0909508F09096080091970810914E
:1037E0009808E5ECFAE080E0883009F084C0809326
:1037F0001D0B46E050E06FEF70E089E998E00E9411
:10380000474F86E0E9EBF8E0DF01282F1D922A956B
:10381000E9F7EEE1FBE0AFE9B8E0982F01900D92F7
:103820009A95E1F7EEE1FBE0AFEAB8E0982F01905E
:103830000D929A95E1F7F092C008E092BF081093BC
:10384000C2080093C10820912A0B30912B0B3093B2
:10385000B6082093B50820912C0B30912D0B309396
:10386000B8082093B70820E031E03093AE082093E9
:10387000AD083093A8082093A70828E030E03093E3
:10388000AA082093A9088093AB0894E09093AC0811
:1038900028E036E03093A6082093A5082FEC38E006
:1038A00030939408209393082AE230E030939208F2
:1038B00020939108BE016F5F7F4FDB011D928A95B7
:1038C000E9F785E998E00E94EF1A26960FB6F8947A
:1038D000DEBF0FBECDBFDF91CF911F910F91FF9043
:1038E000EF90089550939608409395083093980868
:1038F000209397086ECF20813181E216F306E1F420
:103900002281338102171307B9F49481911103C006
:103910009581992329F080931D0B349686E011CF71
:1039200096819111F8CF97819111F5CF90859111E2
:10393000F2CF91859111EFCF8F5F3B9655CFCF930B
:10394000DF93EC010E94641B809191089091920892
:103950008A9759F410927908809178088D7F809326
:103960007808DF91CF910C9487140E9487141D82F0
:103970001C82DF91CF9108959C01AB0170938E085A
:1039800060938D081616170654F480918B08909159
:103990008C088217930719F0B9010C943E4F0895D3
:1039A000EF92FF920F931F93CF93DF93E0918208E2
:1039B000F0918308C185D285209709F456C0E09024
:1039C0008808E1FE1FC08A8181111CC08091BB085C
:1039D0009091BC08978386838091B3089091B40836
:1039E000918380838091B5089091B60893838283F8
:1039F0008091BF089091C008982789279827089739
:103A000009F51A82E3FE31C08D81882371F18C8122
:103A100080937908809178088260809378088AE2A0
:103A200080937608688179816B527109809193083F
:103A300090919408DF91CF911F910F91FF90EF909B
:103A40000C94BC1C0E942E12F82E8A838823D1F27B
:103A50000E94C6058C012AE230E04091770870E0B0
:103A600060E08F2D0E94CD12CDCFDF91CF911F91BD
:103A70000F91FF90EF900895AF92BF92CF92DF9297
:103A8000EF92FF920F931F93CF93DF93E0908908FB
:103A9000F0908A08F701C48DD58DD09088082097C2
:103AA00061F5D6FC03C0F12CE12CC1C0EEE2F8E0D8
:103AB00090E080E0218121117CC022E1289FE0017B
:103AC000299FD00D1124C25DD74FFE0111922A9576
:103AD000E9F7C70184549A40959587954FEE5EEEBD
:103AE000849F9001859F300D949F300D1124288371
:103AF00081E08983F701D58FC48FD1FE32C0009158
:103B00009108109192080115110559F189818823B6
:103B1000A9F181FD26C05E01F2E0AF0EB11CC12CFF
:103B2000F50181915F0181114BC0C8010E942E12E5
:103B3000F50131978083882309F442C020919308CE
:103B400030919408295938404091770870E060E03E
:103B50000E94CD12F4E0CF1204C0F701818D806184
:103B6000818F898183FF0AC0877F89838D2D826041
:103B700080938808F701818D8F7E818F80918808DE
:103B800084FD04C087FD02C085FF26C0CE010796D4
:103B90000E9411158A818823E9F0F70184819581BB
:103BA00098878F83898184608983F701158E148EAD
:103BB0007ACF019672968430910509F07BCF73CF4E
:103BC000C394F5E0CF12ACCF809178088E7F8093BC
:103BD0007808C3CF1982E9CF80FF3FC0CE01079696
:103BE0000E9427158F818823D1F19885911145C0B6
:103BF000EC84FD84E114F10409F455CF95E0899F2C
:103C0000F0011124EA5FF64FF382E28200919308FB
:103C10001091940809591840009376081127C8019B
:103C200008968E0D9F1D009779F510927908B701BF
:103C300080919308909194080E94BC1CF092920885
:103C4000E0929108DF91CF911F910F91FF90EF903B
:103C5000DF90CF90BF90AF9008958C7019F6898156
:103C600081FF21CF8F81811124C01982F701158E28
:103C7000148E80E18093880816CF0E94C6057C01CF
:103C8000892B09F410CFC2CF0E942E12809379089D
:103C9000882369F2B8016F5F7F4F870130E020E031
:103CA0004F810E94CD1280917808826080937808BD
:103CB000BECFF701818D8061818FF5CEAF92BF922B
:103CC000CF92DF92EF92FF921F93CF93DF938430D6
:103CD00009F458C1C0918908D0918A082FEC38E0C6
:103CE000309394082093930830938C0820938B088A
:103CF0008330C9F4898D8F70833009F044C088897E
:103D00009989892B09F03FC088E0809388080E9438
:103D10003C1D8091880885FF15C610928E08109270
:103D20008D08198E51C0823009F005C18091870835
:103D30008F5F80938708811113C0809186088F5F01
:103D40008093860881110CC0809185088F5F8093D5
:103D50008508811105C0809184088F5F8093840855
:103D6000109292081092910810928E0810928D086D
:103D7000898D982F9D7F953059F48A8D8F5F8A8F1A
:103D8000883709F4198E109292081092910831C266
:103D90008823C9F328893989232B09F4C7C09A8D50
:103DA0002FEF290F2A8F9111EECF9B8D983031F094
:103DB0002FEF280F223050F4953041F4198E80E80F
:103DC000809388080E943C1D84E184C0392F95307F
:103DD00008F034E023E001C0220F3A95EAF72A8F79
:103DE0009F5F9B8F8F70833009F47DC008F06AC09D
:103DF000813009F406C4823031F61092C8088091EF
:103E0000C80882608093C80882E08093CF0894E05D
:103E10009093D0088093D1081092D2088CE290E061
:103E2000909392088093910880E68093C7088885D4
:103E30008093C30889858093C4088A858093C508C8
:103E40008B858093C6088C858093BF088D85809371
:103E5000C0088E858093C1088F858093C20886E054
:103E60008093B0088C819D819093BC088093BB089F
:103E70008E819F819093BE088093BD0880912A0B0C
:103E800090912B0B9093B4088093B30880912C0BE6
:103E900090912D0B9093B6088093B50888819981F5
:103EA0009093B8088093B7088A819B819093BA0851
:103EB0008093B908898D84FFCBC51092CA081092EF
:103EC000C908D5C2863029F0883019F0843009F04D
:103ED0005ACF81E18093C80888E290E090939208DD
:103EE0008093910821C084E0809388080E943C1D43
:103EF00080918B0890918C089093940880939308FC
:103F000080918D0890918E08892B09F44CC5888981
:103F10009989009709F447C58896909392088093F1
:103F2000910888E18093C80880E57FCF8F70833047
:103F300009F029CFE9CE853009F0A9C0E0918208C7
:103F4000F091830884819581892B09F41CCF10920C
:103F50008A081092890883EC98E0909394088093E3
:103F6000930890938C0880938B0810928E0810927F
:103F70008D08109292081092910888E0809388082A
:103F80000E94D01C80918D0890918E08009709F4B2
:103F9000FACE9C01245E3F4F309392082093910803
:103FA0003093A9082093AA08E0918208F091830831
:103FB00020852093AF0821E12093B0080896982728
:103FC000892798279093C0088093BF081092C20851
:103FD0001092C108848195819093BC088093BB089E
:103FE000868197819093BE088093BD0880912A0BAB
:103FF00090912B0B9093B4088093B30880912C0B75
:1040000090912D0B9093B6088093B5088081918193
:104010009093B8088093B708828193819093BA08EF
:104020008093B9088FEC98E090939408809393085C
:1040300081E10E94EA1380959095009709F45BC195
:104040009093C2088093C10885E48093A7081092DA
:10405000A8081092AE081092AD0880917A0890914D
:104060007B08019690937B0880937A089093AB0825
:104070008093AC081092B2081092B1080E94761496
:10408000809590959093B2088093B108B2C08091CA
:10409000A708853409F077CEC090A908D12CDC2C74
:1040A000CC248091AA08C80ED11C809191089091CF
:1040B00092088C159D0508F466CED0929208C092A5
:1040C00091088091AD088F7309F05DCE1091AE0814
:1040D000111159CEA0902A0BB0902B0BA114B10452
:1040E00039F480912C0B90912D0B892B09F441C050
:1040F0002091B7083091B8088091B008813149F516
:104100002F3F320739F48091B9089091BA0801968F
:1041100009F47DC080912E0B90912F0B8095909586
:104120008A299B2982179307A1F48091300B9091E3
:10413000310B8095909540912C0B50912D0B842B39
:10414000952B4091B9085091BA084817590709F4BE
:104150005EC0A216B30609F016CE2091B9083091C0
:10416000BA0880912C0B90912D0B2817390709F074
:104170000ACE0E947614019609F005CE8091B0080F
:10418000863009F4BBC0813109F441C0813009F0A7
:10419000FACD8091BB08883009F0F5CD1092BB08AC
:1041A0008091BD089091BE08873F4FEF940768F15A
:1041B00009969093BE088093BD088091B3089091B2
:1041C000B4089093B8088093B7088091B50890918F
:1041D000B6089093BA088093B908B092B408A09238
:1041E000B30880912C0B90912D0B9093B60880937F
:1041F000B50810928808DF91CF911F91FF90EF9042
:10420000DF90CF90BF90AF9008950896D2CF8CE109
:10421000C81AD108D0929208C092910883EC98E015
:1042200090939408809393088091C1089091C2085C
:10423000892BE1F44091BD085091BE086091BB0804
:104240007091BC08A091B308B091B408C091B508B2
:10425000D091B608E6E1FAE022E43AE02E173F07F3
:1042600061F430938308209382088DCD81E10E9410
:10427000EA13019609F087CDDDCF848195810097FF
:10428000C1F184179507A9F586819781009719F0E8
:104290008617970771F5808191810097D1F4E280AC
:1042A000F380EF28F1F4F0938308E09382081092F2
:1042B0008A081092890882E08093880883EC98E04D
:1042C00090938C0880938B0810928E0810928D0822
:1042D00057CE8F3F980729F4E280F380EF20E094D7
:1042E00011F38A179B0729F482819381C817D90794
:1042F000D1F23B96B3CF8FEF9FEFA2CE86E00E9424
:10430000EA13019609F03FCD4091BD085091BE08D7
:104310006091BB087091BC088091B3089091B4087B
:10432000E091B508F091B608C4E4DAE0298D2223C3
:10433000A9F0AC81BD814A175B0781F4AE81BF81D2
:104340006A177B0759F4A881B9818A179B0731F452
:10435000AA81BB81EA17FB0709F45BC16E962AE0CC
:10436000CE39D20719F310F38091C8088F738230C9
:1043700061F45093810840938008ECEBFAE080E010
:10438000843009F091C08093C40A8091C80882FDEE
:10439000FACC84E18093C80888E290E09093920878
:1043A0008093910880E58093C7083091C20880917E
:1043B000C6088093C2082091C1088091C5088093E7
:1043C000C1082093C5089091C0088091C4088093CB
:1043D000C0089093C4088091BF088093C40A40919C
:1043E000C3084093BF088093C3083F5F3093C6085B
:1043F00031110DC02F5F2093C508211108C09F5FA8
:104400009093C408911103C08F5F8093C30880917B
:10441000BB089091BC0890938108809380082091FC
:10442000BD083091BE083093BC082093BB08909320
:10443000BE088093BD088091B3089091B408909312
:10444000B8088093B7088091B5089091B60890930A
:10445000BA088093B908B092B408A092B3088091CA
:104460002C0B90912D0B9093B6088093B50880E4A7
:104470008093AF0880919108909192089093A90839
:104480008093AA081092CE081092CD081092CC0802
:104490001092CB0886E00E94EA1380959095909345
:1044A000CC088093CB08D0CD219131918F5F4217FA
:1044B000530709F065CF1092C40AE4E4FAE090E0F3
:1044C00080E0D0E0C0E08430910531F484E0809356
:1044D000C40A209781F457CC3E2F2F2FA18DA11114
:1044E00063C08093C40A2EE1289FE001299FD00D6C
:1044F0001124CC5BD54FD0938A08C093890883E000
:104500008A8F888F1E8A84E08F8B1B8E5D834C83FD
:104510007F836E838091B3089091B40899838883D8
:104520008091B5089091B6089B838A8381E0898F3A
:10453000809184088C87809185088D87809186087A
:104540008E87809187088F8781E090E0998B888B98
:104550008091C2088B878091C1088A878091C008AA
:1045600089878091BF08888781E090E00E9455404C
:104570008091C708982F907F913508F442C08295AA
:104580008F708550990B880F991F880F991FE12F05
:10459000F0E0E817F9072CF4E756F74F36A9311188
:1045A00012C01093C40A2DC0A73031F4209731F007
:1045B000B28DAA8DAB1710F03C2F2D2F01967E9651
:1045C000C32FD22F80CF313011F41F5FE0CF27A946
:1045D0003230D9F42430C9F41093C40A80AD91ADBF
:1045E00089279827892790938108809380088130B4
:1045F00042E0940710F080E092E09B8B8A8B9D8BC9
:104600008C8B80E18093C808FACB222351F2120FE1
:10461000BECFD0938A08C0938908109288089091E1
:10462000C80892FF07C0198E80E2809388080E9414
:104630003C1DA9CB8091C70882958F70880F880F89
:104640008093C40AC81AD108760184E1E81AF108F7
:10465000F0929208E09291082F70223021F4892F75
:104660008F738231D1F0E114F10419F4892F837032
:10467000A1F039852A858B855091BF084885541350
:10468000C2C14091C0084313BEC13091C10832136A
:10469000BAC12091C2082813B6C194FF49C06889E5
:1046A00079896115710509F443C0CE010C960E9409
:1046B00022403091C30880917C08381339C0209182
:1046C000C40880917D08281333C09091C50880915B
:1046D0007E0898132DC08091C60840917F088413EE
:1046E00027C03C872D879E878F87988D8B8D811162
:1046F00018C08E892A8D921B282F269526952695DF
:10470000921B890F8E8B97FD91952F89322F3695AD
:104710003695231B920F9F8B869586958695890FDC
:10472000888F81E080938808888D8A8F198A188AFB
:10473000298DE22FEF70E150E83008F024CBF0E053
:104740008827EA55FC4D8F4F0C94F64CAE23C723B7
:104750003124E6240F2520250325DF2480918808B5
:1047600080FF11CB83E0898F80E480938808198AC9
:10477000188AE114F10431F082E480938808C701BB
:104780000E94554010928E0810928D08C0CA8091E8
:10479000880880FF5FC08091C8088F73823109F05C
:1047A00059C08091C708982F907F913598F18295D4
:1047B0008F708550990B880F991F880F991FE12FD3
:1047C000F0E0E817F9072CF4E756F74F36A9311156
:1047D00003C01093C40A1EC0313011F41F5FEFCF25
:1047E00027A9323099F5243089F51093C40A80AD99
:1047F00091AD892798278927909381088093800815
:10480000813012E0910710F080E092E09B8B8A8B60
:104810009D8B8C8B83E0898F8091BF0888878091E6
:10482000C00889878091C1088A878091C2088B87D8
:1048300081E090E00E94554082E480938808198AC4
:10484000188A10929208109291089CCF222309F2A4
:10485000120FB5CF80E2809388080E943C1D198E0C
:1048600094CD8091C80880FF20C024FD1EC0888997
:104870009989892B09F087CAC60143970E94554040
:1048800080918808982F906190938808EF2819F0FC
:104890008261809388080E943C1D81E090E0998BA2
:1048A000888B88E0898F1B8E14CB85FF14C0809184
:1048B000CD089091CE08982789279827AC014153BD
:1048C000574F5093940840939308E81AF90AF092CE
:1048D0009208E0929108409191085091920890912D
:1048E00088084115510541F024FD06C0926090935F
:1048F0008808CA010E9455408091C908282F30E0DD
:10490000322F22278091CA08820F932F911D9093F6
:104910008108809380082C893D892817390710F079
:10492000892B21F43093810820938008809180089E
:10493000909181089B8B8A8B80918808837009F401
:1049400022CA20CF84FF0AC010928E0810928D08D0
:1049500081E090E0998B888B84E0A4CF20918D0832
:1049600030918E0821153105B9F080FF02C0198AF7
:10497000188A88899989009789F48A899B8982177E
:10498000930720F490938E0880938D0880918D0872
:1049900090918E08998B888B1B8EAACA90938E0853
:1049A00080938D08F9CF8091880881FFECC988E257
:1049B00090E0909392088093910880E1B3CA80912F
:1049C000880880FFE0C9198E80E12FCEE114F10440
:1049D00019F0C7010E94554080918808817090911C
:1049E000C80890FF15C0882381F087E0898F1A8E50
:1049F000198A188A81E090E00E94554080E18093F6
:104A000088080E943C1D80E165CA86E0898FF2CF4C
:104A1000882399F085E0898F198A188AB4C9E1142E
:104A2000F10419F0C7010E9455408091C80880FF29
:104A300004C087E0898F1A8EDDCFEF2821F7A3C944
:104A40008091880880FF9FC987E0898F1A8E9BC953
:104A500082E08093C9081092CA0809CDCF93DF93F2
:104A6000EC012C853D852115310529F490E080E08D
:104A7000DF91CF910895EA89EE23C1F381E08B8B1A
:104A800085E0E89FF0011124EA5FF64F8E859F854F
:104A9000079693838283309383082093820885E06E
:104AA0000E945E1E8091910890919208892BF1F2EC
:104AB000CE010E960E949F1C81E090E0D9CF8F928C
:104AC0009F92AF92BF92CF92DF92EF92FF92CF93DD
:104AD000DF9380910509882309F41FC1D0917708DD
:104AE000D11151C089E30E947A11882309F449C089
:104AF00060910F0A7091100A6B0126E0C20ED11C62
:104B0000C11438E0D30628F06B014AEFC41A47E01D
:104B1000D40A80E00E94C21060E08AE30E9458112B
:104B2000E82E60E08AE30E945811F82EF092100AF5
:104B3000E0920F0A60E08AE30E945811B82E60E00C
:104B40008AE30E945811C82F60E08AE30E9458113E
:104B5000A82E40E46EE180E80E948610A7FEE8C01F
:104B6000E11458E0F50608F0E3C0D092120AC092B2
:104B7000110A9C2F8B2D04979093140A8093130A8B
:104B8000DFEFD0937708F0907708FF2009F472C028
:104B900081E0809378088F2D0E94C605EC019093E8
:104BA000920880939108892B09F4EFC042E650E007
:104BB00069E978E08F2D0E940E11C090A508D09071
:104BC000A60888E0C816D10409F0CDC0F092790893
:104BD0002E97D0939208C09391082091B3083091FA
:104BE000B408E0912A0BF0912B0BC9018E279F2767
:104BF00040912E0B50912F0B84239523892B49F53F
:104C00004091B5085091B60860912C0B70912D0B16
:104C1000CA0186279727A091300BB091310B8A23C8
:104C20009B23892BB1F48091B7089091B808E817BD
:104C3000F90709F080C08091B9089091BA08681707
:104C4000790709F078C06FE978E083EB98E00E947B
:104C5000EF1A81E00E945E1E809191089091920867
:104C6000892B21F00E94641B0E9487148091780890
:104C700080FD8BC00E946C036B017C018091240B32
:104C80009091250BA091260BB091270B460157015F
:104C9000881A990AAA0ABB0AC4E4DAE0D0938A08FF
:104CA000C0938908B7FC08C182E00E945E1E809113
:104CB000910890919208892B21F00E94641B0E9418
:104CC00087146E963AE0CC3BD30741F7B7FC25C07A
:104CD0004AEFC40ED11CE11CF11CC092240BD092EF
:104CE000250BE092260BF092270BC6E1DAE0D09379
:104CF0008308C093820885E00E945E1E809191081F
:104D000090919208892B21F089859A850E949F1C99
:104D10002B965AE0C234D50751F7DF91CF91FF901F
:104D2000EF90DF90CF90BF90AF909F908F900895BD
:104D30000E943C1126CFE5ECFAE080E0883019F4BF
:104D400080931D0B86CF608171812617370741F450
:104D5000628173814617570719F480931D0B73CF37
:104D60008F5F3B96EBCF28E0C21626E0D20669F4AF
:104D70001092920810929108AA9760F4809191087D
:104D800090919208892B09F06FCF0E943C111092EC
:104D9000770870CF8091AD089091AE08811531E011
:104DA000930701F18115924049F72091BF08309196
:104DB000C00880912A0B90912B0B28173907F1F628
:104DC0002091C1083091C20880912C0B90912D0B3D
:104DD0002817390799F66FEA78E085EB98E00E948A
:104DE000EF1ACCCFE090BF08F090C00880912A0B5A
:104DF00090912B0BE816F90609F6C091C108D091E5
:104E0000C20880912C0B90912D0BC817D90709F07F
:104E1000B5CF6FEA78E085EB98E00E94EF1A80E06A
:104E200092E09093AE088093AD0886E0EFEAF8E058
:104E3000A9EBB8E001900D928A95E1F786E0EEE1EA
:104E4000FBE0AFEAB8E001900D928A95E1F786E0C9
:104E5000EEE1FBE0AFE9B8E001900D928A95E1F751
:104E600086E0E9EBF8E0A9E9B8E001900D928A95B7
:104E7000E1F78091B5089091B6089093C0088093AF
:104E8000BF088091B7089091B8089093C2088093AA
:104E9000C108F092B608E092B508D093B808C09364
:104EA000B708D092A608C092A5088AE290E0909335
:104EB00092088093910862CFEC8DFD8D309709F4B4
:104EC00000CF86859785A089B189A7019601281B07
:104ED000390B4A0B5B0BDA01C901B7FDF2CE83E057
:104EE0000E945E1E0E946C03E0918908F0918A087E
:104EF000048CF58DE02D665F7F4F8F4F9F4F668747
:104F00007787808B918BD3CECF93DF93EC010E9478
:104F10005F2589890E94A605198ADF91CF9108959E
:104F20000F931F93CF93DF931F92CDB7DEB78C0102
:104F30000E945F25F8018189882389F041E050E0D3
:104F4000BE016F5F7F4F0E940E11019741F489816E
:104F500090E00F90DF91CF911F910F9108958FEF07
:104F60009FEFF7CFEF92FF920F931F93CF93DF93B3
:104F70007C018B01EA010E945F25F701818988236A
:104F800069F1AE01B8010E940E118C01F701C189CF
:104F90008C2F0E94C6058017910769F48C2F0E9400
:104FA000A605F701118AC801DF91CF911F910F91DA
:104FB000FF90EF90089585E0C89FF0011124EA5F0B
:104FC000F64F80819181800F911F91838083828130
:104FD0009381801B910B93838283E5CF80E090E0E7
:104FE000E3CFCF93DF93EC010E945F258989DF91A6
:104FF000CF910C94C605CF93DF93EC010E945F25FF
:10500000898981110E94A6058889898B188ADF9178
:10501000CF910C94C605CF92DF92EF92FF920F933F
:105020001F93CF93DF9300D01F92CDB7DEB78C01D3
:105030007B016A010E945F25D70112968C9112971D
:1050400081110EC013968C911397811109C014968B
:105050008C911497811104C015968C918823E9F0E6
:10506000C114D104D1F0D8011C96ED91FC91D70167
:1050700012962D913C9113973A83298314968D9122
:105080009C919C838B837C2D6D2D309779F1778358
:1050900066833183208393838283F8018485958599
:1050A000892BB1F18289811133C08EE096E00E9494
:1050B0002E12D80152968C9352972BE230E01F9615
:1050C0003C932E931E9721E090E0811101C020E0D7
:1050D000822F0F900F900F900F90DF91CF911F9123
:1050E0000F91FF90EF90DF90CF900895CE01019641
:1050F0000E941B1AF80195878487009749F0980150
:10510000225F3F4FDC011A963C932E931997C5CF2F
:1051100080E090E0DECF4F925F926F927F928F920D
:105120009F92AF92BF92CF92DF92EF92FF920F9336
:105130001F93CF93DF93CDB7DEB763970FB6F89485
:10514000DEBF0FBECDBF6C017B013A01FB01DB016D
:105150008D91882309F444C08E32D1F380538A3074
:10516000B8F3F60142815381648175818091D40E38
:105170009091D50EA091D60EB091D70E4817590731
:105180006A077B0709F455C28601085F1F4F0E941A
:105190006C036F7077277C5FC8010E94851A81308D
:1051A00009F04CC289EC92E09A838983F6018281EE
:1051B0009381A481B5818B839C83AD83BE8345E3BA
:1051C00050E0BE016F5F7F4FC8010E940B28892B02
:1051D00009F057C0F12CE12CC8010E94AA1A39C06D
:1051E00030E020E090E080E05AE04191442309F172
:1051F000843091050CF0B5CF4E3271F42F3F31055C
:1052000011F00CF0AECFD301A80FB91F12962C935A
:10521000019630E020E0E9CF529FB001539F700D1E
:105220001124242F440F330B20533109260F371F2D
:10523000DCCF2F3F310511F00CF093CF8430910576
:105240000CF08FCF680E791EF3012283EE24E394D5
:10525000F12CC70163960FB6F894DEBF0FBECDBF29
:10526000DF91CF911F910F91FF90EF90DF90CF9042
:10527000BF90AF909F908F907F906F905F904F9076
:1052800008950E946C03F6017783668342E050E044
:10529000B6016A5F7F4FC8010E94941381E090E0DD
:1052A0009A83898342E050E0BE016F5F7F4FC8015F
:1052B0000E94941380E091E09A83898342E050E059
:1052C000BE016F5F7F4FC8010E9494131A8219823A
:1052D00042E050E0BE016F5F7F4FC8010E9494130F
:1052E00042E050E0BE016F5F7F4FC8010E949413FF
:1052F00042E050E0BE016F5F7F4FC8010E949413EF
:105300005701F7018081882301F17501F70181912F
:105310002F01882311F08E32B1F447018A189B08BF
:105320001814190474F48D8641E050E0BE01635FE7
:105330007F4FC8010E949413A401B501C8010E94C7
:1053400094135201DECF7201E1CF1D8641E050E09F
:10535000BE01635F7F4FC8010E949413E12CFF24BC
:10536000F394FA82E98242E050E0BE016F5F7F4F22
:10537000C8010E949413FA82E98242E050E0BE0123
:105380006F5F7F4FC8010E949413C8010E942E25B1
:10539000892B09F41FCFA3E0AA2EB12C230122E010
:1053A000420E511C26C0F601628073808480958075
:1053B000B801CE0101960E9451138B819C81AD8171
:1053C000BE81681679068A069B0629F4C8010E94E8
:1053D0004213C59759F1FEEFEF2EFF24FA94E1E056
:1053E000AE1AB10809F4F8CEFFEFEF16FF0609F088
:1053F000F3CE0E946C033B014C01C8010E94FB27C5
:105400001816190684F20E946C0366197709880938
:105410009909693873418105910508F001C162E37A
:1054200070E080E090E00E943A03E7CFC8010E945C
:10543000F1270C970CF4F8C04CE050E0BE016F5F10
:105440007F4FC8010E948B168B819C8198278927EA
:1054500098279A8B898BF6014681578129813A8159
:105460004217530711F497FD08C0C8010E94842712
:10547000ECEFEE2EFF24FA94B2CF8F709270892B4E
:1054800041F0C8010E9484277BEFE72EFF24FA94A5
:10549000A6CF6F807884762467247624F12CE12CC3
:1054A00061147104D1F4C8010E9484276AEFE62ECA
:1054B000FF24FA9494CF8D85811117C0C8010E94F2
:1054C0007713C8010E947713C8010E947713C8019F
:1054D0000E947713FFEFEF1AFF0A8D819E819827B4
:1054E00089279827E816F906A8F441E050E0BE01A4
:1054F000635F7F4FC8010E948B168D858823D9F288
:105500008D859FEF980F9D878823A9F2C8010E947F
:105510007713F6CF912C812C41E050E0BE016D5EF7
:105520007F4FC8010E948B168B89982F907C61F465
:10553000882389F08B899FEF980F9B8B882341F0FC
:10554000C8010E947713F6CFC8010E9477131B8A07
:105550008B898111E1CF42E050E0BE01615F7F4F56
:10556000C8010E948B1642E050E0BE01635F7F4F8E
:10557000C8010E948B16C8010E947713C8010E94BF
:105580007713C8010E947713C8010E94771342E085
:1055900050E0BE016F5E7F4FC8010E948B168F8561
:1055A000988981159140E1F48D859E858115914002
:1055B000B9F489899A898115944041F0C8010E9403
:1055C000842757EFE52EFF24FA9409CF44E050E0FA
:1055D000B201C8010E948B16EE24E394F12CFFCE99
:1055E000F12CE12C89899A89982789279827E81630
:1055F000F90638F4C8010E9477132FEFE21AF20A75
:10560000F1CF8FEF881A980A8614970409F084CF97
:10561000C8010E94842736EFE32EFF24FA94DFCEE0
:10562000EE24EA94FE2CDBCE9DEFE92EFF24FA94C3
:10563000D6CE8EEFE82EFF24FA940BCEF12CE12C7F
:1056400008CEAF92BF92CF92DF92EF92FF920F936C
:105650001F93CF93DF93CDB7DEB7A8970FB6F8941B
:10566000DEBF0FBECDBF7C015B016A0109EC12E019
:105670001A8309831B821C821D821E82CE01099619
:105680000E94CB1A1CA30BA31DA21EA21FA218A628
:105690008091C20E9091C30EA091C40EB091C50E20
:1056A0008F8F98A3A9A3BAA38B839C83AD83BE835A
:1056B00018861F82AE014D5D5F4FB501CE01019688
:1056C0000E948B2881309105B1F4D701ED91FC91B6
:1056D0000488F589E02D1E8F0D8F8DA19EA1AFA1AD
:1056E000B8A58F8F98A3A9A3BAA3A601BE01635E34
:1056F0007F4FC7011995A8960FB6F894DEBF0FBE6D
:10570000CDBFDF91CF911F910F91FF90EF90DF9070
:10571000CF90BF90AF900895AF92BF92CF92DF929B
:10572000EF92FF920F931F93CF93DF93CDB7DEB726
:10573000A8970FB6F894DEBF0FBECDBF7C015B010A
:105740006A0109EC12E01A8309831B821C821D8204
:105750001E82CE0109960E94CB1A1CA30BA31DA288
:105760001EA21FA218A68091C20E9091C30EA091F6
:10577000C40EB091C50E8B839C83AD83BE83188607
:105780001F82AE014D5D5F4FB501CE0101960E94B3
:105790008B2881309105B1F4D701ED91FC910684FD
:1057A000F785E02D1E8F0D8F8DA19EA1AFA1B8A50D
:1057B0008F8F98A3A9A3BAA3A601BE01635E7F4FF2
:1057C000C7011995A8960FB6F894DEBF0FBECDBFDE
:1057D000DF91CF911F910F91FF90EF90DF90CF90CD
:1057E000BF90AF900895CF93DF93EC010E945F25A7
:1057F000EC85FD8587818823D9F0DF01189621E0AB
:105800008D91811110C0215030E0322F2227330FAB
:1058100084859585280F391F80E09AE0821B930BC1
:10582000DF91CF9108952F5F253051F724E0ECCF21
:1058300080E09AE0F5CFAF92BF92CF92DF92EF92E5
:10584000FF920F931F93CF938C015B017A016A0142
:105850000E945F250115110509F45DC0F8018181E1
:10586000882309F458C0867009F055C03896C1E005
:105870008191811133C0C150F801EC0FF11D878176
:1058800081110DC080E092E00E942E12F801EC0F11
:10589000F11D87838823E1F2F80115861486A7019C
:1058A0004C195D094A0D5B1DF801648575859601EB
:1058B000EC0FF11D87810E94FE12C81AD90AF80167
:1058C00024853585820F931F958784871C141D04BA
:1058D00054F4C43009F4BCCFCF5FD4CFCF5FC53010
:1058E00039F6C4E0C9CF0E946C03665F7F4F8F4FCB
:1058F0009F4FF80166877787808B918BC7018C1942
:105900009D09CF911F910F91FF90EF90DF90CF9065
:10591000BF90AF90089590E080E0F3CFFC018485C4
:1059200095850C941B2CCF93DF931F92CDB7DEB7D8
:10593000698341E050E0BE016F5F7F4FFC018485C9
:1059400095850E941B2C0F90DF91CF910895CF93E6
:10595000DF93EC010E945F25EC85FD85309739F0DF
:10596000818182FF08C081E09281911101C080E0B5
:10597000DF91CF91089581E0FBCFCF93DF93EC01CE
:105980008C859D85009769F0FC012181222349F0D7
:1059900002960E941115EC85FD85818182FF07C06A
:1059A00011821D861C86DF91CF910C945F25826049
:1059B0008183F7CFCF92DF92EF92FF920F931F93E5
:1059C000CF93DF938C01EB016A01DC01ED91FC9137
:1059D0000488F589E02D1995EA80FB806C817D8132
:1059E0005C2D4D2D8091420A9091430A01968115BC
:1059F000BDE79B0710F080E090E1382F292FE4E409
:105A0000FAE0DF01C0E0C430D1F49093430A809300
:105A1000420A1092C40A80E0D0E0C0E08430F1F481
:105A20008093C40A209711F590E080E0DF91CF9138
:105A30001F910F91FF90EF90DF90CF9008955996AE
:105A4000DC915997DD2339F01496CD90DC901597B1
:105A5000C216D30659F2CF5F5E96D5CFAE2F9F2FD9
:105A6000B18DB1113CC08093C40AEF0182E0898FEF
:105A7000809184088C87809185088D878091860825
:105A80008E87809187088F8780E092E09B8B8A8B3E
:105A90009D8B8C8B81E090E0998B888B1B8E8A8FFD
:105AA00083E0888F1E8A80E18F8B3D832C835F8308
:105AB0004E83F982E8827B836A83898D8F7009F433
:105AC000B3CF0E945F25898D8F708330B1F78C8DA5
:105AD0009D8DF8019587848781E090E0A7CFB7304E
